:020000040000FA
:10000000000204000000000024A7000024A7000054
:1000100024A7000024A7000024A7000024A70000B4
:1000200024A7000024A7000024A7000024A70000A4
:1000300024A7000024A7000024A7000024A7000094
:1000400024A7000024A7000024A7000024A7000084
:1000500024A70000587A00007E7A000024A7000040
:1000600024A7000024A7000024A7000024A7000064
:1000700024A7000024A7000024A7000024A7000054
:1000800024A7000024A7000024A7000024A7000044
:1000900024A7000024A7000024A7000024A7000034
:1000A00024A7000024A7000024A7000024A7000024
:1000B00024A7000024A7000024A7000024A7000014
:1000C00024A7000024A7000024A7000024A7000004
:1000D00024A7000024A7000024A7000024A70000F4
:1000E00024A7000024A7000024A7000024A70000E4
:1000F00024A7000024A7000024A7000024A70000D4
:1001000024A7000024A7000024A7000024A70000C3
:1001100024A7000024A7000024A7000024A70000B3
:1001200024A7000024A7000024A7000024A70000A3
:1001300024A7000024A7000024A7000024A7000093
:1001400024A7000024A7000024A7000024A7000083
:1001500024A7000024A7000024A7000024A7000073
:1001600024A7000024A7000024A7000024A7000063
:1001700024A7000024A7000024A7000024A7000053
:1001800024A7000024A7000024A7000024A7000043
:1001900024A7000024A7000024A7000024A7000033
:1001A00024A7000024A7000024A7000024A7000023
:1001B00024A7000024A7000024A7000024A7000013
:1001C00024A7000024A7000024A7000024A7000003
:1001D00024A7000024A7000024A7000024A70000F3
:1001E00024A7000024A7000024A7000024A70000E3
:1001F00024A7000024A7000024A7000024A70000D3
:10020000FFFFFF00FFFFFF0024A7000024A700005E
:1002100024A7000024A7000024A7000024A70000B2
:1002200024A7000024A7000024A7000024A70000A2
:1002300024A7000024A7000024A7000024A7000092
:1002400024A7000024A7000024A7000024A7000082
:1002500024A70000587A00007E7A000024A700003E
:1002600024A7000024A7000024A7000024A7000062
:1002700024A7000024A7000024A7000024A7000052
:1002800024A7000024A7000024A7000024A7000042
:1002900024A7000024A7000024A7000024A7000032
:1002A00024A7000024A7000024A7000024A7000022
:1002B00024A7000024A7000024A7000024A7000012
:1002C00024A7000024A7000024A7000024A7000002
:1002D00024A7000024A7000024A7000024A70000F2
:1002E00024A7000024A7000024A7000024A70000E2
:1002F00024A7000024A7000024A7000024A70000D2
:1003000024A7000024A7000024A7000024A70000C1
:1003100024A7000024A7000024A7000024A70000B1
:1003200024A7000024A7000024A7000024A70000A1
:1003300024A7000024A7000024A7000024A7000091
:1003400024A7000024A7000024A7000024A7000081
:1003500024A7000024A7000024A7000024A7000071
:1003600024A7000024A7000024A7000024A7000061
:1003700024A7000024A7000024A7000024A7000051
:1003800024A7000024A7000024A7000024A7000041
:1003900024A7000024A7000024A7000024A7000031
:1003A00024A7000024A7000024A7000024A7000021
:1003B00024A7000024A7000024A7000024A7000011
:1003C00024A7000024A7000024A7000024A7000001
:1003D00024A7000024A7000024A7000024A70000F1
:1003E00024A7000024A7000024A7000024A70000E1
:1003F00024A7000024A7000024A7000024A70000D1
:10040000AF242200007F22000001880000000000CD
:100410000C000700608B290001002000110007007C
:10042000000020000000E000020032000000020096
:10043000000000008CA50200000000000040DA006F
:100440000000FE004440A900603320000000E000EE
:100450000300320000002000A00188004440A800F2
:100460000000060091018800800078000000EB0089
:1004700015003700E280400032A0B4009101BA00BC
:10048000E280400032A0B4009102BA00E280400055
:1004900032A0B4000002EB00472BDE00F507B200EB
:1004A000602CE10004003A000059EB008301E900F0
:1004B000FDFF3E00040037006128E100010032002A
:1004C0000082EB00040007001101BA000200E00006
:1004D000E8FF3A00000006003159BA008301E90044
:1004E0000C0032002159BA008301E90008003200F3
:1004F0000400E00003003A00E280400032A0B400B3
:10050000F5FF370011D9BA008301E900FAFF3A007C
:100510008100E800E180400032A0B4000000060045
:1005200000000000000000000000000000000000CB
:1005300000000000000000000000000000000000BB
:1005400000000000000000000000000000000000AB
:10055000000000000000000000000000000000009B
:1007D000889FBE008A9FBE00010578000100E000EE
:1007E0000400350008003C000000E000200032005A
:1007F0000500370060001000E080180002003B0098
:1008000001F02C001A0037000004BE006011B8008F
:100810006B0920000982CF00020039000882CF0056
:100820000441B000694252000E00320008003B0053
:1008300082817100610164008904D1000884D300C1
:100840008B05E8000442E800F9FF3A000500370094
:100850000804440089844C008B05E9000442E90047
:10086000FBFF3A002C0107000AF0A70001F0A000EE
:100870004F05BE004F04BE0000000600F4FF2F002D
:100880004B0137001400200049013700889FBE004B
:100890008A9FBE008C1F780060010700670133004B
:1008A00003866C006450E1002E0032006420E100F9
:1008B000330032006150E1002F0032006120E1007E
:1008C0003100320085855500EB07B000090020009B
:1008D00008042000050037000804440089844C0007
:1008E0000A0031000603430087834B0000015300D8
:1008F00081815B00F8FF33000203BE000800A00006
:100900000804440089844C00F6FF3900C639DD0034
:100910008301730001003200130020008904D1001C
:100920000884D3000998A300050032000800A7003E
:100930000300A0008904D1000884D3008B05E800DF
:100940008904D1000884D3000001EB000281D200A9
:10095000F100070001F0A1000CF0A70001F0A000D9
:100960003F0137006420E100410132000801BE0070
:100970000200BE00F7FF37006120E1003C013200B9
:100980006000B800F3FF37000000200001F82700E6
:10099000F0FF370003F0A200889FBE008A9FBE00D0
:1009A0008C1F78001D010700240133006450E10012
:1009B0004F0032006420E1005200320003826C00DC
:1009C00007003B000905D0000306D000820F540049
:1009D0000C065D0002003900020032008901780037
:1009E000030678008582550004003D000003FD00E9
:1009F0008103FD008502EA008B854200840F7200AE
:100A000002003B0060001000E08018006011B80098
:100A10000005EB007A28E1000A00390006007800A2
:100A2000C75DDD00F707B200878075002D00370035
:100A3000828171000A017800610560008180D10027
:100A40000080D3008502E900F9FF3B000604400066
:100A50008784480002003B0060041400E0841C000E
:100A60000988A300070032008A8171008281710029
:100A7000610164008904D1000884D3008B05E8007B
:100A8000170037000978A30013003A000B00E000BC
:100A9000130034008B05E9000804440089844C00ED
:100AA0000A4474000978A3000D003A000B00E0002E
:100AB000070034008B05E9000804440089844C00D9
:100AC00001003A000B0020000978A300F7FF320074
:100AD0000001EB0002003700828171000A017800FA
:100AE0008D0007000CF0A70001F0A000DC0037002B
:100AF0006420E10002003A00838F6C00DC003300C8
:100B00000801BE000200BE00D5003700889FBE006D
:100B10008A9FBE008C1F7800C0000700C70033000A
:100B200003866C006450E100240032006420E10080
:100B3000270032006150E100220032006120E10014
:100B4000210032008B854200EB07B1000134B80070
:100B5000003AB8000804420089844A00013AB8000B
:100B60000030B8008880400009014A0004003300CA
:100B70000000400081804800020149008B05E90027
:100B8000C909DD008301700001003200130020005C
:100B9000C814DE004814DD004709DE001200B20070
:100BA000C808DE00088470005B00070001F0A100A7
:100BB0000CF0A70001F0A000A90037006120E100BF
:100BC000AB0032000801BE000200BE00F7FF370094
:100BD0006150E100FCFF3A00A50037000001BE00B3
:100BE000A60007000470A70003F0A10003F8A3000B
:100BF00013003A006509B100100032000900350009
:100C00006928E1000200350001002800000005000D
:100C100000004000818048008502E900FCFF3A00A6
:100C200000000600F88F4200050035008100D10069
:100C30000080D3008502E800FCFF3A0000000600B7
:100C40008000EB00000005006022B80006022000D2
:100C50000000D0008180D2000482D2008582D200C0
:100C60000000A0000202520083825A0003003100FB
:100C70000202420083824A000000A1000603E9004C
:100C8000F3FF3A0000000600EFFF07000400BE007B
:100C9000000006000001BE00780007000470A700F5
:100CA00003F0A1006509B100160032000D00350007
:100CB0006828E10006003500F0FF2F00F1FF270053
:100CC0000300E00013003B000100280000000500C5
:100CD00000004000818048008502E900FCFF3A00E6
:100CE00008003700F88F420002003C008000EB0053
:100CF000000005008100D1000080D3008502E800DB
:100D0000FCFF3A000300E00002003B00600010001E
:100D1000E08018000000060081002000618055007E
:100D20000B003D000B00200061FE2F000100E100E0
:100D30001D00340082817100610164008904D100CA
:100D40000884D3000000E800FAFF3A007100200098
:100D500061006400030070000200600009003200BE
:100D600061044400E0844C000988A50005003200BD
:100D70008B05E8006808E10002003A008904D10010
:100D80000884D300F20F20000258E10005003D0066
:100D9000C75DDD00F907B2008980750008007800A2
:100DA000000006000BF827008B007800000005000B
:100DB000889FBE008A9FBE00841F7800170007002E
:100DC0004F00780011003300F0FF2F00838F6C007C
:100DD00006003B00040565000A00A7000800370074
:100DE00009F0A6001000200008003700820F540010
:100DF000838F5C00030039001000200001003E00DA
:100E00000000200009F0A7000000EA004F05BE0026
:100E10004F04BE000000E000000006000004BE0019
:100E2000160007000003BE000405BE000200BE005D
:100E300012000700844F7500000006000200BE008B
:100E40006450E100050036006420E1000200360035
:100E50000968A30001003A000800BE000160A0007C
:100E60004F0678004F05BE004F04BE00000006008C
:100E7000F0FF2F00F1FF2700F9FF3700C70ADE005F
:100E8000F107B200F50FB20008003200E1CF4200D6
:100E9000020032000170A00024000500810F7000E4
:100EA000010032000408050044000500810F7000B5
:100EB00002003A00140005008502E900000040002D
:100EC00081C04800FCFF3B000170A0002400050029
:100ED000005E0000BCE20000613F0000DD83000016
:100EE000C29C00007E200000A3FD00001F41000006
:100EF0009DC30000217F0000FCA20000401E0000F6
:100F00005F010000E3BD00003E60000082DC0000E5
:100F1000237D00009FC10000421C0000FEA00000D5
:100F2000E1BF00005D03000080DE00003C620000C5
:100F3000BEE00000025C0000DF810000633D0000B5
:100F40007C220000C09E00001D430000A1FF0000A5
:100F500046180000FAA40000277900009BC5000095
:100F600084DA000038660000E5BB00005907000085
:100F7000DB85000067390000BAE400000658000075
:100F800019470000A5FB000078260000C49A000065
:100F9000653B0000D9870000045A0000B8E6000055
:100FA000A7F900001B450000C69800007A24000045
:100FB000F8A60000441A000099C70000257B000035
:100FC0003A64000086D800005B050000E7B9000025
:100FD0008CD20000306E0000EDB30000510F000015
:100FE0004E100000F2AC00002F71000093CD000005
:100FF000114F0000ADF30000702E0000CC920000F5
:10100000D38D00006F310000B2EC00000E500000E4
:10101000AFF10000134D0000CE900000722C0000D4
:101020006D330000D18F00000C520000B0EE0000C4
:10103000326C00008ED00000530D0000EFB10000B4
:10104000F0AE00004C12000091CF00002D730000A4
:10105000CA94000076280000ABF500001749000094
:1010600008560000B4EA000069370000D58B000084
:1010700057090000EBB50000366800008AD4000074
:1010800095CB000029770000F4AA00004816000064
:10109000E9B70000550B000088D60000346A000054
:1010A0002B75000097C900004A140000F6A8000044
:1010B000742A0000C8960000154B0000A9F7000034
:1010C000B6E800000A540000D78900006B35000024
:1010D0003E2000000008000020080000001B000067
:1010E0005B440000001B00005B00000044000000A7
:1010F0001B5B0000430000001B5B0000324B000044
:101100000D00000043000000001B00005B320000E7
:101110004400000057610000726E0000696E00001C
:10112000673A0000206E00006F200000766F00001C
:101130006C74000061670000652000006F6E0000A5
:1011400020560000707500006C6C00007570000087
:1011500020700000696E0000002000003D200000AB
:10116000005600005245000047200000746F000048
:101170006F2000006C6F0000772C000020690000D9
:101180007320000074680000657200006520000094
:1011900061200000736800006F720000743F00005F
:1011A000002E0000203C0000003E0000002E000049
:1011B000200000000D0A000028000000293E000069
:1011C00020000000427500007320000050690000FC
:1011D000726100007465000020760000330000009A
:1011E00046690000726D00007761000072650000C2
:1011F00020760000352E0000392000002872000003
:1012000035330000392900002000000020280000AC
:1012100032340000464A00003634000047410000E6
:101220003030000032200000004100003300000098
:101230004234000000420000350000004238000047
:10124000005500004E4B000000290000004900003E
:10125000090000004F0900000048000009000000DC
:101260004C090000004500006E740000657200002B
:10127000207200006177000020760000616C0000A1
:1012800075650000206600006F72000020420000BB
:1012900052470000000000004C45000054000000D0
:1012A0004946000000540000484500004E00000080
:1012B000454C000053450000004700004F5400001B
:1012C0004F000000474F000053550000420000004F
:1012D0005245000054550000524E000000520000DC
:1012E000454D000000500000524900004E540000DF
:1012F000004900004E500000555400000046000018
:101300004F520000005400004F0000004E45000006
:101310005854000000520000454100004400000005
:1013200044410000544100000053000054410000BB
:10133000525400005200000053540000415200007B
:1013400054000000535400004F50000052000000B1
:10135000535400004F50000000530000454E000061
:10136000440000005245000043450000495600007B
:1013700045000000434C00004B00000044410000C9
:101380005400000042490000545200004541000052
:1013900044000000414400004300000041550000AB
:1013A00058500000494E0000005000005355000006
:1013B00000500000554C00004C550000500000004B
:1013C000444500004C410000590000004155000018
:1013D0005800000046520000455100000044000043
:1013E00055540000590000004D41000043520000D8
:1013F0004F000000454E0000440000000052000075
:10140000554E0000004C00004953000054000000FD
:1014100045580000495400000044000045420000C7
:1014200055470000004E0000455700000000000036
:101430003062000000300000303000002C0000005E
:101440003030000000300000313200003334000042
:1014500035360000373800003941000042430000B3
:10146000444500004630000078000000436F000053
:10147000756C0000646E000027740000206B000093
:10148000656500007020000075700000000000001D
:101490005350000049310000000000000029000006
:1014A000002000005700000020520000004900000A
:1014B00032430000310000003A200000000000002C
:1014C0002E00000031570000303100000000000005
:1014D00008080000080800000800000000000000E4
:1014E000204800007A0000000000000000410000D9
:1014F000525400003100000042420000494F0000F9
:10150000310000005241000057310000000000008F
:10151000314100004C530000000000004F43000028
:101520004431000000000000000000000000000046
:101530002900000000000000000000002800FA0060
:101540000000EB00600F98000000EB00E0678800EF
:101550000000EB00D0678800D0678000200798006B
:101560000000EB00100798000000EB00000F78006F
:101570000000EB00A04088000000EB00F06788004E
:101580000000EB00400798000000EB00000F9800FF
:10159000140037000000EB00600798000B003700D4
:1015A0000E089000EE0090004500DD008100400034
:1015B00000D02000808040000040EB008048780090
:1015C0006E0090000000E800600798006E00900038
:1015D000FF0F5000F2FF34000E0890000000E800FA
:1015E000000F98000E089000E40F5000E9FF34004F
:1015F0000000EB00006D8800A1408000E0022000A8
:101600000088B9006102200080804000E093200043
:1016100000804000A475020000000000D14080005E
:1016200000202000008060000000E0000400320084
:1016300071002000C0592000ACA202000000000090
:1016400080862800A47502000000000032043700E4
:10165000006D80000000E00063003200006D80003B
:101660000000E900006D88000000EB0060079800B2
:101670001E003700D2678000006D8000EE009000F1
:101680004500DD008100400000D0200000804000C7
:1016900090407800A0BF2000000041000148780081
:1016A000006D8000EE0090004500DD0081004000EC
:1016B00000D020000080400010407800007A020036
:1016C00000000000D06780000000E800D0678800BC
:1016D0006E0090000000E80060079800D16780006D
:1016E000F00F200000806000D0678800006D80004F
:1016F000EE0090004500DD008100400000D0200099
:1017000000804000104078000004E000D9FF3A005B
:101710000000EB00006D880033003700C0B52000EA
:1017200010407800644060000004E0002E003200A9
:10173000A1408000E00220000088B900FA004000CB
:10174000E0932000008040001000780000000100BD
:101750000000E00024003200A1408000E0022000F0
:101760000088B9006102200080804000E0932000E2
:1017700000804000A4750200000000008086280060
:10178000A475020000000000E1678000D0678000BF
:10179000808F500014003200E067800060079800DE
:1017A0000D003700EE009000A0BF20000080400038
:1017B00010407800007A020000000000EE00900067
:1017C000F00F200000806000600798006E0090001D
:1017D0000000E80060079800EE009000D0678000ED
:1017E000808F5000EFFF3A00E27902000000000015
:1017F0000004E000C9FF320022C2BF006240600066
:101800000004E0000500320010118000D1FF2F001D
:101810000100600010118800BF033700EE7902005C
:1018200000000000604F98006E4890000080FB00B0
:101830006101B9000217980013179800F007200003
:10184000010020000E1190009E119000800F5100A9
:10185000818F59003C033E000E1090009E109000B6
:10186000006001002D033700E20237003E0137001F
:1018700035033700D8003700F9023700530137002D
:1018800031033700770037002F0337000F0337008D
:101890002D0337002C0337000C033700FE013700FF
:1018A000290337005A013700270337002603370082
:1018B00025033700240337002303370022033700B2
:1018C00021033700200337001F0337001E033700B2
:1018D000020137001C0337001B0337001A033700CF
:1018E00019033700180337001703370016033700B2
:1018F00015033700140337001303370012033700B2
:1019000011033700100337000F0337000E033700B1
:101910000D0337000C0337000B0337000A033700B1
:1019200009033700080337000703370006033700B1
:1019300005033700040337000303370002033700B1
:101940000103370000033700FF023700FE023700B3
:10195000FD023700FC023700FB023700FA023700B5
:10196000F9023700F8023700F7023700F6023700B5
:10197000F5023700F4023700F3023700F2023700B5
:10198000F1023700F0023700EF023700EE023700B5
:10199000ED023700EC023700EB023700EA023700B5
:1019A000E9023700E8023700E7023700E6023700B5
:1019B000E5023700E4023700E3023700E2023700B5
:1019C000E1023700E0023700DF023700DE023700B5
:1019D000DD023700DC023700DB023700DA023700B5
:1019E000D9023700D8023700D7023700D6023700B5
:1019F000D5023700D4023700D3023700D2023700B5
:101A0000D1023700D0023700CF023700CE023700B4
:101A1000CD023700CC023700CB023700CA023700B4
:101A2000C9023700C8023700C7023700C6023700B4
:101A3000C5023700C4023700C3023700C2023700B4
:101A4000C1023700C0023700BF023700BE023700B4
:101A5000BD023700BC023700BB023700BA023700B4
:101A60005D003700E16780002E009000810F50007C
:101A700055003200D16780002E009000810F500089
:101A800010003A00D06780008000E900F00F2000CD
:101A900000806000D0678800D1678000A0BF200070
:101AA000808040000040EB0080487800D1678000D3
:101AB00021079800B0862800A475020000000000ED
:101AC000150337000000EB00000F98002E00900077
:101AD0008000E900F00F20000080600020079800DF
:101AE000F0862800A4750200000000002E0190007E
:101AF00062079800210037006E0190006E00900090
:101B00008000E800A0BF20000080400090407800E6
:101B1000A0BF20000000410001487800EE009000C6
:101B2000A0BF200000804000104078000004E000CA
:101B300007003200EE009000A0BF200000804000AF
:101B400010407800007A0200000000000300370017
:101B500000C2B300007A0200000000000E089000EE
:101B60000000E800000F98006E0090008000E80080
:101B7000F00F20000080600060079800EE009000E9
:101B8000D0678000808F5000DBFF3A00D067800074
:101B90008000E900F00F200000806000D06788001E
:101BA00030872800A4750200000000000E08900095
:101BB0003C7802000000000060872800A475020045
:101BC00000000000D402370070C0B300007A0200A9
:101BD00000000000D0023700D16780002E00900086
:101BE000810F5000390032000000EB00000F980018
:101BF000AE01900063079800210037006E0190004D
:101C00006E0090008000E800A0BF2000008040002F
:101C100090407800A0BF20000000410001487800FB
:101C2000EE009000A0BF200000804000104078002F
:101C30000004E00007003200EE009000A0BF20008A
:101C40000080400010407800007A02000000000090
:101C50000300370000C2B300007A02000000000059
:101C60000E0890000000E800000F98006E00900041
:101C70008000E800F00F20000080600060079800FE
:101C8000EE009000D0678000808F5000DBFF3A00AC
:101C9000D06780008000E900F00F20000080600025
:101CA000D067880030872800A4750200000000007B
:101CB0000E0890003C7802000000000060872800B9
:101CC000A4750200000000009302370070C0B3004A
:101CD000007A0200000000008F023700EE79020057
:101CE00000000000604F9800EE489000B0C5B300BF
:101CF00080CF500088023A00EE7902000000000018
:101D0000604F98006E4890000080FB00700F9800B4
:101D100020042000FE089000808F5000DE0032007A
:101D2000200420007E099000800F510005003C0037
:101D300010042000FE099000808F51003400320012
:101D40007502370030042000FE089000808F50009C
:101D50001E003200400420007E099000800F5100D8
:101D6000010032006C0237004E009000E40F50007A
:101D700005003400CA8F0200000000000000EB00E4
:101D80004007980064023700E16780002E00900051
:101D9000810F5000090032002E0090008000E90001
:101DA000F00F20000080600020079800F0862800D7
:101DB000A4750200000000005702370070C0B30095
:101DC000007A02000000000053023700D167800053
:101DD0002E009000810F5000090032002E0090006C
:101DE0008000E800F00F20000080600020079800CD
:101DF00080872800A475020000000000460237001A
:101E000070C0B300007A02000000000042023700F8
:101E10000000EB00000F7800E06780000000E900A0
:101E200080007800F00F20000080600060079800BC
:101E30008D003700EE009000A0BF20000080400021
:101E4000104078000004E00082003A006E0090002C
:101E50008000E900F00F200080806000A0BF20001B
:101E600000804000104078000004E000790032005B
:101E70001E0FE8001E0090009E0F10007500360037
:101E80001E0090000000E80010079800E167800045
:101E9000D0678000808F5000140032000A003700A5
:101EA000D1678000A0BF2000808040000040EB0090
:101EB00080487800D06780008000E900F00F2000A3
:101EC00000806000D0678800D1678000E0678000F4
:101ED000808F5000F2FF3A00D1678000A0BF200041
:101EE000808040000040EB00804878006E00900049
:101EF0008000E900F00F200000806000000F9800D3
:101F0000110037008E089000A0BF20000080400024
:101F1000104078000004E00006003A000E0890002F
:101F20008000E800F00F200000806000500798005B
:101F3000090037000E0890008000E900F00F200033
:101F400000806000000F98008E089000D06780002D
:101F5000808F5000EBFF3A00C0872800A475020074
:101F600000000000A1408000E00220000088B900CD
:101F70006102200080804000E0932000008040004B
:101F8000A475020000000000D14080000020200065
:101F9000008060000000E0000400320071002000BA
:101FA000C0592000ACA2020000000000808628007A
:101FB000A475020000000000DE019000030F9800ED
:101FC000180037008E089000A0BF2000008040005D
:101FD00010407800007A020000000000D267800004
:101FE0008E089000A0BF2000008040009040780044
:101FF000A0BF20000000410001487800D0678000A9
:102000008000E800F00F200000806000D0678800AA
:102010000E0890008000E800F00F200000806000B3
:10202000000F98008E0890006E009000808F500086
:10203000E4FF3A00D1678000A0BF2000808040000C
:102040000040EB0080487800D067800020079800AF
:10205000090037006E0090008000E900F00F2000BA
:102060000080600060079800EE009000D06780005C
:10207000808F50006FFF3A00EE009000D067800024
:10208000808F5000A4013A0070C0B300007A0200B3
:1020900000000000A00137000000EB00000F7800F6
:1020A000E06780000000E90080007800F00F200069
:1020B00000806000600798008E003700EE009000FE
:1020C000A0BF200000804000104078000004E00025
:1020D00083003A006E0090008000E900F00F2000BD
:1020E00080806000A0BF2000008040001040780089
:1020F0000004E0007A0032001E0FE8001E0090008D
:102100000000E9009E0F500075003A001E0090008C
:102110000000E90010079800E1678000D0678000A8
:10212000808F5000140032000A003700D167800011
:10213000A0BF2000808040000040EB008048780075
:10214000D06780008000E900F00F20000080600070
:10215000D0678800D1678000E0678000808F5000E2
:10216000F2FF3A00D1678000A0BF200080804000CD
:102170000040EB00804878006E0090008000E9008D
:10218000F00F200000806000000F98001100370061
:102190008E089000A0BF2000008040001040780012
:1021A0000004E00006003A000E0890008000E800FD
:1021B000F00F2000008060005007980009003700F1
:1021C0000E0890008000E900F00F20000080600001
:1021D000000F98008E089000D0678000808F50001C
:1021E000EBFF3A00C0872800A47502000000000041
:1021F000A1408000E00220000088B90061022000B8
:1022000080804000E093200000804000A475020020
:1022100000000000D140800000202000008060000D
:102220000000E0000400320071002000C0592000CE
:10223000ACA202000000000080862800A475020005
:1022400000000000DE009000010F98001800370029
:102250008E089000A0BF2000008040001040780051
:10226000007A020000000000D26780008E08900013
:10227000A0BF20000080400090407800A0BF200058
:102280000000410001487800D06780008000E8002D
:10229000F00F200000806000D06788000E089000DA
:1022A0008000E800F00F200000806000000F980020
:1022B0008E0890006E009000808F5000E4FF3A007E
:1022C000D1678000A0BF2000808040000040EB006C
:1022D00080487800D2678000220798000900370004
:1022E0006E0090008000E900F00F20000080600088
:1022F00060079800EE009000D0678000808F50004B
:102300006EFF3A00EE009000D0678000808F500092
:1023100001013A001E009000E10F500031003A0028
:10232000C0872800A475020000000000A1408000C2
:10233000E00220000088B900610220008080400097
:10234000E093200000804000A4750200000000001F
:10235000D140800000202000008060000000E000EC
:102360000400320071002000C0592000ACA202001D
:102370000000000080862800A47502000000000014
:102380000A003700D1678000A0BF20008080400095
:102390000040EB0080487800D06780008000E900B2
:1023A000F00F200000806000D0678800D1678000B7
:1023B000E0678000808F5000F2FF3A00D167800014
:1023C000A0BF2000808040000040EB0080487800E3
:1023D000D3678000230798000000EB0010079800E7
:1023E000CD00370070C0B300007A0200000000008A
:1023F000C9003700E16780002E009000810F500077
:1024000013003200E16780002E00900001005000B0
:1024100080007800F00F200000806000000F98001E
:1024200030872800A4750200000000000E0890000C
:102430003C7802000000000060872800A4750200BC
:1024400000000000E067800020079800B20037001D
:1024500070C0B300007A020000000000AE00370038
:10246000D16780002E009000810F500013003200D1
:10247000D16780002E00900000805000800078001E
:10248000F00F200000806000000F980030872800C7
:10249000A4750200000000000E0890003C780200C5
:1024A0000000000020882800A47502000000000041
:1024B000D1678000210798009700370070C0B300F3
:1024C000007A020000000000930037001000200096
:1024D000600F98000000EB0010079800D1678000A3
:1024E000A0BF2000808040000040EB0080487800C2
:1024F000D06780008000E800F00F200000806000BE
:10250000D0678800D26780002207980040882800A2
:10251000D0750200000000007F0037004E009000E0
:102520000000E800400798004E009000F40F5000B3
:1025300079003A008A7B0200000000000000EB00F6
:102540004007980074003700D06780008000E800E2
:10255000F00F200080806000E0678000808F5000D6
:102560006A0032006E489000FF4F5000670036004E
:10257000EE489000E0C7B30080CF500063003E00FB
:10258000D16780002E009000808F500015003A0027
:102590006E489000007A020000000000D1678000C1
:1025A0006E499000A0BF20000080400002487800E3
:1025B000D06780008000E800F00F200000806000FD
:1025C000D0678800D1678000A0BF200080804000D5
:1025D0000040EB0080487800D36780002307980014
:1025E0004D003700D16780002E0090000080500021
:1025F00080007800F00F200000806000000F98003D
:1026000030872800A4750200000000000E0890002A
:102610003C7802000000000020882800A475020019
:1026200000000000D0678000600798001D003700A0
:102630006E0090000001E800EE009000A0BF2000B6
:102640000080400090407800A0BF200000004100C2
:1026500001487800EE009000A0BF200000804000FC
:10266000104078000004E00009003200EE00900005
:10267000A0BF20000080400010407800007A0200D7
:102680000000000050882800A4750200000000002F
:102690006E0090008000E900F00F200000806000D4
:1026A000600798006E0190002E0090008000E90005
:1026B000F00F200000806000800F5100DCFF3A0026
:1026C0006E489000007A020000000000AE0090000A
:1026D0006E499000A0BF20000080400002487800B2
:1026E0002E0090008000E800F00F200000806000C5
:1026F00020079800D06780008000E800F00F2000DD
:1027000000806000D06788000300370070C0B3000D
:10271000007A0200000000006E0890000000E00057
:10272000CBFB3200D0678000400F9800E06780004C
:10273000300F98000000EB00600F98000000EB00E5
:10274000500F98000000EB00F0678800D140800037
:1027500000202000008060000000E0001105320031
:10276000EE3602000000000051002000305A200028
:1027700036A302000000000010002000500F980057
:1027800008053700E1678000A0BF200000804000FE
:1027900010407800604F98006E4890000080FB0069
:1027A0006101B9002217980033179800E007200054
:1027B000010020002E119000BE119000800F5100EA
:1027C000818F5900CB043E002E109000BE10900067
:1027D00000600100C9043700C6043700C504370093
:1027E000C4043700C3043700C2043700C1043700F3
:1027F000C0043700BF043700BE043700BF043700F1
:10280000BC043700BB043700BC043700B9043700F0
:10281000B8043700B7043700B6043700B5043700F2
:10282000B4043700B3043700B2043700B1043700F2
:10283000B0043700AF043700AE043700AD043700F2
:10284000AC043700AB043700AA043700A9043700F2
:10285000A8043700A904370086043700C6023700F1
:102860002B01370034013700DD013700CB01370081
:10287000A00437009F0237009E0437009D043700F4
:102880009E0437009D043700320437004B043700A4
:10289000160437003F0337003E0337003D0337007F
:1028A0003C0337003B0337003A0337003903370056
:1028B0003803370037033700360337008D043700FD
:1028C0008C043700E6013700C9003700890437005F
:1028D0003F003700460137003801370085043700D4
:1028E00065003700AA0137008204370081043700F1
:1028F000800437007F0437007E0437007D043700F2
:102900007C043700670037007A0437007904370009
:10291000780437008F0037007604370075043700DD
:10292000C4013700730437007204370071043700A4
:10293000450137006F0437006E0437006D0437001F
:10294000F0023700F6033700000337002A0437008F
:102950000D043700670437000B01370027003700EC
:102960003A0037007C013700620437002900370045
:102970002B0037005F043700180037005D04370074
:102980005C043700540037001A0037005904370040
:102990001C0037005D00370056043700790337000C
:1029A000A0013700530437005204370017003700E6
:1029B000570137004F0437004E0437004D043700ED
:1029C000D9023700A5003700E9023700C3003700FD
:1029D0004CA302000000000048043700B7070700BE
:1029E000A04080000000E000440432001C08070002
:1029F000420437006C060700400437005309070003
:102A00003E0437002D0907003C043700A1080700E9
:102A10003A043700D082020000000000370437007B
:102A2000A04080000000E00005003A00D101200035
:102A3000305D200036A30200000000002F043700A4
:102A400038810200000000002C043700C0B52000CF
:102A5000104078000000A1000010A100C1B52000C6
:102A60008048780061012000805A200036A30200CF
:102A70000000000021043700C0B52000104078009D
:102A80000000A0000010A100C1B52000804878001F
:102A900051012000E05B200036A30200000000008E
:102AA00016043700C0B52000104078000030A000A8
:102AB000C1B5200080487800C1012000B07E200010
:102AC000ACA202000000000040882800D07502007F
:102AD0000000000009043700C0B520001040780055
:102AE0000030A100C1B5200080487800B10120006D
:102AF000007D2000ACA202000000000040882800F9
:102B0000D075020000000000FC033700A0408000E8
:102B10000000E00005003A00D1012000305D2000F7
:102B200036A3020000000000F4033700CB62A900C6
:102B3000C962A90051012000005F2000ACA2020080
:102B40000000000040882800D0750200000000004E
:102B5000EA033700A04080000000E00005003A00D2
:102B6000D1012000305D200036A3020000000000EB
:102B7000E2033700C0B520001040780070406000CC
:102B80000004E00004003A002102200050E8200088
:102B900036A3020000000000C962A800CB62A900B1
:102BA0004101200050602000ACA2020000000000A3
:102BB00040882800D07502000000000021E3A80032
:102BC000B0C0B300B09E020000000000800078009A
:102BD000F0042000808F500003003E00A0882800F1
:102BE000D07502000000000021E3A900C3033700F4
:102BF000E06780008000E800F00F200000806000A7
:102C0000E0678800D8050700F00307006007980018
:102C10006E0090009E78020000000000D08A28001C
:102C2000A4750200000000006E0090003C780200D5
:102C300000000000D08A2800A475020000000000F7
:102C40006E0090000476020000000000408828001A
:102C5000D075020000000000A8033700E067800084
:102C60008000E800F00F200000806000E06788002E
:102C7000BD050700D5030700600798006E009000AF
:102C80000080FB0070A002000000000060079800B8
:102C90006E0090009E78020000000000D08A28009C
:102CA000A4750200000000006E0090003C78020055
:102CB00000000000D08A2800A47502000000000077
:102CC0006E0090000476020000000000408828009A
:102CD000D07502000000000088033700A04080008B
:102CE0000000E00005003A0011C0B30010C0B300BE
:102CF000869B02000000000080033700A101200035
:102D00009061200036A30200000000007B03370022
:102D1000510020003063200036A3020000000000B4
:102D200023C2BF00614060000004E000FCFF3200ED
:102D30000000FE0071033700DCA302000000000069
:102D40000000E0006D033200A1002000806320003D
:102D500036A3020000000000400620000EA0020082
:102D600000000000669E02000000000023C2BF00B9
:102D7000614060000004E000FCFF320081BF2A00D7
:102D8000014001005D033700350507000000E80041
:102D9000000F9800020037000E84020000000000BF
:102DA0000E0890000000E900000F98000E08900047
:102DB0000000E000F8FF3A00500337002805070044
:102DC0000000E800000F980002003700EC830200CA
:102DD000000000000E0890000000E900000F9800BD
:102DE0000E0890000000E000F8FF3A0043033700AF
:102DF0001B0507000000E800000F98000B003700DB
:102E00006101200020642000ACA20200000000004C
:102E100030840200000000008E75020000000000F7
:102E200040882800D0750200000000000E089000C5
:102E30000000E900000F98000E0890000000E0007C
:102E4000EFFF3A002D033700A04080000000E000B3
:102E500005003A00D1012000305D200036A30200B9
:102E60000000000025033700C002A900C202A8002C
:102E700021E3A800200020000EA0020000000000B6
:102E8000A0C0B300B09E02000000000080007800E7
:102E9000001B2000808F50000F00360090C0B30050
:102EA000B09E02000000000080007800702B20001F
:102EB000808F50000800360011012000806520003E
:102EC000ACA202000000000040882800D07502007B
:102ED000000000000C003700C002A900C202A900D7
:102EE000108B2800D0750200000000002101200096
:102EF00090662000ACA2020000000000408828007C
:102F0000D07502000000000021E3A900FB02370099
:102F1000A04080000000E00005003A00D101200040
:102F2000305D200036A3020000000000F3023700ED
:102F3000C002A900C202A900210120009066200061
:102F4000ACA202000000000040882800D0750200FA
:102F500000000000E9023700F1002000A039200045
:102F6000ACA2020000000000CA9E020000000000A7
:102F700011002000903A2000ACA2020000000000E6
:102F800040882800D075020000000000DB023700F6
:102F9000DC9E020000000000D8023700B0040700E9
:102FA000000F98006100200070682000ACA20200B1
:102FB000000000000E089000DE7702000000000014
:102FC00021002000D068200036A30200000000008D
:102FD0000E0890003AA0020000000000C70237006F
:102FE0009F040700000F9800610020007068200017
:102FF000ACA20200000000000E089000DE77020084
:10300000000000002100200090EC200036A3020008
:10301000000000000E0890000EA00200000000005A
:10302000B6023700D04080000090A000D040880059
:10303000B2023700A04080000000E00005003A0026
:10304000D1012000305D200036A302000000000006
:10305000AA0237006484020000000000A7023700C3
:1030600010002000F0678800100020006007980022
:1030700010003700E16780006E0090008080400003
:10308000F00F200080806000A0BF20000080400082
:1030900090407800E0C3B30080CF500002003A00B7
:1030A0000000EB00F06788006E0090000000E80070
:1030B00060079800E16780006E009000808040000B
:1030C000F00F200080806000A0BF20000080400042
:1030D000104078000004E000E6FF3A00EE009000A7
:1030E00020022000808F50000200340010002000D9
:1030F000F0678800F06780000000E0007F023A007F
:10310000E06780008000E800F00F20000080600091
:10311000E0678800AD02070060079800E167800063
:10312000F00F200080806000A0BF200000804000E1
:1031300090407800D0C3B30080CF500040003A00E8
:103140006E0090000000E0003A0034006E00900035
:10315000E50F500037003C00E06780008000E80089
:10316000F00F200000806000E06788006E00900093
:103170000000E900600798000000EB00000F9800D5
:103180000B0037006E0090008E0890004500DD00B7
:103190008100400000D02000808040000040EB0013
:1031A000804878000E0890000000E800000F9800AA
:1031B0000E089000FF0F5000F2FF34000000EB00FB
:1031C000000F980013003700EE0190000E0A9000E7
:1031D000E1678000A0BF200000804000104178001F
:1031E0004518DD008400400000D020000080400031
:1031F000024878000E0890000000E800000F9800D8
:10320000E06780008000E800F00F20000080600090
:10321000E0678800E1678000A0BF200000804000D8
:1032200090407800E0C3B30080CF5000E6FF3A0042
:103230003202370010002000F06788002F023700AC
:103240006E0090000000E0001B003A000000EB0060
:10325000000F9800140037000E0890000040E800AE
:103260003C78020000000000108D2800A4750200C8
:10327000000000000E0890004500DD00800078008E
:1032800000D0200000804000A47502000000000073
:10329000508D2800D0750200000000000E0890003C
:1032A0000000E800000F98000E089000E40F5000A6
:1032B000E9FF3400110237006E0090000000E000CA
:1032C000090034006E009000E50F500006003C003D
:1032D00040882800D075020000000000EE00900039
:1032E000016D88000502370010002000F06788009B
:1032F00002023700E06780008000E800F00F200045
:1033000000806000E067880030020700200F98000E
:1033100015040700E1678000F00F20008080600046
:10332000A0BF2000008040009040780090C2B30011
:1033300080CF50000D003A00A1408000E002200044
:103340000088B900FC004000E093200000804000AD
:10335000900078002E0890000100010040882800AD
:10336000D075020000000000E401370010002000CA
:10337000F0678800E101370010002000F067880046
:10338000100020006007980010003700E1678000FF
:103390006E00900080804000F00F20008080600070
:1033A000A0BF2000008040009040780020C2B30001
:1033B00080CF500002003A000000EB00F067880068
:1033C0006E0090000000E80060079800E167800050
:1033D0006E00900080804000F00F20008080600030
:1033E000A0BF200000804000104078000004E000F2
:1033F000E6FF3A00F06780000000E000BF013A00FD
:1034000071002000F0682000ACA202000000000063
:1034100020C2B300007A0200000000002200370042
:10342000E1678000F00F200000806000E067880006
:10343000E1678000A0BF20000080400010407800BD
:10344000007A020000000000E1678000A0BF2000B9
:1034500000804000104078000000FB00200F980022
:10346000C0B5200010407800684060000004E00013
:10347000040032002E08900070A00200000000003E
:10348000200F9800A1408000E00220000088B900D1
:10349000E8004000E09320000080400090007800A9
:1034A0002E08900001000100E06780000000E800A5
:1034B000E0678800E1678000F00F200080806000F6
:1034C000A0BF2000008040009040780020C2B300E0
:1034D00080CF5000D2FF3A00E0678000F10F20005B
:1034E00001006000E067880020C2B300007A02009B
:1034F0000000000040882800D07502000000000095
:103500007E013700A1408000E00220000088B90061
:1035100080007800E09320000080400010007800D8
:103520000000010075013700A1408000E00220008A
:103530000088B9008080E800E0932000008040000F
:1035400010007800000001006C013700A1408000ED
:10355000E00220000088B900E4004000E093200071
:103560000080400010007800000001006301370077
:10357000A1408000E00220000088B900E600400081
:10358000E09320000080400010007800000001005F
:103590005A01370071002000F0682000ACA2020040
:1035A0000000000089010700200F9800E0678000FC
:1035B0000000E900E0678800E1678000F00F20006C
:1035C00000806000E0678800250307000000E80035
:1035D000000F980045030700300798003E00900058
:1035E0000000E0005D0032003E0090008040780066
:1035F000B0B42000014878003E009000E80F500071
:1036000006003400C0B52000104078000050A00033
:10361000C1B520008048780050003700C0B52000B8
:10362000104078000050A100C1B52000804878000B
:103630004A0037002E089000689F0200000000003A
:10364000C0B52000104078000042B2000004E00045
:1036500004003A00B0B4200010407800E84F500059
:1036600009003A00C0B52000104078000042B200C6
:103670000004E0000B003200B0B4200010407800DD
:10368000F04F500007003200B0C3B300007A0200D0
:1036900000000000B0B42000104078003C78020028
:1036A00000000000C0B520001040780068406000B5
:1036B0000004E000040032002E08900070A0020018
:1036C00000000000200F9800A1408000E0022000D0
:1036D0000088B900E8004000E0932000008040002E
:1036E000900078002E08900001000100100F980053
:1036F00000C2B300007A020000000000C0B5200044
:10370000104078000044B2000004E00013003200D2
:103710006100200060692000ACA2020000000000EF
:10372000C0B5200010407800684060000004E00050
:10373000040032001E08900070A00200000000008B
:10374000100F98001E089000689F02000000000003
:1037500000C2B300007A0200000000000E089000D2
:103760000000E900000F98000E0890000000E00043
:10377000B0FF3A0040882800D07502000000000029
:10378000DE0037006100200060692000ACA202006A
:1037900000000000B20207000000E800000F9800DF
:1037A000D2020700300798003E0090000000E000C1
:1037B000440032003E00900080407800B0B4200009
:1037C000014878003E009000E80F500006003400E9
:1037D000C0B52000104078000050A000C1B5200006
:1037E0008048780037003700C0B5200010407800CE
:1037F0000050A100C1B5200080487800310037009A
:10380000A1408000E00220000088B900EA004000EA
:10381000E0932000008040001000780000000100CC
:10382000100F9800C0B5200010407800684060007C
:103830000004E000040032001E08900070A00200A6
:1038400000000000100F98001E089000689F020002
:1038500000000000C0B52000104078000042B20017
:103860000004E00004003A00B0B4200010407800EA
:10387000E84F500009003A00C0B520001040780021
:103880000042B2000004E0000B003200B0B420009F
:1038900010407800F04F500007003200B0C3B30072
:1038A000007A020000000000B0B420001040780050
:1038B0003C7802000000000000C2B300007A020061
:1038C000000000000E0890000000E900000F9800C2
:1038D0000E0890000000E000C9FF3A004088280070
:1038E000D075020000000000840037008100200035
:1038F000C069200036A3020000000000A140800043
:10390000E00220000088B900EC004000E0932000B5
:1039100000804000100078000000010077003700B0
:1039200081002000406A200036A302000000000051
:10393000A1408000E00220000088B900EE004000B5
:10394000E09320000080400010007800000001009B
:103950006A003700E1002000C06A200036A30200A0
:1039600000000000A1408000E00220000088B900B3
:10397000F0004000E093200000804000100078003C
:10398000000001005D003700E1002000A06B200076
:1039900036A3020000000000A1408000E0022000E9
:1039A0000088B900F2004000E09320000080400051
:1039B000100078000000010050003700C100200016
:1039C000B0672000ACA2020000000000A14080000F
:1039D000E00220000088B900F4004000E0932000DD
:1039E0000080400010007800000001008E75020089
:1039F000000000004100370019020700000F980086
:103A0000D1002000806D2000ACA202000000000068
:103A10000E089000689F0200000000000E08900051
:103A20000000E800000F980008003700A140800067
:103A3000E00220000088B900F6004000E09320007A
:103A40000080400010007800000001000E08900087
:103A50000000E900000F98000E0890000000E00050
:103A6000F2FF3A0040882800D075020000000000F4
:103A700022003700FA0107000000E800000F98005C
:103A8000A1002000506E2000ACA202000000000047
:103A90000D003700A1408000E00220000088B9003E
:103AA000F8004000E0932000008040001000780003
:103AB000000001008E7502000000000000C2B3008B
:103AC000007A0200000000000E0890000000E900EB
:103AD000000F98000E0890000000E000EDFF3A0093
:103AE00001012000806C200036A3020000000000CD
:103AF0000200370010002000F0678800E0678000B7
:103B00008000E800F00F200000806000E06788007F
:103B1000F06780000000E0001C003200510120002E
:103B2000F06E2000ACA2020000000000BE08900071
:103B3000E0678000808F500007003100E067800060
:103B4000804078003E08900000C050003C780200A1
:103B50000000000006003700E06780008040780029
:103B60003E08900000C050003C78020000000000B9
:103B70000000EB00F067880010002000500F980054
:103B800040882800D075020000000000E167800036
:103B9000D0678000808F500002003A0010002000A3
:103BA000500F98005E0890000000E000F5FA320027
:103BB0004E089000E06788004E089000D0678800AB
:103BC0000000EB00600F98008BF637000600FA004B
:103BD0000000EB00100798000000EB00000F7800D9
:103BE000E16780001E00900080804000F00F200000
:103BF00080806000A0BF20000080400090407800DE
:103C000000C3B30080CF500043003400E167800060
:103C10001E00900080804000F00F20008080600037
:103C2000A0BF2000008040009040780090C3B30007
:103C300080CF500038003C00E16780001E009000FB
:103C400080804000F00F200080806000A0BF200036
:103C500000804000104078008000FB0000FD2F0035
:103C6000008F40001E0090000000E8001007980040
:103C7000120037001E0078006A00B900000F7800BB
:103C8000E16780001E00900080804000F00F20005F
:103C900080806000A0BF20000080400010407800BD
:103CA0000000FB009E00400000FD2F00008F400040
:103CB0001E0090000000E80010079800E1678000F7
:103CC0001E00900080804000F00F20008080600087
:103CD000A0BF20000080400090407800F0C2B300F8
:103CE00080CF500051013400E16780001E00900039
:103CF00080804000F00F200080806000A0BF200086
:103D0000008040009040780090C3B30080CF500006
:103D1000D8FF340045013700E16780001E009000A5
:103D200080804000F00F200080806000A0BF200055
:103D3000008040009040780000C3B30080CF500066
:103D400035013A001E0090000000E80010079800BE
:103D5000E16780001E00900080804000F00F20008E
:103D600080806000A0BF200000804000904078006C
:103D700020C6B30080CF50000B003200E167800006
:103D80001E00900080804000F00F200080806000C6
:103D9000A0BF2000008040009040780020C4B30005
:103DA00080CF50002D003A001E0090000000E80077
:103DB00010079800120037001E0078000000400035
:103DC000000F7800E16780001E00900080804000B6
:103DD000F00F200080806000A0BF20000080400025
:103DE000104078000000FB009E00400000FD2F0006
:103DF000008F40001E0090000000E80010079800AF
:103E0000E16780001E00900080804000F00F2000DD
:103E100080806000A0BF20000080400090407800BB
:103E200010C3B30080CF5000E3FF3200E167800091
:103E30001E00900080804000F00F20008080600015
:103E4000A0BF2000008040009040780000C3B30075
:103E500080CF5000D8FF3200F4003700E1678000C7
:103E60001E00900080804000F00F200080806000E5
:103E7000A0BF2000008040009040780080C7B300C1
:103E800080CF50000B003200E16780001E009000E0
:103E900080804000F00F200080806000A0BF2000E4
:103EA000008040009040780080C5B30080CF500073
:103EB0008E003A001E0090000000E80010079800F5
:103EC000470037001E0078004400DD00000F780036
:103ED000E16780001E00900080804000F00F20000D
:103EE00080806000A0BF20000080400090407800EB
:103EF000F0C2B30080CF500018003400E1678000AA
:103F00001E00900080804000F00F20008080600044
:103F1000A0BF2000008040009040780090C3B30014
:103F200080CF50000D003C00E16780001E00900033
:103F300080804000F00F200080806000A0BF200043
:103F400000804000104078000000FB009E00400010
:103F500000FD2F00008F40001E003700E167800049
:103F60001E00900080804000F00F20000081600063
:103F7000E16780001E00900080804000F00F20006C
:103F800080806000A0BF200000804000904078004A
:103F900000C2B30080C07000A0BF2000000041003C
:103FA00001487800E16780001E009000808040009A
:103FB000F00F200080806000A0BF20000080400043
:103FC000104078000000FB009E00400090FA2F0097
:103FD000008F40001E0090000000E80010079800CD
:103FE000E16780001E00900080804000F00F2000FC
:103FF00080806000A0BF20000080400090407800DA
:10400000F0C2B30080CF50000B003400E1678000A5
:104010001E00900080804000F00F20008080600033
:10402000A0BF2000008040009040780090C3B30003
:1040300080CF5000A3FF3400E16780001E00900095
:1040400080804000F00F200080806000A0BF200032
:10405000008040009040780000C4B30080CF500042
:104060000B003400E16780001E009000808040005B
:10407000F00F200080806000A0BF20000080400082
:104080009040780060C4B30080CF50008DFF3400B2
:10409000E16780001E00900080804000F00F20004B
:1040A00080806000A0BF2000008040009040780029
:1040B00000C6B30080CF50005C003400E167800090
:1040C0001E00900080804000F00F20008080600083
:1040D000A0BF2000008040009040780060C6B30080
:1040E00080CF500077FF340050003700E167800038
:1040F0001E00900080804000F00F20008080600053
:10410000A0BF20000080400090407800F0C2B300C3
:1041100080CF500045003400E16780001E00900011
:1041200080804000F00F200080806000A0BF200051
:10413000008040009040780090C3B30080CF5000D2
:104140003A003C00E16780001E0090008080400043
:10415000F00F200080806000A0BF200000804000A1
:10416000104078008000FB0000FD2F00008F400011
:10417000120037001E0078006A00B900000F7800B6
:10418000E16780001E00900080804000F00F20005A
:1041900080806000A0BF20000080400010407800B8
:1041A0000000FB009E00400000FD2F00008F40003B
:1041B0001E0090000000E80010079800E1678000F2
:1041C0001E00900080804000F00F20008080600082
:1041D000A0BF20000080400090407800F0C2B300F3
:1041E00080CF500011003400E16780001E00900075
:1041F00080804000F00F200080806000A0BF200081
:10420000008040009040780090C3B30080CF500001
:10421000D8FF34000500370010002000F067880048
:104220000000EB00200798000A003700E1678000DB
:104230001E00900000804000E0678800E167800079
:10424000F00F200000806000E06788001E0078000A
:10425000200798002E0090000080FA000000060061
:104260000400FA00E06780008000E800F00F200002
:1042700080806000A0BF2000008040009040780057
:10428000A0C3B30080CF500013003A00E067800065
:104290000080E800E0678800E1678000F00F200000
:1042A00000806000E067880048FE0700000F78008B
:1042B000E06780000000E900E0678800E1678000B7
:1042C000F00F200000806000E06788001E0078008A
:1042D0001007980002003700100020001007980017
:1042E0001E0090000080FA00000006000400FA00A2
:1042F000E06780008000E800F00F20008080600010
:10430000A0BF20000080400090407800B0C3B30000
:1043100080CF50000F003A00E06780008080E80006
:10432000F00F200000806000E067880027FE070093
:10433000000F7800E06780008000E900F00F2000A7
:1043400000806000E06788001E0078001007980079
:10435000020037000000EB00100798001E009000DC
:104360000080FA00000006000000FA000500370097
:10437000E06780008000E800F00F2000008060000F
:10438000E0678800E1678000A0BF20000080400057
:104390009040780000C2B30080CF5000F4FF32009C
:1043A0000080FA00000006000400FA000000EB00A4
:1043B000000F7800E06780008000E800F00F200028
:1043C00000806000E0678800E7FF0700FFFD07004E
:1043D000000F78001E00E0004D003A000000EB00E6
:1043E00010079800130037001E0090000040E800FE
:1043F0003C78020000000000708D2800A4750200C7
:10440000000000009E009000E00220000088B9003B
:104410006102200080804000E09320000080400086
:10442000D0750200000000001E0090000000E800AF
:10443000100798001E009000E70F5000EAFF3400BC
:10444000710120004070200036A30200000000002F
:104450000000EB00F06788001300200082002000BD
:10446000110020001000200055000700000FE90097
:10447000E0FF2F009E0F1000030032000080EB00D1
:104480009E0F100005003A00E1002000B0712000EE
:1044900036A302000000000042003700A140800067
:1044A000E00220000088B900010220008080400066
:1044B000E093200000804000100078000000010020
:1044C000669E0200000000001E007800A0408800E8
:1044D000A1408000E00220000088B900FE004000FA
:1044E000E0932000008040001000780000000100F0
:1044F0001E00E00001003200C222A800510020008E
:10450000305A200036A302000000000025003700CA
:104510001E0FE900700020009E0F10001D003C00DF
:10452000A1408000E00220000088B90001022000C4
:1045300080804000E0932000008040001000780060
:1045400000000100669E0200000000001E007800CE
:10455000A0408800A1408000E00220000088B9004F
:10456000FE004000E0932000008040001000780032
:10457000000001001E00E00001003200C222A8007D
:1045800051002000305A200036A302000000000035
:1045900004003700510120009072200036A3020071
:1045A00000000000D06780008000E900F00F2000CC
:1045B00000806000E06788000080FA0000000600CC
:1045C0001E00FA00100F9800210F9800320F98007B
:1045D000430F98000000EB00400798000000EB003C
:1045E000200798000000EB00100798000000EB0087
:1045F000000F7800A08D2800A475020000000000C4
:104600001E0890003C78020000000000E08D2800A9
:10461000A47502000000000067003700EE79020078
:1046200000000000204F98002E4890000000FB0082
:10463000600F98006E089000ED0F500029003200C6
:10464000EE089000ED8F500007003C006E099000CE
:10465000E80F51000D0032006E089000EA0F500084
:104660002000320035003700D0022000EE08900014
:10467000808F50001E003200800720006E099000DD
:10468000800F5100270032002C0037004E009000B0
:104690000000E000070032004E0090000000E9003A
:1046A00040079800B0862800A475020000000000B2
:1046B000410037001E00E000060032000000EB0061
:1046C000000F7800B0862800A475020000000000EA
:1046D0003900370070C0B300007A0200000000000B
:1046E0003500370010002000200798003200370006
:1046F0004E0090000000E00006003A00D0C2B30077
:10470000007A02000000000010002000000F780076
:104710002900370070C0B300007A020000000000DA
:10472000250037004E0890000000E0000300320032
:104730000080EB00500F98005D003700AE489000FD
:10474000F0C2B30080CF500018003400AE48900093
:1047500090C3B30080CF500014003C004E00900086
:10476000E30F50000600340070C0B300007A02006E
:104770000000000040002000400798000E003700B5
:104780002E489000007A020000000000CE00900049
:104790006B0047002E499000827078004E00900018
:1047A0000000E800400798000300370070C0B30025
:1047B000007A0200000000002E0090000000E000DF
:1047C00096FF320040882800D075020000000000EB
:1047D0004E0090000000E00003003A001E08900028
:1047E000500F9800320037000000EB0010079800CF
:1047F0004E0090000000E90040079800CE009000B5
:1048000031079800110037001E0090006A00B900BF
:1048100010079800BE0090004E009000808050006D
:104820006B004700614078008000FB001E00900094
:104830008080400000FD2F0000804000100798009D
:104840004E0090000000E900400798004E009000E4
:104850000000E000ECFF3D009E0090002E0890005C
:10486000808F50000D0035009E0090003E089000A3
:10487000808F500009003C001E00E0000400320060
:104880001E0090000000EA00500F9800080037005A
:104890001E019000520F980005003700B101200062
:1048A000E0EA200036A302000000000049FF3700C4
:1048B0005E0890000080FA00000006000400FA0084
:1048C000208E2800A475020000000000A0812000B6
:1048D00010407800007A02000000000040882800A4
:1048E000D075020000000000008F2800A4750200AF
:1048F00000000000D100200070802000ACA2020067
:1049000000000000A1BF2A000000EB005A7B02005B
:1049100000000000000F78001E0078004800DE0054
:104920003C78020000000000E0C2B300007A020000
:10493000000000001E0078003C780200000000002B
:1049400040882800D07502000000000061002000AF
:1049500000762000ACA2020000000000B040800001
:10496000F6780200000000007100200070EA2000CC
:10497000ACA2020000000000C0408000F6780200F7
:104980000000000060902800A475020000000000F4
:10499000C040800010079800200423009E00900073
:1049A000808F500016003200200423009E009000EB
:1049B000808F500005003E00300023009E009000D4
:1049C000808F50000A0032001900370030042300A5
:1049D0009E009000808F50000D0032006004230084
:1049E0009E009000808F50000D00320010003700B4
:1049F00050912800A4750200000000000F0037004D
:104A000080912800A4750200000000000B00370010
:104A1000B0912800A47502000000000007003700D4
:104A2000E0912800A4750200000000000300370098
:104A300010922800A4750200000000005092280087
:104A4000D075020000000000E10120006076200027
:104A500036A30200000000000080FA0000000600FB
:104A60000000FA005100200020922000ACA20200B9
:104A700000000000C1BF2A000000EB005A7B0200CA
:104A800000000000F6780200000000006100200035
:104A900070922000ACA2020000000000E1BF2A00DA
:104AA0000000EB005A7B020000000000F6780200D4
:104AB0000000000040882800D075020000000000BF
:104AC000C10020004078200036A302000000000052
:104AD00070000700C2C2BF00614060000004E00037
:104AE000050032001101200080652000ACA2020008
:104AF0000000000004003700210120009066200023
:104B0000ACA2020000000000C0C2B300007A0200A4
:104B10000000000000C2B300007A020000000000A4
:104B2000CBC2BF00684060000004E0000500320016
:104B30004101200050602000ACA2020000000000F3
:104B40000400370051012000005F2000ACA20200E9
:104B500000000000C0C2B300007A020000000000A4
:104B600000C2B300007A020000000000C0B52000BF
:104B700010407800704060000004E0000500320042
:104B8000210220000079200036A30200000000006E
:104B900004003700E1012000207B200036A3020042
:104BA00000000000C0B520001040780068406000A0
:104BB0000004E00005003A00B1012000007D200063
:104BC000ACA202000000000004003700C101200078
:104BD000B07E2000ACA2020000000000C0C2B30002
:104BE000007A02000000000000C2B300007A020058
:104BF00000000000B1012000C0202100ACA2020092
:104C000000000000B0B42000104078003C780200A2
:104C10000000000040882800D0750200000000005D
:104C2000C0B520001040780063406000E14F5000A4
:104C300005003A0051012000E05B200036A302008D
:104C4000000000000400370061012000805A2000AD
:104C500036A3020000000000A1408000E002200016
:104C60000088B9004102200080804000E0932000CD
:104C7000008040001000780000000100C10020000A
:104C80004078200036A30200000000000080FA00F7
:104C9000000006000000FA00A1002000A00521008D
:104CA00036A302000000000061042000200B210058
:104CB00036A3020000000000A101200040062100F0
:104CC000ACA2020000000000A1408000E002200031
:104CD0000088B9002102200080804000E09320007D
:104CE000008040001000780000000100A1002000BA
:104CF000E0072100ACA202000000000000402000FC
:104D000050000700001020004E0007000020200087
:104D10004C000700000420004A00070000082000A3
:104D20004800070040882800D075020000000000FD
:104D300041002000800F2100ACA202000000000012
:104D400021E3A800A0C0B300B09E02000000000054
:104D5000407902000000000011002000903A20007D
:104D6000ACA202000000000090C0B300007A020074
:104D70000000000090C0B300B09E020000000000E0
:104D8000407902000000000011002000903A20004D
:104D9000ACA202000000000090C0B300007A020044
:104DA00000000000C0C0B300B09E02000000000080
:104DB000407902000000000011002000903A20001D
:104DC000ACA202000000000090C0B300007A020014
:104DD00000000000B0C0B300B09E02000000000060
:104DE000407902000000000011002000903A2000ED
:104DF000ACA202000000000090C0B300007A0200E4
:104E00000000000021E3A900004020001C00070072
:104E1000001020001A0007000020200018000700E2
:104E200000042000160007000008200014000700FE
:104E300040882800D0750200000000000080FA00C1
:104E4000000006000200FA00000F78004016800003
:104E50001E0060000000E000040032007092280094
:104E6000A47502000000000003003700A092280093
:104E7000A4750200000000000080FA000000060097
:104E80000200FA00000F7800501680001E0060003B
:104E90000000E00004003200D0922800A475020057
:104EA000000000000300370000932800A4750200F2
:104EB000000000000080FA00000006000200FA0076
:104EC000E06780008000E800F00F200000806000B4
:104ED000E067880024FD07003CFB0700000F780016
:104EE0001E00E00006003400400020009E0F10006D
:104EF00003003C001E00E900904088000D003700D0
:104F00000000EB00F06788002102200040812000B3
:104F100036A30200000000008001EB0042002000E8
:104F20001100200010002000A5FD07000000E9008E
:104F300090408800210120006083200036A30200F9
:104F4000000000000080FA00000006000200FA00E5
:104F5000E06780008000E800F00F20000080600023
:104F6000E067880000FD070018FB07001047980065
:104F70001E4090000004E000090032001E40900036
:104F8000EA4F500006003E001E4090000040E9003D
:104F90008040780000812000014878000F00370031
:104FA0000000EB00F0678800D10820003087200067
:104FB00036A30200000000008001EB00A2002000E8
:104FC00011002000900020007DFD07000040E90056
:104FD0008040780000812000014878000081200096
:104FE00010407800E94F500010003A00DEFC070046
:104FF000F6FA0700004F78001E04E0000B003A00AC
:105000000000EB00F067880030932800D0750200A4
:10501000000000008001EB00F2FF27008000EB00A1
:105020002002200066FD0700004F780041012000AB
:105030000090200036A302000000000011012000B3
:10504000B01F210036A302000000000023C2BF00F1
:10505000614060000004E000FCFF3200008120009D
:1050600010407800E94F500003003A001E407800DD
:105070001E7A0200000000003A9F020000000000BB
:1050800000003700E2790200000000000004E000A8
:10509000FCFF3200EE790200000000008040780042
:1050A00000C2B30080CF500001003200F5FF37008E
:1050B0000080FA00000006000000FA00F171800094
:1050C00060E42000008040009040780030C8B300C9
:1050D00080CF50000E003A00F07180000000E80020
:1050E000F071880003003700F07180000000E800D4
:1050F000F0718800F171800060E4200000804000C1
:105100009040780000CEB30080CF5000F6FF36000C
:105110000080FA00000006000A00FA00300798003C
:105120000000EB0020079800AE00900060E4200033
:10513000008040009040780000CEB30080CF500047
:1051400003003E000080EB0040079800230037007A
:10515000AE00900060E42000008040001040780025
:105160008080FB0000F22F000080400010079800B4
:105170002E0090008000E80060E4200000804000E5
:10518000104078000080FB004801DD002E009000F8
:105190008080E80060E4200000804000104078003B
:1051A0000080FB00000F41009E0078003E00900050
:1051B000808F500003003A002E00900040079800B6
:1051C000060037009E0090002E00900000804000F6
:1051D0006300400020079800D3FF37004E00900086
:1051E0000080FA00000006000600FA00881F780020
:1051F0000000EB00000F7800F171800060E42000F7
:10520000008040009040780080C2B30080CF500002
:1052100010003A00F07180000000E800F071880092
:1052200030010700000F7800F171800060E4200079
:10523000008040009040780090C2B30080CF5000C2
:10524000BD003A00F07180000000E800F0718800B5
:10525000B9003700F171800060E420000080400058
:105260009040780000C4B30080CF50001600360094
:10527000F171800060E420000080400090407800E0
:10528000A0C5B30080CF50000F003E00F271800037
:1052900060E4200000004100104078008080FB00A6
:1052A000F0FB2F000080400080004000E0DD200087
:1052B0000080400010007800200798000200E800FD
:1052C000F07188009E003700F171800060E42000DA
:1052D000008040009040780000C8B30080CF5000AC
:1052E00087003600F171800060E4200000804000FB
:1052F000104078000080FB00100798000100E800D3
:10530000F0718800700920009E009000808F50008E
:105310004A003200700920009E009000808F5000EB
:105320000D003C00400920009E009000808F50003E
:105330001F003200600920009E009000808F500006
:1053400034003200300920009E009000808F500011
:105350002100320059003700A00920009E00900073
:10536000808F50003F003200A00920009E00900076
:10537000808F500005003C00800920009E009000B6
:10538000808F5000460032004C003700B0092000EA
:105390009E009000808F500037003200D00920001E
:1053A0009E009000808F50001600320043003700AE
:1053B000A1408000E00220000088B900EA0040001F
:1053C000E093200000804000100078000000010001
:1053D000000F780058003700A1408000E002200054
:1053E0000088B900E8004000E09320000080400001
:1053F000100478008C00070008000100000F7800FE
:105400004D0037003084020000000000000F7800DB
:1054100049003700A1408000E00220000088B90068
:10542000F4004000E093200000804000100078006D
:1054300000000100000F78003F003700A14080000D
:10544000E00220000088B900F8004000E09320004E
:10545000008040001000780000000100000F78007C
:1054600035003700C2C2BF00614060000080FB0011
:10547000000F780030003700CBC2BF000080FB0077
:105480004300DE00614060000081FB000200780004
:105490000080EA008180EA00000F780026003700D3
:1054A00021E3A800C0C0B300B09E020000000000CD
:1054B000000F780021E3A9001F0037000000EB0077
:1054C000000F78001C0037001E0078006A00B90049
:1054D000000F7800F171800060E42000008040003F
:1054E000104078000080FB009E00400000FD2F006F
:1054F000008F4000F07180000000E800F07188002B
:10550000F171800060E4200000804000904078004D
:10551000F0C2B30080CF500007003600F171800068
:1055200060E42000008040009040780090C3B30009
:1055300080CF5000E4FF36001E007800200798005E
:105540002E0090004F0478000080FA000000060052
:105550000600FA0024FF0700000F78000000370063
:10556000F171800060E420000080400090407800ED
:10557000A0C2B30080CF50000A003200F171800059
:1055800060E420000080400090407800F0C2B3004A
:1055900080CF5000030032001E00780020079800E2
:1055A0001E003700F171800060E4200000804000A0
:1055B000104078000080FB00100798000100E80010
:1055C000F0718800A00220009E009000808F5000A3
:1055D00005003200F00220009E009000808F5000F5
:1055E00007003200DEFF3700FFFE07008000780072
:1055F0001E0078000180B900000F7800D8FF370046
:10560000F9FE0700000178001E0078001100090073
:105610000200D800000F7800D1FF37002E00900064
:105620000080FA00000006000600FA00C8FF07002C
:10563000000F780000003700F171800060E4200066
:105640000080400090407800D0C2B30080CF50006E
:105650000A003200F171800060E420000080400008
:1056600090407800B0C2B30080CF500003003200F9
:105670001E0078002007980017003700F1718000A5
:1056800060E4200000804000104078000080FB00B3
:10569000100798000100E800F0718800B0022000B7
:1056A0009E009000808F500008003200D002200041
:1056B0009E009000808F500001003200DEFF370016
:1056C000A3FF07001E0F1000DBFF3700A0FF07003D
:1056D0001E0F4000D8FF37002E0090000080FA0017
:1056E000000006000C00FA00F271800060E4200067
:1056F00000004100104078008080FB00F0FB2F008C
:105700000080400080004000E0DD2000008040007C
:1057100090007800210798000200E800F0718800EE
:105720000000EB00000F78000B0037009E017800AE
:10573000F271800060E42000000041001040780019
:105740008040780066004700817178000200E80020
:10575000F07188001E0FE800F171800060E4200005
:10576000008040009040780000C4B30080CF50001B
:1057700007003600F171800060E4200000804000E6
:1057800090407800A0C5B30080CF50000E003600D6
:10579000F171800060E420000080400090407800BB
:1057A000F0C2B30080CF5000E0FF3600F1718000FE
:1057B00060E42000008040009040780090C3B30077
:1057C00080CF5000D9FF3E0097FF070010079800D8
:1057D00066004700104078000000FB00500798006A
:1057E000C0032000DE009000808F500032003200A5
:1057F000C0032000DE009000808F500005003C00B8
:1058000010022000DE009000808F50004100320026
:105810004E003700D0032000DE009000808F500043
:1058200005003200E0032000DE009000808F500071
:105830000A003200450037000000EB0040079800E6
:10584000AE0090001E009000808F500041003A0092
:1058500011002000410798003E0037006600470015
:1058600090409000D0C3B30080CF500009003A00B0
:105870000000EB0040079800AE0090001E00900072
:10588000808F500033003500110020004107980040
:10589000300037000000EB0040079800AE00900099
:1058A0001E009000808F50002A003400110020005C
:1058B000410798002700370066004700904090009D
:1058C000D0C3B30080CF500009003A000000EB00C5
:1058D00040079800AE0090001E009000808F50009E
:1058E0001C003C00110020004107980019003700FF
:1058F0000000EB0040079800AE0090001E009000F2
:10590000808F500013003D001100200041079800D7
:10591000100037006600470090409000D0C3B300ED
:1059200080CF500009003A000000EB0040079800CB
:10593000AE0090001E009000808F500005003200E5
:105940001100200041079800020037000000EB0022
:10595000400798004E0090000080FA00000006000A
:105960001C00FA00881F78000000EB00F07188002E
:105970000000EB00300798000000EB0020079800C3
:105980000000EB00100798000000EB000072880098
:105990000000EB00107288000000EB00207288000D
:1059A0000000EB0050079800D04080000080A0006D
:1059B000D04088000000EB00400798000900370045
:1059C0004E00900080004000E0DD2000808040001C
:1059D0000000EB00800878004E0090000000E80016
:1059E000400798004E009000F90F5000F4FF34007B
:1059F000340437001E0090000000E00021003A004F
:105A0000F171800060E42000008040009040780048
:105A1000F0CDB30080CF500003003E0020002000F6
:105A2000300798002A043700F171800060E42000FC
:105A300000804000104078008080FB0000F22F00C2
:105A40000080400060079800F07180008000E8004E
:105A500060E4200000804000104078000080FB00DF
:105A60004801DD00F07180008080E80060E42000E3
:105A700000804000104078000080FB0000007100B2
:105A8000500798000000EB0010079800F0718000AC
:105A9000E300400060E420000080400010407800F7
:105AA0000080FB006101B90000F82F00F1FF2F001A
:105AB0000201400083814800420F9800530F980074
:105AC00010022000010020004E099000DE09900025
:105AD000800F5100818F5900EE033E004E08900068
:105AE000DE0890000060010021003700350037001B
:105AF000E8033700E7033700710037008100370003
:105B0000A3003700B7003700BE0037003B01370065
:105B100088013700DF033700EE0137003502370018
:105B200099023700AF0237009F023700CB023700DF
:105B3000BB023700D8023700D6033700780337009E
:105B40005C033700D3033700D2033700000337006C
:105B5000F00237009F033700AD033700DE02370045
:105B60001203370032033700B5033700C60337008E
:105B70001000200020079800F071800066004000AF
:105B8000F0718800F07180008080E90060E42000FE
:105B900000804000104078008080FB00F0FB2F0068
:105BA00000844000A0FE0700000178008800440047
:105BB000E0DD200000804000020878003EFD070084
:105BC000B60337001000200020079800F071800015
:105BD00064004000F0718800C2FE07000000E00091
:105BE0001C003200F1718000310F980060E4200049
:105BF0003E09900000004100904078008041EB0099
:105C00004357980020C8B30080CF500002003A00EC
:105C100010C0B30040579800BE0890000100E80093
:105C2000F07188004E5190000204E0009B033200A6
:105C30001000200010079800F071800063005000F1
:105C4000F071880095033700F07180000000E800D3
:105C5000F0718800F171800060E420000080400055
:105C60009040780030C8B30080CF50000700320069
:105C7000F171800060E420000080400090407800D6
:105C800000CEB30080CF5000EFFF3600F1718000EE
:105C900060E42000008040009040780030C8B300ED
:105CA00080CF50007D033A001000200010079800BC
:105CB000F07180000080E900F07188007703370000
:105CC0001000200020079800F07180006400400060
:105CD000F071880054FE07000FFD0700000F7800E8
:105CE0008081EB009E8F1100030032001E007800BF
:105CF000F0718800690337006000200030079800C9
:105D0000660337001000200020079800F071800023
:105D100064004000F071880010728000E90F5000AC
:105D200018003C0012728000F17180006E0090003B
:105D3000008040008001E9008200410020E1200055
:105D40000080400003087800107280000000E80026
