:020000040000FA
:1000000000200400000000004CCA00004CCA0000A0
:100010004CCA00004CCA00004CCA00004CCA000088
:100020004CCA00004CCA00004CCA00004CCA000078
:100030004CCA0000E09F00004CCA00004CCA0000FF
:100040004CCA00004CCA00004CCA00004CCA000058
:100050004CCA00004CCA00004CCA00004CCA000048
:100060004CCA00004CCA00004CCA00004CCA000038
:100070004CCA00004CCA00004CCA00004CCA000028
:100080004CCA00004CCA00004CCA00004CCA000018
:100090004CCA00004CCA00004CCA00004CCA000008
:1000A0004CCA00004CCA00004CCA00004CCA0000F8
:1000B0004CCA00004CCA00004CCA00004CCA0000E8
:1000C0004CCA00004CCA00004CCA00004CCA0000D8
:1000D0004CCA00004CCA00004CCA00004CCA0000C8
:1000E0004CCA00004CCA00004CCA00004CCA0000B8
:1000F0004CCA00004CCA00004CCA00004CCA0000A8
:100100004CCA00004CCA00004CCA00004CCA000097
:100110004CCA00004CCA00004CCA00004CCA000087
:100120004CCA00004CCA00004CCA00004CCA000077
:100130004CCA00004CCA00004CCA00004CCA000067
:100140004CCA00004CCA00004CCA00004CCA000057
:100150004CCA00004CCA00004CCA00004CCA000047
:100160004CCA00004CCA00004CCA00004CCA000037
:100170004CCA00004CCA00004CCA00004CCA000027
:100180004CC700004CCA00004CCA00004CCA00001A
:100190004CCA00004CCA00004CCA00004CCA000007
:1001A0004CCA00004CCA00004CCA00004CCA0000F7
:1001B0004CCA00004CCA00004CCA00004CCA0000E7
:1001C0004CCA00004CCA00004CCA00004CCA0000D7
:1001D0004CCA00004CCA00004CCA00004CCA0000C7
:1001E0004CCA00004CCA00004CCA00004CCA0000B7
:1001F0004CCA00004CCA00004CCA00004CCA0000A7
:10020000FFFFFF00FFFFFF004CCA00004CCA0000C8
:100210004CCA00004CCA00004CCA00004CCA000086
:100220004CCA00004CCA00004CCA00004CCA000076
:100230004CCA0000E09F00004CCA00004CCA0000FD
:100240004CCA00004CCA00004CCA00004CCA000056
:100250004CCA00004CCA00004CCA00004CCA000046
:100260004CCA00004CCA00004CCA00004CCA000036
:100270004CCA00004CCA00004CCA00004CCA000026
:100280004CCA00004CCA00004CCA00004CCA000016
:100290004CCA00004CCA00004CCA00004CCA000006
:1002A0004CCA00004CCA00004CCA00004CCA0000F6
:1002B0004CCA00004CCA00004CCA00004CCA0000E6
:1002C0004CCA00004CCA00004CCA00004CCA0000D6
:1002D0004CCA00004CCA00004CCA00004CCA0000C6
:1002E0004CCA00004CCA00004CCA00004CCA0000B6
:1002F0004CCA00004CCA00004CCA00004CCA0000A6
:100300004CCA00004CCA00004CCA00004CCA000095
:100310004CCA00004CCA00004CCA00004CCA000085
:100320004CCA00004CCA00004CCA00004CCA000075
:100330004CCA00004CCA00004CCA00004CCA000065
:100340004CCA00004CCA00004CCA00004CCA000055
:100350004CCA00004CCA00004CCA00004CCA000045
:100360004CCA00004CCA00004CCA00004CCA000035
:100370004CCA00004CCA00004CCA00004CCA000025
:100380004CC700004CCA00004CCA00004CCA000018
:100390004CCA00004CCA00004CCA00004CCA000005
:1003A0004CCA00004CCA00004CCA00004CCA0000F5
:1003B0004CCA00004CCA00004CCA00004CCA0000E5
:1003C0004CCA00004CCA00004CCA00004CCA0000D5
:10400000EF242200007F240000018800000000004F
:104010000C000700E0BC2B0001002000110007008D
:10402000000020000000E00002003200000002005A
:104030000000000086C60200000000000040DA0018
:104040000000FE004440A900205D20000000E000C8
:104050000300320000002000A00188004440A800B6
:104060000000060091018800800078000000EB004D
:1040700015003700E280400032A0B4009101BA0080
:10408000E280400032A0B4009102BA00E280400019
:1040900032A0B4000002EB00472BDE00F507B200AF
:1040A000602CE10004003A000059EB008301E900B4
:1040B000FDFF3E00040037006128E10001003200EE
:1040C0000082EB00040007001101BA000200E000CA
:1040D000E8FF3A00000006003159BA008301E90008
:1040E0000C0032002159BA008301E90008003200B7
:1040F0000400E00003003A00E280400032A0B40077
:10410000F5FF370011D9BA008301E900FAFF3A0040
:104110008100E800E180400032A0B4000000060009
:10412000FEC804000000000010C9040000000000E8
:1041300026C90400000000003AC904000000000085
:104140004EC904000000000064C904000000000023
:104150007AC904000000000088C9040000000000C3
:104160004088040000000000C48404000000000037
:10417000B684040000000000108504000000000068
:10418000FC84040000000000F08404000000000033
:10419000E284040000000000D48404000000000059
:1041A0003E8504000000000024850400000000009B
:1041B00032880400000000004C5D04000000000094
:1041C000765D0400000000000259040000000000B9
:1041D000A258040000000000985D040000000000E8
:1041E0005E5C040000000000B05904000000000004
:1041F000545C040000000000165E04000000000093
:104200001259040000000000E471040000000000E6
:104210004472040000000000667104000000000009
:104220001471040000000000AA73040000000000E4
:10423000B872040000000000967304000000000043
:1042400050750400000000008A72040000000000A5
:10425000E265040000000000AA6504000000000000
:104260001A6604000000000054660400000000000C
:1042700048660400000000005E69040000000000C1
:10428000FE66040000000000566904000000000003
:10429000766A040000000000786604000000000058
:1042A000E2AA040000000000FCAA040000000000D4
:1042B000D2AA040000000000C8AA04000000000008
:1042C0003AAB0400000000002EAB04000000000028
:1042D0005EAB04000000000052AB040000000000D0
:1042E00022AB04000000000046AB04000000000008
:1042F00016AB04000000000066AC040000000000E3
:10430000A2AB0400000000009EAC0400000000000E
:104310006AAB04000000000026BF0400000000009B
:10432000E6BE04000000000066BF040000000000BC
:10433000C0BE040000000000B4BE04000000000085
:10434000CABF040000000000D6BF04000000000047
:10435000E2BF040000000000EEBF04000000000007
:10436000B2BF040000000000BEBF04000000000057
:10437000A6BF04000000000040C0040000000000D0
:104380007AC1040000000000FABF04000000000031
:10439000E0B8040000000000F8B8040000000000CD
:1043A000C6B80400000000006EB904000000000060
:1043B00010B90400000000002C6B04000000000095
:1043C000D8BA04000000000020CA04000000000069
:1043D00018CA04000000000012CA04000000000017
:1043E000124A04000000000028A60400000000009B
:1043F0000EA704000000000000A704000000000059
:104400006AA70400000000005CA704000000000090
:10441000108404000000000040840400000000003C
:10442000889FBE008A9FBE00010578000100E00061
:104430000400350008003C000000E00020003200CD
:104440000500370060001000E080180002003B000B
:1044500001F02C001A0037000004BE006011B80003
:104460006B0920000982CF00020039000882CF00CA
:104470000441B000694252000E00320008003B00C7
:1044800082817100610164008904D1000884D30035
:104490008B05E8000442E800F9FF3A000500370008
:1044A0000804440089844C008B05E9000442E900BB
:1044B000FBFF3A000B0107000AF0A70001F0A00083
:1044C0004F05BE004F04BE0000000600F4FF2F00A1
:1044D0002A0137001400200028013700889FBE0001
:1044E0008A9FBE008C1F78003F0107004601330001
:1044F00003866C006450E1002E0032006420E1006D
:10450000330032006150E1002F0032006120E100F1
:104510003100320085855500EB07B000090020000E
:1045200008042000050037000804440089844C007A
:104530000A0031000603430087834B00000153004B
:1045400081815B00F8FF33000203BE000800A00079
:104550000804440089844C00F6FF3900C639DD00A8
:104560008301730001003200130020008904D10090
:104570000884D3000998A300050032000800A700B2
:104580000300A0008904D1000884D3008B05E80053
:104590008904D1000884D3000001EB000281D2001D
:1045A000D000070001F0A1000CF0A70001F0A0006E
:1045B0001E0137006420E100200132000801BE0026
:1045C0000200BE00F7FF37006120E1001B0132004E
:1045D0006000B800F3FF37000000200001F827005A
:1045E000F0FF370003F0A200889FBE008A9FBE0044
:1045F0008C1F7800FC000700030133006450E100C9
:104600004F0032006420E1005200320003826C004F
:1046100007003B000905D0000306D000820F5400BC
:104620000C065D00020039000200320089017800AA
:10463000030678008582550004003D000003FD005C
:104640008103FD008502EA008B854200840F720021
:1046500002003B0060001000E08018006011B8000C
:104660000005EB007A28E1000A0039000600780016
:10467000C75DDD00F707B200878075002D003700A9
:10468000828171000A017800610560008180D1009B
:104690000080D3008502E900F9FF3B0006044000DA
:1046A0008784480002003B0060041400E0841C0082
:1046B0000988A300070032008A817100828171009D
:1046C000610164008904D1000884D3008B05E800EF
:1046D000170037000978A30013003A000B00E00030
:1046E000130034008B05E9000804440089844C0061
:1046F0000A4474000978A3000D003A000B00E000A2
:10470000070034008B05E9000804440089844C004C
:1047100001003A000B0020000978A300F7FF3200E7
:104720000001EB0002003700828171000A0178006D
:104730006C0007000CF0A70001F0A000BB003700E0
:104740006420E10002003A00838F6C00BB0033005C
:104750000801BE000200BE00B4003700889FBE0002
:104760008A9FBE008C1F78009F000700A6003300C0
:1047700003866C006450E100240032006420E100F4
:10478000270032006150E100220032006120E10088
:10479000210032008B854200EB07B1000134B800E4
:1047A000003AB8000804420089844A00013AB8007F
:1047B0000030B8008880400009014A00040033003E
:1047C0000000400081804800020149008B05E9009B
:1047D000C909DD00830170000100320013002000D0
:1047E000C814DE004814DD004709DE001200B200E4
:1047F000C808DE00088470003A00070001F0A1003C
:104800000CF0A70001F0A000880037006120E10053
:104810008A0032000801BE000200BE00F7FF370028
:104820006150E100FCFF3A00840037000001BE0047
:10483000850007000470A70003F0A10003F8A3009F
:1048400013003A006509B10010003200090035007C
:104850006928E10002003500010028000000050081
:1048600000004000818048008502E900FCFF3A001A
:1048700000000600F88F4200050035008100D100DD
:104880000080D3008502E800FCFF3A00000006002B
:104890008000EB00000005006022B8000602200046
:1048A0000000D0008180D2000482D2008582D20034
:1048B0000000A0000202520083825A00030031006F
:1048C0000202420083824A000000A1000603E900C0
:1048D000F3FF3A0000000600EFFF07000400BE00EF
:1048E0000000060081002000618055000B003D00A3
:1048F0000B00200061FE2F000100E1001D003400CC
:1049000082817100610164008904D1000884D300B0
:104910000000E800FAFF3A00710020006100640026
:1049200003007000020060000900320061044400CE
:10493000E0844C000988A500050032008B05E800E2
:104940006808E10002003A008904D1000884D3001D
:10495000F20F20000258E10005003D00C75DDD00B8
:10496000F907B20089807500080078000000060091
:104970000BF827008B00780000000500889FBE0020
:104980008A9FBE00841F7800170007004F00780040
:1049900011003300F0FF2F00838F6C0006003B00F6
:1049A000040565000A00A7000800370009F0A6000A
:1049B0001000200008003700820F5400838F5C0035
:1049C000030039001000200001003E00000020001C
:1049D00009F0A7000000EA004F05BE004F04BE002A
:1049E0000000E000000006000004BE001600070002
:1049F0000003BE000405BE000200BE001200070056
:104A0000844F7500000006000200BE006450E10003
:104A1000050036006420E100020036000968A300AA
:104A200001003A000800BE000160A0004F067800B7
:104A30004F05BE004F04BE0000000600F0FF2F002F
:104A4000F1FF2700F9FF3700C70ADE00F107B200C7
:104A5000F50FB20008003200E1CF42000200320040
:104A60000170A00024000500810F700001003200D9
:104A70000408050044000500810F700002003A00A0
:104A8000140005008502E9000000400081C04800D4
:104A9000FCFF3B000170A000240005008001EB003A
:104AA0000200370061F079008301E800828F510035
:104AB000FCFF3A00000006003E0000000820000055
:104AC000080000001B5B0000440000001B5B0000AE
:104AD00000440000001B00005B430000001B0000BE
:104AE0005B3200004B0D000000430000000000009E
:104AF0001B5B0000324400000041000055580000DC
:104B000031200000736500006C65000063740000D4
:104B1000656400000041000055580000322000008C
:104B2000736500006C65000063740000656400003C
:104B300000570000617200006E6900006E6700009F
:104B40003A2000006E6F0000207600006F6C0000BD
:104B50007461000067650000206F00006E20000097
:104B600056700000756C00006C750000702000002D
:104B7000706900006E000000203D00002000000071
:104B80005652000045470000207400006F6F00007F
:104B9000206C00006F7700002C200000697300007B
:104BA000207400006865000072650000206100004C
:104BB00020730000686F0000727400003F00000066
:104BC0002E2000003C0000002E200000000D000000
:104BD0000A28000000780000002900003E000000C4
:104BE00042750000732000005069000072610000EF
:104BF0007465000020760000340000004669000063
:104C0000726D000077610000726500002076000080
:104C1000362E0000302D000061340000200000001E
:104C20002028000032340000464A000032350000DF
:104C300036470000423100003036000020000000FE
:104C4000413300000041000035000000554E0000D7
:104C50004B000000290000004346000047300000E0
:104C60003A20000000560000707500003D3500003D
:104C7000562C00002000000056700000753D00001A
:104C800033560000332C000020000000612F00008C
:104C9000412F000040200000636F00006E74000090
:104CA000726F00006C730000204100005558000036
:104CB00031200000706900006E000000612F0000CC
:104CC000412F000040200000636F00006E74000060
:104CD000726F00006C730000204100005558000006
:104CE00032200000706900006E00000049090000D9
:104CF000004F00000900000048090000004C0000BF
:104D000009000000456E000074650000722000007C
:104D10007261000077200000766100006C75000071
:104D200065200000666F0000722000004252000003
:104D30004700000057610000726E0000696E0000BD
:104D4000673A0000206100006C720000656100009D
:104D50006479000020610000207600006F6C000084
:104D60007461000067650000206F00006E20000085
:104D700056700000756C00006C750000702000001B
:104D8000706900006E000000536500006C65000053
:104D9000637400002056000070750000207300004E
:104DA0006F75000072630000650000002031000094
:104DB000292000004E6F00006E650000206F00008B
:104DC000722000006578000074650000726E0000BB
:104DD000616C00000020000032290000204F00001C
:104DE0006E6200006F6100007264000020330000FA
:104DF0005633000020560000726500006700000076
:104E000020330000292000004F6E0000626F000078
:104E1000617200006420000035560000205600003A
:104E200072650000670000006F6E00002D620000D8
:104E30006F6100007264000020700000756C00005B
:104E40006C75000070200000766F00006C7400002C
:104E50006167000065200000646900007361000064
:104E6000626C0000656400000033000056330000EF
:104E7000206F00006E2D0000626F00006172000064
:104E800064200000707500006C6C000075700000FC
:104E9000207600006F6C0000746100006765000000
:104EA000206500006E610000626C00006564000017
:104EB00000350000562000006F6E00002D620000DB
:104EC0006F6100007264000020700000756C0000CB
:104ED0006C75000070200000766F00006C7400009C
:104EE0006167000065200000656E000061620000DF
:104EF0006C65000064000000004100007761000064
:104F000069740000696E00006720000041630000C2
:104F10007469000076690000747900002E2E00008C
:104F20002E0A00000D2800004E6F0000746900007A
:104F3000636500003A200000416E00007920000007
:104F40006B65000079200000746F00002065000090
:104F50007869000074200000617400002074000073
:104F60006869000073200000706F0000696E000027
:104F7000742000006F6E00006C7900002E2E00007F
:104F80002E2900000A0D0000000A00000D2A000072
:104F90002A20000045610000726C000079200000AA
:104FA00045780000697400002E2E00002E0A0000D3
:104FB0000D0000000A0D00004E4F00005449000093
:104FC000434500002120000028200000426100002D
:104FD00075640000203E00003D20000032350000D6
:104FE0003630000030300000202900000A0D00009B
:104FF0005468000065200000736100006D700000BF
:105000006C650000642000006275000073200000E1
:1050100068610000732000006120000062610000F0
:1050200075640000207200006174000065200000BB
:10503000746F00002066000061730000742000009F
:10504000666F000072200000746800006520000098
:105050004250000020680000617200006477000088
:105060006172000065200000746F000000630000A2
:10507000616C0000637500006C61000074650000E5
:105080002061000070700000726F000070720000FC
:1050900069610000746C0000792E0000204E000051
:1050A0006F20000065730000746900006D610000EE
:1050B00074650000642000006261000075640000F7
:1050C0002072000061740000652000007769000014
:1050D0006C6C000020620000652000007375000009
:1050E000707000006C690000656400002E200000F4
:1050F000496E0000206F00007264000065720000BD
:10510000007400006F20000067650000742000003C
:105110007468000065200000626100007564000092
:105120002072000061740000652C0000206F0000F8
:105130006E200000746800006973000020620000A7
:10514000757300002C200000796F000075200000AE
:10515000776900006C6C0000206E0000656500003F
:1051600064200000746F000020750000736500006B
:1051700020610000206C00006F6700006963000080
:10518000206100006E6100006C7900007A6500000B
:105190007200000061740000207300007065000060
:1051A0006564000073200000617200006F750000EC
:1051B0006E64000020350000304D0000687A000069
:1051C0002B2E0000204F0000706500006E200000B4
:1051D000426500006E630000682000004C6F000014
:1051E0006769000063200000536E000069660000DC
:1051F00066650000722000007265000063630000B5
:105200006F6D00006D6500006E6400006564000055
:105210002E2000003B290000000A00000D41000084
:1052200063740000756100006C20000043610000A1
:105230006C630000756C0000617400006564000020
:1052400020420000617500006420000052610000EF
:10525000746500003A200000090000002062000090
:10526000707300002028000045730000746900007E
:105270006D6100007465000064290000000A0000F0
:105280000D4E00006561000072650000737400003F
:10529000204300006F6D00006D6F00006E20000065
:1052A000426100007564000020520000617400003B
:1052B000653A000020090000002000006270000034
:1052C000730000000A0D00000A0D0000456E00008A
:1052D000642000006F66000020460000756E00002C
:1052E00063740000696F00006E2E0000204700000C
:1052F0006F6F00006420000062790000652E0000DE
:1053000000410000525400003100000044690000D8
:10531000736300006F6E00006E6500006374000030
:10532000206100006E7900002064000065760000B6
:105330006963000065730000004300006F6E0000A9
:105340006E650000637400002028000041440000E6
:1053500043200000746F0000202B0000332E00005B
:10536000335600002900000045450000505200005F
:105370004F4D000000530000434C0000005300005C
:10538000444100000057000050000000414300006D
:105390004B000000567500007362000000350000ED
:1053A0005630000020560000505500000033000029
:1053B000563300002056000050550000004D0000FC
:1053C0004F440000452C00002056000052450000CC
:1053D000472C0000206100006E6400002055000092
:1053E00053420000204C00004544000073200000A0
:1053F000736800006F7500006C640000206200009C
:10540000652000006F6E00002100000000290000F0
:10541000002000005700000020520000004E000055
:105420006F77000020750000736900006E67000050
:10543000206F00006E2D0000626F0000617200009E
:105440006420000045450000505200004F4D000010
:105450002049000032430000206900006E74000003
:10546000657200006661000063650000004F000087
:105470006E2D0000626F0000617200006420000069
:1054800045450000505200004F4D000020770000BD
:10549000726900007465000020700000726F0000E7
:1054A00074650000637400002064000069730000EC
:1054B000616200006C650000640000004932000079
:1054C0004331000000000000120100001001000044
:1054D0000200000000080000D804000000FB0000EB
:1054E00002000000010200000301000009020000A8
:1054F0004300000002010000008000006409000079
:105500000400000000010000020200000100000091
:105510000524000000100000010400002402000027
:105520000205000024060000000100000524000020
:10553000010100000107000005810000030A0000CE
:10554000004000000904000001000000020A000001
:1055500000000000000700000502000002400000FB
:10556000004000000705000082020000400000002B
:1055700040000000306200000030000030300000C9
:105580002C000000303000000030000031320000FC
:105590003334000035360000373800003941000050
:1055A00042430000444500004630000078000000FF
:1055B000436F0000756C0000646E000027740000EB
:1055C000206B000065650000702000007570000011
:1055D00000000000535000004931000000000000AE
:1055E0003A200000000000002E00000031570000AB
:1055F0003031000000000000314100004C53000039
:10560000004200005076000033000000080800004F
:10561000080800000800000000000000204800000A
:105620007A0000000000000042420000494F0000E4
:10563000310000005241000057310000000000001E
:105640004E4F0000454D00005300000000000000D8
:105650002900000000000000000000002800FA00FF
:105660000000EB00600F98000000EB0010D88800ED
:105670000000EB0000D8880000D8800020079800C8
:105680000000EB00100798000000EB00000F78000E
:105690000000EB00900489000000EB005007980028
:1056A0000000EB0020D888000000EB0040079800C5
:1056B0000000EB00000F9800140037000000EB0022
:1056C000600798000B0037000E089000EE00900075
:1056D0004500DD008100400060B021008080400076
:1056E0000040EB00804878006E0090000000E80069
:1056F000600798006E009000FF0F5000F2FF34002A
:105700000E0890000000E800000F98000E089000BE
:10571000E40F5000E9FF34000000EB0030DD8800AA
:1057200091048100E00220000088B900610220009D
:105730008080400080BA210000804000F69A02007C
:1057400000000000C10481000020200000806000F3
:105750000000E0000400320071002000C059200069
:1057600026C4020000000000C0552A00F69A02007C
:10577000000000004904370030DD80000000E00038
:105780006400320030DD80000000E90030DD880078
:105790000000EB00600798001E00370002D8800070
:1057A00030DD8000EE0090004500DD00810040000B
:1057B00060B02100008040009040780000A02100EF
:1057C000000041000148780030DD8000EE009000CC
:1057D0004500DD008100400060B0210000804000F5
:1057E00010407800FA9E02000000000000D88000FF
:1057F0000000E80000D888006E0090000000E8007B
:105800006007980001D88000F00F20000080600041
:1058100000D8880030DD8000EE0090004500DD00FB
:105820008100400060B021000080400010407800FE
:105830000004E000D9FF3A000000EB0030DD8800F2
:1058400034003700201D22001040780064406000C2
:105850000004E0002E00320091048100E0022000EC
:105860000088B900FA00400080BA210000804000A2
:1058700010007800000001000000E0002400320069
:1058800091048100E00220000088B900610220003C
:105890008080400080BA210000804000F69A02001B
:1058A00000000000C0552A00F69A02000000000027
:1058B00011D8800000D88000808F50001400320082
:1058C00010D88000600798000D003700EE009000AF
:1058D00000A021000080400010407800FA9E0200E5
:1058E00000000000EE009000F00F2000008060003B
:1058F000600798006E0090000000E80060079800C4
:10590000EE00900000D88000808F5000EFFF3A003A
:10591000D3C2BF007A9F0200000000000004E00034
:10592000C8FF3200C49F0200000000000004E00035
:1059300003003200CC9F020000000000D7033700B4
:10594000869F020000000000604F98006E489000A3
:105950000080FB006101B90002179800131798003E
:10596000F0072000010020000E1190009E11900011
:10597000800F5100818F590054033E000E1090009B
:105980009E1090000060010045033700FA023700C6
:10599000560137004D033700D80037001103370098
:1059A0006B013700490337007700370047033700A2
:1059B000270337004503370044033700240337002B
:1059C0001602370041033700720137003F033700EA
:1059D0003E0337003D0337003C0337003B033700ED
:1059E0003A033700390337003803370037033700ED
:1059F0003603370002013700340337003303370022
:105A00003203370031033700300337002F033700EC
:105A10002E0337002D0337002C0337002B033700EC
:105A20002A033700290337002803370027033700EC
:105A300026033700250337002403370023033700EC
:105A40002203370021033700200337001F033700EC
:105A50001E0337001D0337001C0337001B033700EC
:105A60001A033700190337001803370017033700EC
:105A700016033700150337001403370013033700EC
:105A80001203370011033700100337000F033700EC
:105A90000E0337000D0337000C0337000B033700EC
:105AA0000A033700090337000803370007033700EC
:105AB00006033700050337000403370003033700EC
:105AC000020337000103370000033700FF023700ED
:105AD000FE023700FD023700FC023700FB023700F0
:105AE000FA023700F9023700F8023700F7023700F0
:105AF000F6023700F5023700F4023700F3023700F0
:105B0000F2023700F1023700F0023700EF023700EF
:105B1000EE023700ED023700EC023700EB023700EF
:105B2000EA023700E9023700E8023700E7023700EF
:105B3000E6023700E5023700E4023700E3023700EF
:105B4000E2023700E1023700E0023700DF023700EF
:105B5000DE023700DD023700DC023700DB023700EF
:105B6000DA023700D9023700D8023700D7023700EF
:105B7000D6023700D5023700D4023700D3023700EF
:105B8000D20237005D00370011D880002E0090004F
:105B9000810F50005500320001D880002E00900087
:105BA000810F500010003A0000D880008000E9000A
:105BB000F00F20000080600000D8880001D880002D
:105BC00000A02100808040000040EB008048780069
:105BD00001D8800021079800E0552A00F69A0200BB
:105BE000000000002D0337000000EB00000F9800BC
:105BF0002E0090008000E900F00F2000008060007F
:105C00002007980020562A00F69A020000000000A3
:105C10002E01900062079800210037006E0190006D
:105C20006E0090008000E80000A02100008040008D
:105C30009040780000A02100000041000148780059
:105C4000EE00900000A0210000804000104078008D
:105C50000004E00007003200EE00900000A02100E8
:105C60000080400010407800FA9E02000000000012
:105C70000300370000C2B300FA9E020000000000DB
:105C80000E0890000000E800000F98006E009000E1
:105C90008000E800F00F200000806000600798009E
:105CA000EE00900000D88000808F5000DBFF3A00AB
:105CB00000D880008000E900F00F20000080600024
:105CC00000D8880060562A00F69A02000000000002
:105CD0000E0890008E9D02000000000090562A00E1
:105CE000F69A020000000000EC02370070C0B3001A
:105CF000FA9E020000000000E802370001D8800090
:105D00002E009000810F5000390032000000EB009F
:105D1000000F9800AE019000630798002100370043
:105D20006E0190006E0090008000E80000A021004D
:105D3000008040009040780000A021000000410059
:105D400001487800EE00900000A021000080400093
:105D5000104078000004E00007003200EE009000E0
:105D600000A021000080400010407800FA9E020050
:105D7000000000000300370000C2B300FA9E0200DA
:105D8000000000000E0890000000E800000F9800DE
:105D90006E0090008000E800F00F2000008060009E
:105DA00060079800EE00900000D88000808F5000BF
:105DB000DBFF3A0000D880008000E900F00F2000EF
:105DC0000080600000D8880060562A00F69A020021
:105DD000000000000E0890008E9D020000000000F0
:105DE00090562A00F69A020000000000AB0237002D
:105DF00070C0B300FA9E020000000000A702370046
:105E0000869F020000000000604F9800EE4890005E
:105E1000B0C5B30080CF5000A0023A00869F0200B8
:105E200000000000604F98006E4890000080FB006A
:105E3000700F980010042000FE089000808F500022
:105E400054003200100420007E099000800F5100A1
:105E500009003C0010032000FE099000808F5100D3
:105E60001200320040032000FE089000808F500096
:105E70001600320089023700300420007E099000AD
:105E8000800F51003200320030042000FE099000E3
:105E9000808F5100E100350040042000FE08900092
:105EA000808F5000110032007C023700869F020074
:105EB00000000000604F9800EE489000E0C7B3007B
:105EC00080CF5000AC01320074023700869F020080
:105ED00000000000604F9800EE489000E0C7B3005B
:105EE00080CF5000BF0132006C0237004E0090009E
:105EF000E40F50000500340062AE02000000000014
:105F00000000EB00400798006402370011D88000C1
:105F10002E009000810F5000090032002E009000EA
:105F20008000E900F00F200000806000200798004A
:105F300020562A00F69A020000000000570237009F
:105F400070C0B300FA9E0200000000005302370048
:105F500001D880002E009000810F5000090032000F
:105F60002E0090008000E800F00F2000008060000C
:105F700020079800B0562A00F69A020000000000A0
:105F80004602370070C0B300FA9E02000000000015
:105F9000420237000000EB00000F780010D88000AC
:105FA0000000E90080007800F00F20000080600011
:105FB000600798008D003700EE00900000A02100DF
:105FC00000804000104078000004E00082003A00A9
:105FD0006E0090008000E900F00F200080806000DB
:105FE00000A0210000804000104078000004E00084
:105FF000790032001E0FE8001E0090009E0F100076
:10600000750036001E0090000000E80010079800A0
:1060100011D8800000D88000808F5000140032001A
:106020000A00370001D8800000A0210080804000D5
:106030000040EB008048780000D880008000E90034
:10604000F00F20000080600000D8880001D8800098
:1060500010D88000808F5000F2FF3A0001D88000F5
:1060600000A02100808040000040EB0080487800C4
:106070006E0090008000E900F00F200000806000BA
:10608000000F9800110037008E08900000A021003A
:1060900000804000104078000004E00006003A0054
:1060A0000E0890008000E800F00F200000806000E3
:1060B00050079800090037000E0890008000E900A2
:1060C000F00F200000806000000F98008E08900004
:1060D00000D88000808F5000EBFF3A00F0562A0075
:1060E000F69A02000000000091048100E002200006
:1060F0000088B900610220008080400080BA210041
:1061000000804000F69A020000000000C1048100F7
:1061100000202000008060000000E0000400320049
:1061200071002000C059200026C4020000000000B9
:10613000C0552A00F69A0200000000005E0190009F
:10614000020F9800180037008E08900000A0210070
:106150000080400010407800FA9E0200000000001D
:1061600002D880008E08900000A02100008040002E
:106170009040780000A02100000041000148780014
:1061800000D880008000E800F00F20000080600050
:1061900000D888000E0890008000E800F00F200072
:1061A00000806000000F98008E0890006E00900044
:1061B000808F5000E4FF3A0001D8800000A0210049
:1061C000808040000040EB008048780003D88000C9
:1061D00023079800090037006E0090008000E90056
:1061E000F00F20000080600060079800EE00900033
:1061F00000D88000808F50006FFF3A00EE009000C2
:1062000000D88000808F5000A4013A0070C0B30015
:10621000FA9E020000000000A00137000000EB0021
:10622000000F780010D880000000E900800078009E
:10623000F00F200000806000600798008E0037009B
:10624000EE00900000A02100008040001040780087
:106250000004E00083003A006E0090008000E90036
:10626000F00F20008080600000A02100008040002E
:10627000104078000004E0007A0032001E0FE800B1
:106280001E0090000000E9009E0F500075003A00CB
:106290001E0090000000E9001007980011D880004F
:1062A00000D88000808F5000140032000A003700B0
:1062B00001D8800000A02100808040000040EB0059
:1062C0008048780000D880008000E900F00F2000AE
:1062D0000080600000D8880001D8800010D88000BD
:1062E000808F5000F2FF3A0001D8800000A021000A
:1062F000808040000040EB00804878006E009000F5
:106300008000E900F00F200000806000000F98007E
:10631000110037008E08900000A02100008040008E
:10632000104078000004E00006003A000E089000DB
:106330008000E800F00F2000008060005007980007
:10634000090037000E0890008000E900F00F2000DF
:1063500000806000000F98008E08900000D8800038
:10636000808F5000EBFF3A00F0562A00F69A0200A8
:106370000000000091048100E00220000088B900C4
:10638000610220008080400080BA2100008040002F
:10639000F69A020000000000C104810000202000E5
:1063A000008060000000E000040032007100200066
:1063B000C059200026C4020000000000C0552A0079
:1063C000F69A0200000000005E009000000F9800A6
:1063D000180037008E08900000A0210000804000C7
:1063E00010407800FA9E02000000000002D88000F1
:1063F0008E08900000A021000080400090407800AE
:1064000000A02100000041000148780000D8800071
:106410008000E800F00F20000080600000D88800B5
:106420000E0890008000E800F00F2000008060005F
:10643000000F98008E0890006E009000808F500032
:10644000E4FF3A0001D8800000A0210080804000D5
:106450000040EB008048780001D8800021079800B8
:10646000090037006E0090008000E900F00F200066
:106470000080600060079800EE00900000D8800067
:10648000808F50006EFF3A00EE00900000D8800030
:10649000808F500001013A001E009000E10F500073
:1064A00031003A00F0562A00F69A0200000000007F
:1064B00091048100E00220000088B9006102200000
:1064C0008080400080BA210000804000F69A0200DF
:1064D00000000000C1048100002020000080600056
:1064E0000000E0000400320071002000C0592000CC
:1064F00026C4020000000000C0552A00F69A0200DF
:10650000000000000A00370001D8800000A0210030
:10651000808040000040EB008048780000D8800078
:106520008000E900F00F20000080600000D88800A3
:1065300001D8800010D88000808F5000F2FF3A0010
:1065400001D8800000A02100808040000040EB00C6
:106550008048780002D88000220798000000EB00F5
:1065600010079800CD00370070C0B300FA9E0200FB
:1065700000000000C900370011D880002E009000F4
:10658000810F50001300320011D880002E009000BF
:106590000100500080007800F00F200000806000B3
:1065A000000F980060562A00F69A020000000000D2
:1065B0000E0890008E9D02000000000090562A00F8
:1065C000F69A02000000000013D88000230798000C
:1065D000B200370070C0B300FA9E02000000000055
:1065E000AE00370001D880002E009000810F5000CF
:1065F0001300320001D880002E009000008050006F
:1066000080007800F00F200000806000000F9800EC
:1066100060562A00F69A0200000000000E08900062
:106620008E9D02000000000050572A00F69A0200DA
:106630000000000000D88000200798009700370075
:1066400070C0B300FA9E0200000000009300370003
:1066500010002000600F98000000EB001007980069
:1066600001D8800000A02100808040000040EB00A5
:106670008048780000D880008000E800F00F2000FB
:106680000080600000D8880001D8800021079800B1
:1066900070572A00229B0200000000007F00370094
:1066A0004E0090000000E800400798004E00900067
:1066B000F40F500079003A0048A0020000000000EA
:1066C0000000EB00400798007400370000D88000FD
:1066D0008000E800F00F20008080600010D880006B
:1066E000808F50006A0032006E489000FF4F5000CB
:1066F00067003600EE489000E0C7B30080CF50003E
:1067000063003E0001D880002E009000808F500072
:1067100015003A006E489000FA9E0200000000004A
:1067200001D880006E49900000A021000080400048
:106730000248780000D880008000E800F00F2000B8
:106740000080600000D8880001D8800000A02100EF
:10675000808040000040EB008048780002D8800034
:10676000220798004D00370001D880002E009000CD
:106770000080500080007800F00F20000080600052
:10678000000F980060562A00F69A020000000000F0
:106790000E0890008E9D02000000000050572A0055
:1067A000F69A02000000000000D880006007980000
:1067B0001D0037006E0090000001E800EE00900020
:1067C00000A02100008040009040780000A021003F
:1067D0000000410001487800EE00900000A0210078
:1067E00000804000104078000004E0000900320002
:1067F000EE00900000A021000080400010407800D2
:10680000FA9E02000000000080572A00F69A02005B
:10681000000000006E0090008000E900F00F2000F2
:1068200000806000600798006E0190002E009000CC
:106830008000E900F00F200000806000800F510010
:10684000DCFF3A006E489000FA9E02000000000053
:10685000AE0090006E49900000A021000080400032
:10686000024878002E0090008000E800F00F200021
:10687000008060002007980000D880008000E800B9
:10688000F00F20000080600000D88800030037006F
:1068900070C0B300FA9E0200000000006E08900075
:1068A0000000E000B4FB320000D88000400F9800E8
:1068B00010D88000300F98000000EB00600F9800A7
:1068C0000000EB00500F98000000EB0020D888007B
:1068D0001205370011D8800000A021000080400080
:1068E00010407800604F98006E4890000080FB00D8
:1068F0006101B9002217980033179800E0072000C3
:10690000010020002E119000BE119000800F510058
:10691000818F5900D5043E002E109000BE109000CB
:1069200000600100D3043700D0043700CF043700E3
:10693000CE043700CD043700CC043700CB04370039
:10694000CA043700C9043700C8043700C904370037
:10695000C6043700C5043700C6043700C304370037
:10696000C2043700C1043700C0043700BF04370039
:10697000BE043700BD043700BC043700BB04370039
:10698000BA043700B9043700B8043700B704370039
:10699000B6043700B5043700B4043700B304370039
:1069A000B2043700B304370090043700D002370038
:1069B0004101370046013700EB013700D9013700AC
:1069C000AA043700A9023700A8043700A70437003B
:1069D000A8043700A70437003C04370055043700EB
:1069E00020043700490337004803370047033700C6
:1069F000460337004503370044033700430337009D
:106A00004203370041033700400337009704370043
:106A100096043700F0013700DF0037009304370099
:106A20003F00370054013700460137008F0437001C
:106A300065003700B80137008C0437008B0437003D
:106A40008A04370089043700880437008704370038
:106A5000720037007B00370084043700830437005E
:106A600082043700A3003700800437007F0437001A
:106A7000CE0137007D0437007C0437007B043700EB
:106A80005301370079043700780437007704370062
:106A9000FA023700000437000A03370034043700D5
:106AA0001704370071043700190137002700370039
:106AB0003A0037008A013700B50037002900370057
:106AC0002B003700690437001800370067043700CF
:106AD00048003700680037001A00370063043700A9
:106AE0001C00370071003700600437008303370053
:106AF0005E0437005D0437005C0437001700370080
:106B0000650137005904370058043700570437002F
:106B1000E3023700BB003700F3023700D90037002B
:106B2000C6C402000000000052043700C807070076
:106B3000900481000000E0004E043200FC070700D2
:106B40004C043700760607004A0437006E09070038
:106B5000480437004809070046043700B408070016
:106B600044043700F696020000000000410437009C
:106B7000900481000000E00005003A00D1012000EF
:106B8000305D2000B0C4020000000000390437006E
:106B90005E9502000000000036043700201D220030
:106BA000104078000000A1000010A100211D22006B
:106BB0008048780061012000805A2000B0C40200A3
:106BC000000000002B043700201D22001040780038
:106BD0000000A0000010A100211D220080487800C4
:106BE00051012000E05B2000B0C402000000000062
:106BF00020043700201D2200104078000000A10072
:106C00000010A000211D220080487800D0572A00E3
:106C1000229B02000000000016043700201D220005
:106C2000104078000000A0000010A000211D2200EC
:106C300080487800B0582A00229B02000000000023
:106C40000C043700201D2200104078000030A00006
:106C5000211D220080487800C1012000B07E200064
:106C600026C402000000000070572A00229B020088
:106C700000000000FF033700201D220010407800B4
:106C80000030A100211D220080487800B1012000C1
:106C9000007D200026C402000000000070572A007A
:106CA000229B020000000000F203370090048100E4
:106CB0000000E00005003A00D1012000305D200016
:106CC000B0C4020000000000EA033700E282A9001D
:106CD000E082A90051012000005F200026C40200CC
:106CE0000000000070572A00229B020000000000F4
:106CF000E0033700900481000000E00005003A0046
:106D0000D1012000305D2000B0C40200000000006E
:106D1000D8033700201D220010407800704060002A
:106D20000004E00004003A002102200050E82000A6
:106D3000B0C4020000000000E082A800E282A900C6
:106D4000410120005060200026C402000000000025
:106D500070572A00229B02000000000021E3A800D7
:106D600050C0B3004CC20200000000008000780058
:106D7000F0042000808F500003003E0090592A004C
:106D8000229B02000000000021E3A900B9033700A4
:106D900036090700B703370010D880008000E800EC
:106DA000F00F20000080600010D88800CC0507009C
:106DB000E4030700600798006E009000F09D020059
:106DC00000000000C05B2A00F69A020000000000EC
:106DD0006E0090008E9D020000000000C05B2A0043
:106DE000F69A0200000000006E009000569B020020
:106DF0000000000070572A00229B020000000000E3
:106E00009C03370010D880008000E800F00F2000BD
:106E10000080600010D88800B1050700C903070092
:106E2000600798006E0090000080FB00DEC3020047
:106E300000000000600798006E009000F09D0200C6
:106E400000000000C05B2A00F69A0200000000006B
:106E50006E0090008E9D020000000000C05B2A00C2
:106E6000F69A0200000000006E009000569B02009F
:106E70000000000070572A00229B02000000000062
:106E80007C033700900481000000E00005003A0018
:106E900011C0B30010C0B3006EB5020000000000C6
:106EA00074033700A101200090612000B0C40200EB
:106EB000000000006F033700510020003063200005
:106EC000B0C40200000000000000FE0069033700AB
:106ED00056C50200000000000000E000650332001B
:106EE000A100200080632000B0C402000000000068
:106EF000400620007CC3020000000000BEC102006A
:106F00000000000081BF2A00014001005903370042
:106F1000310507000000E800000F9800020037006C
:106F2000DE980200000000000E0890000000E9005A
:106F3000000F98000E0890000000E000F8FF3A00F3
:106F40004C033700240507000000E800000F9800FC
:106F5000020037008E980200000000000E0890002A
:106F60000000E900000F98000E0890000000E0000B
:106F7000F8FF3A003F033700170507000000E8005C
:106F8000000F98000B0037006101200020642000F2
:106F900026C40200000000002E990200000000003C
:106FA000E09A02000000000070572A00229B0200B5
:106FB000000000000E0890000000E900000F98009B
:106FC0000E0890000000E000EFFF3A0029033700B0
:106FD000900481000000E00005003A00D10120008B
:106FE000305D2000B0C40200000000002103370023
:106FF000C922A900CB22A80021E3A800200020007C
:107000007CC30200000000000040EB004CC2020004
:107010000000000080007800001B2000808F5000DE
:107020000F00360020C0B3004CC202000000000078
:1070300080007800702B2000808F50000800360000
:10704000110120008065200026C40200000000001D
:1070500070572A00229B0200000000000C0037003D
:10706000C922A900CB22A900005C2A00229B0200B1
:1070700000000000210120009066200026C40200CC
:107080000000000070572A00229B02000000000050
:1070900021E3A900F7023700900481000000E0001E
:1070A00005003A00D1012000305D2000B0C402008C
:1070B00000000000EF023700C922A900CB22A9007E
:1070C000210120009066200026C40200000000007C
:1070D00070572A00229B020000000000E5023700E2
:1070E000F1002000A039200026C4020000000000AA
:1070F00066C202000000000011002000903A20004B
:1071000026C402000000000070572A00229B0200E3
:1071100000000000D702370078C202000000000023
:10712000D4023700AC040700000F98006100200073
:107130007068200026C40200000000000E089000C5
:10714000309D02000000000021002000D0682000D7
:10715000B0C40200000000000E089000A8C30200A6
:1071600000000000C30237009B040700000F9800D6
:10717000610020007068200026C4020000000000AA
:107180000E089000309D0200000000002100200049
:1071900090EC2000B0C40200000000000E08900037
:1071A0007CC3020000000000B2023700900481009E
:1071B0000000E00005003A00D1012000305D200011
:1071C000B0C4020000000000AA023700A09902002B
:1071D00000000000A70237001000200020D888001F
:1071E00010002000600798001000370011D88000C0
:1071F0006E00900080804000F00F200080806000D2
:1072000000A021000080400090407800E0C3B3005F
:1072100080CF500002003A000000EB0020D8880028
:107220006E0090000000E8006007980011D8800010
:107230006E00900080804000F00F20008080600091
:1072400000A0210000804000104078000004E00011
:10725000E6FF3A00EE00900020022000808F5000F0
:10726000020034001000200020D8880020D88000C0
:107270000000E0007F023A0010D880008000E800A3
:10728000F00F20000080600010D88800AD020700D9
:107290006007980011D88000F00F20008080600007
:1072A00000A021000080400090407800D0C3B300CF
:1072B00080CF500040003A006E0090000000E000D7
:1072C0003A0034006E009000E50F500037003C009B
:1072D00010D880008000E800F00F200000806000DF
:1072E00010D888006E0090000000E9006007980048
:1072F0000000EB00000F98000B0037006E009000BC
:107300008E0890004500DD008100400060B0210043
:10731000808040000040EB00804878000E0890001C
:107320000000E800000F98000E089000FF0F5000CA
:10733000F2FF34000000EB00000F9800130037004C
:10734000EE0190000E0A900011D8800000A02100EC
:1073500000804000104178004518DD0084004000A6
:1073600060B0210000804000024878000E089000C4
:107370000000E800000F980010D880008000E800AE
:10738000F00F20000080600010D8880011D8800025
:1073900000A021000080400090407800E0C3B300CE
:1073A00080CF5000E6FF3A00320237001000200084
:1073B00020D888002F0237006E0090000000E00007
:1073C0001B003A000000EB00000F9800140037008B
:1073D0000E0890000040E8008E9D020000000000B2
:1073E000005E2A00F69A0200000000000E089000DD
:1073F0004500DD008000780060B021000080400082
:10740000F69A020000000000C0552A00229B0200EC
:10741000000000000E0890000000E800000F980037
:107420000E089000E40F5000E9FF3400110237000D
:107430006E0090000000E000090034006E00900033
:10744000E50F500006003C0070572A00229B020006
:1074500000000000EE00900031DD880005023700DA
:107460001000200020D888000202370010D88000C9
:107470008000E800F00F20000080600010D8880035
:1074800030020700200F98001504070011D8800073
:10749000F00F20008080600000A0210000804000EC
:1074A0009040780090C2B30080CF50000D003A00A9
:1074B00091048100E00220000088B900FC00400037
:1074C00080BA210000804000900078002E089000D3
:1074D0000100010070572A00229B020000000000FA
:1074E000E40137001000200020D88800E1013700B7
:1074F0001000200020D888001000200060079800AD
:107500001000370011D880006E009000808040008D
:10751000F00F20008080600000A02100008040006B
:107520009040780020C2B30080CF500002003A00A3
:107530000000EB0020D888006E0090000000E800FA
:107540006007980011D880006E0090008080400095
:10755000F00F20008080600000A02100008040002B
:10756000104078000004E000E6FF3A0020D88000D8
:107570000000E000BF013A0071002000F068200028
:1075800026C402000000000020C2B300FA9E0200E0
:10759000000000002200370011D88000F00F20000A
:1075A0000080600010D8880011D8800000A0210061
:1075B0000080400010407800FA9E020000000000A9
:1075C00011D8800000A02100008040001040780009
:1075D0000000FB00200F9800201D220010407800C2
:1075E000684060000004E000040032002E089000B3
:1075F000DEC3020000000000200F9800910481000B
:10760000E00220000088B900E800400080BA2100B4
:1076100000804000900078002E08900001000100DA
:1076200010D880000000E80010D8880011D8800031
:10763000F00F20008080600000A02100008040004A
:107640009040780020C2B30080CF5000D2FF3A00B3
:1076500010D88000F10F20000100600010D88800D1
:1076600020C2B300FA9E02000000000070572A00FA
:10767000229B0200000000007E013700910481007F
:10768000E00220000088B9008000780080BA210064
:1076900000804000100078000000010075013700F4
:1076A00091048100E00220000088B9008080E80099
:1076B00080BA210000804000100078000000010026
:1076C0006C01370091048100E00220000088B900BD
:1076D000E400400080BA21000080400010007800E3
:1076E000000001006301370091048100E0022000E6
:1076F0000088B900E600400080BA21000080400008
:1077000010007800000001005A01370071002000CD
:10771000F068200026C40200000000008901070074
:10772000200F980010D880000000E90010D88800D1
:1077300011D88000F00F20000080600010D8880071
:10774000250307000000E800000F9800450307002C
:10775000300798003E0090000000E0005D0032001D
:107760003E00900080407800101C22000148780004
:107770003E009000E80F500006003400201D22005B
:10778000104078000050A000211D220080487800A1
:1077900050003700201D2200104078000050A1004A
:1077A000211D2200804878004A0037002E089000F2
:1077B000D6C2020000000000201D22001040780008
:1077C0000042B2000004E00004003A00101C220055
:1077D00010407800E84F500009003A00201D2200B8
:1077E000104078000042B2000004E0000B003200BC
:1077F000101C220010407800F04F500007003200AB
:10780000B0C3B300FA9E020000000000101C22006A
:10781000104078008E9D020000000000201D220014
:1078200010407800684060000004E000040032006E
:107830002E089000DEC3020000000000200F980018
:1078400091048100E00220000088B900E8004000B7
:1078500080BA210000804000900078002E0890003F
:1078600001000100100F980000C2B300FA9E020050
:1078700000000000201D2200104078000044B200EB
:107880000004E00013003200610020006069200065
:1078900026C4020000000000201D220010407800D5
:1078A000684060000004E000040032001E08900000
:1078B000DEC3020000000000100F98001E089000B8
:1078C000D6C202000000000000C2B300FA9E02000F
:1078D000000000000E0890000000E900000F980072
:1078E0000E0890000000E000B0FF3A0070572A0038
:1078F000229B020000000000DE0037006100200033
:107900006069200026C4020000000000B2020700E7
:107910000000E800000F9800D2020700300798002E
:107920003E0090000000E000440032003E00900065
:1079300080407800101C2200014878003E00900032
:10794000E80F500006003400201D2200104078008F
:107950000050A000211D2200804878003700370029
:10796000201D2200104078000050A100211D22009F
:10797000804878003100370091048100E002200047
:107980000088B900EA00400080BA21000080400071
:107990001000780000000100100F9800201D220048
:1079A00010407800684060000004E00004003200ED
:1079B0001E089000DEC3020000000000100F9800B7
:1079C0001E089000D6C2020000000000201D220008
:1079D000104078000042B2000004E00004003A00C9
:1079E000101C220010407800E84F500009003A00B7
:1079F000201D2200104078000042B2000004E00088
:107A00000B003200101C220010407800F04F500094
:107A100007003200B0C3B300FA9E0200000000006D
:107A2000101C2200104078008E9D02000000000013
:107A300000C2B300FA9E0200000000000E08900091
:107A40000000E900000F98000E0890000000E00020
:107A5000C9FF3A0070572A00229B02000000000074
:107A60008400370081002000C0692000B0C40200FB
:107A70000000000091048100E00220000088B900AD
:107A8000EC00400080BA2100008040001000780027
:107A9000000001007700370081002000406A2000CC
:107AA000B0C402000000000091048100E002200048
:107AB0000088B900EE00400080BA2100008040003C
:107AC00010007800000001006A003700E10020008B
:107AD000C06A2000B0C402000000000091048100D0
:107AE000E00220000088B900F000400080BA2100C8
:107AF0000080400010007800000001005D003700A9
:107B0000E1002000A06B2000B0C4020000000000D3
:107B100091048100E00220000088B900F2004000DA
:107B200080BA2100008040001000780000000100B1
:107B300050003700C1002000B067200026C40200BA
:107B40000000000091048100E00220000088B900DC
:107B5000F400400080BA210000804000100078004E
:107B600000000100E09A0200000000004100370020
:107B700019020700000F9800D1002000806D20003E
:107B800026C40200000000000E089000D6C20200C9
:107B9000000000000E0890000000E800000F9800B0
:107BA0000800370091048100E00220000088B9003D
:107BB000F600400080BA21000080400010007800EC
:107BC000000001000E0890000000E900000F98007E
:107BD0000E0890000000E000F2FF3A0070572A0003
:107BE000229B02000000000022003700FA0107007B
:107BF0000000E800000F9800A1002000506E200057
:107C000026C40200000000000D003700910481002E
:107C1000E00220000088B900F800400080BA21008E
:107C2000008040001000780000000100E09A02008F
:107C30000000000000C2B300FA9E02000000000035
:107C40000E0890000000E900000F98000E08900058
:107C50000000E000EDFF3A0001012000806C2000F0
:107C6000B0C4020000000000020037001000200035
:107C700020D8880010D880008000E800F00F200095
:107C80000080600010D8880020D880000000E0004C
:107C90001C00320051012000F06E200026C40200BA
:107CA00000000000BE08900010D88000808F5000B7
:107CB0000700310010D88000804078003E08900016
:107CC00000C050008E9D020000000000060037003A
:107CD00010D88000804078003E08900000C050001E
:107CE0008E9D0200000000000000EB0020D88800FC
:107CF00010002000500F980070572A00229B0200AD
:107D00000000000011D8800000D88000808F500053
:107D100002003A0010002000500F98005E0890000A
:107D20000000E000EBFA32004E08900010D8880006
:107D30004E08900000D888000000EB00600F98000B
:107D400077F637000600FA000000EB0010079800F5
:107D50000000EB00000F780011D880001E0090009A
:107D600080804000F00F20008080600000A0210093
:107D7000008040009040780000C3B30080CF5000E6
:107D80004300340011D880001E0090008080400025
:107D9000F00F20008080600000A0210000804000E3
:107DA0009040780090C3B30080CF500038003C0072
:107DB00011D880001E00900080804000F00F20004D
:107DC0008080600000A0210000804000104078000A
:107DD0008000FB0000FD2F00008F40001E0090007F
:107DE0000000E80010079800120037001E0078001D
:107DF0006A00B900000F780011D880001E009000C2
:107E000080804000F00F20008080600000A02100F2
:107E100000804000104078000000FB009E00400001
:107E200000FD2F00008F40001E0090000000E800C1
:107E30001007980011D880001E009000808040003C
:107E4000F00F20008080600000A021000080400032
:107E500090407800F0C2B30080CF50005101340050
:107E600011D880001E00900080804000F00F20009C
:107E70008080600000A021000080400090407800D9
:107E800090C3B30080CF5000D8FF340045013700C5
:107E900011D880001E00900080804000F00F20006C
:107EA0008080600000A021000080400090407800A9
:107EB00000C3B30080CF500035013A001E0090008F
:107EC0000000E8001007980011D880001E00900004
:107ED00080804000F00F20008080600000A0210022
:107EE000008040009040780020C6B30080CF500052
:107EF0000B00320011D880001E00900080804000EE
:107F0000F00F20008080600000A021000080400071
:107F10009040780020C4B30080CF50002D003A007C
:107F20001E0090000000E8001007980012003700C3
:107F30001E00780000004000000F780011D880007B
:107F40001E00900080804000F00F200080806000C4
:107F500000A0210000804000104078000000FB00DD
:107F60009E00400000FD2F00008F40001E0090008A
:107F70000000E8001007980011D880001E00900053
:107F800080804000F00F20008080600000A0210071
:107F9000008040009040780010C3B30080CF5000B4
:107FA000E3FF320011D880001E0090008080400066
:107FB000F00F20008080600000A0210000804000C1
:107FC0009040780000C3B30080CF5000D8FF32004B
:107FD000F400370011D880001E009000808040001F
:107FE000F00F20008080600000A021000080400091
:107FF0009040780080C7B30080CF50000B00320063
:1080000011D880001E00900080804000F00F2000FA
:108010008080600000A02100008040009040780037
:1080200080C5B30080CF50008E003A001E00900043
:108030000000E80010079800470037001E00780095
:108040004400DD00000F780011D880001E00900071
:1080500080804000F00F20008080600000A02100A0
:108060000080400090407800F0C2B30080CF500004
:108070001800340011D880001E009000808040005D
:10808000F00F20008080600000A0210000804000F0
:108090009040780090C3B30080CF50000D003C00AA
:1080A00011D880001E00900080804000F00F20005A
:1080B0008080600000A02100008040001040780017
:1080C0000000FB009E00400000FD2F00008F4000DC
:1080D0001E00370011D880001E00900080804000F4
:1080E000F00F20000081600011D880001E00900079
:1080F00080804000F00F20008080600000A0210000
:10810000008040009040780000C2B30080C0700042
:1081100000A02100000041000148780011D8800033
:108120001E00900080804000F00F200080806000E2
:1081300000A0210000804000104078000000FB00FB
:108140009E00400090FA2F00008F40001E0090001B
:108150000000E8001007980011D880001E00900071
:1081600080804000F00F20008080600000A021008F
:108170000080400090407800F0C2B30080CF5000F3
:108180000B00340011D880001E0090008080400059
:10819000F00F20008080600000A0210000804000DF
:1081A0009040780090C3B30080CF5000A3FF34000C
:1081B00011D880001E00900080804000F00F200049
:1081C0008080600000A02100008040009040780086
:1081D00000C4B30080CF50000B00340011D88000E1
:1081E0001E00900080804000F00F20008080600022
:1081F00000A02100008040009040780060C4B300DF
:1082000080CF50008DFF340011D880001E009000F8
:1082100080804000F00F20008080600000A02100DE
:10822000008040009040780000C6B30080CF50002E
:108230005C00340011D880001E0090008080400057
:10824000F00F20008080600000A02100008040002E
:108250009040780060C6B30080CF500077FF3400B4
:108260005000370011D880001E0090008080400030
:10827000F00F20008080600000A0210000804000FE
:1082800090407800F0C2B30080CF50004500340029
:1082900011D880001E00900080804000F00F200068
:1082A0008080600000A021000080400090407800A5
:1082B00090C3B30080CF50003A003C0011D880003A
:1082C0001E00900080804000F00F20008080600041
:1082D00000A0210000804000104078008000FB00DA
:1082E00000FD2F00008F4000120037001E007800B4
:1082F0006A00B900000F780011D880001E009000BD
:1083000080804000F00F20008080600000A02100ED
:1083100000804000104078000000FB009E004000FC
:1083200000FD2F00008F40001E0090000000E800BC
:108330001007980011D880001E0090008080400037
:10834000F00F20008080600000A02100008040002D
:1083500090407800F0C2B30080CF5000110034008C
:1083600011D880001E00900080804000F00F200097
:108370008080600000A021000080400090407800D4
:1083800090C3B30080CF5000D8FF34000500370001
:108390001000200020D888000000EB002007980083
:1083A0000A00370011D880001E00900000804000B5
:1083B00010D8880011D88000F00F200000806000E5
:1083C00010D888001E007800200798002E0090002A
:1083D0000080FA00000006000400FA0010D88000B7
:1083E0008000E800F00F20008080600000A02100E5
:1083F0000080400090407800A0C3B30080CF5000C0
:1084000013003A0010D880000080E80010D88800DF
:1084100011D88000F00F20000080600010D8880084
:1084200048FE0700000F780010D880000000E90027
:1084300010D8880011D88000F00F20000080600064
:1084400010D888001E00780010079800020037003E
:1084500010002000100798001E0090000080FA0015
:10846000000006000400FA0010D880008000E80038
:10847000F00F20008080600000A0210000804000FC
:1084800090407800B0C3B30080CF50000F003A0096
:1084900010D880008080E800F00F2000008060008D
:1084A00010D8880027FE0700000F780010D8800041
:1084B0008000E900F00F20000080600010D88800E4
:1084C0001E00780010079800020037000000EB0043
:1084D000100798001E0090000080FA0000000600BF
:1084E0000000FA000500370010D880008000E80086
:1084F000F00F20000080600010D8880011D88000A4
:1085000000A02100008040009040780000C2B3002D
:1085100080CF5000F4FF32000080FA000000060017
:108520000400FA000000EB00000F780010D8800073
:108530008000E800F00F20000080600010D8880064
:10854000E7FF0700FFFD0700000F78001E00E000B6
:108550004D003A000000EB001007980013003700B0
:108560001E0090000040E8008E9D02000000000008
:10857000405E2A00F69A0200000000009E00900073
:10858000E00220000088B9006102200080804000E5
:1085900080BA210000804000229B02000000000001
:1085A0001E0090000000E800100798001E009000D8
:1085B000E80F5000EAFF34007101200040702000F5
:1085C000B0C40200000000000000EB0020D88800CA
:1085D0001300200092002000110020001000200055
:1085E00055000700000FE900E0FF2F009E0F10006C
:1085F000030032000080EB009E0F100005003A00DF
:10860000E1002000B0712000B0C4020000000000B2
:108610004200370091048100E00220000088B90088
:10862000010220008080400080BA210000804000CC
:108630001000780000000100BEC102000000000030
:108640001E0078009004890091048100E00220005F
:108650000088B900FE00400080BA21000080400080
:1086600010007800000001001E00E0000100320050
:10867000CB02A80051002000305A2000B0C40200F4
:1086800000000000250037001E0FE90080002000D8
:108690009E0F10001D003C0091048100E0022000AC
:1086A0000088B900010220008080400080BA2100CB
:1086B000008040001000780000000100BEC10200F0
:1086C000000000001E0078009004890091048100E1
:1086D000E00220000088B900FE00400080BA2100BE
:1086E0000080400010007800000001001E00E00043
:1086F00001003200CB02A80051002000305A2000B7
:10870000B0C4020000000000040037005101200046
:1087100090722000B0C402000000000000D8800069
:108720008000E900F00F20000080600010D8880071
:108730000080FA00000006001E00FA00100F9800EA
:10874000210F9800320F9800430F98000000EB00B3
:10875000400798000000EB00200798000000EB00A5
:10876000100798000000EB00000F7800705E2A00F0
:10877000F69A0200000000001E0890000000E000D1
:1087800004003D00B05E2A00F69A020000000000DE
:10879000030037001E0890008E9D020000000000BC
:1087A000D05E2A00F69A0200000000006700370041
:1087B000869F020000000000204F98002E48900085
:1087C0000000FB00600F98006E089000ED0F500055
:1087D00029003200EE089000ED8F500007003C00A9
:1087E0006E099000E80F51000D0032006E089000F5
:1087F000EA0F50002000320035003700D002200080
:10880000EE089000808F50001E003200800720008C
:108810006E099000800F5100270032002C003700B5
:108820004E0090000000E000070032004E00900073
:108830000000E90040079800E0552A00F69A02007F
:1088400000000000410037001E00E000060032007A
:108850000000EB00000F7800E0552A00F69A0200B5
:10886000000000003900370070C0B300FA9E02001B
:10887000000000003500370010002000200798009D
:10888000320037004E0090000000E00006003A0081
:10889000D0C2B300FA9E02000000000010002000C9
:1088A000000F78002900370070C0B300FA9E020064
:1088B00000000000250037004E0890000000E00096
:1088C000030032000080EB00500F98005D0037007D
:1088D000AE489000F0C2B30080CF500018003400C2
:1088E000AE48900090C3B30080CF500014003C000D
:1088F0004E009000E30F50000600340070C0B3003B
:10890000FA9E02000000000040002000400798008E
:108910000E0037002E489000FA9E02000000000072
:10892000CE0090006B0047002E49900082707800C6
:108930004E0090000000E800400798000300370058
:1089400070C0B300FA9E0200000000002E009000EC
:108950000000E00096FF320070572A00229B0200C0
:10896000000000004E0090000000E00003003A000C
:108970001E089000500F9800320037000000EB00F6
:10898000100798004E0090000000E9004007980092
:10899000CE00900031079800110037001E009000B3
:1089A0006A00B90010079800BE0090004E009000C9
:1089B000808050006B004700614078008000FB0021
:1089C0001E0090008080400000FD2F0000804000CD
:1089D000100798004E0090000000E9004007980042
:1089E0004E0090000000E000ECFF3D009E00900073
:1089F0002E089000808F50000D0035009E009000E2
:108A00003E089000808F500009003C001E00E000EE
:108A1000040032001E0090000000EA00500F980091
:108A2000080037001E019000520F98000500370023
:108A3000B1012000E0EA2000B0C402000000000004
:108A400042FF37005E0890000080FA000000060038
:108A50000400FA00005F2A00229B020000000000D0
:108A6000E05F2A00F69A02000000000070572A001A
:108A7000229B020000000000610020000076200020
:108A800026C4020000000000A0048100489E0200ED
:108A9000000000007100200070EA200026C40200DF
:108AA00000000000B0048100489E020000000000A9
:108AB00000612A00F69A020000000000B004810064
:108AC000100798001E009000E10F500004003200D3
:108AD0001E009000E30F5000050032000800370030
:108AE00000622A00F69A020000000000070037002A
:108AF00030622A00F69A02000000000003003700EE
:108B000060622A00F69A020000000000A0622A00BB
:108B1000229B020000000000E1012000607620009E
:108B2000B0C40200000000000080FA00000006004F
:108B30000200FA00C0622A00F69A0200000000005B
:108B4000A17F250010002000D69E0200000000003A
:108B5000489E02000000000000C2B300FA9E02001E
:108B600000000000510020002092200026C40200D6
:108B700000000000C17F250010002000D69E0200EA
:108B800000000000489E020000000000610020007C
:108B90007092200026C4020000000000E17F250042
:108BA00010002000D69E020000000000489E020037
:108BB0000000000070572A00229B02000000000005
:108BC000C100200040782000B0C402000000000076
:108BD00097000700CBC2BF00624060000004E000C5
:108BE00005003200110120008065200026C402002B
:108BF00000000000040037002101200090662000E2
:108C000026C4020000000000C0C2B300FA9E0200A9
:108C10000000000000C2B300FA9E02000000000045
:108C2000E2C2BF00704060000004E00005003200B6
:108C3000410120005060200026C402000000000016
:108C40000400370051012000005F200026C402000C
:108C500000000000C0C2B300FA9E02000000000045
:108C600000C2B300FA9E020000000000E8C2BF008C
:108C70000042B2000004E00003003A0030632A0022
:108C8000F69A020000000000E8C2BF0070406000D9
:108C90000004E00003003A00C0632A00F69A0200D4
:108CA00000000000201D220010407800704060008D
:108CB0000004E000050032002102200000792000BD
:108CC000B0C402000000000004003700E1012000F1
:108CD000207B2000B0C4020000000000201D220004
:108CE00010407800684060000004E00005003A0091
:108CF000B1012000007D200026C402000000000019
:108D000004003700C1012000B07E200026C402000C
:108D100000000000C0C2B300FA9E02000000000084
:108D200000C2B300FA9E020000000000B101200062
:108D30001019210026C4020000000000101C2200AF
:108D4000104078008E9D02000000000070572A003D
:108D5000229B020000000000201D2200104078002D
:108D6000634060000080FB00000F78001E00780068
:108D7000E10F5000130032001E007800E10F500098
:108D800004003C001E0078000000E00008003200F3
:108D9000180037001E007800E20F50000E0032006D
:108DA0001E007800E30F50000F0032001100370062
:108DB00051012000E05B2000B0C402000000000070
:108DC0000C00370061012000805A2000B0C402006E
:108DD000000000000700370060642A00229B0200A8
:108DE0000000000003003700E0652A00229B02001B
:108DF0000000000091048100E00220000088B9001A
:108E0000410220008080400080BA210000804000A4
:108E10001000780000000100C10020004078200010
:108E2000B0C40200000000000080FA00000006004C
:108E30000000FA00A1002000A0052100B0C402003B
:108E40000000000071052000801E2100B0C4020057
:108E50000000000041022000F023210026C402008F
:108E60000000000091048100E00220000088B900A9
:108E7000210220008080400080BA21000080400054
:108E80001000780000000100A1002000E007210090
:108E900026C4020000000000100020005800070057
:108EA00000102000560007000002200054000700B8
:108EB0000001200052000700800020005000070041
:108EC000400020004E000700200020004C0007005A
:108ED00070572A00229B0200000000004100200081
:108EE000800F210026C402000000000021E3A8003A
:108EF00020C0B3004CC2020000000000929E02009D
:108F00000000000011002000903A200026C402005A
:108F10000000000090C0B300FA9E020000000000B4
:108F20000040EB004CC2020000000000929E0200D4
:108F30000000000011002000903A200026C402002A
:108F40000000000090C0B300FA9E02000000000084
:108F500050C0B3004CC2020000000000929E02000C
:108F60000000000011002000903A200026C40200FA
:108F70000000000090C0B300FA9E02000000000054
:108F800010C0B3004CC2020000000000929E02001C
:108F90000000000011002000903A200026C40200CA
:108FA0000000000090C0B300FA9E02000000000024
:108FB00021E3A9001000200020000700001020007D
:108FC0001E000700000220001C0007000001200016
:108FD0001A00070080002000180007004000200051
:108FE00016000700200020001400070070572A0018
:108FF000229B0200000000000080FA000000060032
:109000000200FA00000F7800C01680001E00600009
:109010000000E0000400320060672A00F69A0200B7
:10902000000000000300370090672A00F69A020053
:10903000000000000080FA00000006000200FA00B4
:10904000000F7800D01680001E0060000000E000D5
:1090500004003200C0672A00F69A020000000000F7
:1090600003003700F0672A00F69A020000000000B3
:109070000080FA00000006000200FA0010D880000C
:109080008000E800F00F20000080600010D8880009
:1090900013FD07002BFB0700000F78001E00E00007
:1090A00006003400400020009E0F100003003C002A
:1090B0001E00E900800489000D0037000000EB006D
:1090C00020D888002102200040812000B0C4020086
:1090D000000000008001EB00420020001100200091
:1090E0001000200094FD07000000E90080048900C2
:1090F0002101200060832000B0C4020000000000B5
:109100000080FA00000006000200FA000040EB00B8
:10911000004F780010D880008000E800F00F200099
:109120000080600010D88800EDFC070005FB0700F8
:10913000104798001E4090000004E0000900320033
:109140001E409000EA4F500006003E001E40900076
:109150000040E90080407800E008220001487800E3
:109160000F0037000000EB0020D88800D108200055
:1091700030872000B0C40200000000008001EB0036
:10918000A200200011002000900020006AFD0700CE
:109190000040E90080407800E008220001487800A3
:1091A000E008220010407800E94F500010003A001B
:1091B000CBFC0700E3FA0700004F78001E04E00034
:1091C0000B003A000000EB0020D8880020682A003D
:1091D000229B0200000000008001EB00F2FF27004C
:1091E0008000EB002002200053FD0700004F7800B4
:1091F0004101200000902000B0C4020000000000E7
:109200001101200000182100B0C40200000000007D
:10921000E008220010407800E94F500003003A00B7
:109220001E407800D89F020000000000D29F02007C
:1092300000000000000037007A9F020000000000DC
:109240000004E000FCFF3200869F020000000000E6
:109250008040780000C2B30080CF5000010032008F
:10926000F5FF37000080FA00000006000400FA0055
:10927000900481000000E00007003A00D1012000C6
:10928000305D2000B0C4020000000000100020008B
:1092900020D8880061003700201D2200104078008F
:1092A000704060000004E00007003A002102200046
:1092B00050E82000B0C402000000000010002000B0
:1092C00020D8880055003700E8A2A800E882A8004E
:1092D000200020007CC302000000000021E3A80061
:1092E00050C0B3004CC202000000000080007800B3
:1092F00000102000808F500003003600A0692A0073
:10930000229B02000000000021E3A90010D8800089
:109310008000E800F00F20000080600010D8880076
:109320006FFC070087FA0700000F780020D8800044
:109330000000E000140032000000EB0020D888009C
:10934000406C2A00229B020000000000606D2A0091
:10935000229B020000000000B06E2A00229B020047
:109360000000000000702A00229B020000000000A4
:109370008001EB00320020001100200010002000CE
:10938000EDFC0700000F78001E0078001007980021
:109390001E009000E20F50000D0032001E009000F1
:1093A000E30F5000110032001E009000E10F50004A
:1093B0000100320014003700E8A2A800E882A800EB
:1093C00040712A00229B02000000000013003700B9
:1093D000E8A2A800EA82A900E882A90050732A0046
:1093E000229B0200000000000C003700E882A80069
:1093F000EAA2A900E8A2A90090752A00229B020017
:109400000000000005003700E8A2A800E882A800DC
:1094100040712A00229B0200000000000080FA0038
:1094200000000600575249005445200042495400AC
:109430003A2020002A6E650078742000636C6F006B
:10944000636B2000285E2900207769006C6C200087
:1094500075736500207468006973200076616C0084
:109460007565310057495200452072006F757400D0
:10947000696E6500732028004329200032303000D7
:1094800030204D006963680061656C002050650004
:1094900061726300652047004E55200047504C0024
:1094A0004E6F200064657600696365002C207400AF
:1094B0007279200028414C0041524D002920530070
:1094C00045415200434820006D616300726F2000E7
:1094D000666972007374410044445200455353005E
:1094E000204D410043524F00202030002E4D61009E
:1094F00063726F00206D65006E754D0061637200D0
:109500006F202000202020003157490052452000C4
:109510006164640072657300730D0A0020202000EE
:109520002A3157004952450020524F004D20430038
:109530004F4D4D00414E4400204D410043524F00DD
:10954000733A0D000A203500312E52004541440087
:1095500020524F004D20280030783300332920005E
:109560002A666F0072207300696E67006C652000C8
:10957000646576006963650020627500730D0A00FA
:10958000203835002E4D41005443480020524F00F2
:109590004D20280030783500352920002A666F00DC
:1095A0006C6C6F00776564002062790020363400AF
:1095B00062697400206164006472650073730D0059
:1095C0000A20320030342E00534B49005020520004
:1095D0004F4D20002830780043432900202A6600A0
:1095E0006F6C6C006F776500642062007920630007
:1095F0006F6D6D00616E64000D0A2000323336001D
:109600002E414C0041524D00205345004152430031
:10961000482028003078450043290D000A203200F8
:1096200034302E00534541005243480020524F0031
:109630004D20280030784600302941004C4152002E
:109640004D20530045415200434820002830780007
:10965000454329005345410052434800202830002B
:10966000784630002944650076696300652049002A
:1096700044732000617265002061760061696C00AE
:1096800061626C006520620079204D004143520008
:109690004F2C20007365650020283000292E5200D1
:1096A0004541440020524F004D20280030783300BF
:1096B00033293A00204D41005443480020524F00C6
:1096C0004D20280030783500352953004B49500093
:1096D00020524F004D202800307843004329550088
:1096E0006E6B6E006F776E00206D610063726F00AD
:1096F0002C207400727920003F206F007220280017
:1097000030292000666F7200206865006C7042008E
