:020000040000FA
:1000000000200400000000005CDE00005CDE000058
:100010005CDE00005CDE00005CDE00005CDE0000F8
:100020005CDE00005CDE00005CDE00005CDE0000E8
:100030005CDE0000E0AC00005CDE00005CDE000086
:100040005CDE00005CDE00005CDE00005CDE0000C8
:100050005CDE00005CDE00005CDE00005CDE0000B8
:100060005CDE00005CDE00005CDE00005CDE0000A8
:100070005CDE00005CDE00005CDE00005CDE000098
:100080005CDE00005CDE00005CDE00005CDE000088
:100090005CDE00005CDE00005CDE00005CDE000078
:1000A0005CDE00005CDE00005CDE00005CDE000068
:1000B0005CDE00005CDE00005CDE00005CDE000058
:1000C0005CDE00005CDE00005CDE00005CDE000048
:1000D0005CDE00005CDE00005CDE00005CDE000038
:1000E0005CDE00005CDE00005CDE00005CDE000028
:1000F0005CDE00005CDE00005CDE00005CDE000018
:100100005CDE00005CDE00005CDE00005CDE000007
:100110005CDE00005CDE00005CDE00005CDE0000F7
:100120005CDE00005CDE00005CDE00005CDE0000E7
:100130005CDE00005CDE00005CDE00005CDE0000D7
:100140005CDE00005CDE00005CDE00005CDE0000C7
:100150005CDE00005CDE00005CDE00005CDE0000B7
:100160005CDE00005CDE00005CDE00005CDE0000A7
:100170005CDE00005CDE00005CDE00005CDE000097
:10018000B25C00005CDE00005CDE00005CDE0000B3
:100190005CDE00005CDE00005CDE00005CDE000077
:1001A0005CDE00005CDE00005CDE00005CDE000067
:1001B0005CDE00005CDE00005CDE00005CDE000057
:1001C0005CDE00005CDE00005CDE00005CDE000047
:1001D0005CDE00005CDE00005CDE00005CDE000037
:1001E0005CDE00005CDE00005CDE00005CDE000027
:1001F0005CDE00005CDE00005CDE00005CDE000017
:10020000FFFFFF00FFFFFF005CDE00005CDE000080
:100210005CDE00005CDE00005CDE00005CDE0000F6
:100220005CDE00005CDE00005CDE00005CDE0000E6
:100230005CDE0000E0AC00005CDE00005CDE000084
:100240005CDE00005CDE00005CDE00005CDE0000C6
:100250005CDE00005CDE00005CDE00005CDE0000B6
:100260005CDE00005CDE00005CDE00005CDE0000A6
:100270005CDE00005CDE00005CDE00005CDE000096
:100280005CDE00005CDE00005CDE00005CDE000086
:100290005CDE00005CDE00005CDE00005CDE000076
:1002A0005CDE00005CDE00005CDE00005CDE000066
:1002B0005CDE00005CDE00005CDE00005CDE000056
:1002C0005CDE00005CDE00005CDE00005CDE000046
:1002D0005CDE00005CDE00005CDE00005CDE000036
:1002E0005CDE00005CDE00005CDE00005CDE000026
:1002F0005CDE00005CDE00005CDE00005CDE000016
:100300005CDE00005CDE00005CDE00005CDE000005
:100310005CDE00005CDE00005CDE00005CDE0000F5
:100320005CDE00005CDE00005CDE00005CDE0000E5
:100330005CDE00005CDE00005CDE00005CDE0000D5
:100340005CDE00005CDE00005CDE00005CDE0000C5
:100350005CDE00005CDE00005CDE00005CDE0000B5
:100360005CDE00005CDE00005CDE00005CDE0000A5
:100370005CDE00005CDE00005CDE00005CDE000095
:10038000B25C00005CDE00005CDE00005CDE0000B1
:100390005CDE00005CDE00005CDE00005CDE000075
:1003A0005CDE00005CDE00005CDE00005CDE000065
:1003B0005CDE00005CDE00005CDE00005CDE000055
:1003C0005CDE00005CDE00005CDE00005CDE000045
:10400000EF432200007F2400000188000000000030
:104010000C000700A0E62C000100200011000700A2
:10402000000020000000E00002003200000002005A
:104030000000000054DA0200000000000040DA0036
:104040000000FE004440A900206020000000E000C5
:104050000300320000002000A00188004440A800B6
:104060000000060091018800800078000000EB004D
:1040700015003700E280400032A0B4009101BA0080
:10408000E280400032A0B4009102BA00E280400019
:1040900032A0B4000002EB00472BDE00F507B200AF
:1040A000602CE10004003A000059EB008301E900B4
:1040B000FDFF3E00040037006128E10001003200EE
:1040C0000082EB00040007001101BA000200E000CA
:1040D000E8FF3A00000006003159BA008301E90008
:1040E0000C0032002159BA008301E90008003200B7
:1040F0000400E00003003A00E280400032A0B40077
:10410000F5FF370011D9BA008301E900FAFF3A0040
:104110008100E800E180400032A0B4000000060009
:104120000EDD04000000000020DD0400000000009F
:1041300036DD0400000000004ADD0400000000003D
:104140005EDD04000000000074DD040000000000DB
:104150008ADD04000000000098DD0400000000007B
:104160008A9B0400000000000A9804000000000080
:10417000FE970400000000005498040000000000B6
:104180004098040000000000349804000000000083
:1041900026980400000000001A98040000000000A7
:1041A0008A980400000000006898040000000000E5
:1041B0007C9B04000000000012930400000000003B
:1041C0003C93040000000000DC8E040000000000AE
:1041D0007C8E0400000000005E93040000000000DC
:1041E00038920400000000008A8F040000000000E4
:1041F0002E92040000000000DC9304000000000088
:10420000EC8E040000000000BC85040000000000EB
:104210001C860400000000003E8504000000000031
:10422000EC8404000000000082870400000000000D
:1042300090860400000000006E870400000000006B
:1042400028890400000000006286040000000000CD
:1042500094790400000000005C7904000000000074
:10426000CC79040000000000067A04000000000081
:10427000FA790400000000000E7D04000000000038
:10428000AE7A040000000000067D0400000000007B
:10429000267E040000000000287A040000000000D0
:1042A00088BD040000000000A2BD04000000000062
:1042B00078BD0400000000006EBD04000000000096
:1042C000E0BD040000000000D4BD040000000000B8
:1042D00004BE040000000000F8BD0400000000005F
:1042E000C8BD040000000000ECBD04000000000098
:1042F000BCBD0400000000000CBF04000000000072
:1043000048BE04000000000044BF0400000000009C
:1043100010BE040000000000C4D104000000000032
:1043200084D104000000000004D20400000000005A
:104330005ED104000000000052D104000000000023
:1043400068D204000000000074D2040000000000E5
:1043500080D20400000000008CD2040000000000A5
:1043600050D20400000000005CD2040000000000F5
:1043700044D2040000000000DED20400000000006F
:1043800018D404000000000098D2040000000000CF
:104390007CCB04000000000094CB0400000000006F
:1043A00062CB0400000000000ACC04000000000002
:1043B000ACCB040000000000DC7E04000000000024
:1043C00074CD04000000000030DE04000000000096
:1043D00028DE04000000000022DE040000000000CF
:1043E000446B040000000000889FBE008A9FBE004E
:1043F000010578000100E0000400350008003C00E1
:104400000000E000200032000500370060001000CE
:10441000E080180002003B0001F02C001A00370079
:104420000004BE006011B8006B0920000982CF00B3
:10443000020039000882CF000441B00069425200F6
:104440000E00320008003B008281710061016400AF
:104450008904D1000884D3008B05E8000442E800F9
:10446000F9FF3A00050037000804440089844C0035
:104470008B05E9000442E900FBFF3A000B0107004D
:104480000AF0A70001F0A0004F05BE004F04BE00D7
:1044900000000600F4FF2F002A013700140020005E
:1044A00028013700889FBE008A9FBE008C1F7800BD
:1044B0003F0107004601330003866C006450E100B1
:1044C0002E0032006420E100330032006150E10030
:1044D0002F0032006120E100310032008585550057
:1044E000EB07B00009002000080420000500370099
:1044F0000804440089844C000A003100060343008C
:1045000087834B000001530081815B00F8FF33007B
:104510000203BE000800A0000804440089844C0087
:10452000F6FF3900C639DD00830173000100320057
:10453000130020008904D1000884D3000998A30047
:10454000050032000800A7000300A0008904D10084
:104550000884D3008B05E8008904D1000884D300C7
:104560000001EB000281D200D000070001F0A100A1
:104570000CF0A70001F0A0001E0137006420E1004C
:10458000200132000801BE000200BE00F7FF370024
:104590006120E1001B0132006000B800F3FF37002A
:1045A0000000200001F82700F0FF370003F0A20010
:1045B000889FBE008A9FBE008C1F7800FC00070009
:1045C000030133006450E1004F0032006420E10039
:1045D0005200320003826C0007003B000905D00046
:1045E0000306D000820F54000C065D000200390063
:1045F00002003200890178000306780085825500A8
:1046000004003D000003FD008103FD008502EA0077
:104610008B854200840F720002003B006000100096
:10462000E08018006011B8000005EB007A28E10076
:104630000A00390006007800C75DDD00F707B20008
:10464000878075002D003700828171000A01780093
:10465000610560008180D1000080D3008502E900FF
:10466000F9FF3B00060440008784480002003B003D
:1046700060041400E0841C000988A30007003200D5
:104680008A81710082817100610164008904D10016
:104690000884D3008B05E800170037000978A300D1
:1046A00013003A000B00E000130034008B05E90012
:1046B0000804440089844C000A4474000978A3006B
:1046C0000D003A000B00E000070034008B05E90004
:1046D0000804440089844C0001003A000B002000CB
:1046E0000978A300F7FF32000001EB000200370059
:1046F000828171000A0178006C0007000CF0A700AD
:1047000001F0A000BB0037006420E10002003A0085
:10471000838F6C00BB0033000801BE000200BE00A6
:10472000B4003700889FBE008A9FBE008C1F7800AF
:104730009F000700A600330003866C006450E10070
:10474000240032006420E100270032006150E100C3
:10475000220032006120E100210032008B854200FE
:10476000EB07B1000134B800003AB8000804420079
:1047700089844A00013AB8000030B80088804000BF
:1047800009014A0004003300000040008180480015
:10479000020149008B05E900C909DD0083017000B1
:1047A0000100320013002000C814DE004814DD00B0
:1047B0004709DE001200B200C808DE00088470005D
:1047C0003A00070001F0A1000CF0A70001F0A000E2
:1047D000880037006120E1008A0032000801BE0035
:1047E0000200BE00F7FF37006150E100FCFF3A0015
:1047F000840037000001BE00850007000470A70098
:1048000003F0A10003F8A30013003A006509B1000A
:1048100010003200090035006928E100020035006F
:1048200001002800000005000000400081804800D1
:104830008502E900FCFF3A0000000600F88F420004
:10484000050035008100D1000080D3008502E8001A
:10485000FCFF3A00000006008000EB0000000500AD
:104860006022B800060220000000D0008180D20043
:104870000482D2008582D2000000A0000202520011
:1048800083825A00030031000202420083824A0000
:104890000000A1000603E900F3FF3A000000060053
:1048A000EFFF07000400BE000000060081002000AA
:1048B000618055000B003D000B00200061FE2F00C1
:1048C0000100E1001D00340082817100610164007B
:1048D0008904D1000884D3000000E800FAFF3A0000
:1048E000710020006100640003007000020060009D
:1048F0000900320061044400E0844C000988A500EE
:10490000050032008B05E8006808E10002003A006B
:104910008904D1000884D300F20F20000258E1007E
:1049200005003D00C75DDD00F907B2008980750014
:1049300008007800000006000BF827008B007800C4
:1049400000000500889FBE008A9FBE00841F78007B
:10495000170007004F00780011003300F0FF2F0010
:10496000838F6C0006003B00040565000A00A70069
:104970000800370009F0A6001000200008003700EA
:10498000820F5400838F5C00030039001000200068
:1049900001003E000000200009F0A7000000EA002E
:1049A0004F05BE004F04BE000000E00000000600FE
:1049B0000004BE00160007000003BE000405BE0090
:1049C0000200BE0012000700844F750000000600C0
:1049D0000200BE006450E100050036006420E100E2
:1049E000020036000968A30001003A000800BE007A
:1049F0000160A0004F0678004F05BE004F04BE00C6
:104A000000000600F0FF2F00F1FF2700F9FF37003C
:104A1000C70ADE00F107B200F50FB200080032004D
:104A2000E1CF4200020032000170A0002400050026
:104A3000810F7000010032000408050044000500E9
:104A4000810F700002003A00140005008502E900A1
:104A50000000400081C04800FCFF3B000170A00046
:104A6000240005003E0000000820000008000000AF
:104A70001B5B0000440000001B5B000000440000C2
:104A8000001B00005B430000001B00005B320000C5
:104A90004B0D000000430000000000001B5B000005
:104AA0003244000000410000555800003120000051
:104AB000736500006C6500006374000065640000AD
:104AC00000410000555800003220000073650000CE
:104AD0006C6500006374000065640000005700000E
:104AE000617200006E6900006E6700003A200000ED
:104AF0006E6F0000207600006F6C00007461000093
:104B000067650000206F00006E20000056700000F6
:104B1000756C00006C75000070200000706900006A
:104B20006E000000203D00002000000056520000F2
:104B300045470000207400006F6F0000206C0000EB
:104B40006F7700002C2000006973000020740000C3
:104B5000686500007265000020610000207300009D
:104B6000686F0000727400003F0000002E200000FB
:104B70003C0000002E200000000D00000A2800006C
:104B8000002900003E000000427500007320000074
:104B9000506900007261000074650000207600001A
:104BA0003400000046690000726D0000776100006B
:104BB0007265000020760000362E000030520000A2
:104BC0004320000028720000353700003229000021
:104BD000200000002028000032340000464A000077
:104BE0003235000036470000423100003036000008
:104BF00020000000413300000041000035000000AB
:104C0000554E00004B000000290000004346000004
:104C1000473000003A200000005600007075000088
:104C20003D350000562C00002000000056700000AA
:104C3000753D000033560000332C000020000000BA
:104C4000612F0000412F000040200000636F000032
:104C50006E740000726F00006C7300002041000051
:104C60005558000031200000706900006E000000FF
:104C7000612F0000412F000040200000636F000002
:104C80006E740000726F00006C7300002041000021
:104C90005558000032200000706900006E000000CE
:104CA00049090000004F0000090000004809000009
:104CB000004C000009000000456E00007465000013
:104CC0007220000072610000772000007661000011
:104CD0006C75000065200000666F00007220000007
:104CE000425200004700000057610000726E000051
:104CF000696E0000673A0000206100006C720000DD
:104D000065610000647900002061000020760000E9
:104D10006F6C00007461000067650000206F000088
:104D20006E20000056700000756C00006C7500006D
:104D300070200000706900006E00000053650000E4
:104D40006C65000063740000205600007075000060
:104D5000207300006F7500007263000065000000A2
:104D600020310000292000004E6F00006E65000019
:104D7000206F00007220000065780000746500005C
:104D8000726E0000616C00000020000032290000FB
:104D9000204F00006E6200006F610000726400002E
:104DA00020330000563300002056000072650000DA
:104DB0006700000020330000292000004F6E000033
:104DC000626F000061720000642000003556000030
:104DD0002056000072650000670000006F6E000042
:104DE0002D6200006F6100007264000020700000FE
:104DF000756C00006C75000070200000766F00007C
:104E00006C740000616700006520000064690000A8
:104E100073610000626C00006564000000330000F4
:104E200056330000206F00006E2D0000626F0000FE
:104E30006172000064200000707500006C6C00005E
:104E400075700000207600006F6C00007461000037
:104E500067650000206500006E610000626C000064
:104E60006564000000350000562000006F6E0000F1
:104E70002D6200006F61000072640000207000006D
:104E8000756C00006C75000070200000766F0000EB
:104E90006C7400006167000065200000656E000012
:104EA000616200006C65000064000000005E0000AC
:104EB000BCE20000613F0000DD830000C29C0000F6
:104EC0007E200000A3FD00001F4100009DC30000E4
:104ED000217F0000FCA20000401E00005F010000D6
:104EE000E3BD00003E60000082DC0000237D000086
:104EF0009FC10000421C0000FEA00000E1BF0000B6
:104F00005D03000080DE00003C620000BEE00000A7
:104F1000025C0000DF810000633D00007C22000095
:104F2000C09E00001D430000A1FF000046180000C5
:104F3000FAA40000277900009BC5000084DA000075
:104F400038660000E5BB000059070000DB85000063
:104F500067390000BAE40000065800001947000055
:104F6000A5FB000078260000C49A0000653B000005
:104F7000D9870000045A0000B8E60000A7F9000035
:104F80001B450000C69800007A240000F8A6000027
:104F9000441A000099C70000257B00003A64000015
:104FA00086D800005B050000E7B900008CD2000045
:104FB000306E0000EDB30000510F00004E100000F5
:104FC000F2AC00002F71000093CD0000114F0000E3
:104FD000ADF30000702E0000CC920000D38D0000D5
:104FE0006F310000B2EC00000E500000AFF1000085
:104FF000134D0000CE900000722C00006D330000B5
:10500000D18F00000C520000B0EE0000326C0000A6
:105010008ED00000530D0000EFB10000F0AE000094
:105020004C12000091CF00002D730000CA940000C4
:1050300076280000ABF50000174900000856000074
:10504000B4EA000069370000D58B00005709000062
:10505000EBB50000366800008AD4000095CB000054
:1050600029770000F4AA000048160000E9B7000004
:10507000550B000088D60000346A00002B75000034
:1050800097C900004A140000F6A80000742A000026
:10509000C8960000154B0000A9F70000B6E8000014
:1050A0000A540000D78900006B3500004C45000011
:1050B000540000004946000000540000484500002C
:1050C0004E000000454C0000534500000047000022
:1050D0004F5400004F000000474F000053550000A0
:1050E000420000005245000054550000524E00009E
:1050F00000520000454D00000050000052490000E1
:105100004E540000004900004E500000555400006D
:10511000004600004F520000005400004F00000005
:105120004E45000058540000005200004541000068
:1051300044000000444100005441000000530000BE
:10514000544100005254000052000000535400002B
:105150004152000054000000535400004F50000022
:1051600052000000535400004F5000000053000054
:10517000454E000044000000524500004345000039
:105180004956000045000000434C00004B00000061
:105190004441000054000000424900005452000005
:1051A000454100004400000041440000430000006D
:1051B0004155000058500000494E000000500000CA
:1051C0005355000000500000554C00004C550000A5
:1051D00050000000444500004C4100005900000010
:1051E00041550000580000004652000045510000A3
:1051F0000044000055540000590000004D410000DB
:10520000435200004F000000454E000044000000E3
:1052100000520000554E0000004C000049530000B1
:1052200054000000455800004954000000440000AC
:105230004542000055470000004E00004557000061
:105240000000000012010000000200000200000047
:1052500000080000D804000000FB0000000100006E
:1052600001020000000100000902000043000000EC
:10527000020100000080000064090000040000003A
:1052800000010000020200000100000005240000EF
:1052900000100000010400002402000002050000CC
:1052A00024060000000100000524000001000000A9
:1052B0000107000005820000030800000002000052
:1052C0000904000001000000020A000000000000C4
:1052D000000700000503000002400000000000007D
:1052E00007050000830200004000000000000000ED
:1052F0000403000009040000340300004D00000016
:105300006900000063000000720000006F000000F0
:1053100063000000680000006900000070000000E9
:105320002000000054000000650000006300000041
:10533000680000006E0000006F0000006C000000BC
:105340006F000000670000007900000020000000EE
:10535000490000006E000000630000002E00000005
:105360002C030000420000007500000073000000E4
:1053700020000000500000006900000072000000E2
:1053800061000000740000006500000020000000C3
:1053900076000000340000002E0000003000000005
:1053A000200000002000000020000000200000007D
:1053B000200000002000000034A9000078A90000AF
:1053C0007CA90000B0A900004469000073630000DC
:1053D0006F6E00006E6500006374000020610000C5
:1053E0006E790000206400006576000069630000AB
:1053F00065730000004300006F6E00006E650000E2
:105400006374000020280000414400004320000095
:10541000746F0000202B00003556000029000000AA
:1054200045450000505200004F4D00000053000061
:10543000434C0000005300004441000000570000AE
:1054400050000000414300004B0000005675000072
:105450007362000000350000563000002056000046
:105460005055000000330000563300002056000065
:1054700050550000004D00004F440000452C000036
:105480002056000052450000472C0000206100001B
:105490006E6400002055000053420000204C0000C4
:1054A0004544000073200000736800006F75000021
:1054B0006C64000020620000652000006F6E000038
:1054C000210000000029000000200000570000001B
:1054D00020520000004E00006F7700002075000091
:1054E000736900006E670000206F00006E2D0000E1
:1054F000626F0000617200006420000045450000FA
:10550000505200004F4D000020490000324300007F
:10551000206900006E740000657200006661000082
:1055200063650000004F00006E2D0000626F0000F8
:1055300061720000642000004545000050520000E8
:105540004F4D000020770000726900007465000074
:1055500020700000726F000074650000637400002A
:105560002064000069730000616200006C65000047
:1055700064000000493200004331000000000000D8
:105580003062000000300000303000002C000000CD
:1055900030300000003000003132000033340000B1
:1055A0003536000037380000394100004243000022
:1055B000444500004630000078000000436F0000C2
:1055C000756C0000646E000027740000206B000002
:1055D000656500007020000075700000000000008C
:1055E0005350000049310000000000003A20000044
:1055F000000000002E000000315700003031000094
:1056000000000000314100004C5300000042000047
:105610005076000033000000080800000808000071
:105620000800000000000000204800007A00000090
:105630000000000000410000525400003100000052
:1056400042420000494F000031000000524100007A
:105650005731000000000000000000002900000099
:1056600000000000000000002800FA000000EB002D
:10567000600F98000000EB0050EB88000000EB008A
:1056800040EB880040EB8000200798000000EB0012
:10569000100798000000EB00000F78000000EB00FE
:1056A000A01E89000000EB00500798000000EB00EE
:1056B00060EB88000000EB00400798000000EB0062
:1056C000000F9800140037000000EB0060079800FE
:1056D0000B0037000E089000EE0090004500DD0042
:1056E00081004000E0D62100808040000040EB00B7
:1056F000804878006E0090000000E8006007980085
:105700006E009000FF0F5000F2FF34000E08900072
:105710000000E800000F98000E089000E40F500011
:10572000E9FF34000000EB0070F08800A11E81004A
:10573000E00220000088B900610220008080400063
:1057400000E121000080400058A802000000000095
:10575000D11E810000202000008060000000E000D9
:105760000400320071002000C0592000E6D8020079
:105770000000000020532A0058A80200000000008A
:105780003304370070F080000000E0006400320055
:1057900070F080000000E90070F088000000EB006D
:1057A000600798001E00370042EB800070F0800018
:1057B000EE0090004500DD0081004000E0D62100B1
:1057C000008040009040780080C621000000410029
:1057D0000148780070F08000EE0090004500DD0088
:1057E00081004000E0D62100008040001040780099
:1057F00042AD02000000000040EB80000000E80025
:1058000040EB88006E0090000000E8006007980000
:1058100041EB8000F00F20000080600040EB88002A
:1058200070F08000EE0090004500DD008100400037
:10583000E0D6210000804000104078000004E00025
:10584000D9FF3A000000EB0070F088003400370008
:10585000E03A220010407800644060000004E0005C
:105860002E003200A11E8100E00220000088B90055
:10587000FA00400000E121000080400010007800A4
:10588000000001000000E00024003200A11E8100A1
:10589000E00220000088B900610220008080400002
:1058A00000E121000080400058A802000000000034
:1058B00020532A0058A802000000000051EB80008D
:1058C00040EB8000808F50001400320050EB8000CD
:1058D000600798000D003700EE00900080C62100A0
:1058E000008040001040780042AD0200000000003F
:1058F000EE009000F00F200000806000600798002C
:105900006E0090000000E80060079800EE00900034
:1059100040EB8000808F5000EFFF3A00D3C2BF0001
:105920006CAC0200000000000004E000C8FF320080
:1059300022C2BF00624060000004E00005003200A7
:1059400010118000D1FF2F000100600010118800AD
:10595000BF03370088AC020000000000604F9800D1
:105960006E4890000080FB006101B90002179800AA
:1059700013179800F0072000010020000E1190007E
:105980009E119000800F5100818F59003C033E0012
:105990000E1090009E109000006001002D03370053
:1059A000E20237003E01370035033700D8003700E8
:1059B000F902370053013700310337007700370011
:1059C0002F0337000F0337002D0337002C03370058
:1059D0000C033700FE013700290337005A01370056
:1059E0002703370026033700250337002403370039
:1059F0002303370022033700210337002003370039
:105A00001F0337001E033700020137001C03370055
:105A10001B0337001A033700190337001803370038
:105A20001703370016033700150337001403370038
:105A30001303370012033700110337001003370038
:105A40000F0337000E0337000D0337000C03370038
:105A50000B0337000A033700090337000803370038
:105A60000703370006033700050337000403370038
:105A70000303370002033700010337000003370038
:105A8000FF023700FE023700FD023700FC0237003C
:105A9000FB023700FA023700F9023700F80237003C
:105AA000F7023700F6023700F5023700F40237003C
:105AB000F3023700F2023700F1023700F00237003C
:105AC000EF023700EE023700ED023700EC0237003C
:105AD000EB023700EA023700E9023700E80237003C
:105AE000E7023700E6023700E5023700E40237003C
:105AF000E3023700E2023700E1023700E00237003C
:105B0000DF023700DE023700DD023700DC0237003B
:105B1000DB023700DA023700D9023700D80237003B
:105B2000D7023700D6023700D5023700D40237003B
:105B3000D3023700D2023700D1023700D00237003B
:105B4000CF023700CE023700CD023700CC0237003B
:105B5000CB023700CA023700C9023700C80237003B
:105B6000C7023700C6023700C5023700C40237003B
:105B7000C3023700C2023700C1023700C00237003B
:105B8000BF023700BE023700BD023700BC0237003B
:105B9000BB023700BA0237005D00370051EB8000CE
:105BA0002E009000810F50005500320041EB800024
:105BB0002E009000810F500010003A0040EB800052
:105BC0008000E900F00F20000080600040EB8800BA
:105BD00041EB800080C62100808040000040EB0047
:105BE0008048780041EB80002107980040532A004C
:105BF00058A8020000000000150337000000EB0069
:105C0000000F98002E0090008000E900F00F2000A7
:105C1000008060002007980080532A0058A80200E6
:105C2000000000002E01900062079800210037005C
:105C30006E0190006E0090008000E80080C6210098
:105C4000008040009040780080C6210000004100A4
:105C500001487800EE00900080C6210000804000DE
:105C6000104078000004E00007003200EE009000D1
:105C700080C62100008040001040780042AD020044
:105C8000000000000300370000C2B30042AD020074
:105C9000000000000E0890000000E800000F9800CF
:105CA0006E0090008000E800F00F2000008060008F
:105CB00060079800EE00900040EB8000808F50005D
:105CC000DBFF3A0040EB80008000E900F00F20008D
:105CD0000080600040EB8800C0532A0058A80200F2
:105CE000000000000E089000F0AA02000000000072
:105CF000F0532A0058A8020000000000D402370028
:105D000070C0B30042AD020000000000D0023700B6
:105D100041EB80002E009000810F500039003200CE
:105D20000000EB00000F9800AE01900063079800A0
:105D3000210037006E0190006E0090008000E800A6
:105D400080C62100008040009040780080C621007D
:105D50000000410001487800EE00900080C621005C
:105D600000804000104078000004E000070032008E
:105D7000EE00900080C621000080400010407800B6
:105D800042AD0200000000000300370000C2B30073
:105D900042AD0200000000000E0890000000E80084
:105DA000000F98006E0090008000E800F00F2000C7
:105DB0000080600060079800EE00900040EB8000DB
:105DC000808F5000DBFF3A0040EB80008000E9004C
:105DD000F00F20000080600040EB8800C0532A00D4
:105DE00058A80200000000000E089000F0AA02006F
:105DF00000000000F0532A0058A802000000000034
:105E00009302370070C0B30042AD020000000000F2
:105E10008F02370088AC020000000000604F98003D
:105E2000EE489000B0C5B30080CF500088023A0021
:105E300088AC020000000000604F98006E4890009F
:105E40000080FB00700F980020042000FE089000E6
:105E5000808F5000DE003200200420007E09900078
:105E6000800F510005003C0010042000FE09900046
:105E7000808F51003400320075023700300420005A
:105E8000FE089000808F50001E0032004004200069
:105E90007E099000800F5100010032006C02370033
:105EA0004E009000E40F50000500340008C10200CD
:105EB000000000000000EB0040079800640237007B
:105EC00051EB80002E009000810F5000090032003D
:105ED0002E0090008000E900F00F2000008060009C
:105EE0002007980080532A0058A8020000000000F4
:105EF0005702370070C0B30042AD0200000000003E
:105F00005302370041EB80002E009000810F5000BB
:105F1000090032002E0090008000E800F00F200001
:105F2000008060002007980010542A0058A8020042
:105F3000000000004602370070C0B30042AD02000E
:105F400000000000420237000000EB00000F780064
:105F500050EB80000000E90080007800F00F200086
:105F600000806000600798008D003700EE00900010
:105F700080C6210000804000104078000004E0004E
:105F800082003A006E0090008000E900F00F2000CF
:105F90008080600080C621000080400010407800B2
:105FA0000004E000790032001E0FE8001E0090009F
:105FB0009E0F1000750036001E0090000000E800E3
:105FC0001007980051EB800040EB8000808F50005C
:105FD000140032000A00370041EB800080C6210027
:105FE000808040000040EB008048780040EB80005B
:105FF0008000E900F00F20000080600040EB880086
:1060000041EB800050EB8000808F5000F2FF3A009F
:1060100041EB800080C62100808040000040EB0002
:10602000804878006E0090008000E900F00F2000AA
:1060300000806000000F9800110037008E0890006B
:1060400080C6210000804000104078000004E0007D
:1060500006003A000E0890008000E800F00F2000D3
:106060000080600050079800090037000E0890007B
:106070008000E900F00F200000806000000F980011
:106080008E08900040EB8000808F5000EBFF3A00BC
:1060900050542A0058A8020000000000A11E8100F0
:1060A000E00220000088B9006102200080804000EA
:1060B00000E121000080400058A80200000000001C
:1060C000D11E810000202000008060000000E00060
:1060D0000400320071002000C0592000E6D8020000
:1060E0000000000020532A0058A802000000000011
:1060F000DE019000030F9800180037008E08900012
:1061000080C62100008040001040780042AD0200AF
:106110000000000042EB80008E08900080C6210045
:10612000008040009040780080C6210000004100BF
:106130000148780040EB80008000E800F00F20006C
:106140000080600040EB88000E0890008000E800AE
:10615000F00F200000806000000F98008E08900073
:106160006E009000808F5000E4FF3A0041EB800009
:1061700080C62100808040000040EB00804878000D
:1061800040EB800020079800090037006E00900067
:106190008000E900F00F2000008060006007980098
:1061A000EE00900040EB8000808F50006FFF3A00BF
:1061B000EE00900040EB8000808F5000A4013A0078
:1061C00070C0B30042AD020000000000A001370023
:1061D0000000EB00000F780050EB80000000E900A9
:1061E00080007800F00F20000080600060079800B9
:1061F0008E003700EE00900080C621000080400035
:10620000104078000004E00083003A006E00900027
:106210008000E900F00F20008080600080C621002F
:1062200000804000104078000004E0007A00320056
:106230001E0FE8001E0090000000E9009E0F5000B5
:1062400075003A001E0090000000E9001007980059
:1062500051EB800040EB8000808F50001400320032
:106260000A00370041EB800080C62100808040009A
:106270000040EB008048780040EB80008000E9009F
:10628000F00F20000080600040EB880041EB8000B0
:1062900050EB8000808F5000F2FF3A0041EB80000D
:1062A00080C62100808040000040EB0080487800DC
:1062B0006E0090008000E900F00F20000080600078
:1062C000000F9800110037008E08900080C6210052
:1062D00000804000104078000004E00006003A0012
:1062E0000E0890008000E800F00F200000806000A1
:1062F00050079800090037000E0890008000E90060
:10630000F00F200000806000000F98008E089000C1
:1063100040EB8000808F5000EBFF3A0050542A0081
:1063200058A8020000000000A11E8100E002200029
:106330000088B900610220008080400000E1210057
:106340000080400058A8020000000000D11E81001B
:1063500000202000008060000000E0000400320007
:1063600071002000C0592000E6D8020000000000A3
:1063700020532A0058A8020000000000DE00900010
:10638000010F9800180037008E08900080C6210089
:10639000008040001040780042AD02000000000084
:1063A00042EB80008E08900080C6210000804000F3
:1063B0009040780080C6210000004100014878002C
:1063C00040EB80008000E800F00F200000806000BB
:1063D00040EB88000E0890008000E800F00F2000DD
:1063E00000806000000F98008E0890006E00900002
:1063F000808F5000E4FF3A0041EB800080C621000E
:10640000808040000040EB008048780042EB800034
:1064100022079800090037006E0090008000E90014
:10642000F00F20000080600060079800EE009000F0
:1064300040EB8000808F50006EFF3A00EE0090002D
:1064400040EB8000808F500001013A001E00900058
:10645000E10F500031003A0050542A0058A80200C1
:1064600000000000A11E8100E00220000088B900A9
:10647000610220008080400000E121000080400097
:1064800058A8020000000000D11E8100002020005A
:10649000008060000000E000040032007100200075
:1064A000C0592000E6D802000000000020532A0056
:1064B00058A80200000000000A00370041EB8000ED
:1064C00080C62100808040000040EB0080487800BA
:1064D00040EB80008000E900F00F200000806000A9
:1064E00040EB880041EB800050EB8000808F500033
:1064F000F2FF3A0041EB800080C62100808040001E
:106500000040EB008048780043EB800023079800B0
:106510000000EB0010079800CD00370070C0B300FA
:1065200042AD020000000000C900370051EB8000BE
:106530002E009000810F50001300320051EB8000BC
:106540002E0090000100500080007800F00F200025
:1065500000806000000F9800C0532A0058A8020075
:10656000000000000E089000F0AA020000000000E9
:10657000F0532A0058A802000000000050EB8000F1
:1065800020079800B200370070C0B30042AD02008F
:1065900000000000AE00370041EB80002E009000AC
:1065A000810F50001300320041EB80002E0090005C
:1065B0000080500080007800F00F20000080600014
:1065C000000F9800C0532A0058A8020000000000E5
:1065D0000E089000F0AA020000000000B0542A004B
:1065E00058A802000000000041EB8000210798003D
:1065F0009700370070C0B30042AD020000000000F9
:106600009300370010002000600F98000000EB009E
:106610001007980041EB800080C621008080400078
:106620000040EB008048780040EB80008000E800EC
:10663000F00F20000080600040EB880042EB8000FB
:1066400022079800D0542A0084A80200000000000D
:106650007F0037004E0090000000E80040079800DF
:106660004E009000F40F500079003A0022B402006E
:10667000000000000000EB004007980074003700A5
:1066800040EB80008000E800F00F20008080600078
:1066900050EB8000808F50006A0032006E489000FE
:1066A000FF4F500067003600EE489000E0C7B3008F
:1066B00080CF500063003E0041EB80002E00900030
:1066C000808F500015003A006E48900042AD0200E5
:1066D0000000000041EB80006E49900080C6210060
:1066E000008040000248780040EB80008000E80015
:1066F000F00F20000080600040EB880041EB80003C
:1067000080C62100808040000040EB008048780077
:1067100043EB8000230798004D00370041EB8000D9
:106720002E0090000080500080007800F00F2000C4
:1067300000806000000F9800C0532A0058A8020093
:10674000000000000E089000F0AA02000000000007
:10675000B0542A0058A802000000000040EB80005E
:10676000600798001D0037006E0090000001E800EF
:10677000EE00900080C6210000804000904078002C
:1067800080C621000000410001487800EE00900022
:1067900080C6210000804000104078000004E00026
:1067A00009003200EE00900080C621000080400009
:1067B0001040780042AD020000000000E0542A00C2
:1067C00058A80200000000006E0090008000E90060
:1067D000F00F200000806000600798006E019000BC
:1067E0002E0090008000E900F00F20000080600083
:1067F000800F5100DCFF3A006E48900042AD02006D
:1068000000000000AE0090006E49900080C621009C
:1068100000804000024878002E0090008000E800D0
:10682000F00F2000008060002007980040EB8000FF
:106830008000E800F00F20000080600040EB88003E
:106840000300370070C0B30042AD0200000000003A
:106850006E0890000000E000CAFB320040EB8000B0
:10686000400F980050EB8000300F98000000EB00C4
:10687000600F98000000EB00500F98000000EB0044
:1068800060EB8800D11E81000020200000806000A5
:106890000000E00027053200A258020000000000BE
:1068A00051002000305A200070D902000000000082
:1068B00010002000500F98001E05370051EB80009B
:1068C00080C621000080400010407800604F980092
:1068D0006E4890000080FB006101B900221798000B
:1068E00033179800E0072000010020002E119000CF
:1068F000BE119000800F5100818F5900E1043E00CD
:106900002E109000BE10900000600100DF043700E0
:10691000DC043700DB043700DA043700D904370021
:10692000D8043700D7043700D6043700D504370021
:10693000D4043700D5043700D2043700D10437001F
:10694000D2043700CF043700CE043700CD0437001F
:10695000CC043700CB043700CA043700C904370021
:10696000C8043700C7043700C6043700C504370021
:10697000C4043700C3043700C2043700C104370021
:10698000C0043700BF043700BE043700BF0437001F
:106990009C043700DC023700410137004A01370010
:1069A000F3013700E1013700B6043700B5023700C4
:1069B000B4043700B3043700B4043700B30437001D
:1069C00048043700610437002C04370055033700B2
:1069D0005403370053033700520337005103370085
:1069E000500337004F0337004E0337004D03370085
:1069F0004C033700A3043700A2043700FC01370022
:106A0000DF0037009F0437003F0037005C0137008C
:106A10004E0137009B04370065003700C001370086
:106A20009804370097043700960437009504370020
:106A30009404370093043700720037007B0037005E
:106A4000900437008F0437008E043700A30037000E
:106A50008C0437008B043700DA01370089043700D3
:106A600088043700870437005B013700850437004E
:106A70008404370083043700060337000C04370012
:106A80001603370040043700230437007D04370025
:106A900021013700270037003A0037009201370004
:106AA000B5003700290037002B0037007504370088
:106AB00018003700730437004800370068003700BB
:106AC0001A0037006F0437001C00370071003700D0
:106AD0006C0437008F033700B601370069043700B4
:106AE00068043700170037006D0137006504370070
:106AF0006404370063043700EF023700BB0037003F
:106B0000FF023700D900370086D9020000000000DC
:106B10005E043700CD070700A01E81000000E000E2
:106B20005A043200010807005804370082060700A3
:106B3000560437006B090700540437004509070065
:106B400052043700B908070050043700B0B0020003
:106B5000000000004D043700A01E81000000E0008E
:106B600005003A00D1012000305D200070D90200FC
:106B7000000000004504370018AF020000000000CC
:106B800042043700E03A2200104078000000A100E3
:106B90000010A100E13A2200804878006101200045
:106BA000805A200070D9020000000000370437002E
:106BB000E03A2200104078000000A0000010A10080
:106BC000E13A22008048780051012000E05B20007B
:106BD00070D90200000000002C043700E03A2200C7
:106BE000104078000000A1000010A000E13A22004F
:106BF0008048780030552A0084A802000000000078
:106C000022043700E03A2200104078000000A00083
:106C10000010A000E13A22008048780010562A00B7
:106C200084A802000000000018043700E03A2200A7
:106C3000104078000030A000E13A2200804878003F
:106C4000C1012000B07E2000E6D802000000000054
:106C5000D0542A0084A80200000000000B04370072
:106C6000E03A2200104078000030A100E13A220012
:106C700080487800B1012000007D2000E6D80200A5
:106C800000000000D0542A0084A802000000000088
:106C9000FE033700A01E81000000E00005003A005E
:106CA000D1012000305D200070D9020000000000FA
:106CB000F6033700E282A900E082A900510120001A
:106CC000005F2000E6D8020000000000D0542A0037
:106CD00084A8020000000000EC033700A01E810021
:106CE0000000E00005003A00D1012000305D2000E6
:106CF00070D9020000000000E4033700E03A2200EF
:106D000010407800704060000004E00004003A0089
:106D10002102200050E8200070D90200000000008D
:106D2000E082A800E282A90041012000506020001A
:106D3000E6D8020000000000D0542A0084A8020017
:106D40000000000021E3A80050C0B300EAD4020014
:106D50000000000080007800F0042000808F5000C8
:106D600003003E00F0562A0084A802000000000044
:106D700021E3A900C503370037090700C303370023
:106D800050EB80008000E800F00F200000806000E1
:106D900050EB8800D8050700F00307006007980053
:106DA0006E00900052AB02000000000020592A0043
:106DB00058A80200000000006E009000F0AA020037
:106DC0000000000020592A0058A80200000000001E
:106DD0006E009000B8A8020000000000D0542A0005
:106DE00084A8020000000000A803370050EB8000D8
:106DF0008000E800F00F20000080600050EB880069
:106E0000BD050700D5030700600798006E009000DD
:106E10000080FB00AAD60200000000006007980076
:106E20006E00900052AB02000000000020592A00C2
:106E300058A80200000000006E009000F0AA0200B6
:106E40000000000020592A0058A80200000000009D
:106E50006E009000B8A8020000000000D0542A0084
:106E600084A802000000000088033700A01E8100F3
:106E70000000E00005003A0011C0B30010C0B300EC
:106E80000AC802000000000080033700A1012000B2
:106E90009061200070D90200000000007B033700E1
:106EA000510020003063200070D902000000000073
:106EB00023C2BF00614060000004E000FCFF32001C
:106EC0000000FE007103370016DA02000000000027
:106ED0000000E0006D033200A1002000806320006C
:106EE00070D90200000000004006200048D60200D1
:106EF000000000005CD402000000000023C2BF00BC
:106F0000614060000004E000FCFF320081BF2A0005
:106F1000014001005D033700350507000000E8006F
:106F2000000F9800020037004CB202000000000081
:106F30000E0890000000E900000F98000E08900075
:106F40000000E000F8FF3A00500337002805070072
:106F50000000E800000F980002003700FCB10200BA
:106F6000000000000E0890000000E900000F9800EB
:106F70000E0890000000E000F8FF3A0043033700DD
:106F80001B0507000000E800000F98000B00370009
:106F90006101200020642000E6D80200000000000B
:106FA0009CB202000000000042A8020000000000A5
:106FB000D0542A0084A80200000000000E089000AF
:106FC0000000E900000F98000E0890000000E000AB
:106FD000EFFF3A002D033700A01E81000000E00003
:106FE00005003A00D1012000305D200070D9020078
:106FF0000000000025033700C922A900CB22A80009
:1070000021E3A8002000200048D602000000000074
:107010000040EB00EAD4020000000000800078008D
:10702000001B2000808F50000F00360020C0B300EE
:10703000EAD402000000000080007800702B2000DD
:10704000808F50000800360011012000806520006C
:10705000E6D8020000000000D0542A0084A80200F4
:10706000000000000C003700C922A900CB22A900B3
:1070700060592A0084A802000000000021012000BD
:1070800090662000E6D8020000000000D0542A00DC
:1070900084A802000000000021E3A900FB023700E1
:1070A000A01E81000000E00005003A00D101200090
:1070B000305D200070D9020000000000F3023700AC
:1070C000C922A900CB22A90021012000906620003E
:1070D000E6D8020000000000D0542A0084A8020074
:1070E00000000000E9023700F1002000A039200074
:1070F000E6D802000000000004D5020000000000F5
:1071000011002000903A2000E6D8020000000000A4
:10711000D0542A0084A8020000000000DB023700DF
:1071200016D5020000000000D8023700B0040700A6
:10713000000F98006100200070682000E6D802006F
:10714000000000000E08900092AA0200000000005B
:1071500021002000D068200070D90200000000004B
:107160000E08900074D6020000000000C70237002D
:107170009F040700000F9800610020007068200045
:10718000E6D80200000000000E08900092AA02005B
:10719000000000002100200090EC200070D90200C7
:1071A000000000000E08900048D602000000000019
:1071B000B6023700D01E81000090A000D01E8900CA
:1071C000B2023700A01E81000000E00005003A0076
:1071D000D1012000305D200070D9020000000000C5
:1071E000AA0237000EB3020000000000A702370019
:1071F0001000200060EB880010002000600798005D
:107200001000370051EB80006E009000808040003D
:10721000F00F20008080600080C6210000804000C8
:1072200090407800E0C3B30080CF500002003A00E5
:107230000000EB0060EB88006E0090000000E800AA
:107240006007980051EB80006E0090008080400045
:10725000F00F20008080600080C621000080400088
:10726000104078000004E000E6FF3A00EE009000D5
:1072700020022000808F5000020034001000200007
:1072800060EB880060EB80000000E0007F023A00C5
:1072900050EB80008000E800F00F200000806000CC
:1072A00050EB8800AD0207006007980051EB8000AA
:1072B000F00F20008080600080C621000080400028
:1072C00090407800D0C3B30080CF500040003A0017
:1072D0006E0090000000E0003A0034006E00900064
:1072E000E50F500037003C0050EB80008000E800C4
:1072F000F00F20000080600050EB88006E009000CE
:107300000000E900600798000000EB00000F980003
:107310000B0037006E0090008E0890004500DD00E5
:1073200081004000E0D62100808040000040EB005A
:10733000804878000E0890000000E800000F9800D8
:107340000E089000FF0F5000F2FF34000000EB0029
:10735000000F980013003700EE0190000E0A900015
:1073600051EB800080C62100008040001041780071
:107370004518DD0084004000E0D621000080400078
:10738000024878000E0890000000E800000F980006
:1073900050EB80008000E800F00F200000806000CB
:1073A00050EB880051EB800080C621000080400037
:1073B00090407800E0C3B30080CF5000E6FF3A0071
:1073C000320237001000200060EB88002F023700E7
:1073D0006E0090000000E0001B003A000000EB008F
:1073E000000F9800140037000E0890000040E800DD
:1073F000F0AA020000000000605B2A0058A802000A
:10740000000000000E0890004500DD0080007800BC
:10741000E0D621000080400058A8020000000000D3
:1074200020532A0084A80200000000000E089000EB
:107430000000E800000F98000E089000E40F5000D4
:10744000E9FF3400110237006E0090000000E000F8
:10745000090034006E009000E50F500006003C006B
:10746000D0542A0084A8020000000000EE00900022
:1074700071F08800050237001000200060EB8800E2
:107480000202370050EB80008000E800F00F20007F
:107490000080600050EB880030020700200F980049
:1074A0001504070051EB8000F00F20008080600081
:1074B00080C62100008040009040780090C2B30058
:1074C00080CF50000D003A00A11E8100E002200094
:1074D0000088B900FC00400000E12100008040006D
:1074E000900078002E08900001000100D0542A007E
:1074F00084A8020000000000E40137001000200012
:1075000060EB8800E10137001000200060EB88008C
:1075100010002000600798001000370051EB800039
:107520006E00900080804000F00F2000808060009E
:1075300080C62100008040009040780020C2B30047
:1075400080CF500002003A000000EB0060EB8800A2
:107550006E0090000000E8006007980051EB80008A
:107560006E00900080804000F00F2000808060005E
:1075700080C6210000804000104078000004E00038
:10758000E6FF3A0060EB80000000E000BF013A0037
:1075900071002000F0682000E6D802000000000022
:1075A00020C2B30042AD02000000000022003700FC
:1075B00051EB8000F00F20000080600050EB88004D
:1075C00051EB800080C62100008040001040780010
:1075D00042AD02000000000051EB800080C6210097
:1075E00000804000104078000000FB00200F980051
:1075F000E03A220010407800684060000004E0009B
:10760000040032002E089000AAD6020000000000FC
:10761000200F9800A11E8100E00220000088B90020
:10762000E800400000E12100008040009000780068
:107630002E0890000100010050EB80000000E800DF
:1076400050EB880051EB8000F00F2000808060003C
:1076500080C62100008040009040780020C2B30026
:1076600080CF5000D2FF3A0050EB8000F10F200095
:107670000100600050EB880020C2B30042AD020060
:1076800000000000D0542A0084A80200000000007E
:107690007E013700A11E8100E00220000088B900B1
:1076A0008000780000E12100008040001000780098
:1076B0000000010075013700A11E8100E0022000DA
:1076C0000088B9008080E80000E1210000804000CF
:1076D00010007800000001006C013700A11E81003D
:1076E000E00220000088B900E400400000E1210031
:1076F00000804000100078000000010063013700A6
:10770000A11E8100E00220000088B900E6004000D0
:1077100000E121000080400010007800000001001E
:107720005A01370071002000F0682000E6D80200FE
:107730000000000089010700200F980050EB800036
:107740000000E90050EB880051EB8000F00F2000B2
:107750000080600050EB8800250307000000E8006F
:10776000000F980045030700300798003E00900086
:107770000000E0005D0032003E0090008040780094
:10778000D0392200014878003E009000E80F5000F8
:1077900006003400E03A2200104078000050A000BB
:1077A000E13A22008048780050003700E03A220099
:1077B000104078000050A100E13A22008048780093
:1077C0004A0037002E089000A2D5020000000000F9
:1077D000E03A2200104078000042B2000004E000CD
:1077E00004003A00D039220010407800E84F5000E1
:1077F00009003A00E03A2200104078000042B2004E
:107800000004E0000B003200D03922001040780064
:10781000F04F500007003200B0C3B30042AD020089
:1078200000000000D039220010407800F0AA0200C9
:1078300000000000E03A220010407800684060003C
:107840000004E000040032002E089000AAD60200D6
:1078500000000000200F9800A11E8100E00220001F
:107860000088B900E800400000E1210000804000ED
:10787000900078002E08900001000100100F980081
:1078800000C2B30042AD020000000000E03A220056
:10789000104078000044B2000004E0001300320001
:1078A0006100200060692000E6D8020000000000AE
:1078B000E03A220010407800684060000004E000D8
:1078C000040032001E089000AAD60200000000004A
:1078D000100F98001E089000A2D5020000000000C2
:1078E00000C2B30042AD0200000000000E0890008C
:1078F0000000E900000F98000E0890000000E00072
:10790000B0FF3A00D0542A0084A802000000000012
:10791000DE0037006100200060692000E6D8020028
:1079200000000000B20207000000E800000F98000D
:10793000D2020700300798003E0090000000E000EF
:10794000440032003E00900080407800D039220090
:10795000014878003E009000E80F50000600340017
:10796000E03A2200104078000050A000E13A2200E6
:107970008048780037003700E03A22001040780055
:107980000050A100E13A2200804878003100370021
:10799000A11E8100E00220000088B900EA0040003A
:1079A00000E121000080400010007800000001008C
:1079B000100F9800E03A2200104078006840600004
:1079C0000004E000040032001E089000AAD6020065
:1079D00000000000100F98001E089000A2D50200C1
:1079E00000000000E03A2200104078000042B2009F
:1079F0000004E00004003A00D03922001040780072
:107A0000E84F500009003A00E03A220010407800A8
:107A10000042B2000004E0000B003200D039220026
:107A200010407800F04F500007003200B0C3B300A0
:107A300042AD020000000000D03922001040780062
:107A4000F0AA02000000000000C2B30042AD020034
:107A5000000000000E0890000000E900000F9800F0
:107A60000E0890000000E000C9FF3A00D0542A0040
:107A700084A802000000000084003700810020007C
:107A8000C069200070D9020000000000A11E810022
:107A9000E00220000088B900EC00400000E1210075
:107AA00000804000100078000000010077003700DF
:107AB00081002000406A200070D902000000000010
:107AC000A11E8100E00220000088B900EE00400005
:107AD00000E121000080400010007800000001005B
:107AE0006A003700E1002000C06A200070D902005F
:107AF00000000000A11E8100E00220000088B90003
:107B0000F000400000E121000080400010007800FB
:107B1000000001005D003700E1002000A06B2000A4
:107B200070D9020000000000A11E8100E0022000C8
:107B30000088B900F200400000E121000080400010
:107B4000100078000000010050003700C100200044
:107B5000B0672000E6D8020000000000A11E8100EE
:107B6000E00220000088B900F400400000E121009C
:107B700000804000100078000000010042A80200D0
:107B8000000000004100370019020700000F9800B4
:107B9000D1002000806D2000E6D802000000000027
:107BA0000E089000A2D50200000000000E08900010
:107BB0000000E800000F980008003700A11E8100B7
:107BC000E00220000088B900F600400000E121003A
:107BD0000080400010007800000001000E089000B6
:107BE0000000E900000F98000E0890000000E0007F
:107BF000F2FF3A00D0542A0084A8020000000000DE
:107C000022003700FA0107000000E800000F98008A
:107C1000A1002000506E2000E6D802000000000005
:107C20000D003700A11E8100E00220000088B9008D
:107C3000F800400000E121000080400010007800C2
:107C40000000010042A802000000000000C2B300D2
:107C500042AD0200000000000E0890000000E900A4
:107C6000000F98000E0890000000E000EDFF3A00C1
:107C700001012000806C200070D90200000000008B
:107C8000020037001000200060EB880050EB8000FD
:107C90008000E800F00F20000080600050EB8800BA
:107CA00060EB80000000E0001C0032005101200069
:107CB000F06E2000E6D8020000000000BE08900030
:107CC00050EB8000808F50000700310050EB8000A7
:107CD000804078003E08900000C05000F0AA0200EA
:107CE000000000000600370050EB80008040780064
:107CF0003E08900000C05000F0AA02000000000002
:107D00000000EB0060EB880010002000500F98008E
:107D1000D0542A0084A802000000000051EB80002B
:107D200040EB8000808F500002003A0010002000DD
:107D3000500F98005E0890000000E000DFFA32006B
:107D40004E08900050EB88004E08900040EB8800F1
:107D50000000EB00600F980074F637000600FA0090
:107D60000000EB00100798000000EB00000F780007
:107D700051EB80001E00900080804000F00F20003A
:107D80008080600080C62100008040009040780024
:107D900000C3B30080CF50004300340051EB80009B
:107DA0001E00900080804000F00F20008080600066
:107DB00080C62100008040009040780090C3B3004E
:107DC00080CF500038003C0051EB80001E00900036
:107DD00080804000F00F20008080600080C621007D
:107DE00000804000104078008000FB0000FD2F0064
:107DF000008F40001E0090000000E800100798006F
:107E0000120037001E0078006A00B900000F7800E9
:107E100051EB80001E00900080804000F00F200099
:107E20008080600080C62100008040001040780003
:107E30000000FB009E00400000FD2F00008F40006E
:107E40001E0090000000E8001007980051EB800031
:107E50001E00900080804000F00F200080806000B5
:107E600080C621000080400090407800F0C2B3003E
:107E700080CF50005101340051EB80001E00900073
:107E800080804000F00F20008080600080C62100CC
:107E9000008040009040780090C3B30080CF500035
:107EA000D8FF34004501370051EB80001E009000E0
:107EB00080804000F00F20008080600080C621009C
:107EC000008040009040780000C3B30080CF500095
:107ED00035013A001E0090000000E80010079800ED
:107EE00051EB80001E00900080804000F00F2000C9
:107EF0008080600080C621000080400090407800B3
:107F000020C6B30080CF50000B00320051EB800040
:107F10001E00900080804000F00F200080806000F4
:107F200080C62100008040009040780020C4B3004B
:107F300080CF50002D003A001E0090000000E800A5
:107F400010079800120037001E0078000000400063
:107F5000000F780051EB80001E00900080804000F0
:107F6000F00F20008080600080C62100008040006B
:107F7000104078000000FB009E00400000FD2F0034
:107F8000008F40001E0090000000E80010079800DD
:107F900051EB80001E00900080804000F00F200018
:107FA0008080600080C62100008040009040780002
:107FB00010C3B30080CF5000E3FF320051EB8000CC
:107FC0001E00900080804000F00F20008080600044
:107FD00080C62100008040009040780000C3B300BC
:107FE00080CF5000D8FF3200F400370051EB800002
:107FF0001E00900080804000F00F20008080600014
:1080000080C62100008040009040780080C7B30007
:1080100080CF50000B00320051EB80001E0090001A
:1080200080804000F00F20008080600080C621002A
:10803000008040009040780080C5B30080CF5000A1
:108040008E003A001E0090000000E8001007980023
:10805000470037001E0078004400DD00000F780064
:1080600051EB80001E00900080804000F00F200047
:108070008080600080C62100008040009040780031
:10808000F0C2B30080CF50001800340051EB8000E4
:108090001E00900080804000F00F20008080600073
:1080A00080C62100008040009040780090C3B3005B
:1080B00080CF50000D003C0051EB80001E0090006E
:1080C00080804000F00F20008080600080C621008A
:1080D00000804000104078000000FB009E0040003F
:1080E00000FD2F00008F40001E00370051EB800084
:1080F0001E00900080804000F00F20000081600092
:1081000051EB80001E00900080804000F00F2000A6
:108110008080600080C62100008040009040780090
:1081200000C2B30080C0700080C621000000410082
:108130000148780051EB80001E00900080804000D4
:10814000F00F20008080600080C621000080400089
:10815000104078000000FB009E00400090FA2F00C5
:10816000008F40001E0090000000E80010079800FB
:1081700051EB80001E00900080804000F00F200036
:108180008080600080C62100008040009040780020
:10819000F0C2B30080CF50000B00340051EB8000E0
:1081A0001E00900080804000F00F20008080600062
:1081B00080C62100008040009040780090C3B3004A
:1081C00080CF5000A3FF340051EB80001E009000D0
:1081D00080804000F00F20008080600080C6210079
:1081E000008040009040780000C4B30080CF500071
:1081F0000B00340051EB80001E0090008080400096
:10820000F00F20008080600080C6210000804000C8
:108210009040780060C4B30080CF50008DFF3400E0
:1082200051EB80001E00900080804000F00F200085
:108230008080600080C6210000804000904078006F
:1082400000C6B30080CF50005C00340051EB8000CA
:108250001E00900080804000F00F200080806000B1
:1082600080C62100008040009040780060C6B300C6
:1082700080CF500077FF34005000370051EB800072
:108280001E00900080804000F00F20008080600081
:1082900080C621000080400090407800F0C2B3000A
:1082A00080CF50004500340051EB80001E0090004C
:1082B00080804000F00F20008080600080C6210098
:1082C000008040009040780090C3B30080CF500001
:1082D0003A003C0051EB80001E009000808040007E
:1082E000F00F20008080600080C6210000804000E8
:1082F000104078008000FB0000FD2F00008F400040
:10830000120037001E0078006A00B900000F7800E4
:1083100051EB80001E00900080804000F00F200094
:108320008080600080C621000080400010407800FE
:108330000000FB009E00400000FD2F00008F400069
:108340001E0090000000E8001007980051EB80002C
:108350001E00900080804000F00F200080806000B0
:1083600080C621000080400090407800F0C2B30039
:1083700080CF50001100340051EB80001E009000AF
:1083800080804000F00F20008080600080C62100C7
:10839000008040009040780090C3B30080CF500030
:1083A000D8FF3400050037001000200060EB880083
:1083B0000000EB00200798000A00370051EB800016
:1083C0001E0090000080400050EB880051EB8000C0
:1083D000F00F20000080600050EB88001E00780045
:1083E000200798002E0090000080FA000000060090
:1083F0000400FA0050EB80008000E800F00F20003D
:108400008080600080C6210000804000904078009D
:10841000A0C3B30080CF500013003A0050EB80009F
:108420000080E80050EB880051EB8000F00F200046
:108430000080600050EB880048FE0700000F7800C5
:1084400050EB80000000E90050EB880051EB800009
:10845000F00F20000080600050EB88001E007800C4
:108460001007980002003700100020001007980045
:108470001E0090000080FA00000006000400FA00D0
:1084800050EB80008000E800F00F2000808060004A
:1084900080C621000080400090407800B0C3B30047
:1084A00080CF50000F003A0050EB80008080E80041
:1084B000F00F20000080600050EB880027FE0700CE
:1084C000000F780050EB80008000E900F00F2000E2
:1084D0000080600050EB88001E00780010079800B4
:1084E000020037000000EB00100798001E0090000B
:1084F0000080FA00000006000000FA0005003700C6
:1085000050EB80008000E800F00F20000080600049
:1085100050EB880051EB800080C6210000804000B5
:108520009040780000C2B30080CF5000F4FF3200CA
:108530000080FA00000006000400FA000000EB00D2
:10854000000F780050EB80008000E800F00F200062
:108550000080600050EB8800E7FF0700FFFD070088
:10856000000F78001E00E0004D003A000000EB0014
:1085700010079800130037001E0090000040E8002C
:10858000F0AA020000000000A05B2A0058A8020028
:10859000000000009E009000E00220000088B9006A
:1085A000610220008080400000E121000080400046
:1085B00084A80200000000001E0090000000E800F7
:1085C000100798001E009000E80F5000EAFF3400EA
:1085D000710120004070200070D9020000000000EE
:1085E0000000EB0060EB88001300200092002000E8
:1085F000110020001000200055000700000FE900C6
:10860000E0FF2F009E0F1000030032000080EB00FF
:108610009E0F100005003A00E1002000B07120001C
:1086200070D902000000000042003700A11E810046
:10863000E00220000088B900010220008080400094
:1086400000E12100008040001000780000000100DF
:108650005CD40200000000001E007800A01E89000B
:10866000A11E8100E00220000088B900FE00400049
:1086700000E12100008040001000780000000100AF
:108680001E00E00001003200CB02A80051002000D3
:10869000305A200070D90200000000002500370089
:1086A0001E0FE900800020009E0F10001D003C00FE
:1086B000A11E8100E00220000088B9000102200014
:1086C0008080400000E12100008040001000780020
:1086D000000001005CD40200000000001E007800D1
:1086E000A01E8900A11E8100E00220000088B900C0
:1086F000FE00400000E121000080400010007800F2
:10870000000001001E00E00001003200CB02A800C2
:1087100051002000305A200070D9020000000000F3
:1087200004003700510120009072200070D902002F
:108730000000000040EB80008000E900F00F200006
:108740000080600050EB88000080FA000000060006
:108750001E00FA00100F9800210F9800320F9800A9
:10876000430F98000000EB00400798000000EB006A
:10877000200798000000EB00100798000000EB00B5
:10878000000F7800D05B2A0058A80200000000000B
:108790001E089000F0AA020000000000105C2A00F1
:1087A00058A80200000000006700370088AC0200F3
:1087B00000000000204F98002E4890000000FB00B1
:1087C000600F98006E089000ED0F500029003200F5
:1087D000EE089000ED8F500007003C006E099000FD
:1087E000E80F51000D0032006E089000EA0F5000B3
:1087F0002000320035003700D0022000EE08900043
:10880000808F50001E003200800720006E0990000B
:10881000800F5100270032002C0037004E009000DE
:108820000000E000070032004E0090000000E90068
:108830004007980040532A0058A80200000000009A
:10884000410037001E00E000060032000000EB008F
:10885000000F780040532A0058A8020000000000D2
:108860003900370070C0B30042AD020000000000C4
:108870003500370010002000200798003200370034
:108880004E0090000000E00006003A00D0C2B300A5
:1088900042AD02000000000010002000000F780030
:1088A0002900370070C0B30042AD02000000000094
:1088B000250037004E0890000000E0000300320061
:1088C0000080EB00500F98005D003700AE4890002C
:1088D000F0C2B30080CF500018003400AE489000C2
:1088E00090C3B30080CF500014003C004E009000B5
:1088F000E30F50000600340070C0B30042AD020028
:108900000000000040002000400798000E003700E3
:108910002E48900042AD020000000000CE00900002
:108920006B0047002E499000827078004E00900046
:108930000000E800400798000300370070C0B30053
:1089400042AD0200000000002E0090000000E00098
:1089500096FF3200D0542A0084A8020000000000D4
:108960004E0090000000E00003003A001E08900056
:10897000500F9800320037000000EB0010079800FD
:108980004E0090000000E90040079800CE009000E3
:1089900031079800110037001E0090006A00B900EE
:1089A00010079800BE0090004E009000808050009C
:1089B0006B004700614078008000FB001E009000C3
:1089C0008080400000FD2F000080400010079800CC
:1089D0004E0090000000E900400798004E00900013
:1089E0000000E000ECFF3D009E0090002E0890008B
:1089F000808F50000D0035009E0090003E089000D2
:108A0000808F500009003C001E00E000040032008E
:108A10001E0090000000EA00500F98000800370088
:108A20001E019000520F980005003700B101200090
:108A3000E0EA200070D902000000000049FF370082
:108A40005E0890000080FA00000006000400FA00B2
:108A5000405C2A0084A8020000000000205D2A007B
:108A600058A8020000000000D0542A0084A8020088
:108A7000000000006100200000762000E6D802001F
:108A800000000000B01E8100AAAB02000000000040
:108A90007100200070EA2000E6D80200000000000B
:108AA000C01E8100AAAB020000000000A05E2A00E8
:108AB00058A8020000000000C01E810010079800A6
:108AC0001E009000E10F5000040032001E009000D4
:108AD000E30F50000500320008003700A05F2A00B5
:108AE00058A802000000000007003700D05F2A00ED
:108AF00058A80200000000000300370000602A00B0
:108B000058A802000000000040602A0084A802006B
:108B100000000000E10120006076200070D9020012
:108B2000000000000080FA00000006000200FA00C9
:108B300060602A0058A8020000000000A17F250004
:108B40001000200052AE020000000000AAAB02009C
:108B50000000000000C2B30042AD020000000000AF
:108B60005100200020922000E6D802000000000002
:108B7000C17F25001000200052AE0200000000005E
:108B8000AAAB0200000000006100200070922000EB
:108B9000E6D8020000000000E17F25001000200060
:108BA00052AE020000000000AAAB0200000000006C
:108BB000D0542A0084A8020000000000C100200058
:108BC0004078200070D902000000000097000700E4
:108BD000CBC2BF00624060000004E000050032002C
:108BE0001101200080652000E6D80200000000008E
:108BF000040037002101200090662000E6D8020022
:108C000000000000C0C2B30042AD0200000000003E
:108C100000C2B30042AD020000000000E2C2BF008B
:108C2000704060000004E0000500320041012000B7
:108C300050602000E6D80200000000000400370069
:108C400051012000005F2000E6D802000000000073
:108C5000C0C2B30042AD02000000000000C2B30079
:108C600042AD020000000000E8C2BF000042B200B6
:108C70000004E00003003A00D0602A0058A8020077
:108C800000000000E8C2BF00704060000004E00087
:108C900003003A0060612A0058A8020000000000AA
:108CA000E03A220010407800704060000004E000CC
:108CB00005003200210220000079200070D9020056
:108CC0000000000004003700E1012000207B2000AC
:108CD00070D9020000000000E03A22001040780045
:108CE000684060000004E00005003A00B101200087
:108CF000007D2000E6D802000000000004003700DC
:108D0000C1012000B07E2000E6D802000000000073
:108D1000C0C2B30042AD02000000000000C2B300B8
:108D200042AD020000000000B10120001019210036
:108D3000E6D8020000000000D03922001040780080
:108D4000F0AA020000000000D0542A0084A802000B
:108D500000000000E03A220010407800634060000C
:108D60000080FB00000F78001E007800E10F50002B
:108D7000130032001E007800E10F500004003C0098
:108D80001E0078000000E0000800320018003700E4
:108D90001E007800E20F50000E0032001E00780026
:108DA000E30F50000F003200110037005101200086
:108DB000E05B200070D90200000000000C003700CA
:108DC00061012000805A200070D9020000000000DC
:108DD0000700370000622A0084A80200000000009B
:108DE0000300370080632A0084A80200000000000E
:108DF000A11E8100E00220000088B900410220008D
:108E00008080400000E121000080400010007800D8
:108E100000000100C10020004078200070D902004D
:108E2000000000000080FA00000006000000FA00C8
:108E3000A1002000A005210070D902000000000060
:108E400061042000200B210070D902000000000006
:108E5000A101200040062100E6D802000000000029
:108E6000A11E8100E00220000088B900210220003C
:108E70008080400000E12100008040001000780068
:108E800000000100A1002000E0072100E6D8020058
:108E900000000000000220005000070040002000F9
:108EA0004E000700200020004C00070000012000B9
:108EB0004A0007008000200048000700D0542A0024
:108EC00084A802000000000041002000800F210063
:108ED000E6D802000000000021E3A8000040EB00FB
:108EE000EAD4020000000000F4AB02000000000021
:108EF00011002000903A2000E6D802000000000097
:108F000090C0B30042AD02000000000020C0B300DA
:108F1000EAD4020000000000F4AB020000000000F0
:108F200011002000903A2000E6D802000000000066
:108F300090C0B30042AD02000000000010C0B300BA
:108F4000EAD4020000000000F4AB020000000000C0
:108F500011002000903A2000E6D802000000000036
:108F600090C0B30042AD02000000000050C0B3004A
:108F7000EAD4020000000000F4AB02000000000090
:108F800011002000903A2000E6D802000000000006
:108F900090C0B30042AD02000000000021E3A90030
:108FA000000220001C000700400020001A000700FB
:108FB0002000200018000700000120001600070014
:108FC0008000200014000700D0542A0084A802006A
:108FD000000000000080FA00000006000200FA0015
:108FE000000F7800C01680001E0060000000E00046
:108FF0000400320000652A0058A8020000000000AA
:109000000300370030652A0058A802000000000065
:109010000080FA00000006000200FA00000F78004D
:10902000D01680001E0060000000E0000400320046
:1090300060652A0058A80200000000000300370005
:1090400090652A0058A80200000000000080FA0085
:10905000000006000200FA0050EB80008000E800EB
:10906000F00F20000080600050EB880022FD070018
:109070003AFB0700000F78001E00E00006003400F5
:10908000400020009E0F100003003C001E00E9007D
:10909000901E89000D0037000000EB0060EB880097
:1090A000210220004081200070D902000000000051
:1090B0008001EB0042002000110020001000200081
:1090C000A3FD07000000E900901E89002101200097
:1090D0006083200070D90200000000000080FA00C8
:1090E000000006000200FA000040EB00004F78008C
:1090F00050EB80008000E800F00F2000008060004E
:1091000050EB8800FCFC070014FB07001047980098
:109110001E4090000004E000090032001E40900054
:10912000EA4F500006003E001E4090000040E9005B
:1091300080407800003D2200014878000F00370091
:109140000000EB0060EB8800D10820003087200091
:1091500070D90200000000008001EB00A200200096
:10916000110020009000200079FD07000040E90078
:1091700080407800003D220001487800003D220038
:1091800010407800E94F500010003A00DAFC070068
:10919000F2FA0700004F78001E04E0000B003A00CE
:1091A0000000EB0060EB8800C0652A0084A8020084
:1091B000000000008001EB00F2FF27008000EB00C0
:1091C0002002200062FD0700004F780041012000CE
:1091D0000090200070D90200000000001101200062
:1091E0000018210070D902000000000023C2BF0057
:1091F000614060000004E000FCFF3200003D2200FE
:1092000010407800E94F500003003A001E407800FB
:1092100098AD02000000000074D5020000000000BC
:10922000000037006CAC0200000000000004E00009
:10923000FCFF320088AC0200000000008040780093
:1092400000C2B30080CF500001003200F5FF3700AC
:109250000080FA00000006000400FA00A01E810051
:109260000000E00007003A00D1012000305D20003E
:1092700070D90200000000001000200060EB8800A0
:1092800061003700E03A2200104078007040600032
:109290000004E00007003A002102200050E820000E
:1092A00070D90200000000001000200060EB880070
:1092B00055003700E8A2A800E882A800200020009E
:1092C00048D602000000000021E3A80050C0B3000F
:1092D000EAD40200000000008000780000102000A6
:1092E000808F50000300360040672A0084A80200E7
:1092F0000000000021E3A90050EB80008000E8009E
:10930000F00F20000080600050EB88007AFC07001E
:1093100092FA0700000F780060EB80000000E00088
:10932000140032000000EB0060EB8800E0692A00C6
:1093300084A8020000000000006B2A0084A802003C
:1093400000000000506C2A0084A802000000000009
:10935000A06D2A0084A80200000000008001EB003C
:10936000320020001100200010002000F8FC07004F
:10937000000F78001E007800100798001E00900073
:10938000E20F50000D0032001E009000E30F50006D
:10939000110032001E009000E10F50000100320069
:1093A00014003700E8A2A800E882A800E06E2A00B6
:1093B00084A802000000000013003700E8A2A80003
:1093C000EA82A900E882A900F0702A0084A80200BD
:1093D000000000000C003700E882A800EAA2A90003
:1093E000E8A2A90030732A0084A80200000000004F
:1093F00005003700E8A2A800E882A800E06E2A0075
:1094000084A80200000000000080FA0000000600AE
:109410000000FA0001C38000808621000080400027
:109420009040780030C8B30080CF50000E003A0062
:1094300000C380000000E80000C38800030037007C
:1094400000C380000000E80000C3880001C3800062
:1094500080862100008040009040780000CEB3005C
:1094600080CF5000F6FF36000080FA0000000600B2
:109470000A00FA00300798000000EB00200798006F
:10948000AE0090008086210000804000904078006F
:1094900000CEB30080CF500003003E000080EB0000
:1094A0004007980023003700AE009000808621001E
:1094B00000804000104078008080FB0000F22F0008
:1094C00000804000100798002E0090008000E80007
:1094D0008086210000804000104078000080FB0062
:1094E0004801DD002E0090008080E8008086210089
:1094F00000804000104078000080FB00000F410019
:109500009E0078003E009000808F500003003A00DB
:109510002E00900040079800060037009E00900043
:109520002E0090000080400063004000200798005B
:10953000D3FF37004E0090000080FA0000000600C4
:109540000600FA00881F78000000EB00000F78008A
:1095500001C3800080862100008040009040780098
:1095600080C2B30080CF500010003A0000C38000DA
:109570000000E80000C3880021010700000F780008
:1095800001C3800080862100008040009040780068
:1095900090C2B30080CF5000BC003A0000C38000EE
:1095A0000000E80000C38800B800370001C3800055
:1095B00080862100008040009040780000C4B30005
:1095C00080CF50001600360001C380008086210045
:1095D0000080400090407800A0C5B30080CF5000CC
:1095E0000F003E0002C38000808621000000410081
:1095F000104078008080FB00F0FB2F0000804000CE
:1096000080004000008021000080400010007800B1
:10961000200798000200E80000C388009D00370082
:1096200001C38000808621000080400090407800C7
:1096300000C8B30080CF50008600360001C3800010
:109640008086210000804000104078000080FB00F0
:10965000100798000100E80000C38800700920008E
:109660009E009000808F50004A0032007009200058
:109670009E009000808F50000D003C0040092000AB
:109680009E009000808F50001F0032006009200073
:109690009E009000808F500034003200300920007E
:1096A0009E009000808F500021003200580037004B
:1096B000A00920009E009000808F50003F003200E3
:1096C000A00920009E009000808F500005003C0003
:1096D000800920009E009000808F500045003200DD
:1096E0004B003700B00920009E009000808F500092
:1096F00039003200D00920009E009000808F500079
:109700001600320042003700A11E8100E002200056
