:020000040000FA
:100000000020040000000000EC0C0100EC0C0100DA
:10001000EC0C0100EC0C0100EC0C0100EC0C0100FC
:10002000EC0C0100EC0C0100EC0C0100EC0C0100EC
:10003000EC0C0100EC0C0100EC0C0100EC0C0100DC
:10004000EC0C0100EC0C0100EC0C0100EC0C0100CC
:10005000EC0C0100EC0C0100EC0C0100F80B0100B1
:10006000EC0C0100EC0C0100EC0C0100EC0C0100AC
:10007000EC0C0100EC0C0100EC0C0100EC0C01009C
:10008000EC0C0100EC0C0100EC0C0100EC0C01008C
:10009000EC0C0100EC0C0100EC0C0100EC0C01007C
:1000A000EC0C0100EC0C0100EC0C0100EC0C01006C
:1000B000EC0C0100EC0C0100EC0C0100EC0C01005C
:1000C000EC0C0100EC0C0100EC0C0100EC0C01004C
:1000D000EC0C0100EC0C0100EC0C0100EC0C01003C
:1000E000EC0C0100EC0C0100EC0C0100EC0C01002C
:1000F000EC0C0100EC0C0100EC0C0100EC0C01001C
:10010000EC0C0100EC0C0100EC0C0100EC0C01000B
:10011000EC0C0100EC0C0100EC0C0100EC0C0100FB
:10012000EC0C0100EC0C0100EC0C0100EC0C0100EB
:10013000EC0C0100EC0C0100EC0C0100EC0C0100DB
:10014000EC0C0100EC0C0100EC0C0100EC0C0100CB
:10015000EC0C0100EC0C0100EC0C0100EC0C0100BB
:10016000EC0C0100EC0C0100EC0C0100EC0C0100AB
:10017000EC0C0100EC0C0100EC0C0100EC0C01009B
:1001800072090100EC0C0100EC0C0100EC0C010008
:10019000EC0C0100EC0C0100EC0C0100EC0C01007B
:1001A000EC0C0100EC0C0100EC0C0100EC0C01006B
:1001B000EC0C0100EC0C0100EC0C0100EC0C01005B
:1001C000EC0C0100EC0C0100EC0C0100EC0C01004B
:1001D000EC0C0100EC0C0100EC0C0100EC0C01003B
:1001E000EC0C0100EC0C0100EC0C0100EC0C01002B
:1001F000EC0C0100EC0C0100EC0C0100EC0C01001B
:10020000FFFFFF00FFFFFF00EC0C0100EC0C010002
:10021000EC0C0100EC0C0100EC0C0100EC0C0100FA
:10022000EC0C0100EC0C0100EC0C0100EC0C0100EA
:10023000EC0C0100EC0C0100EC0C0100EC0C0100DA
:10024000EC0C0100EC0C0100EC0C0100EC0C0100CA
:10025000EC0C0100EC0C0100EC0C0100F80B0100AF
:10026000EC0C0100EC0C0100EC0C0100EC0C0100AA
:10027000EC0C0100EC0C0100EC0C0100EC0C01009A
:10028000EC0C0100EC0C0100EC0C0100EC0C01008A
:10029000EC0C0100EC0C0100EC0C0100EC0C01007A
:1002A000EC0C0100EC0C0100EC0C0100EC0C01006A
:1002B000EC0C0100EC0C0100EC0C0100EC0C01005A
:1002C000EC0C0100EC0C0100EC0C0100EC0C01004A
:1002D000EC0C0100EC0C0100EC0C0100EC0C01003A
:1002E000EC0C0100EC0C0100EC0C0100EC0C01002A
:1002F000EC0C0100EC0C0100EC0C0100EC0C01001A
:10030000EC0C0100EC0C0100EC0C0100EC0C010009
:10031000EC0C0100EC0C0100EC0C0100EC0C0100F9
:10032000EC0C0100EC0C0100EC0C0100EC0C0100E9
:10033000EC0C0100EC0C0100EC0C0100EC0C0100D9
:10034000EC0C0100EC0C0100EC0C0100EC0C0100C9
:10035000EC0C0100EC0C0100EC0C0100EC0C0100B9
:10036000EC0C0100EC0C0100EC0C0100EC0C0100A9
:10037000EC0C0100EC0C0100EC0C0100EC0C010099
:1003800072090100EC0C0100EC0C0100EC0C010006
:10039000EC0C0100EC0C0100EC0C0100EC0C010079
:1003A000EC0C0100EC0C0100EC0C0100EC0C010069
:1003B000EC0C0100EC0C0100EC0C0100EC0C010059
:1003C000EC0C0100EC0C0100EC0C0100EC0C010049
:10400000CF6723000E7F24000E018800000000000F
:104010000C000700002D2F000100200011000700F8
:10402000000020000000E00002003200000002005A
:10403000000000009C080200010000000040DA00BF
:104040000000FE004440A900004920000000E000FC
:104050000300320000002000A00188004440A800B6
:104060000000060091018800800078000000EB004D
:1040700015003700E280400032A0B4009101BA0080
:10408000E280400032A0B4009102BA00E280400019
:1040900032A0B4000002EB00472BDE00F507B200AF
:1040A000602CE10004003A000059EB008301E900B4
:1040B000FDFF3E00040037006128E10001003200EE
:1040C0000082EB00040007001101BA000200E000CA
:1040D000E8FF3A00000006003159BA008301E90008
:1040E0000C0032002159BA008301E90008003200B7
:1040F0000400E00003003A00E280400032A0B40077
:10410000F5FF370011D9BA008301E900FAFF3A0040
:104110008100E800E180400032A0B4000000060009
:10412000C6D90400000000001A0C040001000000C1
:104130002C0C040001000000420C040001000000EF
:10414000560C0400010000006A0C0400010000008D
:104150007E0C040001000000920C0400010000002D
:10416000A00C040001000000D4C404000000000002
:104170006CC10400000000005EC1040000000000EB
:10418000B8C1040000000000A4C104000000000049
:1041900098C10400000000008AC104000000000073
:1041A0007CC1040000000000E4C104000000000025
:1041B000CCC1040000000000C6C4040000000000E0
:1041C0000C910400000000002E910400000000008B
:1041D000A08B040000000000408B040000000000E1
:1041E0004A9104000000000002900400000000005A
:1041F000488C040000000000948E040000000000C1
:10420000F88F040000000000C891040000000000C6
:10421000B08B04000000000062AF0400000000004A
:10422000C2AF040000000000E4AE04000000000083
:1042300092AE0400000000002CB104000000000059
:1042400036B0040000000000F6B0040000000000DA
:1042500018B1040000000000D0B20400000000000B
:1042600008B0040000000000F49704000000000003
:10427000BE970400000000002A980400000000001F
:10428000649804000000000058980400000000003A
:10429000329B0400000000000699040000000000AA
:1042A000009B0400000000002A9B040000000000A6
:1042B000289C040000000000889804000000000012
:1042C00040E80400000000005AE80400000000007C
:1042D00030E804000000000026E8040000000000B0
:1042E00098E80400000000008CE8040000000000D2
:1042F000BCE8040000000000B0E80400000000007A
:1043000080E8040000000000A4E8040000000000B1
:1043100074E8040000000000C4E90400000000008C
:10432000FEE8040000000000ACE90400000000000A
:10433000FCE9040000000000C8E8040000000000E0
:1043400024FD040000000000E6FC04000000000062
:1043500062FD040000000000C0FC0400000000003A
:10436000B4FC040000000000C4FD040000000000D4
:10437000D0FD040000000000DCFD0400000000008F
:10438000E8FD040000000000ACFD04000000000097
:10439000B8FD040000000000A0FD040000000000C3
:1043A00038FE04000000000044FF0400000000008C
:1043B00064FF040000000000F4FD040000000000A1
:1043C00050E404000000000040E40400000000008D
:1043D00086E40400000000002AE40400000000005D
:1043E00038E4040000000000D2F9040000000000DE
:1043F000E6F9040000000000BAF904000000000023
:1044000054FA040000000000F8F904000000000065
:1044100006FA040000000000DA9C0400000000001E
:10442000BEFB040000000000C6CA0400000000003B
:10443000F6CA04000000000020CC040000000000C8
:1044400014CB04000000000002CE040000000000B5
:10445000D6C9040000000000AACA04000000000041
:10446000B8CA040000000000AACE0400000000004A
:10447000C00C040001000000B80C040001000000A2
:10448000AC0C040001000000B20C040001000000AC
:10449000306104000000000012D70400000000009A
:1044A000F0D7040000000000E2D704000000000084
:1044B00070D804000000000062D804000000000072
:1044C000B8C0040000000000E8C0040000000000C4
:1044D0003878040000000000487804000000000064
:1044E0005E7804000000000066790400000000000F
:1044F000D6790400000000002678040000000000C7
:10450000F8790400000000000A7A040000000000AE
:10451000527A040000000000BE7A0400000000008F
:10452000E07A040000000000247C04000000000089
:10453000867C040000000000F87C040000000000FD
:104540001C7D040000000000E07804000000000072
:104550007E7D0400000000009C7D0400000000003F
:10456000889FBE008A9FBE00010578000100E00020
:104570000400350008003C000000E000200032008C
:104580000500370060001000E080180002003B00CA
:1045900001F02C001A0037000004BE006011B800C2
:1045A0006B0920000982CF00020039000882CF0089
:1045B0000441B000694252000E00320008003B0086
:1045C00082817100610164008904D1000884D300F4
:1045D0008B05E8000442E800F9FF3A0005003700C7
:1045E0000804440089844C008B05E9000442E9007A
:1045F000FBFF3A00820207000AF0A70001F0A000CA
:104600004F05BE004F04BE0000000600F4FF2F005F
:10461000A1023700140020009F023700889FBE00CF
:104620008A9FBE008C1F7800B6020700BD023300CF
:1046300003866C006450E1002E0032006420E1002B
:10464000330032006150E1002F0032006120E100B0
:104650003100320085855500EB07B00009002000CD
:1046600008042000050037000804440089844C0039
:104670000A0031000603430087834B00000153000A
:1046800081815B00F8FF33000203BE000800A00038
:104690000804440089844C00F6FF3900C639DD0067
:1046A0008301730001003200130020008904D1004F
:1046B0000884D3000998A300050032000800A70071
:1046C0000300A0008904D1000884D3008B05E80012
:1046D0008904D1000884D3000001EB000281D200DC
:1046E0004702070001F0A1000CF0A70001F0A000B4
:1046F000950237006420E100970232000801BE00F5
:104700000200BE00F7FF37006120E1009202320094
:104710006000B800F3FF37000000200001F8270018
:10472000F0FF370003F0A200889FBE008A9FBE0002
:104730008C1F7800730207007A0233006450E10096
:104740004F0032006420E1005200320003826C000E
:1047500007003B000905D0000306D000820F54007B
:104760000C065D0002003900020032008901780069
:10477000030678008582550004003D000003FD001B
:104780008103FD008502EA008B854200840F7200E0
:1047900002003B0060001000E08018006011B800CB
:1047A0000005EB007A28E1000A00390006007800D5
:1047B000C75DDD00F707B200878075002D00370068
:1047C000828171000A017800610560008180D1005A
:1047D0000080D3008502E900F9FF3B000604400099
:1047E0008784480002003B0060041400E0841C0041
:1047F0000988A300070032008A817100828171005C
:10480000610164008904D1000884D3008B05E800AD
:10481000170037000978A30013003A000B00E000EE
:10482000130034008B05E9000804440089844C001F
:104830000A4474000978A3000D003A000B00E00060
:10484000070034008B05E9000804440089844C000B
:1048500001003A000B0020000978A300F7FF3200A6
:104860000001EB0002003700828171000A0178002C
:10487000E30107000CF0A70001F0A00032023700AE
:104880006420E10002003A00838F6C0032023300A2
:104890000801BE000200BE002B023700889FBE0048
:1048A0008A9FBE008C1F7800160207001D0233008D
:1048B00003866C006450E100240032006420E100B3
:1048C000270032006150E100220032006120E10047
:1048D000210032008B854200EB07B1000134B800A3
:1048E000003AB8000804420089844A00013AB8003E
:1048F0000030B8008880400009014A0004003300FD
:104900000000400081804800020149008B05E90059
:10491000C909DD008301700001003200130020008E
:10492000C814DE004814DD004709DE001200B200A2
:10493000C808DE0008847000B101070001F0A10082
:104940000CF0A70001F0A000FF0137006120E1009A
:10495000010232000801BE000200BE00F7FF37006E
:104960006150E100FCFF3A00FB0137000001BE008E
:10497000FC0107000470A70003F0A10003F8A300E6
:1049800013003A006509B10010003200090035003B
:104990006928E10002003500010028000000050040
:1049A00000004000818048008502E900FCFF3A00D9
:1049B00000000600F88F4200050035008100D1009C
:1049C0000080D3008502E800FCFF3A0000000600EA
:1049D0008000EB0000000500889FBE008A9FBE009B
:1049E000030578000300E000050035000B003C00E3
:1049F00000827000040271003000320007003700AE
:104A000060001000E080180060011900E0811900CA
:104A100002003B0001F02D00280037000004BE001A
:104A20000200BE006011B8006B0920009502200052
:104A30000182CF000A0039000541B1000082CF0099
:104A4000070039000541B1000982CF000400390098
:104A50000541B1000882CF00010039000541B100D5
:104A600005425200120032000A003B0082817100B0
:104A7000610164008100D1000080D3008984D300EB
:104A80000884D3008B05E8000442E800F7FF3A00F1
:104A9000070037000804440089844C0000004800E7
:104AA000818048008B05E9000442E900F9FF3A00E3
:104AB000530107000AF0A70001F0A0004F05BE0057
:104AC0004F04BE00000006000003BE00A501070061
:104AD0006011B8000470A70007F0A10007F8A30058
:104AE00017003A006509B1000D0032000D003500D5
:104AF000860220000628E10003003500030028009C
:104B00006000B800020005000000400081804800FD
:104B100002014900838149008502E900FAFF3A0059
:104B200000000600F88F4200050034008100D1002B
:104B30000080D3008502E800FCFF3A000000060078
:104B40006011B8008000EB0000000500881F7800AD
:104B5000000478005001BE004000BE000400400088
:104B6000858048000601490087814900009CBE00FD
:104B70000294BE000400E1000588E1000690E10017
:104B80000798E10002003100680044001008E800C6
:104B90004F04780000000600F4874700889FBE009D
:104BA0008A9FBE008C9FBE008E1F78000205BE004B
:104BB0000004BE00D4B79F00E5B79F00F6B79F0082
:104BC00087BF9F000000EB00C0B79F00B0B79F00F9
:104BD000A0B79F0090B79F0080B79F000D042000F2
:104BE000BFB097004FB09700000140000000E00008
:104BF0000F003D004F08DE0000007100C0B79F00AD
:104C00009E00070001003D0012002000A1000700E7
:104C100001003D0012002000A6000700B1000700BF
:104C2000B60007000F004000C8FF07002200370051
:104C30004F08DE0000067100CCB79F008F00070010
:104C400001003D00120020009200070001003D001D
:104C50001200200097000700A20007000FB2970083
:104C60009FB297002FB39700BFB39700A90007002A
:104C70000000520081805A0002015B0083815B00CA
:104C800080B79F0091B79F00A2B79F00B3B79F0066
:104C90000007EB009F0007000020E10001A8E100F1
:104CA00002B0E10003B8E100010031001E00200065
:104CB0000E005600C0B79F004FB297000400E000FE
:104CC0000700350010002000010020006011B8002E
:104CD00008047000898470000A0571008B857100DA
:104CE0008D06E900BEFF3A000400E00003003D002D
:104CF000820007000F00400094FF07004FA89700B4
:104D00000000E00004003A000FB497009FB4970041
:104D10002FB59700BFB59700940007004F077800A4
:104D20004F06BE004F05BE004F04BE004F01B1004C
:104D300000000600881F780018002000881F7800F7
:104D400095FF07008F87E9004F04780000000600F8
:104D5000801FEB0090FF07008F87E900000006002E
:104D6000889FBE008A9FBE008C1F78006E000700DF
:104D700007003D0073000700E00F5B00E08F5B0061
:104D800007003D00320007000006EB00040037007A
:104D90003400070002003D002A0007001C0020002C
:104DA00072000700E3FF07000203BE000002BE001E
:104DB0000C00E00001003200220007000400BE00E9
:104DC0000601BE004F0678004F05BE004F04BE002E
:104DD00000000600889FBE008A9FBE008C1F7800DE
:104DE0005100070005003D0056000700E00F5B0082
:104DF000E08F5B0006003D0004003700190007004B
:104E000003003D006000B8006011B800100007000A
:104E100056000700CEFF07000203BE000002BE00DE
:104E20000C00E00001003200060007000400BE0094
:104E30000601BE004F0678004F05BE004F04BE00BD
:104E4000000006006000B8006011B80000003700E4
:104E500004025000858258000603590087835900D8
:104E6000000006000006EB00E00F5200E08F5A0041
:104E7000E00F5B00E08F5B00000006000180400057
:104E800090B79F000001EB008FB097000100E00099
:104E9000000006000200700090B79F0001804000F3
:104EA00080B79F000001EB00FFA897000100E00021
:104EB000000006000200700080B79F0001804000E3
:104EC0006FAA9700CF20DE0001007000F0AF9F00B6
:104ED00004024200250007004F18DE0000027200A5
:104EE00000000600E4AF9F000804440089844C00E1
:104EF0000A054D008B854D00000006003FB297006B
:104F0000CFB297005FB39700EFB3970000FE2F007A
:104F1000000006003FB09700CFB097005FB1970048
:104F2000EFB19700000006000205BE000004BE00BD
:104F3000E00F5000E08F5800E00F5900E08F59005B
:104F4000000006006000B8006011B80008045000BE
:104F5000898458000A0559008B8559001C002000DF
:104F6000E00F5200E08F5A00000006000800BE006B
:104F70000A01BE00000006006022B8000602200000
:104F80000000D0008180D2000482D2008582D2004D
:104F90000000A0000202520083825A000300310088
:104FA0000202420083824A000000A1000603E900D9
:104FB000F3FF3A0000000600EFFF07000400BE0008
:104FC00000000600839F68000100E00002003D0031
:104FD00060001000E08018000300E00002003D00C7
:104FE00060011100E0811900E3FF07004F00E000BD
:104FF00002003B0060001000E08018000000060086
:1050000081002000618055000B003D000B00200056
:1050100061FE2F000100E1001D003400828171005B
:10502000610164008904D1000884D3000000E80015
:10503000FAFF3A0071002000610064000300700074
:10504000020060000900320061044400E0844C006A
:105050000988A500050032008B05E8006808E1001A
:1050600002003A008904D1000884D300F20F200026
:105070000258E10005003D00C75DDD00F907B20000
:105080008980750008007800000006000BF82700F2
:105090008B00780000000500889FBE008A9FBE003C
:1050A000841F7800170007004F00780011003300BC
:1050B000F0FF2F00838F6C0006003B0004056500A5
:1050C0000A00A7000800370009F0A6001000200021
:1050D00008003700820F5400838F5C000300390002
:1050E0001000200001003E000000200009F0A70091
:1050F0000000EA004F05BE004F04BE000000E000C3
:10510000000006000004BE00160007000003BE00F9
:105110000405BE000200BE0012000700844F7500A7
:10512000000006000200BE006450E10005003600E9
:105130006420E100020036000968A30001003A0083
:105140000800BE000160A0004F0678004F05BE00B9
:105150004F04BE0000000600F0FF2F00F1FF270003
:10516000F9FF3700C70ADE00F107B200F50FB20001
:1051700008003200E1CF4200020032000170A000BE
:1051800024000500810F70000100320004080500B2
:1051900044000500810F700002003A001400050071
:1051A0008502E9000000400081C04800FCFF3B0090
:1051B0000170A000240005008001EB000200370010
:1051C00061F079008301E800828F5100FCFF3A0012
:1051D000000006003E00000008200000080000005B
:1051E0001B5B0000440000001B5B0000004400004B
:1051F000001B00005B430000001B00005B3200004E
:105200004B0D000000430000000000001B5B00008D
:105210003244000000570000617200006E69000017
:105220006E6700003A2000006E6F000020760000DC
:105230006F6C00007461000067650000206F000063
:105240006E20000056700000756C00006C75000048
:1052500070200000706900006E000000203D00001A
:10526000200000005245000053450000540D00008E
:105270000A000000436C00007574000063680000C1
:10528000206500006E670000616700006564000033
:105290002121000021000000565200004547000077
:1052A000207400006F6F0000206C00006F7700001A
:1052B0002C20000069730000207400006865000065
:1052C000726500002061000020730000686F00001C
:1052D000727400003F000000436C00007574000011
:1052E000636800002064000069730000656E0000C0
:1052F0006761000067650000642100002121000053
:10530000002E0000203C0000002E000020000000C5
:10531000546F000020660000696E00006973000091
:10532000682000007365000074750000702C000098
:10533000207300007461000072740000207500008A
:10534000702000007468000065200000706F00008D
:105350007765000072200000737500007070000017
:105360006C6900006573000020770000697400001C
:1053700068200000636F00006D6D0000616E00002A
:105380006420000027570000270D00000A000000DD
:10539000200000000D0A0000280000007800000036
:1053A000293E0000004200007573000020500000FC
:1053B000697200006174000065200000763400000E
:1053C00000460000697200006D7700006172000005
:1053D00065200000763600002E3300002D620000AC
:1053E000657400006131000020720000323000005E
:1053F000383800002000000020280000323400006F
:10540000464A0000323500003647000042310000B5
:105410003036000020000000413300000041000051
:1054200035000000554E00004B0000002900000030
:1054300043460000473000003A20000000560000BC
:10544000707500003D350000562C00002000000063
:1054500056700000753D000033560000332C0000EC
:105460002000000049090000004F00000900000072
:1054700048090000004C000009000000456E0000D3
:105480007465000072200000726100007720000047
:10549000766100006C75000065200000666F0000FA
:1054A00072200000425200004700000057610000D7
:1054B000726E0000696E0000673A00002061000013
:1054C0006C720000656100006479000020610000DA
:1054D000207600006F6C00007461000067650000BA
:1054E000206F00006E20000056700000756C0000F8
:1054F0006C75000070200000706900006E000000F4
:105500004C450000540000004946000000540000D3
:10551000484500004E000000454C00005345000087
:10552000004700004F5400004F000000474F0000AC
:105530005355000042000000524500005455000041
:10554000524E000000520000454D00000050000087
:10555000524900004E540000004900004E50000027
:1055600055540000004600004F5200000054000057
:105570004F0000004E45000058540000005200004B
:105580004541000044000000444100005441000037
:10559000005300005441000052540000520000002B
:1055A00053540000415200005400000053540000C6
:1055B0004F50000052000000535400004F500000B4
:1055C00000530000454E000044000000524500001A
:1055D000434500004956000045000000434C0000D0
:1055E0004B0000004441000054000000424900000C
:1055F00054520000454100004400000041440000B6
:10560000430000004155000058500000494E000082
:10561000005000005355000000500000554C0000A1
:105620004C55000050000000444500004C41000073
:10563000590000004155000058000000465200008B
:10564000455100000044000055540000590000007E
:105650004D410000435200004F000000454E000045
:105660004400000000520000554E0000004C0000B5
:105670004953000054000000455800004954000000
:10568000004400004542000055470000004E000065
:105690004557000000000000120100000002000059
:1056A0000200000000080000D804000000FB000019
:1056B00002000000010200000301000009020000D6
:1056C00043000000020100000080000064090000A7
:1056D00004000000000100000202000001000000C0
:1056E0000524000000100000010400002402000056
:1056F000020500002406000000010000052400004F
:10570000010100000107000005810000030A0000FC
:10571000004000000904000001000000020A00002F
:105720000000000000070000050200000240000029
:105730000000000007050000820200004000000099
:105740000004000003090000042A000003440000D4
:1057500000610000006E00000067000000650000AE
:1057600000720000006F0000007500000073000070
:10577000002000000050000000720000006F0000D8
:1057800000740000006F0000007400000079000049
:10579000007000000065000000730000001E0000A3
:1057A00003420000007500000073000000200000AC
:1057B000005000000069000000720000006100005D
:1057C000007400000065000000200000005600008A
:1057D0000034000000200000001200000330000030
:1057E00000300000003000000030000000300000F9
:1057F0000030000000300000003100000000000018
:1058000042610000756400002064000065740000BF
:1058100065630000746900006F6E00002073000073
:10582000656C00006563000074650000642E000074
:105830002E0000002000000000000000000000001A
:10584000000000002C0100000000000058020000D1
:1058500000000000B004000000000000600900002B
:1058600000000000C01200000000000080250000C1
:10587000000000004038000000000000004B000065
:105880000000000080700000000000000096000092
:1058900000000000C0DA00000000000000E100008D
:1058A0000000000000C200000100000000F4000041
:1058B0000100000000E80000030000004152000069
:1058C000543100000000000000290000002000000A
:1058D0005700000020520000004E00006F770000CB
:1058E00020750000736900006E670000206F0000E3
:1058F0006E2D0000626F00006172000064200000E5
:1059000045450000505200004F4D00002049000066
:1059100032430000206900006E74000065720000D0
:105920006661000063650000004F00006E2D0000FE
:10593000626F0000617200006420000045450000B5
:10594000505200004F4D00002077000072690000A7
:105950007465000020700000726F00007465000024
:10596000637400002064000069730000616200003D
:105970006C65000064000000493200004331000003
:1059800000000000204800007A000000467200007D
:1059900065710000756500006E63000069650000B8
:1059A000732000003C200000314800007A200000F5
:1059B00061720000652000006E6F0000742000001E
:1059C00073750000707000006F7200007465000055
:1059D000642E000000000000306200000030000073
:1059E000303000002C00000030300000003000009B
:1059F0003132000033340000353600003738000003
:105A00003941000042430000444500004630000098
:105A100078000000436F0000756C0000646E0000A9
:105A200027740000206B00006565000070200000F6
:105A30007570000000000000535000004931000064
:105A40000000000029000000007500006E6B0000DF
:105A50006E6F0000776E0000206D00006F64000024
:105A600065000000504900004331000000000000C4
:105A70003A200000000000002E0000003157000016
:105A8000303100000000000042420000494F000099
:105A900031000000585300005631000000000000A3
:105AA000314100004C5300000042000050760000DD
:105AB000340000000808000008080000080000008A
:105AC00000000000524100005731000000000000BB
:105AD0004E4F0000454D0000530000000000000044
:105AE000290000000000000000000000200000006D
:105AF000000000002A00FA000000EB00700F980080
:105B00000000EB00109889000000EB00009889006D
:105B100000988100300798000000EB0020079800F3
:105B20000000EB00100798000000EB00B07F890038
:105B30000000EB00600798000000EB00209889004F
:105B40000000EB00500798000000EB00100F9800D9
:105B5000130037000000EB00700798000A003700C0
:105B60001E089000FE0090004500DD00010140008D
:105B7000613023000040EB0000F178007E009000CF
:105B80000000E800700798007E009000FF0F5000B2
:105B9000F3FF34001E0890000000E800100F98008A
:105BA0001E089000E40F5000EAFF34000000EB00F4
:105BB000309D8900B17F8100000320000088B9007A
:105BC0008102200080804000C0C62200008040008A
:105BD00088DB020000000000E17F8100002020003F
:105BE000008060000000E00004003200710020002E
:105BF00040652000D603020001000000A08E2A00AC
:105C000088DB02000000000025043700309D810081
:105C10000000E0005F003200309D81000000E900DC
:105C2000309D89000000EB00700798001B003700D2
:105C300002988100309D8100FE0090004500DD004B
:105C40008100400060302300E14078000020230004
:105C500001717800309D8100FE0090004500DD005C
:105C60008100400060302300614078007EDF020048
:105C700000000000009881000000E8000098890002
:105C80007E0090000000E8007007980001988100F5
:105C9000F00F20000080600000988900309D810096
:105CA000FE0090004500DD008100400060302300D0
:105CB000614078000004E000DDFF3A000000EB00E6
:105CC000309D890033003700E05D230010407800EC
:105CD000644060000004E0002D003200B17F8100CC
:105CE000000320000088B900FA004000C0C622006E
:105CF0000080400010007800000001000000E0007B
:105D000023003200B17F8100000320000088B90029
:105D10008102200080804000C0C622000080400038
:105D200088DB020000000000A08E2A0088DB020051
:105D3000000000001198810000988100808F5000C1
:105D40001300320010988100700798000C00370093
:105D5000FE00900000202300614078007EDF0200FA
:105D600000000000FE009000F00F200000806000A6
:105D7000700798007E0090000000E800700798000F
:105D8000FE00900000988100808F5000F0FF3A00E4
:105D9000D3C2BF00B4DF0200000000000004E00036
:105DA000C9FF3200F2DF0200000000000004E00042
:105DB0000300320006E0020000000000B8033700D4
:105DC000DCDF020000000000005798000E50900039
:105DD0000080FB006101B90012179800231798009A
:105DE000F0072000010020001E119000AE1190006D
:105DF000800F5100818F59003C033E001E1090001F
:105E0000AE109000006001002D033700E302370060
:105E10004D01370035033700D3003700FA02370051
:105E20006201370031033700770037002F03370056
:105E3000100337002D0337002C0337000D03370004
:105E400007023700290337006901370027033700AD
:105E500026033700250337002403370023033700C8
:105E60002203370021033700200337001F033700C8
:105E70001E033700F90037001C0337001B033700EF
:105E80001A033700190337001803370017033700C8
:105E900016033700150337001403370013033700C8
:105EA0001203370011033700100337000F033700C8
:105EB0000E0337000D0337000C0337000B033700C8
:105EC0000A033700090337000803370007033700C8
:105ED00006033700050337000403370003033700C8
:105EE000020337000103370000033700FF023700C9
:105EF000FE023700FD023700FC023700FB023700CC
:105F0000FA023700F9023700F8023700F7023700CB
:105F1000F6023700F5023700F4023700F3023700CB
:105F2000F2023700F1023700F0023700EF023700CB
:105F3000EE023700ED023700EC023700EB023700CB
:105F4000EA023700E9023700E8023700E7023700CB
:105F5000E6023700E5023700E4023700E3023700CB
:105F6000E2023700E1023700E0023700DF023700CB
:105F7000DE023700DD023700DC023700DB023700CB
:105F8000DA023700D9023700D8023700D7023700CB
:105F9000D6023700D5023700D4023700D3023700CB
:105FA000D2023700D1023700D0023700CF023700CB
:105FB000CE023700CD023700CC023700CB023700CB
:105FC000CA023700C9023700C8023700C7023700CB
:105FD000C6023700C5023700C4023700C3023700CB
:105FE000C2023700C1023700C0023700BF023700CB
:105FF000BE023700BD023700BC023700BB023700CB
:10600000BA02370058003700119881003E00900016
:10601000810F500050003200019881003E00900036
:10602000810F50000F003A00009881008000E900C5
:10603000F00F200000806000009889000298810025
:10604000012023000040EB0000F17800019881005E
:1060500031079800C08E2A0088DB02000000000093
:106060000F0337000000EB00100F98003E00900077
:106070008000E900F00F20000080600030079800E9
:10608000008F2A0088DB0200000000003E01900023
:10609000720798001D0037007E0190007E0090007E
:1060A0008000E80000202300E14078000020230069
:1060B00001717800FE00900000202300614078000C
:1060C0000004E000060032007E0090000120230062
:1060D00060C078007EDF020000000000030037008F
:1060E00000C2B3007EDF0200000000001E08900026
:1060F0000000E800100F98007E0090008000E8008B
:10610000F00F20000080600070079800FE009000F3
:1061100000988100808F5000DFFF3A0000988100D6
:106120008000E900F00F20000080600000988900E6
:10613000408F2A0088DB0200000000001E0890004B
:1061400020DE020000000000708F2A0088DB0200C1
:1061500000000000D202370070C0B3007EDF0200F2
:1061600000000000CE023700019881003E00900040
:10617000810F5000350032000000EB00100F980036
:10618000BE019000730798001D0037007E0190004B
:106190007E0090008000E80000202300E1407800AD
:1061A0000020230001717800FE00900000202300F1
:1061B000614078000004E000060032007E0090009C
:1061C0000120230060C078007EDF02000000000094
:1061D0000300370000C2B3007EDF020000000000B1
:1061E0001E0890000000E800100F98007E0090004C
:1061F0008000E800F00F2000008060007007980029
:10620000FE00900000988100808F5000DFFF3A0070
:10621000009881008000E900F00F200000806000FD
:1062200000988900408F2A0088DB020000000000EF
:106230001E08900020DE020000000000708F2A007F
:1062400088DB0200000000009502370070C0B30038
:106250007EDF02000000000091023700DCDF020058
:1062600000000000005798008E509000B0C5B300A9
:1062700080CF50008A023A00DCDF020000000000FC
:10628000005798000E5090000080FB000017980007
:10629000100420008E109000808F500054003200B7
:1062A000100420000E119000800F510009003C00E6
:1062B000100320008E119000808F510012003200D8
:1062C000400320008E109000808F50001600320096
:1062D00073023700300420000E119000800F51002F
:1062E00032003200300420008E119000808F510067
:1062F000DB003500400420008E109000808F50009D
:106300001100320066023700DCDF020000000000EE
:10631000005798008E509000E0C7B30080CF500027
:106320009E0132005E023700DCDF02000000000048
:10633000005798008E509000E0C7B30080CF500007
:10634000B1013200560237005E009000E40F5000A9
:1063500005003400C0EB0200000000000000EB006C
:10636000500798004E023700119881003E009000BF
:10637000810F5000090032003E0090008000E900CB
:10638000F00F20000080600030079800008F2A0086
:1063900088DB0200000000004102370070C0B3003B
:1063A0007EDF0200000000003D02370001988100FE
:1063B0003E009000810F5000090032003E00900026
:1063C0008000E800F00F2000008060003007980097
:1063D000908F2A0088DB02000000000030023700A6
:1063E00070C0B3007EDF0200000000002C02370006
:1063F0000000EB0010079800109881000000E900F1
:1064000080007800F00F2000008060007007980086
:10641000870037007E0090000120230060C07800D4
:106420000004E0007D003A007E0090008000E9005A
:10643000F00F200080806000002023006140780081
:106440000004E000750032001E0090000000E8002B
:10645000100798009E0090002E009000808F500042
:106460006E0036002E0090000000E8002007980023
:106470001198810000988100808F50001200320036
:106480000900370002988100012023000040EB0042
:1064900000F17800009881008000E900F00F2000F2
:1064A00000806000009889000198810010988100A8
:1064B000808F5000F3FF3A000298810001202300F2
:1064C0000040EB0000F178007E0090008000E900C1
:1064D000F00F200000806000100F980010003700BF
:1064E0001E0890000120230060C078000004E00036
:1064F00006003A001E0890008000E800F00F20001F
:106500000080600060079800090037001E089000B6
:106510008000E900F00F200000806000100F98005C
:106520009E08900000988100808F5000ECFF3A0098
:10653000D08F2A0088DB020000000000B17F8100BC
:10654000000320000088B900810220008080400004
:10655000C0C622000080400088DB0200000000006E
:10656000E17F810000202000008060000000E0004A
:10657000040032007100200040652000D6030200B4
:1065800001000000A08E2A0088DB0200000000004D
:106590006E019000120F9800150037009E089000C1
:1065A00000202300614078007EDF02000000000030
:1065B000029881009E08900000202300E1407800AE
:1065C0000020230001717800009881008000E8001D
:1065D000F00F200000806000009889001E089000E5
:1065E0008000E800F00F200000806000100F98008D
:1065F0009E0890007E009000808F5000E7FF3A00D8
:1066000002988100012023000040EB0000F1780097
:106610000398810033079800090037007E0090003E
:106620008000E900F00F20000080600070079800F3
:10663000FE00900000988100808F500075FF3A00A6
:10664000FE00900000988100808F500094013A0075
:1066500070C0B3007EDF0200000000009001370030
:106660000000EB0010079800109881000000E9007E
:1066700080007800F00F2000008060007007980014
:10668000880037007E0090000120230060C0780061
:106690000004E0007E003A007E0090008000E900E7
:1066A000F00F20008080600000202300614078000F
:1066B0000004E000760032001E0090000000E800B8
:1066C000100798002E0090008000E9001E00900046
:1066D000808F50006E003A002E0090000000E9000C
:1066E000200798001198810000988100808F500049
:1066F00012003200090037000298810001202300B7
:106700000040EB0000F17800009881008000E90073
:10671000F00F20000080600000988900019881003F
:1067200010988100808F5000F3FF3A00029881009A
:10673000012023000040EB0000F178007E00900073
:106740008000E900F00F200000806000100F98002A
:10675000100037001E0890000120230060C0780060
:106760000004E00006003A001E0890008000E800E7
:10677000F00F2000008060006007980009003700DB
:106780001E0890008000E900F00F200000806000EB
:10679000100F98009E08900000988100808F500094
:1067A000ECFF3A00D08F2A0088DB020000000000D6
:1067B000B17F8100000320000088B9008102200021
:1067C00080804000C0C622000080400088DB0200BC
:1067D00000000000E17F81000020200000806000B8
:1067E0000000E0000400320071002000406520003D
:1067F000D603020001000000A08E2A0088DB020000
:10680000000000006E009000100F98001500370087
:106810009E08900000202300614078007EDF020087
:1068200000000000029881009E08900000202300D4
:10683000E140780000202300017178000098810079
:106840008000E800F00F20000080600000988900C0
:106850001E0890008000E800F00F2000008060001B
:10686000100F98009E0890007E009000808F5000CE
:10687000E7FF3A0002988100012023000040EB006E
:1068800000F1780001988100310798000900370075
:106890007E0090008000E900F00F20000080600082
:1068A00070079800FE00900000988100808F5000D3
:1068B00074FF3A00FE00900000988100808F500025
:1068C000F7003A002E009000E10F50002F003A0030
:1068D000D08F2A0088DB020000000000B17F810019
:1068E000000320000088B900810220008080400061
:1068F000C0C622000080400088DB020000000000CB
:10690000E17F810000202000008060000000E000A6
:10691000040032007100200040652000D603020010
:1069200001000000A08E2A0088DB020000000000A9
:106930000900370002988100012023000040EB008D
:1069400000F17800009881008000E900F00F20003D
:1069500000806000009889000198810010988100F3
:10696000808F5000F3FF3A0002988100012023003D
:106970000040EB0000F17800029881003207980097
:106980000000EB0020079800C500370070C0B3007E
:106990007EDF020000000000C10037001198810076
:1069A0003E009000810F50001300320011988100CA
:1069B0003E0090000100500080007800F00F2000A1
:1069C00000806000100F9800408F2A0088DB0200D2
:1069D000000000001E08900020DE02000000000001
:1069E000708F2A0088DB02000000000013988100ED
:1069F00033079800AA00370070C0B3007EDF0200A2
:106A000000000000A6003700019881003E009000C1
:106A1000810F500013003200019881003E00900069
:106A20000080500080007800F00F2000008060009F
:106A3000100F9800408F2A0088DB02000000000041
:106A40001E08900020DE02000000000030902A00A6
:106A500088DB0200000000000098810030079800E9
:106A60008F00370070C0B3007EDF0200000000001E
:106A70008B00370010002000700F98000000EB0022
:106A80002007980002988100012023000040EB00BD
:106A900000F17800009881008000E800F00F2000ED
:106AA00000806000009889000198810031079800FB
:106AB00050902A00B4DB020000000000780037008C
:106AC0005E0090000000E800500798005E00900013
:106AD000F40F500072003A00ECD0020000000000F9
:106AE0000000EB00500798000B023700009881006F
:106AF0008000E800F00F2000808060001098810086
:106B0000808F5000630032000E509000FF4F500005
:106B1000600036008E509000E0C7B30080CF500078
:106B20005C003E00019881003E009000808F500084
:106B300013003A000E5090007EDF020000000000BB
:106B4000029881008E50900000202300017178008F
:106B5000009881008000E800F00F200000806000B5
:106B60000098890002988100012023000040EB007A
:106B700000F1780002988100320798004800370041
:106B8000019881003E009000008050008000780055
:106B9000F00F200000806000100F9800408F2A0046
:106BA00088DB0200000000001E08900020DE0200CA
:106BB0000000000030902A0088DB02000000000086
:106BC0000098810070079800190037007E0090003F
:106BD0000001E800FE00900000202300E140780062
:106BE0000020230001717800FE00900000202300A7
:106BF000614078000004E000080032007E00900050
:106C00000120230060C078007EDF02000000000049
:106C100060902A0088DB0200000000007E009000E7
:106C20008000E900F00F20000080600070079800ED
:106C30007E0190003E0090008000E900F00F2000EF
:106C400000806000800F5100E0FF3A000E5090007D
:106C50007EDF0200000000003E0190008E50900098
:106C600000202300017178003E0090008000E800C1
:106C7000F00F20000080600030079800009881002D
:106C80008000E800F00F200000806000009889007C
:106C90000300370070C0B3007EDF02000000000078
:106CA0007E0890000000E000D8FB320000988100D0
:106CB000500F980010988100400F98000000EB00E2
:106CC000700F98000000EB00600F98000000EB00D0
:106CD00020988900E17F8100002020000080600072
:106CE0000000E00008003200DE5D0200000000004D
:106CF00051002000B0652000600402000100000087
:106D000010002000600F98000040EB001047980032
:106D10000040EB00004F78003305370011988100E8
:106D20000020230061407800005798000E5090002A
:106D30000080FB006101B9003217980043179800EA
:106D4000E0072000010020003E119000CE119000CD
:106D5000800F5100818F5900F7043E003E109000D3
:106D6000CE10900000600100F5043700F2043700F7
:106D7000F1043700F0043700EF043700EE04370069
:106D8000ED043700EC043700EB043700EA04370069
:106D9000EB043700E8043700E7043700E804370065
:106DA000E5043700E4043700E3043700E204370069
:106DB000E1043700E0043700DF043700DE04370069
:106DC000DD043700DC043700DB043700DA04370069
:106DD000D9043700D8043700D7043700D604370069
:106DE000D5043700D4043700D5043700B204370087
:106DF000EB02370045013700490137000A0237002E
:106E0000F8013700CC043700C5023700CA04370048
:106E1000C9043700CA043700C90437005E043700CC
:106E200077043700420437005F0337005E03370002
:106E30005D0337005C0337005B0337005A033700FC
:106E400059033700580337005703370056033700FC
:106E5000B9043700B804370013023700E3003700E5
:106E6000B5043700470037005B0137004D0137009C
:106E7000B10437006C003700D7013700AE0437008B
:106E8000AD043700AC043700AB043700AA04370068
:106E9000A90437007800370081003700A6043700C6
:106EA000A5043700A4043700A7003700A204370068
:106EB000A1043700F10137009F0437009E0437001A
:106EC0009D0437005A0137009B0437009A043700AD
:106ED00099043700100337002204370020033700DD
:106EE0005604370039043700930437002001370077
:106EF0002F00370042003700A9013700B9003700E2
:106F0000310037003300370016003700200037000B
:106F1000890437004E0037006D003700220037002B
:106F200085043700240037007500370082043700DD
:106F300097033700CD0137007F0437007E04370008
:106F40001F003700780137007B0437007A043700D0
:106F500079043700F9023700BF0037000903370012
:106F6000DD003700430707000000E00074043A002A
:106F700010988100400F980000988100500F9800F1
:106F80006F04370076040200010000006C04370033
:106F90007D090700B07F81000000E0006804320036
:106FA000B309070066043700A6060700640437002B
:106FB000270B070062043700010B0700600437004D
:106FC0006D0A07005E043700E88002000000000040
:106FD0005B043700B07F81000000E00005003A004C
:106FE000D1012000B0682000600402000100000010
:106FF00053043700527F02000000000050043700A5
:10700000E15D2300114078000000A1000010A10004
:1070100080487800610120000066200060040200C2
:107020000100000046043700E15D230011407800B4
:107030000000A0000010A10080487800510120004D
:107040006067200060040200010000003C0437007B
:10705000E15D2300114078000000A1000010A000B5
:107060008048780071012000B045210060040200D2
:107070000100000032043700E15D23001140780078
:107080000000A0000010A0008048780071012000DE
:10709000204721006004020001000000280437009E
:1070A000E15D2300114078000030A00080487800A6
:1070B000C1012000408D2000D60302000100000025
:1070C00050902A00B4DB0200000000001C043700CE
:1070D000E15D2300114078000030A1008048780075
:1070E000B1012000908B2000D603020001000000B7
:1070F00050902A00B4DB02000000000010043700AA
:10710000B07F81000000E00005003A00D1012000BE
:10711000B06820006004020001000000080437008D
:10712000E282A900E082A90051012000806A2000CB
:10713000D60302000100000050902A00B4DB0200D8
:1071400000000000FE033700B07F81000000E00077
:1071500005003A00D1012000B06820006004020060
:1071600001000000F6033700E05D230010407800C6
:10717000704060000004E00004003A00210220009A
:10718000D0FB20006004020001000000E082A800A3
:10719000E282A90041012000D06B2000D60302004A
:1071A0000100000050902A00B4DB02000000000043
:1071B00021E3A80050C0B3002E000200010000002F
:1071C00080007800F0042000808F500003003E0013
:1071D000B0902A00B4DB02000000000021E3A90007
:1071E000D7033700F20A0700D50337001098810053
:1071F0008000E800F00F20000080600010988900F7
:107200000106070002040700700798007E00900046
:1072100082DE020000000000E0922A0088DB02000B
:10722000000000007E00900020DE02000000000050
:10723000E0922A0088DB0200000000007E0090003F
:10724000E8DB02000000000050902A00B4DB0200DE
:1072500000000000BA033700109881008000E800A9
:10726000F00F20000080600010988900E6050700FC
:10727000E7030700700798007E0090000080FB0085
:10728000C001020001000000700798007E0090001D
:1072900082DE020000000000E0922A0088DB02008B
:1072A000000000007E00900020DE020000000000D0
:1072B000E0922A0088DB0200000000007E009000BF
:1072C000E8DB02000000000050902A00B4DB02005E
:1072D000000000009A033700B07F81000000E0004A
:1072E00005003A0011C0B30010C0B30048F6020018
:1072F0000000000092033700A1012000106D200063
:1073000060040200010000008D03370020932A0072
:1073100088DB0200000000009B080700880337009C
:1073200006050200010000000000E00084033200B6
:10733000A1002000006F2000600402000100000096
:10734000400620005E01020001000000A0FF0200D4
:1073500000000000ACDF0200000000000004E000BC
:10736000FCFF320081BF2A00014001007403370096
:107370002C0507000000E800100F980002003700FD
:1073800040890200000000001E0890000000E90093
:10739000100F98001E0890000000E000F8FF3A006F
:1073A000670337001F0507000000E800100F980072
:1073B00002003700F0880200000000001E08900064
:1073C0000000E900100F98001E0890000000E00087
:1073D000F8FF3A005A033700120507000000E800E2
:1073E000100F98000B00370061012000A06F2000F3
:1073F000D603020001000000908902000000000096
:1074000072DB02000000000050902A00B4DB020092
:10741000000000001E0890000000E900100F980016
:107420001E0890000000E000EFFF3A004403370020
:10743000B07F81000000E00005003A00D10120008B
:10744000B068200060040200010000003C03370027
:10745000C922A900CB22A80021E3A8002000200017
:107460005E010200010000000040EB002E0002005F
:107470000100000080007800001B2000808F500079
:107480001B00360020C0B3002E00020001000000E7
:1074900080007800702B2000808F50001400360090
:1074A0001101200000712000D6030200010000003D
:1074B00050902A00B4DB020000000000B17F810080
:1074C000000320000088B9000102200080804000F5
:1074D000C0C62200008040001000780000000100BB
:1074E000A0932A00B4DB0200000000000C0037006B
:1074F000C922A900CB22A900C0942A00B4DB020053
:10750000000000002101200010722000D6030200BC
:107510000100000050902A00B4DB020000000000CF
:1075200021E3A90006033700B07F81000000E000DE
:1075300005003A00D1012000B0682000600402007C
:1075400001000000FE023700B17F8100000320002F
:107550000088B9002102200080804000C0C62200BF
:10756000008040001000780000000100C0962A0052
:10757000B4DB020000000000C922A900CB22A90050
:107580002101200010722000D6030200010000003B
:1075900050902A00B4DB020000000000E80237002F
:1075A000F1002000C0362000D603020001000000D8
:1075B000480002000100000011002000B037200048
:1075C000D60302000100000050902A00B4DB020044
:1075D00000000000DA0237005A000200010000003B
:1075E000D70237008F040700100F980061002000B9
:1075F000F0732000D6030200010000001E08900076
:10760000C2DD0200000000002100200050742000B4
:1076100060040200010000001E0890008A010200C0
:1076200001000000C60237007E040700100F98001A
:1076300061002000F0732000D6030200010000006A
:107640001E089000C2DD02000000000021002000A2
:107650001000210060040200010000001E089000DC
:107660005E01020001000000B5023700E07F8100EA
:107670000090A000E07F8900B1023700B07F810058
:107680000000E00005003A00D1012000B0682000B1
:107690006004020001000000A9023700028A020013
:1076A00000000000A602370010002000209889008A
:1076B00010002000700798000F003700119881001B
:1076C0007E00900080804000F00F200080806000ED
:1076D00000202300E1407800E0C3B30080CF5000D9
:1076E00002003A000000EB00209889007E00900024
:1076F0000000E80070079800119881007E0090005B
:1077000080804000F00F2000808060000020230077
:10771000614078000004E000E8FF3A00FE009000BD
:1077200020022000808F5000020034001000200052
:1077300020988900209881000000E00080023A0033
:10774000109881008000E800F00F200000806000A9
:1077500010988900AE020700700798001198810008
:10776000F00F20008080600000202300E1407800BE
:10777000D0C3B30080CF50003C003A007E009000A0
:107780000000E000360034007E009000E50F50005D
:1077900033003C00109881008000E800F00F2000CA
:1077A00000806000109889007E0090000000E900D1
:1077B000700798000000EB00100F98000A003700D7
:1077C0007E0090009E0890004500DD000101400011
:1077D000613023000040EB0000F178001E089000AB
:1077E0000000E800100F98001E089000FF0F5000E6
:1077F000F3FF34000000EB00100F98001100370079
:107800007E0190009E0990001198810000202300C5
:10781000614278004510DD008300400060302300A5
:10782000847078001E0890000000E800100F980097
:10783000109881008000E800F00F200000806000B8
:10784000109889001198810000202300E140780001
:10785000E0C3B30080CF5000E9FF3A0038023700A0
:107860001000200020988900350237007E0090002B
:107870000000E0001B003A000000EB00100F980031
:10788000140037001E0890000040E80020DE0200CF
:107890000000000010982A0088DB020000000000B1
:1078A0001E0890004500DD00800078006030230055
:1078B0000080400088DB020000000000A08E2A004B
:1078C000B4DB0200000000001E0890000000E80089
:1078D000100F98001E089000E40F5000E9FF3400DC
:1078E000170237007E0090000000E000090034001D
:1078F0007E009000E50F500006003C0050902A00EA
:10790000B4DB020000000000FE009000319D890001
:107910000B02370010002000209889000802370071
:10792000109881008000E800F00F200000806000C7
:107930001098890036020700300F980032040700C3
:1079400011988100F00F200080806000002023004B
:10795000E140780090C2B30080CF50000D003A00A3
:10796000B17F8100000320000088B900FC004000C6
:10797000C0C6220000804000900078003E089000C1
:107980000100010050902A00B4DB0200000000005A
:10799000EB0137001000200020988900E801370033
:1079A0001000200020988900100020007007980027
:1079B0000F003700119881007E0090008080400009
:1079C000F00F20008080600000202300E14078005C
:1079D00020C2B30080CF500002003A000000EB004C
:1079E000209889007E0090000000E8007007980051
:1079F000119881007E00900080804000F00F2000F0
:107A00008080600000202300614078000004E000D6
:107A1000E8FF3A00209881000000E000C8013A0029
:107A20007100200070742000D603020001000000E5
:107A300020C2B3007EDF02000000000020003700FB
:107A400011988100F00F20000080600010988900DC
:107A50001198810000202300614078007EDF020041
:107A60000000000011988100002023006140780090
:107A70000000FB00300F9800E05D2300104078000C
:107A8000684060000004E000040032003E089000FE
:107A9000C001020001000000300F9800B17F81009A
:107AA000000320000088B900E8004000C0C62200A2
:107AB00000804000900078003E0890000100010026
:107AC000109881000000E80010988900119881004A
:107AD000F00F20008080600000202300E14078004B
:107AE00020C2B30080CF5000D5FF3A00109881002B
:107AF000F10F2000010060001098890020C2B3003F
:107B00007EDF02000000000050902A00B4DB02007B
:107B1000000000008A013700B17F810000032000CF
:107B20000088B90080007800C0C6220000804000B4
:107B3000100078000000010081013700B17F810052
:107B4000000320000088B9008080E800C0C6220041
:107B5000008040001000780000000100780137002C
:107B6000B17F8100000320000088B900E4004000DC
:107B7000C0C6220000804000100078000000010014
:107B80006F013700B17F8100000320000088B90039
:107B9000E6004000C0C622000080400010007800CF
:107BA00000000100660137007100200070742000A1
:107BB000D60302000100000095010700300F980075
:107BC000109881000000E900109889001198810048
:107BD000F00F20000080600010988900110307005A
:107BE0000000E800100F98003003070040079800DD
:107BF0004E0090000000E0005B0032004E0090005C
:107C000080407800D05C2300014878004E0090004E
:107C1000E80F500005003400E15D230011407800BA
:107C20000050A000804878004F003700E15D23003D
:107C3000114078000050A100804878004A003700C9
:107C40003E089000B800020001000000E05D230043
:107C5000104078000042B2000004E00004003A0046
:107C6000D05C230010407800E84F500009003A0033
:107C7000E05D2300104078000042B2000004E00004
:107C80000B003200D05C230010407800F04F500011
:107C900007003200B0C3B3007EDF02000000000026
:107CA000D05C23001040780020DE020000000000BD
:107CB000E05D230010407800684060000004E000B0
:107CC000040032003E089000C001020001000000E4
:107CD000300F9800B17F8100000320000088B900B8
:107CE000E8004000C0C622000080400090007800FC
:107CF0003E08900001000100200F980000C2B30070
:107D00007EDF020000000000E05D230010407800EC
:107D10000044B2000004E0001300320061002000C3
:107D2000E0742000D603020001000000E05D2300A3
:107D300010407800684060000004E0000400320059
:107D40002E089000C001020001000000200F9800E2
:107D50002E089000B80002000100000000C2B3002D
:107D60007EDF0200000000001E0890000000E90015
:107D7000100F98001E0890000000E000B0FF3A00CD
:107D800050902A00B4DB020000000000EC00370035
:107D900061002000E0742000D60302000100000012
:107DA000E0020700004F78009E0207000000E80094
:107DB000100F9800BD020700400798004E00900089
:107DC0000000E000100032004E009000804078007B
:107DD000D05C2300014878004E009000E80F50006E
:107DE00005003400E15D2300114078000050A00040
:107DF0008048780004003700E15D230011407800DE
:107E00000050A100804878001E04E00037003200D6
:107E1000A07F8100104798001E80FB000000E90051
:107E2000A07F890031003700B17F8100000320006E
:107E30000088B900EA004000C0C62200008040006F
:107E40001000780000000100200F9800E05D230082
:107E500010407800684060000004E0000400320038
:107E60002E089000C001020001000000200F9800C1
:107E70002E089000B800020001000000E05D230021
:107E8000104078000042B2000004E00004003A0014
:107E9000D05C230010407800E84F500009003A0001
:107EA000E05D2300104078000042B2000004E000D2
:107EB0000B003200D05C230010407800F04F5000DF
:107EC00007003200B0C3B3007EDF020000000000F4
:107ED000D05C23001040780020DE0200000000008B
:107EE00000C2B3007EDF0200000000001E08900008
:107EF0000000E900100F98001E0890000000E0004C
:107F0000C9FF3A001E04E000050032001E40900048
:107F10000080FB00A07F89000040EB00004F78004C
:107F200050902A00B4DB02000000000084003700FB
:107F30008100200040752000600402000100000064
:107F4000B17F8100000320000088B900EC004000F0
:107F5000C0C6220000804000100078000000010030
:107F60007700370081002000C07520006004020007
:107F700001000000B17F8100000320000088B900EB
:107F8000EE004000C0C622000080400010007800D3
:107F9000000001006A003700E10020004076200068
:107FA0006004020001000000B17F81000003200096
:107FB0000088B900F0004000C0C6220000804000E8
:107FC00010007800000001005D003700E100200093
:107FD000207720006004020001000000B17F8100D2
:107FE000000320000088B900F2004000C0C6220053
:107FF00000804000100078000000010050003700B1
:10800000C100200030732000D603020001000000F0
:10801000B17F8100000320000088B900F400400017
:10802000C0C622000080400010007800000001005F
:1080300072DB02000000000041003700F901070078
:10804000100F9800D100200000792000D603020014
:10805000010000001E089000B800020001000000AE
:108060001E0890000000E800100F9800080037007C
:10807000B17F8100000320000088B900F6004000B5
:10808000C0C62200008040001000780000000100FF
:108090001E0890000000E900100F98001E089000D4
:1080A0000000E000F2FF3A0050902A00B4DB02002A
:1080B0000000000022003700DA0107000000E8009D
:1080C000100F9800A1002000D0792000D6030200F4
:1080D000010000000D003700B17F81000003200087
:1080E0000088B900F8004000C0C6220000804000AF
:1080F000100078000000010072DB020000000000A8
:1081000000C2B3007EDF0200000000001E089000E5
:108110000000E900100F98001E0890000000E00029
:10812000EDFF3A0001012000007820006004020009
:108130000100000002003700100020002098890094
:10814000109881008000E800F00F2000008060009F
:1081500010988900209881000000E0001C00320087
:1081600051012000707A2000D603020001000000B7
:10817000CE08900010988100808F500007003100D9
:1081800010988100804078004E08900000C0500098
:1081900020DE020000000000060037001098810079
:1081A000804078004E08900000C0500020DE0200A1
:1081B000000000000000EB00209889001000200063
:1081C000600F980050902A00B4DB0200000000000D
:1081D0001198810000988100808F500002003A00C1
:1081E00010002000600F98006E0890000000E00072
:1081F000CAFA32005E089000109889005E0890006C
:10820000009889000000EB00700F980069F63700B5
:108210000600FA000000EB00100798000000EB00D9
:10822000000F7800119881001E00900080804000AF
:10823000F00F20008080600000202300E1407800E3
:1082400000C3B30080CF50003E003400119881007D
:108250001E00900080804000F00F200080806000B1
:1082600000202300E140780090C3B30080CF50008D
:1082700034003C00119881001E0090008080400076
:10828000F00F200080806000002023006140780013
:108290008000FB0000FD2F00008F40001E009000BA
:1082A0000000E80010079800110037001E00780059
:1082B0006A00B900000F7800119881001E0090003C
:1082C00080804000F00F20008080600000202300AC
:1082D000614078000000FB009E00400000FD2F0080
:1082E000008F40001E0090000000E800100798007A
:1082F000119881001E00900080804000F00F200047
:108300008080600000202300E1407800F0C2B300CC
:1083100080CF500036013400119881001E0090007B
:1083200080804000F00F200080806000002023004B
:10833000E140780090C3B30080CF5000DBFF3400F1
:108340002B013700119881001E00900080804000B2
:10835000F00F20008080600000202300E1407800C2
:1083600000C3B30080CF50001C013A001E009000F3
:108370000000E80010079800119881001E0090008E
:1083800080804000F00F20008080600000202300EB
:10839000E140780020C6B30080CF50000A003200D0
:1083A000119881001E00900080804000F00F200096
:1083B0008080600000202300E140780020C4B300EA
:1083C00080CF50002A003A001E0090000000E80014
:1083D00010079800110037001E00780000004000D0
:1083E000000F7800119881001E00900080804000EE
:1083F000F00F2000808060000020230061407800A2
:108400000000FB009E00400000FD2F00008F400098
:108410001E0090000000E8001007980011988100ED
:108420001E00900080804000F00F200080806000DF
:1084300000202300E140780010C3B30080CF50003B
:10844000E5FF3200119881001E00900080804000FE
:10845000F00F20008080600000202300E1407800C1
:1084600000C3B30080CF5000DBFF3200E0003700D4
:10847000119881001E00900080804000F00F2000C5
:108480008080600000202300E140780080C7B300B6
:1084900080CF50000A003200119881001E00900029
:1084A00080804000F00F20008080600000202300CA
:1084B000E140780080C5B30080CF500082003A00D0
:1084C0001E0090000000E8001007980041003700EF
:1084D0001E0078004400DD00000F78001198810034
:1084E0001E00900080804000F00F2000808060001F
:1084F00000202300E1407800F0C2B30080CF50009C
:1085000016003400119881001E0090008080400009
:10851000F00F20008080600000202300E140780000
:1085200090C3B30080CF50000C003C001198810034
:108530001E00900080804000F00F200080806000CE
:1085400000202300614078000000FB009E004000F6
:1085500000FD2F00008F40001B00370011988100A4
:108560001E00900080804000F00F2000008160001D
:10857000119881001E00900080804000F00F2000C4
:108580008080600000202300E140780000C2B3003A
:1085900080C07000002023000171780011988100D4
:1085A0001E00900080804000F00F2000808060005E
:1085B00000202300614078000000FB009E00400086
:1085C00090FA2F00008F40001E0090000000E8008D
:1085D00010079800119881001E00900080804000D4
:1085E000F00F20008080600000202300E140780030
:1085F000F0C2B30080CF50000A003400119881000F
:108600001E00900080804000F00F200080806000FD
:1086100000202300E140780090C3B30080CF5000D9
:10862000ABFF3400119881001E0090008080400054
:10863000F00F20008080600000202300E1407800DF
:1086400000C4B30080CF50000A00340011988100AC
:108650001E00900080804000F00F200080806000AD
:1086600000202300E140780060C4B30080CF5000B8
:1086700097FF3400119881001E0090008080400018
:10868000F00F20008080600000202300E14078008F
:1086900000C6B30080CF500055003400119881000F
:1086A0001E00900080804000F00F2000808060005D
:1086B00000202300E140780060C6B30080CF500066
:1086C00083FF34004A003700119881001E0090009B
:1086D00080804000F00F2000808060000020230098
:1086E000E1407800F0C2B30080CF50004000340079
:1086F000119881001E00900080804000F00F200043
:108700008080600000202300E140780090C3B30027
:1087100080CF500036003C00119881001E00900070
:1087200080804000F00F2000808060000020230047
:10873000614078008000FB0000FD2F00008F4000AA
:10874000110037001E0078006A00B900000F7800A1
:10875000119881001E00900080804000F00F2000E2
:108760008080600000202300614078000000FB0052
:108770009E00400000FD2F00008F40001E00900072
:108780000000E80010079800119881001E0090007A
:1087900080804000F00F20008080600000202300D7
:1087A000E1407800F0C2B30080CF500010003400E8
:1087B000119881001E00900080804000F00F200082
:1087C0008080600000202300E140780090C3B30067
:1087D00080CF5000DBFF3400050037001000200080
:1087E000209889000000EB00200798000A0037005D
:1087F000119881001E0090000080400010988900B0
:1088000011988100F00F200000806000109889000E
:108810001E007800200798002E0090000080FA00CB
:10882000000006000400FA00109881008000E800B3
:10883000F00F20008080600000202300E1407800DD
:10884000A0C3B30080CF500013003A0010988100FD
:108850000080E8001098890011988100F00F200036
:10886000008060001098890069FE0700000F780002
:10887000109881000000E90010988900119881008B
:10888000F00F200000806000109889001E00780022
:108890001007980002003700100020001007980011
:1088A0001E0090000080FA00000006000400FA009C
:1088B000109881008000E800F00F200080806000A8
:1088C00000202300E1407800B0C3B30080CF500007
:1088D0000F003A00109881008080E800F00F20001F
:1088E000008060001098890049FE0700000F7800A2
:1088F000109881008000E900F00F200000806000E7
:10890000109889001E0078001007980002003700B8
:108910000000EB00100798001E0090000080FA0095
:10892000000006000200FA00109881008000E800B4
:10893000F00F20008080600000202300E1407800DC
:1089400080C7B30080CF500008003A001098810023
:108950008000E800F00F200000806000109889007F
:1089600010002000000F78002400370010988100CC
:108970008000E800F00F20008080600000202300CD
:10898000E140780040C6B30080CF500008003A00B4
:10899000109881008000E800F00F20000080600047
:1089A0001098890020002000000F78001300370085
:1089B000109881008000E800F00F200080806000A7
:1089C00000202300E140780020C6B30080CF500093
:1089D00008003A00109881008000E800F00F2000A5
:1089E000008060001098890030002000000F78009F
:1089F000020037000000EB00000F78001E00780036
:108A00000080FA00000006000000FA0005003700B0
:108A1000109881008000E800F00F200000806000C6
:108A2000109889001198810000202300E14078000F
:108A300000C2B30080CF5000F5FF32000080FA0082
:108A4000000006000400FA000000EB00000F7800B0
:108A5000109881008000E800F00F20000080600086
:108A600010988900E8FF0700E9FD0700000F780073
:108A70001E00E00053003A000000EB0010079800D1
:108A8000130037001E0090000040E80020DE0200C6
:108A90000000000050982A0088DB0200000000005F
:108AA0009E009000000320000088B9008102200091
:108AB00080804000C0C6220000804000B4DB02007D
:108AC000000000001E0090000000E8001007980061
:108AD0001E009000EA0F5000EAFF340071012000F0
:108AE000C07B200060040200010000000000EB00D9
:108AF0002098890013002000B200200011002000FF
:108B000010002000FA000700000FE900E0FF2F002E
:108B10009E0F1000030032000080EB009E0F10003B
:108B200005003A00E1002000307D200060040200D2
:108B30000100000048003700B17F810000032000E1
:108B40000088B9002102200080804000C0C62200B9
:108B5000008040001000780000000100A0FF02002B
:108B6000000000001E007800B07F8900B17F810006
:108B7000000320000088B900FE004000C0C62200AB
:108B8000008040001000780000000100C0962A001C
:108B9000B4DB0200000000001E00E0000400320010
:108BA000CB02A80080982A00B4DB0200000000007D
:108BB00051002000B06520006004020001000000A8
:108BC000250037001E0FE900A00020009E0F1000B6
:108BD0001D003C00B17F8100000320000088B90027
:108BE0002102200080804000C0C62200008040009A
:108BF0001000780000000100A0FF0200000000004B
:108C00001E007800B07F8900B17F81000003200042
:108C10000088B900FE004000C0C62200008040006D
:108C200010007800000001001E00E000010032008A
:108C3000CB02A80051002000B065200060040200B3
:108C400001000000040037005101200020812000B5
:108C50006004020001000000009881008000E9002B
:108C6000F00F200000806000109889000080FA005A
:108C7000000006002600FA001000200020079800DF
:108C8000109881000000E90080007800F00F2000BB
:108C900000806000100798003D0037001E00900023
:108CA0000120230060C078000004E00033003A0097
:108CB0001E0090008000E800F00F2000808060001F
:108CC00000202300614078000004E0002B00320007
:108CD0002E00900020DE02000000000050982A00C4
:108CE00088DB02000000000010002000000F780068
:108CF000090037001E0090009E004000F00F200089
:108D00008080600000202300614078007EDF020048
:108D1000000000001E0FE8001E0090009E004000B2
:108D2000F00F200080806000002023006140780068
:108D30000004E000EFFF3A00AE0190001E0090003A
:108D40008000E800F00F200000816000E60047008E
:108D50000380410002B078002E0090000000E8007F
:108D6000200798002E009000EF0F50000C003200FA
:108D700050902A00B4DB0200000000001E009000AA
:108D80008000E900F00F20000080600010079800CC
:108D90009E00900010988100808F5000BFFF3A0025
:108DA000809C2A00B4DB020000000000710020005B
:108DB0007082200060040200010000001300200007
:108DC0002E019000110020000000EB004800070079
:108DD000100798001E009000E10F400003003200D1
:108DE0001E0090000000E00006003A0050902A00AB
:108DF000B4DB0200000000001000200020179800E3
:108E0000380037000000EB002007980014003700FE
:108E1000019881002E00900080804000F00F20001B
:108E2000008160001E009000E60047000000400046
:108E3000E08078002E00900080804000F00F20003D
:108E40008080600000202300E140780000202300A3
:108E5000017178002E0090000000E80020079800C3
:108E60001E009000E600470000004000E08078000F
:108E70002E00900080804000F00F20008080600075
:108E800000202300614078000004E000E0FF3A0089
:108E9000009881008000E900F00F20000080600051
:108EA00010988900119881002E00900000804000E9
:108EB0008080E800F00F20000080600000988900AA
:108EC000009881008000E900F00F20000081600020
:108ED000012023000040EB0000F178000000EB00CF
:108EE000201798002E1090000080FA000000060065
:108EF0001E00FA00100F9800210F9800320F980002
:108F0000430F98000000EB00400798000000EB00C2
:108F1000200798000000EB00100798000000EB000D
:108F2000000F7800A09C2A0088DB020000000000EF
:108F30001E0890000000E00004003D00E09C2A00B4
:108F400088DB020000000000030037001E089000CC
:108F500020DE020000000000009D2A0088DB0200E5
:108F60000000000067003700DCDF020000000000A6
:108F7000204F98002E4890000000FB00600F9800E2
:108F80006E089000ED0F500029003200EE089000AE
:108F9000ED8F500007003C006E099000E80F510073
:108FA0000D0032006E089000EA0F500020003200E1
:108FB00035003700D0022000EE089000808F50006E
:108FC0001E003200800720006E099000800F5100C3
:108FD000270032002C0037004E0090000000E00017
:108FE000070032004E0090000000E90040079800A2
:108FF000C08E2A0088DB020000000000410037001C
:109000001E00E000060032000000EB00000F7800B8
:10901000C08E2A0088DB0200000000003900370003
:1090200070C0B3007EDF0200000000003500370092
:109030001000200020079800320037004E009000FA
:109040000000E00006003A00D0C2B3007EDF02005C
:109050000000000010002000000F780029003700F9
:1090600070C0B3007EDF0200000000002500370062
:109070004E0890000000E000030032000080EB008A
:10908000500F98005D003700AE489000F0C2B3006A
:1090900080CF500018003400AE48900090C3B30059
:1090A00080CF500014003C004E009000E30F5000B1
:1090B0000600340070C0B3007EDF02000000000034
:1090C00040002000400798000E0037002E48900016
:1090D0007EDF020000000000CE0090006B00470021
:1090E0002E499000827078004E0090000000E80049
:1090F000400798000300370070C0B3007EDF020015
:10910000000000002E0090000000E00096FF3200FA
:1091100050902A00B4DB0200000000004E009000D6
:109120000000E00003003A001E089000500F980075
:10913000320037000000EB00100798004E0090004E
:109140000000E90040079800CE0090003107980029
:10915000110037001E0090006A00B9001007980047
:10916000BE0090004E009000808050006B004700D1
:10917000614078008000FB001E009000808040006D
:1091800000FD2F0000804000100798004E00900066
:109190000000E900400798004E0090000000E00049
:1091A000ECFF3D009E0090002E089000808F500044
:1091B0000D0035009E0090003E089000808F50000A
:1091C00009003C001E00E000040032001E00900078
:1091D0000000EA00500F9800080037001E019000C0
:1091E000520F980005003700B101200060FE2000FA
:1091F000600402000100000042FF37005E0890009A
:109200000080FA00000006002C00FA00500F9800C1
:10921000610F9800720F98000417980015179800B6
:10922000231798000000EB00500798000000EB00A7
:10923000300798006000B800008FBE000000EB000F
:1092400020079800A09C2A0088DB02000000000094
:109250005E089000EE089000E00F5000E08F58008C
:1092600004003D00E09C2A0088DB020000000000B2
:10927000040037005E089000EE08900022DC020037
:1092800000000000009D2A0088DB020000000000B2
:109290006A003700DCDF020000000000404F980049
:1092A0004E4890000000FB00501798005E109000A0
:1092B000ED0F50002A003200DE109000ED8F5000BC
:1092C00007003C005E119000E80F51000D003200D5
:1092D0005E109000EA0F5000210032003800370085
:1092E000D0022000DE109000808F50001F0032005E
:1092F000800720005E119000800F5100280032008E
:109300002F0037005E0090000000E00007003200F0
:109310005E0090000000E90050079800C08E2A000F
:1093200088DB020000000000440037002E0090009F
:109330000000E000060032000000EB00200798006B
:10934000C08E2A0088DB0200000000003B003700CE
:1093500070C0B3007EDF020000000000370037005D
:109360001000200030079800340037005E009000A5
:109370000000E00006003A00D0C2B3007EDF020029
:109380000000000010002000200798002B0037008C
:1093900070C0B3007EDF020000000000270037002D
:1093A0002E1090000000E000050032000080EB006D
:1093B0008080EB0030179800411798006E0037004E
:1093C000CE489000F0C2B30080CF500018003400A7
:1093D000CE48900090C3B30080CF500014003C00F2
:1093E0005E009000E90F50000600340070C0B3002A
:1093F0007EDF020000000000A0002000500798005F
:109400000E0037004E4890007EDF02000000000092
:10941000DE0090006D0047004E4990008270780099
:109420005E0090000000E80050079800030037003D
:1094300070C0B3007EDF0200000000003E0090001C
:109440000000E00093FF320050902A00B4DB0200DD
:10945000000000005E0090000000E00005003A00FF
:109460005E089000EE0890003017980041179800B1
:10947000410037006000B800008FBE005E00900021
:109480000000E90050079800DE00900041079800B6
:109490001A0037009E007800A0002000000AB800E3
:1094A0001E0078006000B90005017800000141004D
:1094B0001E0090006A00B90000014100820278009D
:1094C000048FBE00CE0090005E00900080805000AF
:1094D0006D004700614078008000FB0000FD2F0018
:1094E00000804000CF80DE001E0F40005E974800E5
:1094F0005E0090000000E900500798005E009000B8
:109500000000E000E3FF3D007E089000CF80DE0019
:10951000BE0F5000AE8F580012003C000E1090009D
:109520009E109000BE0F1000AE8F18000D003C0082
:109530002E0090000000E000060032001E00BE0079
:1095400060001000E0801800301798004117980064
:10955000090037001E00BE00301798004117980020
:1095600005003700B101200060FE20006004020009
:10957000010000002BFF37003E109000CE1090003D
:109580000080FA00000006000400FA00309D2A0066
:10959000B4DB020000000000109E2A0088DB0200FD
:1095A0000000000050902A00B4DB02000000000020
:1095B0006100200090842000D6030200010000001A
:1095C000C07F8100D2DE0200000000007100200098
:1095D000F0FD2000D603020001000000D07F8100D2
:1095E000D2DE020000000000C09F2A0088DB0200DB
:1095F00000000000D07F8100100798001E0090003E
:10960000E10F5000040032001E009000E30F5000F4
:109610000500320008003700C0A02A0088DB0200E5
:109620000000000007003700F0A02A0088DB0200DD
:10963000000000000300370020A12A0088DB0200A0
:109640000000000060A12A00B4DB0200000000005E
:10965000E1012000F084200060040200010000000D
:109660000000EB00000F78000080FA000000060008
:109670000200FA0080A12A0088DB0200000000003E
:10968000A17F25001000200058DF0200000000002C
:10969000D2DE02000000000000C2B3007EDF020044
:1096A0000000000051002000C0A32000D6030200EB
:1096B00001000000C17F25001000200058DF0200DB
:1096C00000000000D2DE0200000000006100200067
:1096D00010A42000D603020001000000E17F250055
:1096E0001000200058DF020000000000D2DE02005F
:1096F0000000000050902A00B4DB020000000000CF
:10970000C1002000D086200060040200010000009B
