:020000040000FA
:100000000020040000000000C2000100C200010046
:10001000C2000100C2000100C2000100C2000100D4
:10002000C2000100C2000100C2000100C2000100C4
:10003000C2000100C2000100C2000100C2000100B4
:10004000C2000100C2000100C2000100C2000100A4
:10005000C2000100C2000100C200010056FF000002
:10006000C2000100C2000100C2000100C200010084
:10007000C2000100C2000100C2000100C200010074
:10008000C2000100C2000100C2000100C200010064
:10009000C2000100C2000100C2000100C200010054
:1000A000C2000100C2000100C2000100C200010044
:1000B000C2000100C2000100C2000100C200010034
:1000C000C2000100C2000100C2000100C200010024
:1000D000C2000100C2000100C2000100C200010014
:1000E000C2000100C2000100C2000100C200010004
:1000F000C2000100C2000100C2000100C2000100F4
:10010000C2000100C2000100C2000100C2000100E3
:10011000C2000100C2000100C2000100C2000100D3
:10012000C2000100C2000100C2000100C2000100C3
:10013000C2000100C2000100C2000100C2000100B3
:10014000C2000100C2000100C2000100C2000100A3
:10015000C2000100C2000100C2000100C200010093
:10016000C2000100C2000100C2000100C200010083
:10017000C2000100C2000100C2000100C200010073
:10018000D2FC0000C2000100C2000100C200010058
:10019000C2000100C2000100C2000100C200010053
:1001A000C2000100C2000100C2000100C200010043
:1001B000C2000100C2000100C2000100C200010033
:1001C000C2000100C2000100C2000100C200010023
:1001D000C2000100C2000100C2000100C200010013
:1001E000C2000100C2000100C2000100C200010003
:1001F000C2000100C2000100C2000100C2000100F3
:10020000FFFFFF00FFFFFF00C2000100C20001006E
:10021000C2000100C2000100C2000100C2000100D2
:10022000C2000100C2000100C2000100C2000100C2
:10023000C2000100C2000100C2000100C2000100B2
:10024000C2000100C2000100C2000100C2000100A2
:10025000C2000100C2000100C200010056FF000000
:10026000C2000100C2000100C2000100C200010082
:10027000C2000100C2000100C2000100C200010072
:10028000C2000100C2000100C2000100C200010062
:10029000C2000100C2000100C2000100C200010052
:1002A000C2000100C2000100C2000100C200010042
:1002B000C2000100C2000100C2000100C200010032
:1002C000C2000100C2000100C2000100C200010022
:1002D000C2000100C2000100C2000100C200010012
:1002E000C2000100C2000100C2000100C200010002
:1002F000C2000100C2000100C2000100C2000100F2
:10030000C2000100C2000100C2000100C2000100E1
:10031000C2000100C2000100C2000100C2000100D1
:10032000C2000100C2000100C2000100C2000100C1
:10033000C2000100C2000100C2000100C2000100B1
:10034000C2000100C2000100C2000100C2000100A1
:10035000C2000100C2000100C2000100C200010091
:10036000C2000100C2000100C2000100C200010081
:10037000C2000100C2000100C2000100C200010071
:10038000D2FC0000C2000100C2000100C200010056
:10039000C2000100C2000100C2000100C200010051
:1003A000C2000100C2000100C2000100C200010041
:1003B000C2000100C2000100C2000100C200010031
:1003C000C2000100C2000100C2000100C200010021
:10400000EF6423000E7F24000E01880000000000F2
:104010000C00070060AB2E0001002000110007001B
:10402000000020000000E00002003200000002005A
:1040300000000000FCFB0200000000000040DA006D
:104040000000FE004440A900604020000000E000A5
:104050000300320000002000A00188004440A800B6
:104060000000060091018800800078000000EB004D
:1040700015003700E280400032A0B4009101BA0080
:10408000E280400032A0B4009102BA00E280400019
:1040900032A0B4000002EB00472BDE00F507B200AF
:1040A000602CE10004003A000059EB008301E900B4
:1040B000FDFF3E00040037006128E10001003200EE
:1040C0000082EB00040007001101BA000200E000CA
:1040D000E8FF3A00000006003159BA008301E90008
:1040E0000C0032002159BA008301E90008003200B7
:1040F0000400E00003003A00E280400032A0B40077
:10410000F5FF370011D9BA008301E900FAFF3A0040
:104110008100E800E180400032A0B4000000060009
:1041200046CE04000000000078FF040000000000FC
:104130008AFF040000000000A0FF0400000000004F
:10414000B4FF040000000000C8FF040000000000ED
:10415000DCFF040000000000F0FF0400000000008D
:10416000FEFF04000000000062B304000000000035
:10417000FAAF040000000000ECAF040000000000F3
:1041800046B004000000000032B00400000000004F
:1041900026B004000000000018B004000000000079
:1041A0000AB004000000000072B00400000000002B
:1041B0005AB004000000000054B3040000000000E6
:1041C000068C040000000000288C040000000000A1
:1041D000E486040000000000848604000000000063
:1041E000448C040000000000FC8A04000000000071
:1041F0008C87040000000000F28A04000000000028
:10420000C28C040000000000F486040000000000DE
:104210000A9E0400000000006A9E040000000000E6
:104220008C9D0400000000003A9D04000000000086
:10423000CE9F040000000000DE9E0400000000008D
:10424000BA9F04000000000072A1040000000000FA
:10425000B09E040000000000867A04000000000008
:10426000507A040000000000BC7A04000000000046
:10427000F67A040000000000EA7A04000000000062
:10428000BE7D040000000000987B040000000000D8
:10429000B67D040000000000B47E040000000000B1
:1042A0001A7B040000000000BADC040000000000DB
:1042B000D4DC040000000000AADC040000000000C0
:1042C000A0DC04000000000012DD0400000000007B
:1042D00006DD04000000000036DD040000000000E0
:1042E0002ADD040000000000FADC040000000000E9
:1042F0001EDD040000000000EEDC040000000000F1
:1043000038DE04000000000078DD0400000000003A
:1043100070DE04000000000042DD04000000000028
:1043200084F104000000000046F1040000000000D9
:10433000C2F104000000000020F1040000000000B1
:1043400014F104000000000024F20400000000004A
:1043500030F20400000000003CF204000000000005
:1043600048F20400000000000CF20400000000000D
:1043700018F204000000000000F204000000000039
:1043800098F2040000000000BEF3040000000000EA
:1043900054F2040000000000CAD80400000000002D
:1043A000BAD804000000000000D90400000000009A
:1043B000AAD804000000000038EE0400000000004D
:1043C0004CEE04000000000020EE0400000000009D
:1043D000B4EE0400000000005EEE040000000000E7
:1043E000667F0400000000001EF0040000000000D2
:1043F0002AB90400000000005AB9040000000000BF
:1044000084BA04000000000078B904000000000035
:1044100066BC04000000000048B804000000000072
:104420001CB90400000000000EBD040000000000E4
:1044300096000400010000008E000400010000004E
:104440008800040001000000D05C040000000000AF
:1044500092CB04000000000070CC040000000000BB
:1044600062CC040000000000F0CC0400000000005A
:10447000E2CC04000000000046AF04000000000091
:1044800076AF040000000000D873040000000000B4
:10449000E873040000000000FE7304000000000048
:1044A000067504000000000076750400000000009E
:1044B000C6730400000000009875040000000000AE
:1044C000AA75040000000000F2750400000000005E
:1044D0005E7604000000000080760400000000000A
:1044E000C4770400000000002678040000000000EB
:1044F0009878040000000000BC7804000000000070
:1045000080740400000000001E7904000000000018
:104510003C79040000000000889FBE008A9FBE0016
:10452000010578000100E0000400350008003C00AF
:104530000000E0002000320005003700600010009D
:10454000E080180002003B0001F02C001A00370048
:104550000004BE006011B8006B0920000982CF0082
:10456000020039000882CF000441B00069425200C5
:104570000E00320008003B0082817100610164007E
:104580008904D1000884D3008B05E8000442E800C8
:10459000F9FF3A00050037000804440089844C0004
:1045A0008B05E9000442E900FBFF3A001A0107000D
:1045B0000AF0A70001F0A0004F05BE004F04BE00A6
:1045C00000000600F4FF2F0039013700140020001E
:1045D00037013700889FBE008A9FBE008C1F78007D
:1045E0004E0107005501330003866C006450E10062
:1045F0002E0032006420E100330032006150E100FF
:104600002F0032006120E100310032008585550025
:10461000EB07B00009002000080420000500370067
:104620000804440089844C000A003100060343005A
:1046300087834B000001530081815B00F8FF33004A
:104640000203BE000800A0000804440089844C0056
:10465000F6FF3900C639DD00830173000100320026
:10466000130020008904D1000884D3000998A30016
:10467000050032000800A7000300A0008904D10053
:104680000884D3008B05E8008904D1000884D30096
:104690000001EB000281D200DF00070001F0A10061
:1046A0000CF0A70001F0A0002D0137006420E1000C
:1046B0002F0132000801BE000200BE00F7FF3700E4
:1046C0006120E1002A0132006000B800F3FF3700EA
:1046D0000000200001F82700F0FF370003F0A200DF
:1046E000889FBE008A9FBE008C1F78000B010700C8
:1046F000120133006450E1004F0032006420E100F9
:104700005200320003826C0007003B000905D00014
:104710000306D000820F54000C065D000200390031
:104720000200320089017800030678008582550076
:1047300004003D000003FD008103FD008502EA0046
:104740008B854200840F720002003B006000100065
:10475000E08018006011B8000005EB007A28E10045
:104760000A00390006007800C75DDD00F707B200D7
:10477000878075002D003700828171000A01780062
:10478000610560008180D1000080D3008502E900CE
:10479000F9FF3B00060440008784480002003B000C
:1047A00060041400E0841C000988A30007003200A4
:1047B0008A81710082817100610164008904D100E5
:1047C0000884D3008B05E800170037000978A300A0
:1047D00013003A000B00E000130034008B05E900E1
:1047E0000804440089844C000A4474000978A3003A
:1047F0000D003A000B00E000070034008B05E900D3
:104800000804440089844C0001003A000B00200099
:104810000978A300F7FF32000001EB000200370027
:10482000828171000A0178007B0007000CF0A7006C
:1048300001F0A000CA0037006420E10002003A0045
:10484000838F6C00CA0033000801BE000200BE0066
:10485000C3003700889FBE008A9FBE008C1F78006F
:10486000AE000700B500330003866C006450E10021
:10487000240032006420E100270032006150E10092
:10488000220032006120E100210032008B854200CD
:10489000EB07B1000134B800003AB8000804420048
:1048A00089844A00013AB8000030B800888040008E
:1048B00009014A00040033000000400081804800E4
:1048C000020149008B05E900C909DD008301700080
:1048D0000100320013002000C814DE004814DD007F
:1048E0004709DE001200B200C808DE00088470002C
:1048F0004900070001F0A1000CF0A70001F0A000A2
:10490000970037006120E100990032000801BE00E5
:104910000200BE00F7FF37006150E100FCFF3A00E3
:10492000930037000001BE00940007000470A70048
:1049300003F0A10003F8A30013003A006509B100D9
:1049400010003200090035006928E100020035003E
:1049500001002800000005000000400081804800A0
:104960008502E900FCFF3A0000000600F88F4200D3
:10497000050035008100D1000080D3008502E800E9
:10498000FCFF3A00000006008000EB00000005007C
:104990006022B800060220000000D0008180D20012
:1049A0000482D2008582D2000000A00002025200E0
:1049B00083825A00030031000202420083824A00CF
:1049C0000000A1000603E900F3FF3A000000060022
:1049D000EFFF07000400BE0000000600839F680090
:1049E0000100E00002003D0060001000E0801800BF
:1049F0000300E00002003D0060011100E0811900A9
:104A0000E3FF07004F00E00002003B0060001000E1
:104A1000E080180000000600810020006180550041
:104A20000B003D000B00200061FE2F000100E100A3
:104A30001D00340082817100610164008904D1008D
:104A40000884D3000000E800FAFF3A00710020005B
:104A50006100640003007000020060000900320081
:104A600061044400E0844C000988A5000500320080
:104A70008B05E8006808E10002003A008904D100D3
:104A80000884D300F20F20000258E10005003D0029
:104A9000C75DDD00F907B200898075000800780065
:104AA000000006000BF827008B00780000000500CE
:104AB000889FBE008A9FBE00841F780017000700F1
:104AC0004F00780011003300F0FF2F00838F6C003F
:104AD00006003B00040565000A00A7000800370037
:104AE00009F0A6001000200008003700820F5400D3
:104AF000838F5C00030039001000200001003E009D
:104B00000000200009F0A7000000EA004F05BE00E9
:104B10004F04BE000000E000000006000004BE00DC
:104B2000160007000003BE000405BE000200BE0020
:104B300012000700844F7500000006000200BE004E
:104B40006450E100050036006420E10002003600F8
:104B50000968A30001003A000800BE000160A0003F
:104B60004F0678004F05BE004F04BE00000006004F
:104B7000F0FF2F00F1FF2700F9FF3700C70ADE0022
:104B8000F107B200F50FB20008003200E1CF420099
:104B9000020032000170A00024000500810F7000A7
:104BA000010032000408050044000500810F700078
:104BB00002003A00140005008502E90000004000F0
:104BC00081C04800FCFF3B000170A00024000500EC
:104BD0008001EB000200370061F079008301E800FA
:104BE000828F5100FCFF3A00000006003E000000EA
:104BF00008200000080000001B5B000044000000CB
:104C00001B5B000000440000001B00005B43000031
:104C1000001B00005B3200004B0D00000043000051
:104C2000000000001B5B0000324400000057000041
:104C3000617200006E6900006E6700003A2000009B
:104C40006E6F0000207600006F6C00007461000041
:104C500067650000206F00006E20000056700000A5
:104C6000756C00006C750000702000007069000019
:104C70006E000000203D00002000000052450000B2
:104C800053450000540D00000A0000005652000079
:104C900045470000207400006F6F0000206C00008A
:104CA0006F7700002C200000697300002074000062
:104CB000686500007265000020610000207300003C
:104CC000686F0000727400003F0000002E2000009A
:104CD0003C0000002E20000000200000000D00001D
:104CE0000A28000000780000002900003E000000B3
:104CF00042750000732000005069000072610000DE
:104D00007465000020760000340000004669000051
:104D1000726D00007761000072650000207600006F
:104D2000362E0000322D0000626500007461000024
:104D300031200000723100003938000031200000BD
:104D40000020000028320000344600004A320000F3
:104D500035360000474200003130000036200000A8
:104D60000041000033000000413500000055000004
:104D70004E4B0000002900000043000046470000A1
:104D8000303A00002000000056700000753D000021
:104D9000355600002C200000005600007075000001
:104DA0003D330000563300002C2000000049000075
:104DB000090000004F090000004800000900000041
:104DC0004C090000004500006E7400006572000090
:104DD000207200006177000020760000616C000006
:104DE00075650000206600006F7200002042000020
:104DF0005247000000570000617200006E69000019
:104E00006E6700003A200000616C000072650000CF
:104E1000616400007920000061200000766F0000CE
:104E20006C74000061670000652000006F6E000078
:104E300020560000707500006C6C0000757000005A
:104E400020700000696E0000000000004C4500006A
:104E5000540000004946000000540000484500008E
:104E60004E000000454C0000534500000047000084
:104E70004F5400004F000000474F00005355000002
:104E8000420000005245000054550000524E000000
:104E900000520000454D0000005000005249000043
:104EA0004E540000004900004E50000055540000D0
:104EB000004600004F520000005400004F00000068
:104EC0004E450000585400000052000045410000CB
:104ED0004400000044410000544100000053000021
:104EE000544100005254000052000000535400008E
:104EF0004152000054000000535400004F50000085
:104F000052000000535400004F50000000530000B6
:104F1000454E00004400000052450000434500009B
:104F20004956000045000000434C00004B000000C3
:104F30004441000054000000424900005452000067
:104F400045410000440000004144000043000000CF
:104F50004155000058500000494E0000005000002C
:104F60005355000000500000554C00004C55000007
:104F700050000000444500004C4100005900000072
:104F80004155000058000000465200004551000005
:104F90000044000055540000590000004D4100003D
:104FA000435200004F000000454E00004400000046
:104FB00000520000554E0000004C00004953000014
:104FC000540000004558000049540000004400000F
:104FD0004542000055470000004E000045570000C4
:104FE00000000000120100000002000002000000AA
:104FF00000080000D804000000FB000002000000D0
:10500000010200000301000009020000430000004B
:10501000020100000080000064090000040000009C
:105020000001000002020000010000000524000051
:10503000001000000104000024020000020500002E
:10504000240600000001000005240000010100000A
:105050000107000005810000030A00000040000075
:105060000904000001000000020A00000000000026
:1050700000070000050200000240000000000000E0
:10508000070500008202000040000000000400004C
:1050900003090000042A000003440000006100002E
:1050A000006E000000670000006500000072000054
:1050B000006F000000750000007300000020000079
:1050C0000050000000720000006F0000007400003B
:1050D000006F000000740000007900000070000004
:1050E0000065000000730000001E00000342000085
:1050F0000075000000730000002000000050000058
:1051000000690000007200000061000000740000EF
:105110000065000000200000005600000034000080
:1051200000200000001200000330000000300000EA
:1051300000300000003000000030000000300000AF
:10514000003000000031000000000000426100005B
:105150007564000020640000657400006563000051
:10516000746900006F6E000020730000656C000021
:105170006563000074650000642E00002E000000CE
:1051800020000000000000000000000000000000FF
:105190002C01000000000000580200000000000088
:1051A000B0040000000000006009000000000000E2
:1051B000C012000000000000802500000000000078
:1051C0004038000000000000004B0000000000001C
:1051D0008070000000000000009600000000000049
:1051E000C0DA00000000000000E100000000000044
:1051F00000C200000100000000F4000001000000F7
:1052000000E800000300000041520000543100009B
:1052100000000000002900000020000057000000EE
:1052200020520000004E00006F7700002075000043
:10523000736900006E670000206F00006E2D000093
:10524000626F0000617200006420000045450000AC
:10525000505200004F4D0000204900003243000032
:10526000206900006E740000657200006661000035
:1052700063650000004F00006E2D0000626F0000AB
:10528000617200006420000045450000505200009B
:105290004F4D000020770000726900007465000027
:1052A00020700000726F00007465000063740000DD
:1052B0002064000069730000616200006C650000FA
:1052C000640000004932000043310000000000008B
:1052D0003062000000300000303000002C00000080
:1052E0003030000000300000313200003334000064
:1052F00035360000373800003941000042430000D5
:10530000444500004630000078000000436F000074
:10531000756C0000646E000027740000206B0000B4
:10532000656500007020000075700000000000003E
:105330005350000049310000000000002900000027
:10534000007500006E6B00006E6F0000776E00004D
:10535000206D00006F6400006500000050490000EF
:1053600043310000000000003A200000000000006F
:105370002E00000031570000303100000000000016
:1053800042420000494F0000310000005853000025
:105390005631000000000000314100004C53000075
:1053A00000420000507600003400000008080000B1
:1053B000080800000800000000000000204800006D
:1053C0007A00000000000000524100005731000048
:1053D000000000004E4F0000454D0000530000004B
:1053E0000000000029000000000000000000000094
:1053F00020000000000000002800FA000000EB0080
:10540000600F98000000EB00E09789000000EB00BF
:10541000D0978900D0978100200798000000EB000A
:10542000100798000000EB00000F78000000EB0070
:1054300010AE89000000EB00500798000000EB0060
:10544000F09789000000EB00400798000000EB0097
:10545000000F9800130037000000EB006007980071
:105460000A0037000E089000EE0090004500DD00B5
:1054700001014000013023000040EB0000F1780002
:105480006E0090000000E800600798006E00900039
:10549000FF0F5000F3FF34000E0890000000E800FA
:1054A000000F98000E089000E40F5000EAFF34004F
:1054B0000000EB00009D890011AE8100E002200099
:1054C0000088B900610220008080400000002300B5
:1054D0000080400008D002000000000041AE8100C2
:1054E00000202000008060000000E0000400320086
:1054F000710020004065200030F80200000000002C
:10550000605F2A0008D00200000000001F0437007E
:10551000009D81000000E0005F003200009D8100DE
:105520000000E900009D89000000EB006007980082
:105530001B003700D2978100009D8100EE00900093
:105540004500DD008100400000302300E14078008C
:10555000A01F230001717800009D8100EE009000E3
:105560004500DD00810040000030230061407800EC
:10557000FED3020000000000D09781000000E80088
:10558000D09789006E0090000000E8006007980046
:10559000D1978100F00F200000806000D097890033
:1055A000009D8100EE0090004500DD00810040007C
:1055B00000302300614078000004E000DDFF3A0085
:1055C0000000EB00009D89003300370000DF22005F
:1055D00010407800644060000004E0002D003200BC
:1055E00011AE8100E00220000088B900FA004000FE
:1055F000000023000080400010007800000001003F
:105600000000E0002300320011AE8100E002200023
:105610000088B90061022000808040000000230063
:105620000080400008D0020000000000605F2A00F7
:1056300008D0020000000000E1978100D0978100AF
:10564000808F500013003200E097810060079800BF
:105650000C003700EE009000A01F2300614078008E
:10566000FED3020000000000EE009000F00F2000CA
:1056700000806000600798006E0090000000E80065
:1056800060079800EE009000D0978100808F500056
:10569000F0FF3A00D3C2BF0034D402000000000083
:1056A0000004E000C9FF320072D4020000000000D4
:1056B0000004E0000300320086D402000000000075
:1056C000B20337005CD4020000000000604F980075
:1056D0006E4890000080FB006101B900021798003D
:1056E00013179800F0072000010020000E11900011
:1056F0009E119000800F5100818F590036033E00AB
:105700000E1090009E1090000060010027033700EB
:10571000DD0237004D0137002F033700D30037007B
:10572000F4023700620137002B033700770037009F
:10573000290337000A033700270337002603370001
:1057400007033700040237002303370069013700DD
:1057500021033700200337001F0337001E033700E3
:105760001D0337001C0337001B0337001A033700E3
:105770001903370018033700F90037001603370004
:1057800015033700140337001303370012033700E3
:1057900011033700100337000F0337000E033700E3
:1057A0000D0337000C0337000B0337000A033700E3
:1057B00009033700080337000703370006033700E3
:1057C00005033700040337000303370002033700E3
:1057D0000103370000033700FF023700FE023700E5
:1057E000FD023700FC023700FB023700FA023700E7
:1057F000F9023700F8023700F7023700F6023700E7
:10580000F5023700F4023700F3023700F2023700E6
:10581000F1023700F0023700EF023700EE023700E6
:10582000ED023700EC023700EB023700EA023700E6
:10583000E9023700E8023700E7023700E6023700E6
:10584000E5023700E4023700E3023700E2023700E6
:10585000E1023700E0023700DF023700DE023700E6
:10586000DD023700DC023700DB023700DA023700E6
:10587000D9023700D8023700D7023700D6023700E6
:10588000D5023700D4023700D3023700D2023700E6
:10589000D1023700D0023700CF023700CE023700E6
:1058A000CD023700CC023700CB023700CA023700E6
:1058B000C9023700C8023700C7023700C6023700E6
:1058C000C5023700C4023700C3023700C2023700E6
:1058D000C1023700C0023700BF023700BE023700E6
:1058E000BD023700BC023700BB023700BA023700E6
:1058F000B9023700B8023700B7023700B6023700E6
:10590000B5023700B402370058003700E197810034
:105910002E009000810F500050003200D19781007E
:105920002E009000810F50000F003A00D0978100A8
:105930008000E900F00F200000806000D09789000F
:10594000D2978100A11F23000040EB0000F17800F6
:10595000D197810021079800805F2A0008D00200BB
:1059600000000000090337000000EB00000F980062
:105970002E0090008000E900F00F20000080600001
:1059800020079800C05F2A0008D002000000000035
:105990002E019000620798001D0037006E019000F4
:1059A0006E0090008000E800A01F2300E140780016
:1059B000A01F230001717800EE009000A01F2300BB
:1059C000614078000004E000060032006E009000A4
:1059D000A11F230060C07800FED302000000000079
:1059E0000300370000C2B300FED302000000000035
:1059F0000E0890000000E800000F98006E00900074
:105A00008000E800F00F2000008060006007980030
:105A1000EE009000D0978100808F5000DFFF3A00A9
:105A2000D09781008000E900F00F20000080600026
:105A3000D097890000602A0008D002000000000012
:105A40000E089000A0D202000000000030602A0082
:105A500008D0020000000000CC02370070C0B30084
:105A6000FED3020000000000C8023700D197810079
:105A70002E009000810F5000350032000000EB0036
:105A8000000F9800AE019000630798001D003700DA
:105A90006E0190006E0090008000E800A01F2300BF
:105AA000E1407800A01F230001717800EE00900013
:105AB000A01F2300614078000004E00006003200CF
:105AC0006E009000A11F230060C07800FED302008A
:105AD000000000000300370000C2B300FED3020044
:105AE000000000000E0890000000E800000F980081
:105AF0006E0090008000E800F00F20000080600041
:105B000060079800EE009000D0978100808F5000D1
:105B1000DFFF3A00D09781008000E900F00F2000FD
:105B200000806000D097890000602A0008D0020041
:105B3000000000000E089000A0D20200000000004B
:105B400030602A0008D00200000000008F023700F9
:105B500070C0B300FED30200000000008B023700CB
:105B60005CD4020000000000604F9800EE489000F6
:105B7000B0C5B30080CF500084023A005CD402006C
:105B800000000000604F98006E4890000080FB000D
:105B9000700F980010042000FE089000808F5000C5
:105BA00054003200100420007E099000800F510044
:105BB00009003C0010032000FE099000808F510076
:105BC0001200320040032000FE089000808F500039
:105BD000160032006D023700300420007E0990006C
:105BE000800F51003200320030042000FE09900086
:105BF000808F5100D800350040042000FE0890003E
:105C0000808F500011003200600237005CD4020027
:105C100000000000604F9800EE489000E0C7B3001D
:105C200080CF500098013200580237005CD4020047
:105C300000000000604F9800EE489000E0C7B300FD
:105C400080CF5000AB013200500237004E00900070
:105C5000E40F50000500340034E0020000000000B2
:105C60000000EB004007980048023700E1978100F0
:105C70002E009000810F5000090032002E0090008D
:105C80008000E900F00F20000080600020079800ED
:105C9000C05F2A0008D00200000000003B0237006D
:105CA00070C0B300FED302000000000037023700CE
:105CB000D19781002E009000810F50000900320022
:105CC0002E0090008000E800F00F200000806000AF
:105CD0002007980050602A0008D002000000000051
:105CE0002A02370070C0B300FED30200000000009B
:105CF000260237000000EB00000F7800E0978100DB
:105D00000000E90080007800F00F200000806000B3
:105D100060079800840037006E009000A11F2300E8
:105D200060C078000004E0007A003A006E00900045
:105D30008000E900F00F200080806000A01F230099
:105D4000614078000004E000720032001E0FE8009D
:105D50001E0090009E0F10006E0036001E00900086
:105D60000000E80010079800E1978100D0978100BB
:105D7000808F50001200320009003700D297810056
:105D8000A11F23000040EB0000F17800D0978100B4
:105D90008000E900F00F200000806000D0978900AB
:105DA000D1978100E0978100808F5000F3FF3A0087
:105DB000D2978100A11F23000040EB0000F1780082
:105DC0006E0090008000E900F00F2000008060006D
:105DD000000F9800100037000E089000A11F23004C
:105DE00060C078000004E00006003A000E08900051
:105DF0008000E800F00F200000806000500798004D
:105E0000090037000E0890008000E900F00F200024
:105E100000806000000F98008E089000D0978100ED
:105E2000808F5000ECFF3A0090602A0008D00200FA
:105E30000000000011AE8100E00220000088B900DF
:105E400061022000808040000000230000804000AC
:105E500008D002000000000041AE810000202000B8
:105E6000008060000000E0000400320071002000AB
:105E70004065200030F8020000000000605F2A004A
:105E800008D00200000000005E019000020F9800A0
:105E9000150037008E089000A01F23006140780095
:105EA000FED3020000000000D29781008E0890000F
:105EB000A01F2300E1407800A01F2300017178009B
:105EC000D09781008000E800F00F20000080600083
:105ED000D09789000E0890008000E800F00F2000A5
:105EE00000806000000F98008E0890006E00900007
:105EF000808F5000E7FF3A00D2978100A11F230056
:105F00000040EB0000F17800D39781002307980050
:105F1000090037006E0090008000E900F00F2000BB
:105F20000080600060079800EE009000D09781002C
:105F3000808F500078FF3A00EE009000D0978100EB
:105F4000808F500091013A0070C0B300FED3020070
:105F5000000000008D0137000000EB00000F78000A
:105F6000E09781000000E90080007800F00F200039
:105F70000080600060079800850037006E00900088
:105F8000A11F230060C078000004E0007B003A00FD
:105F90006E0090008000E900F00F2000808060001B
:105FA000A01F2300614078000004E000730032006D
:105FB0001E0FE8001E0090000000E9009E0F500038
:105FC0006E003A001E0090000000E90010079800E3
:105FD000E1978100D0978100808F5000120032003D
:105FE00009003700D2978100A11F23000040EB0079
:105FF00000F17800D09781008000E900F00F2000C8
:1060000000806000D0978900D1978100E0978100DF
:10601000808F5000F3FF3A00D2978100A11F230028
:106020000040EB0000F178006E0090008000E90075
:10603000F00F200000806000000F98001000370073
:106040000E089000A11F230060C078000004E0004B
:1060500006003A000E0890008000E800F00F2000D3
:106060000080600050079800090037000E0890007B
:106070008000E900F00F200000806000000F980011
:106080008E089000D0978100808F5000ECFF3A007E
:1060900090602A0008D002000000000011AE8100CC
:1060A000E00220000088B9006102200080804000EA
:1060B000000023000080400008D002000000000023
:1060C00041AE810000202000008060000000E00060
:1060D00004003200710020004065200030F802000A
:1060E00000000000605F2A0008D0020000000000ED
:1060F0005E009000000F9800150037008E08900099
:10610000A01F230061407800FED3020000000000C1
:10611000D29781008E089000A01F2300E1407800F4
:10612000A01F230001717800D09781008000E80053
:10613000F00F200000806000D09789000E089000CA
:106140008000E800F00F200000806000000F980041
:106150008E0890006E009000808F5000E7FF3A009C
:10616000D2978100A11F23000040EB0000F17800CE
:10617000D197810021079800090037006E00900038
:106180008000E900F00F20000080600060079800A8
:10619000EE009000D0978100808F500077FF3A008A
:1061A000EE009000D0978100808F5000F7003A00F9
:1061B0001E009000E10F50002F003A0090602A006E
:1061C00008D002000000000011AE8100E0022000B3
:1061D0000088B90061022000808040000000230098
:1061E0000080400008D002000000000041AE8100A5
:1061F00000202000008060000000E0000400320069
:10620000710020004065200030F80200000000000E
:10621000605F2A0008D0020000000000090037007B
:10622000D2978100A11F23000040EB0000F178000D
:10623000D09781008000E900F00F2000008060000E
:10624000D0978900D1978100E0978100808F50001E
:10625000F3FF3A00D2978100A11F23000040EB001A
:1062600000F17800D2978100220798000000EB002F
:1062700010079800C500370070C0B300FED30200BD
:1062800000000000C1003700E19781002E0090005F
:10629000810F500013003200E19781002E00900022
:1062A0000100500080007800F00F200000806000A6
:1062B000000F980000602A0008D0020000000000D3
:1062C0000E089000A0D202000000000030602A00FA
:1062D00008D0020000000000E39781002307980027
:1062E000AA00370070C0B300FED302000000000017
:1062F000A6003700D19781002E009000810F50003A
:1063000013003200D19781002E00900000805000D1
:1063100080007800F00F200000806000000F9800DF
:1063200000602A0008D00200000000000E08900063
:10633000A0D2020000000000F0602A0008D0020095
:1063400000000000D0978100200798008F003700E0
:1063500070C0B300FED30200000000008B003700C5
:1063600010002000600F98000000EB00100798005C
:10637000D2978100A11F23000040EB0000F17800BC
:10638000D09781008000E800F00F200000806000BE
:10639000D0978900D19781002107980010612A00C9
:1063A00034D0020000000000780037004E0090005A
:1063B0000000E800400798004E009000F40F5000E5
:1063C00072003A0070C50200000000000000EB00FF
:1063D0004007980007023700D09781008000E8004E
:1063E000F00F200080806000E0978100808F5000D7
:1063F000630032006E489000FF4F5000600036008E
:10640000EE489000E0C7B30080CF50005C003E0033
:10641000D19781002E009000808F500013003A0029
:106420006E489000FED3020000000000D297810069
:10643000EE489000A01F230001717800D0978100E2
:106440008000E800F00F200000806000D0978900F5
:10645000D2978100A11F23000040EB0000F17800DB
:10646000D29781002207980048003700D197810019
:106470002E0090000080500080007800F00F200077
:1064800000806000000F980000602A0008D0020021
:10649000000000000E089000A0D2020000000000E2
:1064A000F0602A0008D0020000000000D0978100B0
:1064B00060079800190037006E0090000001E800A6
:1064C000EE009000A01F2300E1407800A01F2300F1
:1064D00001717800EE009000A01F23006140780059
:1064E0000004E000080032006E009000A11F2300AD
:1064F00060C07800FED302000000000020612A0086
:1065000008D00200000000006E0090008000E9004A
:10651000F00F200000806000600798006E0190007E
:106520002E0090008000E900F00F20000080600045
:10653000800F5100E0FF3A006E489000FED3020049
:10654000000000002E019000EE489000A01F2300E4
:10655000017178002E0090008000E800F00F20000C
:106560000080600020079800D09781008000E8003C
:10657000F00F200000806000D097890003003700F2
:1065800070C0B300FED30200000000006E0890004F
:106590000000E000DEFB3200D0978100400F980041
:1065A000E0978100300F98000000EB00600F98002A
:1065B0000000EB00500F98000000EB00F0978900FE
:1065C00041AE810000202000008060000000E0005B
:1065D000140532007E590200000000005100200026
:1065E000B0652000BAF80200000000001000200092
:1065F000500F98000B053700E1978100A01F230082
:1066000061407800604F98006E4890000080FB0069
:106610006101B9002217980033179800E0072000A5
:10662000010020002E119000BE119000800F51003B
:10663000818F5900CF043E002E109000BE109000B4
:1066400000600100CD043700CA043700C9043700D8
:10665000C8043700C7043700C6043700C504370034
:10666000C4043700C3043700C2043700C304370032
:10667000C0043700BF043700C0043700BD04370032
:10668000BC043700BB043700BA043700B904370034
:10669000B8043700B7043700B6043700B504370034
:1066A000B4043700B3043700B2043700B104370034
:1066B000B0043700AF043700AE043700AD04370034
:1066C000AC043700AD0437008A043700D30237002A
:1066D0004501370049013700F2013700E00137007A
:1066E000A4043700AD023700A2043700A10437002C
:1066F000A2043700A1043700360437004F043700E6
:106700001A043700470337004603370045033700B4
:106710004403370043033700420337004103370087
:10672000400337003F0337003E0337009104370032
:1067300090043700FB013700E30037008D04370079
:10674000470037005B0137004D01370089043700EF
:106750006C003700BF01370086043700850437001E
:106760008404370083043700820437008104370033
:1067700078003700810037007E0437007D04370041
:106780007C043700A70037007A043700790437000B
:10679000D9013700770437007604370075043700D5
:1067A0005A01370073043700720437007104370050
:1067B000F8023700FA033700080337002E043700C9
:1067C000110437006B043700200137002F00370019
:1067D0004200370091013700B9003700310037001F
:1067E00033003700160037002000370061043700FF
:1067F0004E0037006D003700220037005D0437007F
:1068000024003700750037005A0437007F03370033
:10681000B501370057043700560437001F00370012
:106820006C0137005304370052043700510437001D
:10683000E1023700BF003700F1023700DD0037000A
:10684000DC0607000000E0004C043A00E0978100FD
:10685000300F9800D0978100400F98004704370010
:10686000D0F80200000000004404370016090700B9
:1068700010AE81000000E000400432004C09070027
:106880003E043700450607003C043700C00A0700F5
:106890003A0437009A0A070038043700060A07004E
:1068A000360437007CC102000000000033043700CA
:1068B00010AE81000000E00005003A00D101200088
:1068C000B0682000BAF80200000000002B04370076
:1068D000E6BF0200000000002804370001DF2200AC
:1068E000114078000000A1000010A100804878004D
:1068F0006101200000662000BAF8020000000000DC
:106900001E04370001DF2200114078000000A000C3
:106910000010A1008048780051012000606720002D
:10692000BAF80200000000001404370001DF220062
:10693000114078000000A1000010A00080487800FD
:1069400071012000B0452100BAF8020000000000EB
:106950000A04370001DF2200114078000000A00087
:106960000010A0008048780071012000204721001D
:10697000BAF80200000000000004370001DF220026
:10698000114078000030A00080487800C10120004C
:10699000408D200030F802000000000010612A0045
:1069A00034D0020000000000F403370001DF2200B1
:1069B000114078000030A10080487800B10120002B
:1069C000908B200030F802000000000010612A00C7
:1069D00034D0020000000000E803370010AE810050
:1069E0000000E00005003A00D1012000B06820005E
:1069F000BAF8020000000000E0033700E282A900BC
:106A0000E082A90051012000806A200030F80200D5
:106A10000000000010612A0034D0020000000000D5
:106A2000D603370010AE81000000E00005003A00F8
:106A3000D1012000B0682000BAF802000000000078
:106A4000CE03370000DF2200104078007040600065
:106A50000004E00004003A0021022000D0FB2000E6
:106A6000BAF8020000000000E082A800E282A9005B
:106A700041012000D06B200030F80200000000002F
:106A800010612A0034D002000000000021E3A800B9
:106A900050C0B30088F402000000000080007800BD
:106AA000F0042000808F500003003E0070612A0037
:106AB00034D002000000000021E3A900AF0337003A
:106AC0008B0A0700AD033700E09781008000E800E3
:106AD000F00F200000806000E0978900A00507000B
:106AE000DA030700600798006E00900002D30200EE
:106AF00000000000A0632A0008D00200000000008F
:106B00006E009000A0D2020000000000A0632A00E6
:106B100008D00200000000006E00900068D0020063
:106B20000000000010612A0034D0020000000000C4
:106B300092033700E09781008000E800F00F20000A
:106B400000806000E097890085050700BF0307000B
:106B5000600798006E0090000080FB001AF60200AB
:106B600000000000600798006E00900002D3020051
:106B700000000000A0632A0008D00200000000000E
:106B80006E009000A0D2020000000000A0632A0066
:106B900008D00200000000006E00900068D00200E3
:106BA0000000000010612A0034D002000000000044
:106BB0007203370010AE81000000E00005003A00CB
:106BC00011C0B30010C0B30044E702000000000091
:106BD0006A033700A1012000106D2000BAF80200FE
:106BE0000000000065033700E0632A0008D00200BF
:106BF00000000000340807006003370060F902005D
:106C0000000000000000E0005C033200A100200052
:106C1000006F2000BAF802000000000040062000CB
:106C2000B8F5020000000000FAF3020000000000C6
:106C30002CD40200000000000004E000FCFF320041
:106C400081BF2A00014001004C0337000405070002
:106C50000000E800000F98000200370064C3020043
:106C6000000000000E0890000000E900000F9800EE
:106C70000E0890000000E000F8FF3A003F033700E4
:106C8000F70407000000E800000F9800020037003A
:106C900014C30200000000000E0890000000E9008C
:106CA000000F98000E0890000000E000F8FF3A0086
:106CB00032033700EA0407000000E800000F9800E4
:106CC0000B00370061012000A06F200030F80200A7
:106CD00000000000B4C3020000000000F2CF020078
:106CE0000000000010612A0034D002000000000003
:106CF0000E0890000000E900000F98000E089000B8
:106D00000000E000EFFF3A001C03370010AE8100E6
:106D10000000E00005003A00D1012000B06820002A
:106D2000BAF802000000000014033700C922A900CD
:106D3000CB22A80021E3A80020002000B8F5020023
:106D4000000000000040EB0088F40200000000009A
:106D500080007800001B2000808F50000F0036005C
:106D600020C0B30088F4020000000000800078001A
:106D7000702B2000808F5000080036001101200089
:106D80000071200030F802000000000010612A00AD
:106D900034D00200000000000C003700C922A90016
:106DA000CB22A90060642A0034D002000000000059
:106DB000210120001072200030F8020000000000C5
:106DC00010612A0034D002000000000021E3A90075
:106DD000EA02370010AE81000000E00005003A0032
:106DE000D1012000B0682000BAF8020000000000C5
:106DF000E2023700C922A900CB22A900210120000C
:106E00001072200030F802000000000010612A001B
:106E100034D0020000000000D8023700F10020004A
:106E2000C036200030F8020000000000A2F402008A
:106E30000000000011002000B037200030F80200F0
:106E40000000000010612A0034D0020000000000A1
:106E5000CA023700B4F4020000000000C702370085
:106E60007F040700000F980061002000F0732000ED
:106E700030F80200000000000E08900042D202002C
:106E8000000000002100200050742000BAF8020029
:106E9000000000000E089000E4F502000000000071
:106EA000B60237006E040700000F98006100200052
:106EB000F073200030F80200000000000E0890007F
:106EC00042D202000000000021002000100021003A
:106ED000BAF80200000000000E089000B8F50200A9
:106EE00000000000A502370040AE81000090A00025
:106EF00040AE8900A102370010AE81000000E00022
:106F000005003A00D1012000B0682000BAF8020064
:106F1000000000009902370026C4020000000000B3
:106F20009602370010002000F09789001000200022
:106F3000600798000F003700E19781006E00900015
:106F400080804000F00F200080806000A01F2300A0
:106F5000E1407800E0C3B30080CF500002003A0067
:106F60000000EB00F09789006E0090000000E80040
:106F700060079800E19781006E00900080804000DB
:106F8000F00F200080806000A01F23006140780087
:106F90000004E000E8FF3A00EE009000200220002C
:106FA000808F50000200340010002000F09789000C
:106FB000F09781000000E00070023A00E097810045
:106FC0008000E800F00F200000806000E09789005A
:106FD0009E02070060079800E1978100F00F2000F3
:106FE00080806000A01F2300E1407800D0C3B30080
:106FF00080CF50003C003A006E0090000000E0009E
:10700000360034006E009000E50F500033003C0065
:10701000E09781008000E800F00F20000080600011
:10702000E09789006E0090000000E900600798007A
:107030000000EB00000F98000A0037006E0090007F
:107040008E0890004500DD00010140000130230062
:107050000040EB0000F178000E0890000000E8000E
:10706000000F98000E089000FF0F5000F3FF34004F
:107070000000EB00000F9800110037006E01900037
:107080008E099000E1978100A01F230061427800E3
:107090004510DD008300400000302300847078003C
:1070A0000E0890000000E800000F9800E0978100B3
:1070B0008000E800F00F200000806000E097890069
:1070C000E1978100A01F2300E1407800E0C3B300F6
:1070D00080CF5000E9FF3A0028023700100020005E
:1070E000F0978900250237006E0090000000E00054
:1070F0001B003A000000EB00000F9800140037005E
:107100000E0890000040E800A0D20200000000003D
:1071100060662A0008D00200000000000E089000FF
:107120004500DD0080007800003023000080400032
:1071300008D0020000000000605F2A0034D0020086
:10714000000000000E0890000000E800000F98000A
:107150000E089000E40F5000E9FF340007023700EA
:107160006E0090000000E000090034006E00900006
:10717000E50F500006003C0010612A0034D00200E8
:1071800000000000EE009000019D8900FB01370027
:1071900010002000F0978900F8013700E097810087
:1071A0008000E800F00F200000806000E097890078
:1071B00026020700200F9800E9030700E1978100ED
:1071C000F00F200080806000A01F2300E1407800C5
:1071D00090C2B30080CF50000D003A0011AE810084
:1071E000E00220000088B900FC00400000002300FD
:1071F00000804000900078002E08900001000100FF
:1072000010612A0034D0020000000000DB013700CA
:1072100010002000F0978900D801370010002000EE
:10722000F097890010002000600798000F003700D9
:10723000E19781006E00900080804000F00F2000F8
:1072400080806000A01F2300E140780020C2B300CE
:1072500080CF500002003A000000EB00F097890058
:107260006E0090000000E80060079800E197810040
:107270006E00900080804000F00F20008080600051
:10728000A01F2300614078000004E000E8FF3A00FE
:10729000F09781000000E000B8013A007100200082
:1072A0007074200030F802000000000020C2B3001B
:1072B000FED302000000000020003700E1978100AB
:1072C000F00F200000806000E0978900E1978100C6
:1072D000A01F230061407800FED3020000000000E0
:1072E000E1978100A01F2300614078000000FB00AF
:1072F000200F980000DF22001040780068406000F6
:107300000004E000040032002E0890001AF602008B
:1073100000000000200F980011AE8100E002200064
:107320000088B900E8004000000023000080400011
:10733000900078002E08900001000100E097810085
:107340000000E800E0978900E1978100F00F20003D
:1073500080806000A01F2300E140780020C2B300BD
:1073600080CF5000D5FF3A00E0978100F10F200058
:1073700001006000E097890020C2B300FED3020044
:107380000000000010612A0034D00200000000005C
:107390007A01370011AE8100E00220000088B900B8
:1073A000800078000000230000804000100078007A
:1073B000000001007101370011AE8100E0022000E1
:1073C0000088B9008080E8000000230000804000B1
:1073D00010007800000001006801370011AE810044
:1073E000E00220000088B900E40040000000230013
:1073F0000080400010007800000001005F013700AD
:1074000011AE8100E00220000088B900E6004000D3
:107410000000230000804000100078000000010000
:1074200056013700710020007074200030F802000F
:107430000000000085010700200F9800E097810000
:107440000000E900E0978900E1978100F00F20003B
:1074500000806000E0978900010307000000E80059
:10746000000F980020030700300798003E009000AE
:107470000000E0005B0032003E0090008040780099
:10748000F0DD2200014878003E009000E80F500037
:107490000500340001DF2200114078000050A000F8
:1074A000804878004F00370001DF2200114078004B
:1074B0000050A100804878004A0037002E08900054
:1074C00012F502000000000000DF220010407800EA
:1074D0000042B2000004E00004003A00F0DD2200A7
:1074E00010407800E84F500009003A0000DF220009
:1074F000104078000042B2000004E0000B003200AF
:10750000F0DD220010407800F04F500007003200FC
:10751000B0C3B300FED3020000000000F0DD220083
:1075200010407800A0D202000000000000DF22001E
:1075300010407800684060000004E0000400320061
:107540002E0890001AF6020000000000200F98009C
:1075500011AE8100E00220000088B900E800400080
:107560000000230000804000900078002E0890006A
:1075700001000100100F980000C2B300FED302000A
:107580000000000000DF2200104078000044B2003C
:107590000004E0001300320061002000E0742000CD
:1075A00030F802000000000000DF220010407800E8
:1075B000684060000004E000040032001E089000F3
:1075C0001AF6020000000000100F98001E0890003C
:1075D00012F502000000000000C2B300FED302005A
:1075E000000000000E0890000000E900000F980065
:1075F0000E0890000000E000B0FF3A0010612A0081
:1076000034D0020000000000DC00370061002000E0
:10761000E074200030F80200000000009002070033
:107620000000E800000F9800AF0207003007980044
:107630003E0090000000E000420032003E0090005A
:1076400080407800F0DD2200014878003E00900084
:10765000E80F50000500340001DF220011407800DF
:107660000050A000804878003600370001DF22007B
:10767000114078000050A1008048780031003700A8
:1076800011AE8100E00220000088B900EA0040004D
:10769000000023000080400010007800000001007E
:1076A000100F980000DF2200104078006840600052
:1076B0000004E000040032001E0890001AF60200E8
:1076C00000000000100F98001E08900012F5020044
:1076D0000000000000DF2200104078000042B200ED
:1076E0000004E00004003A00F0DD220010407800C1
:1076F000E84F500009003A0000DF220010407800F7
:107700000042B2000004E0000B003200F0DD220075
:1077100010407800F04F500007003200B0C3B300B3
:10772000FED3020000000000F0DD220010407800CF
:10773000A0D202000000000000C2B300FED302008D
:10774000000000000E0890000000E900000F980003
:107750000E0890000000E000C9FF3A0010612A0006
:1077600034D00200000000008400370081002000B7
:1077700040752000BAF802000000000011AE810040
:10778000E00220000088B900EC0040000000230067
:1077900000804000100078000000010077003700F2
:1077A00081002000C0752000BAF80200000000002F
:1077B00011AE8100E00220000088B900EE00400018
:1077C000000023000080400010007800000001004D
:1077D0006A003700E100200040762000BAF802007D
:1077E0000000000011AE8100E00220000088B90016
:1077F000F0004000000023000080400010007800EE
:10780000000001005D003700E1002000207720002B
:10781000BAF802000000000011AE8100E002200072
:107820000088B900F2004000000023000080400002
:10783000100078000000010050003700C100200057
:107840003073200030F802000000000011AE81000B
:10785000E00220000088B900F4004000000023008E
:10786000008040001000780000000100F2CF02000C
:107870000000000041003700F9010700000F9800E8
:10788000D10020000079200030F802000000000044
:107890000E08900012F50200000000000E08900093
:1078A0000000E800000F98000800370011AE8100CA
:1078B000E00220000088B900F6004000000023002C
:1078C0000080400010007800000001000E089000C9
:1078D0000000E900000F98000E0890000000E00092
:1078E000F2FF3A0010612A0034D0020000000000CC
:1078F00022003700DA0107000000E800000F9800BE
:10790000A1002000D079200030F802000000000023
:107910000D00370011AE8100E00220000088B900A0
:10792000F8004000000023000080400010007800B4
:1079300000000100F2CF02000000000000C2B3000E
:10794000FED30200000000000E0890000000E900D5
:10795000000F98000E0890000000E000EDFF3A00D4
:107960000101200000782000BAF8020000000000A9
:107970000200370010002000F0978900E097810096
:107980008000E800F00F200000806000E097890090
:10799000F09781000000E0001C003200510120003F
:1079A000707A200030F8020000000000BE0890004D
:1079B000E0978100808F500007003100E097810040
:1079C000804078003E08900000C05000A0D2020025
:1079D0000000000006003700E0978100804078003A
:1079E0003E08900000C05000A0D20200000000003D
:1079F0000000EB00F097890010002000500F980065
:107A000010612A0034D0020000000000E1978100DC
:107A1000D0978100808F500002003A0010002000B3
:107A2000500F98005E0890000000E000F2FA32006B
:107A30004E089000E09789004E089000D09789008A
:107A40000000EB00600F98009BF637000600FA007C
:107A50000000EB00100798000000EB00000F78001A
:107A6000E19781001E00900080804000F00F200010
:107A700080806000A01F2300E140780000C3B300B5
:107A800080CF50003E003400E19781001E0090003E
:107A900080804000F00F200080806000A01F230045
:107AA000E140780090C3B30080CF500034003C0028
:107AB000E19781001E00900080804000F00F2000C0
:107AC00080806000A01F2300614078008000FB00E0
:107AD00000FD2F00008F40001E0090000000E80015
:107AE00010079800110037001E0078006A00B900E6
:107AF000000F7800E19781001E0090008080400018
:107B0000F00F200080806000A01F230061407800FB
:107B10000000FB009E00400000FD2F00008F400091
:107B20001E0090000000E80010079800E197810017
:107B30001E00900080804000F00F200080806000D8
:107B4000A01F2300E1407800F0C2B30080CF5000B6
:107B500036013400E19781001E00900080804000D3
:107B6000F00F200080806000A01F2300E14078001B
:107B700090C3B30080CF5000DBFF34002B013700EF
:107B8000E19781001E00900080804000F00F2000EF
:107B900080806000A01F2300E140780000C3B30094
:107BA00080CF50001C013A001E0090000000E80049
:107BB00010079800E19781001E009000808040002F
:107BC000F00F200080806000A01F2300E1407800BB
:107BD00020C6B30080CF50000A003200E197810038
:107BE0001E00900080804000F00F20008080600028
:107BF000A01F2300E140780020C4B30080CF5000D4
:107C00002A003A001E0090000000E80010079800CB
:107C1000110037001E00780000004000000F7800BF
:107C2000E19781001E00900080804000F00F20004E
:107C300080806000A01F2300614078000000FB00EE
:107C40009E00400000FD2F00008F40001E009000AD
:107C50000000E80010079800E19781001E009000E6
:107C600080804000F00F200080806000A01F230073
:107C7000E140780010C3B30080CF5000E5FF320030
:107C8000E19781001E00900080804000F00F2000EE
:107C900080806000A01F2300E140780000C3B30093
:107CA00080CF5000DBFF3200E0003700E197810019
:107CB0001E00900080804000F00F20008080600057
:107CC000A01F2300E140780080C7B30080CF5000A0
:107CD0000A003200E19781001E0090008080400081
:107CE000F00F200080806000A01F2300E14078009A
:107CF00080C5B30080CF500082003A001E00900083
:107D00000000E80010079800410037001E007800CE
:107D10004400DD00000F7800E19781001E00900014
:107D200080804000F00F200080806000A01F2300B2
:107D3000E1407800F0C2B30080CF5000160034005C
:107D4000E19781001E00900080804000F00F20002D
:107D500080806000A01F2300E140780090C3B30042
:107D600080CF50000C003C00E19781001E00900085
:107D700080804000F00F200080806000A01F230062
:107D8000614078000000FB009E00400000FD2F00D5
:107D9000008F40001B003700E19781001E0090001B
:107DA00080804000F00F200000816000E19781009A
:107DB0001E00900080804000F00F20008080600056
:107DC000A01F2300E140780000C2B30080C0700013
:107DD000A01F230001717800E19781001E00900030
:107DE00080804000F00F200080806000A01F2300F2
:107DF000614078000000FB009E00400090FA2F00D8
:107E0000008F40001E0090000000E800100798005E
:107E1000E19781001E00900080804000F00F20005C
:107E200080806000A01F2300E1407800F0C2B30012
:107E300080CF50000A003400E19781001E009000BE
:107E400080804000F00F200080806000A01F230091
:107E5000E140780090C3B30080CF5000ABFF340006
:107E6000E19781001E00900080804000F00F20000C
:107E700080806000A01F2300E140780000C4B300B0
:107E800080CF50000A003400E19781001E0090006E
:107E900080804000F00F200080806000A01F230041
:107EA000E140780060C4B30080CF500097FF3400F9
:107EB000E19781001E00900080804000F00F2000BC
:107EC00080806000A01F2300E140780000C6B3005E
:107ED00080CF500055003400E19781001E009000D3
:107EE00080804000F00F200080806000A01F2300F1
:107EF000E140780060C6B30080CF500083FF3400BB
:107F00004A003700E19781001E0090008080400009
:107F1000F00F200080806000A01F2300E140780067
:107F2000F0C2B30080CF500040003400E1978100E0
:107F30001E00900080804000F00F200080806000D4
:107F4000A01F2300E140780090C3B30080CF500011
:107F500036003C00E19781001E00900080804000C8
:107F6000F00F200080806000A01F23006140780097
:107F70008000FB0000FD2F00008F40001100370043
:107F80001E0078006A00B900000F7800E1978100B8
:107F90001E00900080804000F00F20008080600074
:107FA000A01F2300614078000000FB009E004000FD
:107FB00000FD2F00008F40001E0090000000E80030
:107FC00010079800E19781001E009000808040001B
:107FD000F00F200080806000A01F2300E1407800A7
:107FE000F0C2B30080CF500010003400E197810050
:107FF0001E00900080804000F00F20008080600014
:10800000A01F2300E140780090C3B30080CF500050
:10801000DBFF34000500370010002000F0978900D6
:108020000000EB00200798000A003700E19781006C
:108030001E00900000804000E0978900E1978100D9
:10804000F00F200000806000E09789001E0078009B
:10805000200798002E0090000080FA000000060023
:108060000400FA00E09781008000E800F00F200093
:1080700080806000A01F2300E1407800A0C3B3000F
:1080800080CF500013003A00E09781000080E800A4
:10809000E0978900E1978100F00F200000806000E8
:1080A000E097890069FE0700000F7800E0978100E3
:1080B0000000E900E0978900E1978100F00F2000BF
:1080C00000806000E09789001E007800100798008B
:1080D0000200370010002000100798001E009000DA
:1080E0000080FA00000006000400FA00E09781001A
:1080F0008000E800F00F200080806000A01F2300B7
:10810000E1407800B0C3B30080CF50000F003A00C8
:10811000E09781008080E800F00F20000080600080
:10812000E097890049FE0700000F7800E097810082
:108130008000E900F00F200000806000E0978900D7
:108140001E00780010079800020037000000EB00C6
:10815000100798001E0090000080FA000000060042
:108160000000FA0005003700E09781008000E80079
:10817000F00F200000806000E0978900E197810007
:10818000A01F2300E140780000C2B30080CF500060
:10819000F5FF32000080FA00000006000400FA003B
:1081A0000000EB00000F7800E09781008000E800FD
:1081B000F00F200000806000E0978900E8FF0700D2
:1081C00022FE0700000F78001E00E0004D003A007C
:1081D0000000EB0010079800130037001E0090000D
:1081E0000040E800A0D2020000000000A0662A00C3
:1081F00008D00200000000009E009000E002200075
:108200000088B90061022000808040000000230047
:108210000080400034D00200000000001E009000EA
:108220000000E800100798001E009000EA0F5000C0
:10823000EAFF340071012000C07B2000BAF8020080
:10824000000000000000EB00F09789001300200000
:10825000B20020001100200010002000F4000700F0
:10826000000FE900E0FF2F009E0F10000300320016
:108270000080EB009E0F100005003A00E100200096
:10828000307D2000BAF802000000000042003700F4
:1082900011AE8100E00220000088B9000102200038
:1082A0008080400000002300008040001000780023
:1082B00000000100FAF30200000000001E00780038
:1082C00010AE890011AE8100E00220000088B900E4
:1082D000FE004000000023000080400010007800F5
:1082E000000001001E00E00001003200CB02A800E7
:1082F00051002000B0652000BAF802000000000024
:10830000250037001E0FE900A00020009E0F10007E
:108310001D003C0011AE8100E00220000088B90081
:108320000102200080804000000023000080400007
:108330001000780000000100FAF3020000000000C5
:108340001E00780010AE890011AE8100E00220000E
:108350000088B900FE0040000000230000804000BB
:1083600010007800000001001E00E0000100320053
:10837000CB02A80051002000B0652000BAF802002E
:10838000000000000400370051012000208120007F
:10839000BAF8020000000000D09781008000E900D8
:1083A000F00F200000806000E09789000080FA0054
:1083B000000006002600FA001000200020079800A8
:1083C000E09781000000E90080007800F00F2000B5
:1083D00000806000100798003D0037001E009000EC
:1083E000A11F230060C078000004E00033003A00C1
:1083F0001E0090008000E800F00F200080806000E8
:10840000A01F2300614078000004E0002B00320030
:108410002E009000A0D2020000000000A0662A00FA
:1084200008D002000000000010002000000F7800BB
:10843000090037001E0090009E004000F00F200051
:1084400080806000A01F230061407800FED30200FE
:10845000000000001E0FE8001E0090009E0040007B
:10846000F00F200080806000A01F23006140780092
:108470000004E000EFFF3A00AE0190001E00900003
:108480008000E800F00F200000816000E600470057
:108490000380410002B078002E0090000000E80048
:1084A000200798002E009000EF0F50000C003200C3
:1084B00010612A0034D00200000000001E0090006D
:1084C0008000E900F00F2000008060001007980095
:1084D0009E009000E0978100808F5000BFFF3A001F
:1084E000D0662A0034D00200000000007100200095
:1084F00070822000BAF80200000000001300200083
:108500002E019000110020000000EB004800070041
:10851000100798001E009000E10F40000300320099
:108520001E0090000000E00006003A0010612A00E2
:1085300034D0020000000000100020002017980036
:10854000380037000000EB002007980014003700C7
:10855000D19781002E00900080804000F00F200015
:10856000008160001E009000E6004700000040000F
:10857000E08078002E00900080804000F00F200006
:1085800080806000A01F2300E1407800A01F23002E
:10859000017178002E0090000000E800200798008C
:1085A0001E009000E600470000004000E0807800D8
:1085B0002E00900080804000F00F2000808060003E
:1085C000A01F2300614078000004E000E0FF3A00B3
:1085D000D09781008000E900F00F2000008060004B
:1085E000E0978900E19781002E0090000080400014
:1085F0008080E800F00F200000806000D0978900A4
:10860000D09781008000E900F00F20000081600019
:10861000A11F23000040EB0000F178000000EB00F8
:10862000201798002E1090000080FA00000006002D
:108630001E00FA00100F9800210F9800320F9800CA
:10864000430F98000000EB00400798000000EB008B
:10865000200798000000EB00100798000000EB00D6
:10866000000F7800F0662A0008D002000000000029
:108670001E0890000000E00004003D0030672A0062
:1086800008D0020000000000030037001E08900020
:10869000A0D202000000000050672A0008D00200AB
:1086A00000000000670037005CD4020000000000FA
:1086B000204F98002E4890000000FB00600F9800AB
:1086C0006E089000ED0F500029003200EE08900077
:1086D000ED8F500007003C006E099000E80F51003C
:1086E0000D0032006E089000EA0F500020003200AA
:1086F00035003700D0022000EE089000808F500037
:108700001E003200800720006E099000800F51008B
:10871000270032002C0037004E0090000000E000DF
:10872000070032004E0090000000E900400798006A
:10873000805F2A0008D002000000000041003700DE
:108740001E00E000060032000000EB00000F780081
:10875000805F2A0008D002000000000039003700C6
:1087600070C0B300FED302000000000035003700E7
:108770001000200020079800320037004E009000C3
:108780000000E00006003A00D0C2B300FED30200B1
:108790000000000010002000000F780029003700C2
:1087A00070C0B300FED302000000000025003700B7
:1087B0004E0890000000E000030032000080EB0053
:1087C000500F98005D003700AE489000F0C2B30033
:1087D00080CF500018003400AE48900090C3B30022
:1087E00080CF500014003C004E009000E30F50007A
:1087F0000600340070C0B300FED302000000000089
:1088000040002000400798000E0037002E489000DE
:10881000FED3020000000000CE0090006B00470075
:108820002E499000827078004E0090000000E80011
:10883000400798000300370070C0B300FED3020069
:10884000000000002E0090000000E00096FF3200C3
:1088500010612A0034D00200000000004E00900099
:108860000000E00003003A001E089000500F98003E
:10887000320037000000EB00100798004E00900017
:108880000000E90040079800CE00900031079800F2
:10889000110037001E0090006A00B9001007980010
:1088A000BE0090004E009000808050006B0047009A
:1088B000614078008000FB001E0090008080400036
:1088C00000FD2F0000804000100798004E0090002F
:1088D0000000E900400798004E0090000000E00012
:1088E000ECFF3D009E0090002E089000808F50000D
:1088F0000D0035009E0090003E089000808F5000D3
:1089000009003C001E00E000040032001E00900040
:108910000000EA00500F9800080037001E01900088
:10892000520F980005003700B101200060FE2000C2
:10893000BAF802000000000042FF37005E08900015
:108940000080FA00000006002C00FA00500F98008A
:10895000610F9800720F980004179800151798007F
:10896000231798000000EB00500798000000EB0070
:10897000300798006000B800008FBE000000EB00D8
:1089800020079800F0662A0008D0020000000000CE
:108990005E089000EE089000E00F5000E08F580055
:1089A00004003D0030672A0008D0020000000000EB
:1089B000040037005E089000EE089000A2D002008C
:1089C0000000000050672A0008D0020000000000EC
:1089D0006A0037005CD4020000000000404F98009D
:1089E0004E4890000000FB00501798005E10900069
:1089F000ED0F50002A003200DE109000ED8F500085
:108A000007003C005E119000E80F51000D0032009D
:108A10005E109000EA0F500021003200380037004D
:108A2000D0022000DE109000808F50001F00320026
:108A3000800720005E119000800F51002800320056
:108A40002F0037005E0090000000E00007003200B9
:108A50005E0090000000E90050079800805F2A0047
:108A600008D0020000000000440037002E009000F3
:108A70000000E000060032000000EB002007980034
:108A8000805F2A0008D00200000000003B00370091
:108A900070C0B300FED302000000000037003700B2
:108AA0001000200030079800340037005E0090006E
:108AB0000000E00006003A00D0C2B300FED302007E
:108AC0000000000010002000200798002B00370055
:108AD00070C0B300FED30200000000002700370082
:108AE0002E1090000000E000050032000080EB0036
:108AF0008080EB0030179800411798006E00370017
:108B0000CE489000F0C2B30080CF5000180034006F
:108B1000CE48900090C3B30080CF500014003C00BA
:108B20005E009000E90F50000600340070C0B300F2
:108B3000FED3020000000000A000200050079800B3
:108B40000E0037004E489000FED3020000000000E7
:108B5000DE0090006D0047004E4990008270780062
:108B60005E0090000000E800500798000300370006
:108B700070C0B300FED30200000000003E00900071
:108B80000000E00093FF320010612A0034D00200A0
:108B9000000000005E0090000000E00005003A00C8
:108BA0005E089000EE08900030179800411798007A
:108BB000410037006000B800008FBE005E009000EA
:108BC0000000E90050079800DE009000410798007F
:108BD0001A0037009E007800A0002000000AB800AC
:108BE0001E0078006000B900050178000001410016
:108BF0001E0090006A00B900000141008202780066
:108C0000048FBE00CE0090005E0090008080500077
:108C10006D004700614078008000FB0000FD2F00E0
:108C200000804000CF80DE001E0F40005E974800AD
:108C30005E0090000000E900500798005E00900080
:108C40000000E000E3FF3D007E089000CF80DE00E2
:108C5000BE0F5000AE8F580012003C000E10900066
:108C60009E109000BE0F1000AE8F18000D003C004B
:108C70002E0090000000E000060032001E00BE0042
:108C800060001000E080180030179800411798002D
:108C9000090037001E00BE003017980041179800E9
:108CA00005003700B101200060FE2000BAF8020084
:108CB000000000002BFF37003E109000CE10900007
:108CC0000080FA00000006000400FA0080672A0015
:108CD00034D002000000000060682A0008D00200C2
:108CE0000000000010612A0034D0020000000000E3
:108CF000610020009084200030F802000000000095
:108D000020AE810052D3020000000000710020005C
:108D1000F0FD200030F802000000000030AE8100BD
:108D200052D3020000000000106A2A0008D002009E
:108D30000000000030AE8100100798001E00900077
:108D4000E10F5000040032001E009000E30F5000BD
:108D50000500320008003700106B2A0008D002001E
:108D60000000000007003700406B2A0008D0020016
:108D70000000000003003700706B2A0008D00200DA
:108D800000000000B06B2A0034D002000000000098
:108D9000E1012000F0842000BAF802000000000089
:108DA0000000EB00000F78000080FA0000000600D1
:108DB0000200FA00D06B2A0008D002000000000078
:108DC000A17F250010002000D8D302000000000081
:108DD00052D302000000000000C2B300FED3020024
:108DE0000000000051002000C0A3200030F8020065
:108DF00000000000C17F250010002000D8D3020031
:108E00000000000052D302000000000061002000BA
:108E100010A4200030F8020000000000E17F2500CF
:108E200010002000D8D302000000000052D302003E
:108E30000000000010612A0034D002000000000091
:108E4000C1002000D0862000BAF802000000000017
:108E500099000700CBC2BF00624060000004E00040
:108E600005003200110120000071200030F80200DE
:108E700000000000040037002101200010722000D3
:108E800030F8020000000000C0C2B300FED30200B0
:108E90000000000000C2B300FED30200000000008A
:108EA000E2C2BF00704060000004E0000500320034
:108EB00041012000D06B200030F8020000000000CB
:108EC0000400370051012000806A200030F80200C1
:108ED00000000000C0C2B300FED30200000000008A
:108EE00000C2B300FED3020000000000E8C2BF00D1
:108EF0000042B2000004E00003003A00406C2A0087
:108F000008D0020000000000E8C2BF00704060000E
:108F10000004E00003003A00D06C2A0008D00200F0
:108F20000000000000DF2200104078007040600068
:108F30000004E0000500320021022000908720009C
:108F4000BAF802000000000004003700E101200030
:108F5000B0892000BAF802000000000000DF220003
:108F600010407800684060000004E00005003A000E
:108F7000B1012000908B200030F8020000000000BA
:108F800004003700C1012000408D200030F80200AD
:108F900000000000C0C2B300FED3020000000000C9
:108FA00000C2B300FED3020000000000B1012000A7
:108FB0000035210030F8020000000000F0DD220042
:108FC00010407800A0D202000000000010612A00CA
:108FD00034D002000000000000DF22009040780042
:108FE00063C060000080FB00000F78001E00780066
:108FF000E10F5000130032009E007800E18F500016
:1090000004003C001E0078000000E0000800320070
:109010001A0037009E007800E28F50000E003200E8
:109020001E007800E30F50001000320013003700DC
:109030005101200060672000BAF802000000000023
:109040000E0037006101200000662000BAF802001F
:10905000000000000900370071012000B045210028
:10906000BAF802000000000004003700710120007F
:1090700020472100BAF802000000000011AE810074
:10908000E00220000088B9004102200080804000FA
:109090000000230000804000100078000000010064
:1090A000C1002000D0862000BAF8020000000000B5
:1090B0000080FA00000006000000FA00A100200075
:1090C00020192100BAF8020000000000610520000C
:1090D000703A2100BAF802000000000041022000AE
:1090E000D03F210030F802000000000011AE8100E6
:1090F000E00220000088B9002102200080804000AA
:1091000000002300008040001000780000000100F3
:10911000A1002000601B210030F8020000000000C8
:109120001000200058000700001020005600070023
:109130000002200054000700000120005200070038
:109140008000200050000700400020004E00070073
:10915000200020004C00070010612A0034D00200DB
:1091600000000000410020000023210030F8020030
:109170000000000021E3A80020C0B30088F4020032
:109180000000000094D30200000000001100200045
:10919000B037200030F802000000000090C0B3009B
:1091A000FED30200000000000040EB0088F4020043
:1091B0000000000094D30200000000001100200015
:1091C000B037200030F802000000000090C0B3006B
:1091D000FED302000000000050C0B30088F402007B
:1091E0000000000094D302000000000011002000E5
:1091F000B037200030F802000000000090C0B3003B
:10920000FED302000000000010C0B30088F402008A
:109210000000000094D302000000000011002000B4
:10922000B037200030F802000000000090C0B3000A
:10923000FED302000000000021E3A900100020007E
:1092400020000700001020001E0007000002200080
:109250001C000700000120001A0007008000200009
:109260001800070040002000160007002000200022
:109270001400070010612A0034D002000000000032
:109280000080FA00000006000200FA00000F7800DB
:10929000C01680001E0060000000E00004003200E4
:1092A000706D2A0008D002000000000003003700A3
:1092B000A06D2A0008D00200000000000080FA0023
:1092C000000006000200FA00000F7800D0168000AF
:1092D0001E0060000000E00004003200D06D2A0093
:1092E00008D002000000000003003700006E2A00D2
:1092F00008D00200000000000080FA000000060014
:109300000200FA00E09781008000E800F00F2000E2
:1093100000806000E097890091FB0700CBF907000F
:10932000000F78001E00E00006003400400020001E
:109330009E0F100003003C001E00E90000AE8900F3
:109340000D0037000000EB00F0978900210220009B
:10935000D08F2000BAF80200000000008001EB006E
:10936000420020001100200010002000B0FC070087
:109370000000E90000AE890021012000F0912000EA
:10938000BAF80200000000000080FA0000000600A9
:109390000200FA000040EB00004F7800E0978100E7
:1093A0008000E800F00F200000806000E097890056
:1093B0006BFB0700A5F90700104798001E409000BE
:1093C0000004E000090032001E409000EA4F500007
:1093D00006003E001E4090000040E90080407800FA
:1093E000E05B2300014878000F0037000000EB002D
:1093F000F0978900E10B2000C0952000BAF8020028
:10940000000000008001EB00A200200011002000FD
:109410009000200086FC07000040E90080407800B2
:10942000E05B230001487800E05B230010407800F7
:10943000E94F500010003A0049FB070083F907008C
:10944000004F78001E04E0000B003A000000EB0023
:10945000F0978900306E2A0034D00200000000002E
:109460008001EB00F2FF27008000EB0020022000CB
:109470006FFC0700004F780041012000A0A12000F0
:10948000BAF802000000000011012000F0332100B2
:10949000BAF80200000000002CD402000000000016
:1094A0000004E000FCFF3200E05B23001040780085
:1094B000E94F500003003A001E40780092D40200A9
:1094C000000000008CD40200000000005CD4020008
:1094D000000000008040780000C2B30080CF500040
:1094E00001003200F9FF37000080FA00000006009A
:1094F0000400FA0010AE81000000E00007003A000E
:10950000D1012000B0682000BAF80200000000007D
:1095100010002000F09789007500370000DF22005E
:1095200010407800704060000004E00007003A003E
:1095300021022000D0FB2000BAF802000000000049
:1095400010002000F097890069003700E8A2A80009
:10955000E882A80020002000B8F50200000000000A
:1095600021E3A80050C0B30088F40200000000000E
:109570008000780000102000808F5000030036002B
:10958000B06F2A0034D002000000000021E3A900DF
:10959000E09781008000E800F00F2000008060006C
:1095A000E0978900EEFA070028F90700000F78001D
:1095B000F09781000000E0000C0032000000EB009A
:1095C000F097890071052000504A2100BAF8020086
:1095D000000000008001EB0032002000110020009C
:1095E0001000200012FC0700000F78001E00780019
:1095F000100798001E009000E20F50001200320089
:109600001E009000E30F50001F0032001E0090006B
:10961000E10F5000010032002B003700E8A2A80043
:10962000E882A80091012000C04F210030F802001C
:109630000000000081002000C0512100BAF80200A3
:10964000000000002A003700E8A2A800EA82A90072
:10965000E882A9004100200000C6200030F8020086
:109660000000000091012000C04F210030F80200EE
:10967000000000007100200050512100BAF80200E3
:10968000000000001A003700E882A800EAA2A90042
:10969000E8A2A90021002000B0C5200030F8020097
:1096A0000000000091012000C04F210030F80200AE
:1096B000000000007100200050512100BAF80200A3
:1096C000000000000A003700E8A2A800E882A80015
:1096D00091012000C04F210030F80200000000007E
:1096E00081002000C0512100BAF8020000000000F3
:1096F0000080FA00000006000000FA00214381000B
:10970000C0862200E140780030C8B30080CF50000E
