:020000040000FA
:100000000020040000000000C0ED0000C0ED000072
:10001000C0ED0000C0ED0000C0ED0000C0ED00002C
:10002000C0ED0000C0ED0000C0ED0000C0ED00001C
:10003000C0ED000052C30000C0ED0000C0ED0000A4
:10004000C0ED0000C0ED0000C0ED0000C0ED0000FC
:10005000C0ED0000C0ED0000C0ED0000C0ED0000EC
:10006000C0ED0000C0ED0000C0ED0000C0ED0000DC
:10007000C0ED0000C0ED0000C0ED0000C0ED0000CC
:10008000C0ED0000C0ED0000C0ED0000C0ED0000BC
:10009000C0ED0000C0ED0000C0ED0000C0ED0000AC
:1000A000C0ED0000C0ED0000C0ED0000C0ED00009C
:1000B000C0ED0000C0ED0000C0ED0000C0ED00008C
:1000C000C0ED0000C0ED0000C0ED0000C0ED00007C
:1000D000C0ED0000C0ED0000C0ED0000C0ED00006C
:1000E000C0ED0000C0ED0000C0ED0000C0ED00005C
:1000F000C0ED0000C0ED0000C0ED0000C0ED00004C
:10010000C0ED0000C0ED0000C0ED0000C0ED00003B
:10011000C0ED0000C0ED0000C0ED0000C0ED00002B
:10012000C0ED0000C0ED0000C0ED0000C0ED00001B
:10013000C0ED0000C0ED0000C0ED0000C0ED00000B
:10014000C0ED0000C0ED0000C0ED0000C0ED0000FB
:10015000C0ED0000C0ED0000C0ED0000C0ED0000EB
:10016000C0ED0000C0ED0000C0ED0000C0ED0000DB
:10017000C0ED0000C0ED0000C0ED0000C0ED0000CB
:1001800070EB0000C0ED0000C0ED0000C0ED00000D
:10019000C0ED0000C0ED0000C0ED0000C0ED0000AB
:1001A000C0ED0000C0ED0000C0ED0000C0ED00009B
:1001B000C0ED0000C0ED0000C0ED0000C0ED00008B
:1001C000C0ED0000C0ED0000C0ED0000C0ED00007B
:1001D000C0ED0000C0ED0000C0ED0000C0ED00006B
:1001E000C0ED0000C0ED0000C0ED0000C0ED00005B
:1001F000C0ED0000C0ED0000C0ED0000C0ED00004B
:10020000FFFFFF00FFFFFF00C0ED0000C0ED00009A
:10021000C0ED0000C0ED0000C0ED0000C0ED00002A
:10022000C0ED0000C0ED0000C0ED0000C0ED00001A
:10023000C0ED000052C30000C0ED0000C0ED0000A2
:10024000C0ED0000C0ED0000C0ED0000C0ED0000FA
:10025000C0ED0000C0ED0000C0ED0000C0ED0000EA
:10026000C0ED0000C0ED0000C0ED0000C0ED0000DA
:10027000C0ED0000C0ED0000C0ED0000C0ED0000CA
:10028000C0ED0000C0ED0000C0ED0000C0ED0000BA
:10029000C0ED0000C0ED0000C0ED0000C0ED0000AA
:1002A000C0ED0000C0ED0000C0ED0000C0ED00009A
:1002B000C0ED0000C0ED0000C0ED0000C0ED00008A
:1002C000C0ED0000C0ED0000C0ED0000C0ED00007A
:1002D000C0ED0000C0ED0000C0ED0000C0ED00006A
:1002E000C0ED0000C0ED0000C0ED0000C0ED00005A
:1002F000C0ED0000C0ED0000C0ED0000C0ED00004A
:10030000C0ED0000C0ED0000C0ED0000C0ED000039
:10031000C0ED0000C0ED0000C0ED0000C0ED000029
:10032000C0ED0000C0ED0000C0ED0000C0ED000019
:10033000C0ED0000C0ED0000C0ED0000C0ED000009
:10034000C0ED0000C0ED0000C0ED0000C0ED0000F9
:10035000C0ED0000C0ED0000C0ED0000C0ED0000E9
:10036000C0ED0000C0ED0000C0ED0000C0ED0000D9
:10037000C0ED0000C0ED0000C0ED0000C0ED0000C9
:1003800070EB0000C0ED0000C0ED0000C0ED00000B
:10039000C0ED0000C0ED0000C0ED0000C0ED0000A9
:1003A000C0ED0000C0ED0000C0ED0000C0ED000099
:1003B000C0ED0000C0ED0000C0ED0000C0ED000089
:1003C000C0ED0000C0ED0000C0ED0000C0ED000079
:104000002F762200007F24000001880000000000BD
:104010000C00070060B02D00010020001100070017
:10402000000020000000E00002003200000002005A
:1040300000000000A6EA0200000000000040DA00D4
:104040000000FE004440A900C03920000000E0004C
:104050000300320000002000A00188004440A800B6
:104060000000060091018800800078000000EB004D
:1040700015003700E280400032A0B4009101BA0080
:10408000E280400032A0B4009102BA00E280400019
:1040900032A0B4000002EB00472BDE00F507B200AF
:1040A000602CE10004003A000059EB008301E900B4
:1040B000FDFF3E00040037006128E10001003200EE
:1040C0000082EB00040007001101BA000200E000CA
:1040D000E8FF3A00000006003159BA008301E90008
:1040E0000C0032002159BA008301E90008003200B7
:1040F0000400E00003003A00E280400032A0B40077
:10410000F5FF370011D9BA008301E900FAFF3A0040
:104110008100E800E180400032A0B4000000060009
:1041200072EC04000000000084EC040000000000B9
:104130009AEC040000000000AEEC04000000000057
:10414000C2EC040000000000D8EC040000000000F5
:10415000EEEC040000000000FCEC04000000000095
:10416000469F040000000000CA9B040000000000FD
:10417000BC9B040000000000169C0400000000002E
:10418000029C040000000000F69B040000000000F8
:10419000E89B040000000000DA9B0400000000001F
:1041A000449C0400000000002A9C04000000000061
:1041B000389F04000000000020740400000000008C
:1041C0004A74040000000000B26E04000000000009
:1041D000526E0400000000006C7404000000000037
:1041E0001073040000000000606F04000000000075
:1041F0000673040000000000EA74040000000000E0
:10420000C26E040000000000EA8804000000000004
:104210004A890400000000006C88040000000000CF
:104220001A88040000000000B08A040000000000AA
:10423000BE890400000000009C8A04000000000009
:10424000568C04000000000090890400000000006B
:10425000707B040000000000387B040000000000B8
:10426000A87B040000000000E27B040000000000C6
:10427000D67B040000000000EC7E0400000000007B
:104280008C7C040000000000E47E040000000000BC
:104290000480040000000000067C04000000000010
:1042A00002CD0400000000001CCD0400000000004E
:1042B000F2CC040000000000E8CC04000000000084
:1042C0005ACD0400000000004ECD040000000000A4
:1042D0007ECD04000000000072CD0400000000004C
:1042E00042CD04000000000066CD04000000000084
:1042F00036CD04000000000086CE0400000000005F
:10430000C2CD040000000000BECE0400000000008A
:104310008ACD040000000000ECE104000000000071
:10432000ACE10400000000002CE2040000000000EA
:1043300086E10400000000007AE1040000000000B3
:1043400090E20400000000009CE204000000000075
:10435000A8E2040000000000B4E204000000000035
:1043600078E204000000000084E204000000000085
:104370006CE204000000000006E3040000000000FE
:1043800040E4040000000000C0E20400000000005F
:1043900008C9040000000000F8C804000000000084
:1043A0003EC9040000000000E6C804000000000050
:1043B0008CDE040000000000A4DE04000000000009
:1043C00072DE0400000000001ADF0400000000009C
:1043D000BCDE040000000000BA8004000000000001
:1043E00084E0040000000000AAAC0400000000000B
:1043F000DCAC04000000000008AE04000000000077
:10440000FCAC040000000000EAAF04000000000063
:10441000C2AB0400000000009AAC040000000000E1
:1044200092B004000000000094ED040000000000C1
:104430008CED04000000000086ED04000000000088
:10444000985D04000000000046C404000000000065
:104450002CC50400000000001EC504000000000080
:1044600088C50400000000007AC5040000000000B8
:10447000169B040000000000469B040000000000A2
:10448000889FBE008A9FBE00010578000100E00001
:104490000400350008003C000000E000200032006D
:1044A0000500370060001000E080180002003B00AB
:1044B00001F02C001A0037000004BE006011B800A3
:1044C0006B0920000982CF00020039000882CF006A
:1044D0000441B000694252000E00320008003B0067
:1044E00082817100610164008904D1000884D300D5
:1044F0008B05E8000442E800F9FF3A0005003700A8
:104500000804440089844C008B05E9000442E9005A
:10451000FBFF3A000B0107000AF0A70001F0A00022
:104520004F05BE004F04BE0000000600F4FF2F0040
:104530002A0137001400200028013700889FBE00A0
:104540008A9FBE008C1F78003F01070046013300A0
:1045500003866C006450E1002E0032006420E1000C
:10456000330032006150E1002F0032006120E10091
:104570003100320085855500EB07B00009002000AE
:1045800008042000050037000804440089844C001A
:104590000A0031000603430087834B0000015300EB
:1045A00081815B00F8FF33000203BE000800A00019
:1045B0000804440089844C00F6FF3900C639DD0048
:1045C0008301730001003200130020008904D10030
:1045D0000884D3000998A300050032000800A70052
:1045E0000300A0008904D1000884D3008B05E800F3
:1045F0008904D1000884D3000001EB000281D200BD
:10460000D000070001F0A1000CF0A70001F0A0000D
:104610001E0137006420E100200132000801BE00C5
:104620000200BE00F7FF37006120E1001B013200ED
:104630006000B800F3FF37000000200001F82700F9
:10464000F0FF370003F0A200889FBE008A9FBE00E3
:104650008C1F7800FC000700030133006450E10068
:104660004F0032006420E1005200320003826C00EF
:1046700007003B000905D0000306D000820F54005C
:104680000C065D000200390002003200890178004A
:10469000030678008582550004003D000003FD00FC
:1046A0008103FD008502EA008B854200840F7200C1
:1046B00002003B0060001000E08018006011B800AC
:1046C0000005EB007A28E1000A00390006007800B6
:1046D000C75DDD00F707B200878075002D00370049
:1046E000828171000A017800610560008180D1003B
:1046F0000080D3008502E900F9FF3B00060440007A
:104700008784480002003B0060041400E0841C0021
:104710000988A300070032008A817100828171003C
:10472000610164008904D1000884D3008B05E8008E
:10473000170037000978A30013003A000B00E000CF
:10474000130034008B05E9000804440089844C0000
:104750000A4474000978A3000D003A000B00E00041
:10476000070034008B05E9000804440089844C00EC
:1047700001003A000B0020000978A300F7FF320087
:104780000001EB0002003700828171000A0178000D
:104790006C0007000CF0A70001F0A000BB00370080
:1047A0006420E10002003A00838F6C00BB003300FC
:1047B0000801BE000200BE00B4003700889FBE00A2
:1047C0008A9FBE008C1F78009F000700A600330060
:1047D00003866C006450E100240032006420E10094
:1047E000270032006150E100220032006120E10028
:1047F000210032008B854200EB07B1000134B80084
:10480000003AB8000804420089844A00013AB8001E
:104810000030B8008880400009014A0004003300DD
:104820000000400081804800020149008B05E9003A
:10483000C909DD008301700001003200130020006F
:10484000C814DE004814DD004709DE001200B20083
:10485000C808DE00088470003A00070001F0A100DB
:104860000CF0A70001F0A000880037006120E100F3
:104870008A0032000801BE000200BE00F7FF3700C8
:104880006150E100FCFF3A00840037000001BE00E7
:10489000850007000470A70003F0A10003F8A3003F
:1048A00013003A006509B10010003200090035001C
:1048B0006928E10002003500010028000000050021
:1048C00000004000818048008502E900FCFF3A00BA
:1048D00000000600F88F4200050035008100D1007D
:1048E0000080D3008502E800FCFF3A0000000600CB
:1048F0008000EB00000005006022B80006022000E6
:104900000000D0008180D2000482D2008582D200D3
:104910000000A0000202520083825A00030031000E
:104920000202420083824A000000A1000603E9005F
:10493000F3FF3A0000000600EFFF07000400BE008E
:104940000000060081002000618055000B003D0042
:104950000B00200061FE2F000100E1001D0034006B
:1049600082817100610164008904D1000884D30050
:104970000000E800FAFF3A007100200061006400C6
:10498000030070000200600009003200610444006E
:10499000E0844C000988A500050032008B05E80082
:1049A0006808E10002003A008904D1000884D300BD
:1049B000F20F20000258E10005003D00C75DDD0058
:1049C000F907B20089807500080078000000060031
:1049D0000BF827008B00780000000500889FBE00C0
:1049E0008A9FBE00841F7800170007004F007800E0
:1049F00011003300F0FF2F00838F6C0006003B0096
:104A0000040565000A00A7000800370009F0A600A9
:104A10001000200008003700820F5400838F5C00D4
:104A2000030039001000200001003E0000002000BB
:104A300009F0A7000000EA004F05BE004F04BE00C9
:104A40000000E000000006000004BE0016000700A1
:104A50000003BE000405BE000200BE0012000700F5
:104A6000844F7500000006000200BE006450E100A3
:104A7000050036006420E100020036000968A3004A
:104A800001003A000800BE000160A0004F06780057
:104A90004F05BE004F04BE0000000600F0FF2F00CF
:104AA000F1FF2700F9FF3700C70ADE00F107B20067
:104AB000F50FB20008003200E1CF420002003200E0
:104AC0000170A00024000500810F70000100320079
:104AD0000408050044000500810F700002003A0040
:104AE000140005008502E9000000400081C0480074
:104AF000FCFF3B000170A000240005008001EB00DA
:104B00000200370061F079008301E800828F5100D4
:104B1000FCFF3A00000006003E00000008200000F4
:104B2000080000001B5B0000440000001B5B00004D
:104B300000440000001B00005B430000001B00005D
:104B40005B3200004B0D000000430000000000003D
:104B50001B5B00003244000000570000617200003F
:104B60006E6900006E6700003A2000006E6F000062
:104B7000207600006F6C0000746100006765000023
:104B8000206F00006E20000056700000756C000061
:104B90006C75000070200000706900006E0000005D
:104BA000203D000020000000524500005345000059
:104BB000540D00000A000000565200004547000056
:104BC000207400006F6F0000206C00006F77000001
:104BD0002C2000006973000020740000686500004C
:104BE000726500002061000020730000686F000003
:104BF000727400003F0000002E2000003C00000006
:104C00002E20000000200000000D00000A280000F7
:104C100000780000002900003E00000042750000FE
:104C2000732000005069000072610000746500008C
:104C3000207600003400000046690000726D00001C
:104C4000776100007265000020760000362E0000BB
:104C5000312000007231000036370000362000009D
:104C60000020000028320000344600004A320000D4
:104C70003536000047420000313000003620000089
:104C800000410000330000004135000000550000E5
:104C90004E4B000000290000004300004647000082
:104CA000303A00002000000056700000753D000002
:104CB000355600002C2000000056000070750000E2
:104CC0003D330000563300002C2000000049000056
:104CD000090000004F090000004800000900000022
:104CE0004C090000004500006E7400006572000071
:104CF000207200006177000020760000616C0000E7
:104D000075650000206600006F7200002042000000
:104D10005247000000570000617200006E690000F9
:104D20006E6700003A200000616C000072650000B0
:104D3000616400007920000061200000766F0000AF
:104D40006C74000061670000652000006F6E000059
:104D500020560000707500006C6C0000757000003B
:104D600020700000696E0000000000004C4500004B
:104D7000540000004946000000540000484500006F
:104D80004E000000454C0000534500000047000065
:104D90004F5400004F000000474F000053550000E3
:104DA000420000005245000054550000524E0000E1
:104DB00000520000454D0000005000005249000024
:104DC0004E540000004900004E50000055540000B1
:104DD000004600004F520000005400004F00000049
:104DE0004E450000585400000052000045410000AC
:104DF0004400000044410000544100000053000002
:104E0000544100005254000052000000535400006E
:104E10004152000054000000535400004F50000065
:104E200052000000535400004F5000000053000097
:104E3000454E00004400000052450000434500007C
:104E40004956000045000000434C00004B000000A4
:104E50004441000054000000424900005452000048
:104E600045410000440000004144000043000000B0
:104E70004155000058500000494E0000005000000D
:104E80005355000000500000554C00004C550000E8
:104E900050000000444500004C4100005900000053
:104EA00041550000580000004652000045510000E6
:104EB0000044000055540000590000004D4100001E
:104EC000435200004F000000454E00004400000027
:104ED00000520000554E0000004C000049530000F5
:104EE00054000000455800004954000000440000F0
:104EF0004542000055470000004E000045570000A5
:104F000000000000426100007564000020640000A1
:104F10006574000065630000746900006F6E000036
:104F200020730000656C000065630000746500007C
:104F3000642E00002E000000200000000000000091
:104F400000000000000000002C0100000000000034
:104F50005802000000000000B00400000000000043
:104F60006009000000000000C01200000000000006
:104F70008025000000000000403800000000000014
:104F8000004B0000000000008070000000000000E6
:104F90000096000000000000C0DA000000000000E1
:104FA00000E100000000000000C20000010000005D
:104FB00000F400000100000000E800000300000011
:104FC00041520000543100000000000000290000A0
:104FD000002000005700000020520000004E00009A
:104FE0006F77000020750000736900006E67000095
:104FF000206F00006E2D0000626F000061720000E3
:105000006420000045450000505200004F4D000054
:105010002049000032430000206900006E74000047
:10502000657200006661000063650000004F0000CB
:105030006E2D0000626F00006172000064200000AD
:1050400045450000505200004F4D00002077000001
:10505000726900007465000020700000726F00002B
:105060007465000063740000206400006973000030
:10507000616200006C6500006400000049320000BD
:105080004331000000000000120100001001000088
:105090000200000000080000D804000000FB00002F
:1050A00002000000010200000301000009020000EC
:1050B00043000000020100000080000064090000BD
:1050C00004000000000100000202000001000000D6
:1050D000052400000010000001040000240200006C
:1050E0000205000024060000000100000524000065
:1050F000010100000107000005810000030A000013
:10510000004000000904000001000000020A000045
:10511000000000000007000005020000024000003F
:10512000004000000705000082020000400000006F
:10513000400000003062000000300000303000000D
:105140002C00000030300000003000003132000040
:105150003334000035360000373800003941000094
:105160004243000044450000463000007800000043
:10517000436F0000756C0000646E0000277400002F
:10518000206B000065650000702000007570000055
:1051900000000000535000004931000000000000F2
:1051A00029000000007500006E6B00006E6F0000AB
:1051B000776E0000206D00006F6400006500000045
:1051C0005049000043310000000000003A20000078
:1051D000000000002E0000003157000030310000B8
:1051E00000000000314100004C530000004200006C
:1051F0005076000033000000080800000808000096
:105200000800000000000000204800007A000000B4
:105210000000000042420000494F00003100000041
:105220005241000057310000000000004E4F0000C6
:10523000454D000053000000000000002900000060
:10524000000000000000000020000000000000003E
:105250002800FA000000EB00600F98000000EB004F
:10526000E01789000000EB00D0178900D0178100FB
:10527000200798000000EB00100798000000EB00EA
:10528000000F78000000EB00602B89000000EB00AD
:10529000500798000000EB00F01789000000EB00B9
:1052A000400798000000EB00000F98001400370042
:1052B0000000EB00600798000B0037000E0890001C
:1052C000EE0090004500DD0081004000003022002B
:1052D000808040000040EB00804878006E00900025
:1052E0000000E800600798006E009000FF0F50007B
:1052F000F2FF34000E0890000000E800000F980054
:105300000E089000E40F5000E9FF34000000EB00AD
:10531000001D8900612B8100E00220000088B90097
:1053200061022000808040000000220000804000D8
:1053300068BE020000000000912B810000202000C8
:10534000008060000000E0000400320071002000D6
:1053500040652000ECE6020000000000C0582A0072
:1053600068BE02000000000049043700001D8100F3
:105370000000E00064003200001D81000000E90030
:10538000001D89000000EB00600798001E00370038
:10539000D2178100001D8100EE0090004500DD0065
:1053A00081004000003022000080400090407800E2
:1053B000A01F22000000410001487800001D81006C
:1053C000EE0090004500DD0081004000003022002A
:1053D00000804000104078006CC202000000000015
:1053E000D01781000000E800D01789006E009000FF
:1053F0000000E80060079800D1178100F00F20003E
:1054000000806000D0178900001D8100EE00900030
:105410004500DD0081004000003022000080400097
:10542000104078000004E000D9FF3A000000EB00D3
:10543000001D890034003700206F220010407800E2
:10544000644060000004E0002E003200612B810007
:10545000E00220000088B900FA00400000002200AD
:105460000080400010007800000001000000E00013
:1054700024003200612B8100E00220000088B90086
:105480006102200080804000000022000080400077
:1054900068BE020000000000C0582A0068BE02007A
:1054A00000000000E1178100D0178100808F5000BC
:1054B00014003200E0178100600798000D003700EB
:1054C000EE009000A01F22000080400010407800F5
:1054D0006CC2020000000000EE009000F00F2000FF
:1054E00000806000600798006E0090000000E800F7
:1054F00060079800EE009000D0178100808F500068
:10550000EFFF3A00D3C2BF00ECC20200000000006F
:105510000004E000C8FF320036C3020000000000B3
:105520000004E000030032003EC30200000000005F
:10553000D7033700F8C2020000000000604F980057
:105540006E4890000080FB006101B90002179800CE
:1055500013179800F0072000010020000E119000A2
:105560009E119000800F5100818F590054033E001E
:105570000E1090009E10900000600100450337005F
:10558000FA023700560137004D033700D8003700C4
:10559000110337006B0137004903370077003700EC
:1055A000470337002703370045033700440337001C
:1055B0002403370016023700410337007201370019
:1055C0003F0337003E0337003D0337003C033700FD
:1055D0003B0337003A0337003903370038033700FD
:1055E0003703370036033700020137003403370032
:1055F00033033700320337003103370030033700FD
:105600002F0337002E0337002D0337002C033700FC
:105610002B0337002A0337002903370028033700FC
:1056200027033700260337002503370024033700FC
:1056300023033700220337002103370020033700FC
:105640001F0337001E0337001D0337001C033700FC
:105650001B0337001A0337001903370018033700FC
:1056600017033700160337001503370014033700FC
:1056700013033700120337001103370010033700FC
:105680000F0337000E0337000D0337000C033700FC
:105690000B0337000A0337000903370008033700FC
:1056A00007033700060337000503370004033700FC
:1056B00003033700020337000103370000033700FC
:1056C000FF023700FE023700FD023700FC02370000
:1056D000FB023700FA023700F9023700F802370000
:1056E000F7023700F6023700F5023700F402370000
:1056F000F3023700F2023700F1023700F002370000
:10570000EF023700EE023700ED023700EC023700FF
:10571000EB023700EA023700E9023700E8023700FF
:10572000E7023700E6023700E5023700E4023700FF
:10573000E3023700E2023700E1023700E0023700FF
:10574000DF023700DE023700DD023700DC023700FF
:10575000DB023700DA023700D9023700D8023700FF
:10576000D7023700D6023700D5023700D4023700FF
:10577000D3023700D20237005D003700E117810005
:105780002E009000810F500055003200D11781008B
:105790002E009000810F500010003A00D0178100B9
:1057A0008000E900F00F200000806000D017890021
:1057B000D1178100A01F2200808040000040EB0034
:1057C00080487800D117810021079800E0582A000E
:1057D00068BE0200000000002D0337000000EB004F
:1057E000000F98002E0090008000E900F00F2000CC
:1057F000008060002007980020592A0068BE02003F
:10580000000000002E019000620798002100370080
:105810006E0190006E0090008000E800A01F220042
:105820000080400090407800A01F2200000041004E
:1058300001487800EE009000A01F22000080400088
:10584000104078000004E00007003200EE009000F5
:10585000A01F220000804000104078006CC20200AF
:10586000000000000300370000C2B3006CC2020059
:10587000000000000E0890000000E800000F9800F3
:105880006E0090008000E800F00F200000806000B3
:1058900060079800EE009000D0178100808F5000C4
:1058A000DBFF3A00D01781008000E900F00F2000F4
:1058B00000806000D017890060592A0068BE02008D
:1058C000000000000E08900000C10200000000006F
:1058D00090592A0068BE020000000000EC02370068
:1058E00070C0B3006CC2020000000000E802370084
:1058F000D11781002E009000810F50003900320036
:105900000000EB00000F9800AE01900063079800C4
:10591000210037006E0190006E0090008000E800CA
:10592000A01F22000080400090407800A01F2200AD
:105930000000410001487800EE009000A01F220006
:1059400000804000104078000004E00007003200B2
:10595000EE009000A01F2200008040001040780060
:105960006CC20200000000000300370000C2B30058
:105970006CC20200000000000E0890000000E80069
:10598000000F98006E0090008000E800F00F2000EB
:105990000080600060079800EE009000D017810042
:1059A000808F5000DBFF3A00D01781008000E900B3
:1059B000F00F200000806000D017890060592A0095
:1059C00068BE0200000000000E08900000C1020046
:1059D0000000000090592A0068BE0200000000008C
:1059E000AB02370070C0B3006CC2020000000000C0
:1059F000A7023700F8C2020000000000604F9800C4
:105A0000EE489000B0C5B30080CF5000A0023A002D
:105A1000F8C2020000000000604F98006E4890003D
:105A20000080FB00700F980010042000FE0890001A
:105A3000808F500054003200100420007E09900036
:105A4000800F510009003C0010032000FE09900067
:105A5000808F51001200320040032000FE089000A9
:105A6000808F500016003200890237003004200079
:105A70007E099000800F5100320032003004200077
:105A8000FE099000808F5100E100350040042000A5
:105A9000FE089000808F5000110032007C02370019
:105AA000F8C2020000000000604F9800EE4890002D
:105AB000E0C7B30080CF5000AC0132007402370061
:105AC000F8C2020000000000604F9800EE4890000D
:105AD000E0C7B30080CF5000BF0132006C02370036
:105AE0004E009000E40F50000500340082D0020008
:105AF000000000000000EB0040079800640237003F
:105B0000E11781002E009000810F50000900320043
:105B10002E0090008000E900F00F2000008060005F
:105B20002007980020592A0068BE020000000000EB
:105B30005702370070C0B3006CC2020000000000C2
:105B400053023700D11781002E009000810F5000C2
:105B5000090032002E0090008000E800F00F2000C5
:105B60000080600020079800B0592A0068BE02003B
:105B7000000000004602370070C0B3006CC2020093
:105B800000000000420237000000EB00000F780028
:105B9000E01781000000E90080007800F00F20008D
:105BA00000806000600798008D003700EE009000D4
:105BB000A01F220000804000104078000004E00098
:105BC00082003A006E0090008000E900F00F200093
:105BD00080806000A01F22000080400010407800FC
:105BE0000004E000790032001E0FE8001E00900063
:105BF0009E0F1000750036001E0090000000E800A7
:105C000010079800E1178100D0178100808F5000A5
:105C1000140032000A003700D1178100A01F2200B3
:105C2000808040000040EB0080487800D017810061
:105C30008000E900F00F200000806000D01789008C
:105C4000D1178100E0178100808F5000F2FF3A00E9
:105C5000D1178100A01F2200808040000040EB008F
:105C6000804878006E0090008000E900F00F20006E
:105C700000806000000F9800110037008E0890002F
:105C8000A01F220000804000104078000004E000C7
:105C900006003A000E0890008000E800F00F200097
:105CA0000080600050079800090037000E0890003F
:105CB0008000E900F00F200000806000000F9800D5
:105CC0008E089000D0178100808F5000EBFF3A00C3
:105CD000F0592A0068BE020000000000612B81001C
:105CE000E00220000088B9006102200080804000AE
:105CF000000022000080400068BE0200000000009A
:105D0000912B810000202000008060000000E00056
:105D1000040032007100200040652000ECE6020023
:105D200000000000C0582A0068BE02000000000009
:105D30005E019000020F9800180037008E08900056
:105D4000A01F220000804000104078006CC20200BA
:105D500000000000D21781008E089000A01F2200D2
:105D60000080400090407800A01F22000000410009
:105D700001487800D01781008000E800F00F200073
:105D800000806000D01789000E0890008000E800B5
:105D9000F00F200000806000000F98008E08900037
:105DA0006E009000808F5000E4FF3A00D117810010
:105DB000A01F2200808040000040EB008048780057
:105DC000D317810023079800090037006E00900068
:105DD0008000E900F00F200000806000600798005C
:105DE000EE009000D0178100808F50006FFF3A00C6
:105DF000EE009000D0178100808F5000A4013A007F
:105E000070C0B3006CC2020000000000A0013700A7
:105E10000000EB00000F7800E01781000000E900AF
:105E200080007800F00F200000806000600798007C
:105E30008E003700EE009000A01F2200008040007E
:105E4000104078000004E00083003A006E009000EB
:105E50008000E900F00F200080806000A01F220079
:105E600000804000104078000004E0007A0032001A
:105E70001E0FE8001E0090000000E9009E0F500079
:105E800075003A001E0090000000E900100798001D
:105E9000E1178100D0178100808F5000140032007C
:105EA0000A003700D1178100A01F22008080400027
:105EB0000040EB0080487800D01781008000E900A6
:105EC000F00F200000806000D0178900D1178100FA
:105ED000E0178100808F5000F2FF3A00D117810057
:105EE000A01F2200808040000040EB008048780026
:105EF0006E0090008000E900F00F2000008060003C
:105F0000000F9800110037008E089000A01F22009B
:105F100000804000104078000004E00006003A00D5
:105F20000E0890008000E800F00F20000080600064
:105F300050079800090037000E0890008000E90023
:105F4000F00F200000806000000F98008E08900085
:105F5000D0178100808F5000EBFF3A00F0592A00E3
:105F600068BE020000000000612B8100E0022000FA
:105F70000088B900610220008080400000002200FB
:105F80000080400068BE020000000000912B8100EC
:105F900000202000008060000000E00004003200CB
:105FA0007100200040652000ECE6020000000000C7
:105FB000C0582A0068BE0200000000005E00900089
:105FC000000F9800180037008E089000A01F2200D4
:105FD00000804000104078006CC202000000000009
:105FE000D21781008E089000A01F22000080400080
:105FF00090407800A01F2200000041000148780076
:10600000D01781008000E800F00F200000806000C1
:10601000D01789000E0890008000E800F00F2000E3
:1060200000806000000F98008E0890006E009000C5
:10603000808F5000E4FF3A00D1178100A01F22009A
:10604000808040000040EB0080487800D11781003C
:1060500021079800090037006E0090008000E900D9
:10606000F00F20000080600060079800EE009000B4
:10607000D0178100808F50006EFF3A00EE00900034
:10608000D0178100808F500001013A001E0090005F
:10609000E10F500031003A00F0592A0068BE0200BA
:1060A00000000000612B8100E00220000088B900A0
:1060B000610220008080400000002200008040003B
:1060C00068BE020000000000912B8100002020002B
:1060D000008060000000E000040032007100200039
:1060E00040652000ECE6020000000000C0582A00D5
:1060F00068BE0200000000000A003700D1178100CE
:10610000A01F2200808040000040EB008048780003
:10611000D01781008000E900F00F200000806000AF
:10612000D0178900D1178100E0178100808F5000BF
:10613000F2FF3A00D1178100A01F220080804000AA
:106140000040EB0080487800D217810022079800B9
:106150000000EB0010079800CD00370070C0B300BE
:106160006CC2020000000000C9003700E117810086
:106170002E009000810F500013003200E1178100C3
:106180002E0090000100500080007800F00F2000E9
:1061900000806000000F980060592A0068BE02006D
:1061A000000000000E08900000C102000000000086
:1061B00090592A0068BE020000000000E317810029
:1061C00023079800B200370070C0B3006CC2020011
:1061D00000000000AE003700D11781002E009000B3
:1061E000810F500013003200D11781002E00900063
:1061F0000080500080007800F00F200000806000D8
:10620000000F980060592A0068BE020000000000DC
:106210000E08900000C1020000000000505A2A0041
:1062200068BE020000000000D0178100200798001F
:106230009700370070C0B3006CC20200000000007D
:106240009300370010002000600F98000000EB0062
:1062500010079800D1178100A01F22008080400005
:106260000040EB0080487800D01781008000E800F3
:10627000F00F200000806000D0178900D117810046
:1062800021079800705A2A0094BE02000000000006
:106290007F0037004E0090000000E80040079800A3
:1062A0004E009000F40F500079003A00FAB8020056
:1062B000000000000000EB004007980015023700C6
:1062C000D01781008000E800F00F2000808060007F
:1062D000E0178100808F50006A0032006E48900005
:1062E000FF4F500067003600EE489000E0C7B30053
:1062F00080CF500063003E00D11781002E00900037
:10630000808F500015003A006E4890006CC2020069
:1063100000000000D11781006E499000A01F2200EC
:106320000080400002487800D01781008000E8001B
:10633000F00F200000806000D0178900D117810085
:10634000A01F2200808040000040EB0080487800C1
:10635000D2178100220798004D003700D117810025
:106360002E0090000080500080007800F00F200088
:1063700000806000000F980060592A0068BE02008B
:10638000000000000E08900000C1020000000000A4
:10639000505A2A0068BE020000000000D017810099
:1063A000600798001D0037006E0090000001E800B3
:1063B000EE009000A01F2200008040009040780076
:1063C000A01F22000000410001487800EE0090006C
:1063D000A01F220000804000104078000004E00070
:1063E00009003200EE009000A01F22000080400053
:1063F000104078006CC2020000000000805A2A00A1
:1064000068BE0200000000006E0090008000E900FD
:10641000F00F200000806000600798006E0190007F
:106420002E0090008000E900F00F20000080600046
:10643000800F5100DCFF3A006E4890006CC20200F1
:1064400000000000AE0090006E499000A01F2200E6
:1064500000804000024878002E0090008000E80094
:10646000F00F20000080600020079800D017810006
:106470008000E800F00F200000806000D017890045
:106480000300370070C0B3006CC2020000000000BF
:106490006E0890000000E000B4FB3200D0178100CD
:1064A000400F9800E0178100300F98000000EB00CB
:1064B000600F98000000EB00500F98000000EB0008
:1064C000F0178900912B81000020200000806000DF
:1064D0000000E00028053200185A02000000000009
:1064E00051002000B065200076E7020000000000A7
:1064F00010002000500F98001F053700E1178100A1
:10650000A01F22000080400010407800604F9800DB
:106510006E4890000080FB006101B90022179800CE
:1065200033179800E0072000010020002E11900092
:10653000BE119000800F5100818F5900E2043E008F
:106540002E109000BE10900000600100E0043700A3
:10655000DD043700DC043700DB043700DA043700E1
:10656000D9043700D8043700D7043700D6043700E1
:10657000D5043700D6043700D3043700D2043700DF
:10658000D3043700D0043700CF043700CE043700DF
:10659000CD043700CC043700CB043700CA043700E1
:1065A000C9043700C8043700C7043700C6043700E1
:1065B000C5043700C4043700C3043700C2043700E1
:1065C000C1043700C0043700BF043700C0043700DF
:1065D0009D043700DD0237004B0137004F013700C3
:1065E000F4013700E2013700B7043700B602370084
:1065F000B5043700B4043700B5043700B4043700DD
:1066000049043700620437002D0437005603370071
:106610005503370054033700530337005203370044
:1066200051033700500337004F0337004E03370044
:106630004D033700A4043700A3043700FD013700E1
:10664000E9003700A0043700470037005D0137003C
:106650004F0137009C0437006D003700C10137003F
:1066600099043700980437009704370096043700E0
:1066700095043700940437007B003700850037000D
:1066800091043700900437008F043700AD003700C5
:106690008D0437008C043700DB0137008A04370093
:1066A00089043700880437005C013700860437000E
:1066B0008504370084043700070337000D043700D2
:1066C0001703370041043700240437007E043700E5
:1066D000220137002F0037004200370093013700B6
:1066E000BF00370031003700330037001600370095
:1066F0002000370074043700500037007200370064
:106700002200370070043700240037007B00370078
:106710006D04370090033700B70137006A04370073
:10672000690437001F0037006E0137006604370028
:106730006504370064043700F0023700C5003700F5
:1067400000033700E3003700120707000000E000F5
:106750005F043A00E0178100300F9800D0178100E5
:10676000400F98005A0437008CE702000000000038
:106770005704370054090700602B81000000E00037
:10678000530432008A090700510437007B060700D2
:106790004F043700FE0A07004D043700D80A0700EF
:1067A0004B043700440A07004904370004B50200CF
:1067B0000000000046043700602B81000000E0006C
:1067C00005003A00D1012000B068200076E7020001
:1067D000000000003E0437006CB30200000000001F
:1067E0003B043700206F2200104078000000A10019
:1067F0000010A100216F2200804878006101200074
:106800000066200076E70200000000003004370038
:10681000206F2200104078000000A0000010A100AE
:10682000216F22008048780051012000606720001D
:1068300076E702000000000025043700206F2200E8
:10684000104078000000A1000010A000216F22007D
:106850008048780071012000B045210076E70200F1
:10686000000000001A043700206F2200104078005A
:106870000000A0000010A000216F220080487800D6
:10688000710120002047210076E70200000000008F
:106890000F043700206F2200104078000030A00065
:1068A000216F220080487800C1012000408D200027
:1068B000ECE6020000000000705A2A0094BE0200BC
:1068C0000000000002043700206F22001040780012
:1068D0000030A100216F220080487800B101200023
:1068E000908B2000ECE6020000000000705A2A00A5
:1068F00094BE020000000000F5033700602B810009
:106900000000E00005003A00D1012000B06820003E
:1069100076E7020000000000ED033700E282A900E4
:10692000E082A90051012000806A2000ECE602000C
:1069300000000000705A2A0094BE0200000000000F
:10694000E3033700602B81000000E00005003A00FF
:10695000D1012000B068200076E7020000000000AE
:10696000DB033700206F2200104078007040600089
:106970000004E00004003A0021022000D0FB2000C7
:1069800076E7020000000000E082A800E282A90091
:1069900041012000D06B2000ECE602000000000066
:1069A000705A2A0094BE02000000000021E3A800F3
:1069B00050C0B30012E50200000000008000780023
:1069C000F0042000808F500003003E00D05A2A00BF
:1069D00094BE02000000000021E3A900BC033700C0
:1069E000C40A0700BA033700E01781008000E800FE
:1069F000F00F200000806000E0178900CF0507003D
:106A0000E7030700600798006E00900062C1020073
:106A100000000000005D2A0068BE020000000000C7
:106A20006E00900000C1020000000000005D2A001E
:106A300068BE0200000000006E009000C8BE0200A8
:106A400000000000705A2A0094BE020000000000FE
:106A50009F033700E01781008000E800F00F20005E
:106A600000806000E0178900B4050700CC03070030
:106A7000600798006E0090000080FB00A4E6020012
:106A800000000000600798006E00900062C10200E4
:106A900000000000005D2A0068BE02000000000047
:106AA0006E00900000C1020000000000005D2A009E
:106AB00068BE0200000000006E009000C8BE020028
:106AC00000000000705A2A0094BE0200000000007E
:106AD0007F033700602B81000000E00005003A00D2
:106AE00011C0B30010C0B30006D4020000000000C3
:106AF00077033700A1012000106D200076E7020027
:106B00000000000072033700405D2A0068BE0200EA
:106B1000000000006C0807006D0337001CE802004D
:106B2000000000000000E00069033200A100200026
:106B3000006F200076E70200000000004006200001
:106B400042E602000000000084E4020000000000B1
:106B500081BF2A00014001005D03370035050700B1
:106B60000000E800000F980002003700ECB60200B9
:106B7000000000000E0890000000E900000F9800DF
:106B80000E0890000000E000F8FF3A0050033700C4
:106B9000280507000000E800000F980002003700F9
:106BA0009CB60200000000000E0890000000E90002
:106BB000000F98000E0890000000E000F8FF3A0077
:106BC000430337001B0507000000E800000F980092
:106BD0000B00370061012000A06F2000ECE60200EE
:106BE000000000003CB702000000000052BE02009E
:106BF00000000000705A2A0094BE0200000000004D
:106C00000E0890000000E900000F98000E089000A8
:106C10000000E000EFFF3A002D033700602B8100F9
:106C20000000E00005003A00D1012000B06820001B
:106C300076E702000000000025033700C922A90002
:106C4000CB22A80021E3A8002000200042E6020099
:106C5000000000000040EB0012E502000000000010
:106C600080007800001B2000808F50000F0036004D
:106C700020C0B30012E50200000000008000780090
:106C8000702B2000808F500008003600110120007A
:106C900000712000ECE6020000000000705A2A009B
:106CA00094BE0200000000000C003700C922A900B9
:106CB000CB22A900C05D2A0094BE020000000000A3
:106CC0002101200010722000ECE60200000000000C
:106CD000705A2A0094BE02000000000021E3A900BF
:106CE000FB023700602B81000000E00005003A0045
:106CF000D1012000B068200076E70200000000000B
:106D0000F3023700C922A900CB22A90021012000EB
:106D100010722000ECE6020000000000705A2A0009
:106D200094BE020000000000E9023700F1002000DC
:106D3000C0362000ECE60200000000002CE5020056
:106D40000000000011002000B0372000ECE6020037
:106D500000000000705A2A0094BE020000000000EB
:106D6000DB0237003EE5020000000000D8023700D9
:106D7000B0040700000F980061002000F0732000AD
:106D8000ECE60200000000000E089000A2C0020025
:106D900000000000210020005074200076E702006F
:106DA000000000000E0890006EE6020000000000E7
:106DB000C70237009F040700000F98006100200001
:106DC000F0732000ECE60200000000000E089000C6
:106DD000A2C00200000000002100200010002100DD
:106DE00076E70200000000000E08900042E6020074
:106DF00000000000B6023700902B81000090A00038
:106E0000902B8900B2023700602B81000000E00067
:106E100005003A00D1012000B068200076E70200AA
:106E200000000000AA023700AEB702000000000018
:106E3000A702370010002000F01789001000200082
:106E40006007980010003700E11781006E00900085
:106E500080804000F00F200080806000A01F220092
:106E60000080400090407800E0C3B30080CF500025
:106E700002003A000000EB00F01789006E0090005D
:106E80000000E80060079800E11781006E009000A4
:106E900080804000F00F200080806000A01F220052
:106EA00000804000104078000004E000E6FF3A0057
:106EB000EE00900020022000808F5000020034007D
:106EC00010002000F0178900F01781000000E0009A
:106ED0007F023A00E01781008000E800F00F2000F8
:106EE00000806000E0178900AD020700600798008D
:106EF000E1178100F00F200080806000A01F2200B9
:106F00000080400090407800D0C3B30080CF500094
:106F100040003A006E0090000000E0003A003400AB
:106F20006E009000E50F500037003C00E017810034
:106F30008000E800F00F200000806000E01789006A
:106F40006E0090000000E900600798000000EB0070
:106F5000000F98000B0037006E0090008E08900024
:106F60004500DD00810040000030220080804000AC
:106F70000040EB00804878000E0890000000E80018
:106F8000000F98000E089000FF0F5000F2FF340031
:106F90000000EB00000F980013003700EE01900096
:106FA0000E0A9000E1178100A01F2200008040001F
:106FB000104178004518DD008400400000302200B8
:106FC00000804000024878000E0890000000E800B1
:106FD000000F9800E01781008000E800F00F20000B
:106FE00000806000E0178900E1178100A01F2200E7
:106FF0000080400090407800E0C3B30080CF500094
:10700000E6FF3A003202370010002000F017890036
:107010002F0237006E0090000000E0001B003A00D5
:107020000000EB00000F9800140037000E089000DD
:107030000040E80000C1020000000000C05F2A001C
:1070400068BE0200000000000E0890004500DD0050
:1070500080007800003022000080400068BE0200FE
:1070600000000000C0582A0094BE0200000000008A
:107070000E0890000000E800000F98000E08900035
:10708000E40F5000E9FF3400110237006E00900059
:107090000000E000090034006E009000E50F500091
:1070A00006003C00705A2A0094BE02000000000056
:1070B000EE009000011D890005023700100020003D
:1070C000F017890002023700E01781008000E80015
:1070D000F00F200000806000E017890030020700F8
:1070E000200F980015040700E1178100F00F200021
:1070F00080806000A01F2200008040009040780047
:1071000090C2B30080CF50000D003A00612B810087
:10711000E00220000088B900FC00400000002200CE
:1071200000804000900078002E08900001000100CF
:10713000705A2A0094BE020000000000E4013700EB
:1071400010002000F0178900E10137001000200036
:10715000F017890010002000600798001000370029
:10716000E11781006E00900080804000F00F200049
:1071700080806000A01F22000080400090407800C6
:1071800020C2B30080CF500002003A000000EB00A4
:10719000F01789006E0090000000E800600798007A
:1071A000E11781006E00900080804000F00F200009
:1071B00080806000A01F2200008040001040780006
:1071C0000004E000E6FF3A00F01781000000E00054
:1071D000BF013A007100200070742000ECE602004C
:1071E0000000000020C2B3006CC2020000000000DA
:1071F00022003700E1178100F00F200000806000BE
:10720000E0178900E1178100A01F220000804000E4
:10721000104078006CC2020000000000E1178100FD
:10722000A01F220000804000104078000000FB00FA
:10723000200F9800206F2200104078006840600006
:107240000004E000040032002E089000A4E60200D2
:1072500000000000200F9800612B8100E002200058
:107260000088B900E80040000000220000804000D3
:10727000900078002E08900001000100E0178100C6
:107280000000E800E0178900E1178100F00F2000FE
:1072900080806000A01F22000080400090407800A5
:1072A00020C2B30080CF5000D2FF3A00E017810027
:1072B000F10F200001006000E017890020C2B30038
:1072C0006CC2020000000000705A2A0094BE020046
:1072D000000000007E013700612B8100E0022000E9
:1072E0000088B90080007800000022000080400083
:1072F000100078000000010075013700612B81004B
:10730000E00220000088B9008080E8000000220030
:107310000080400010007800000001006C01370080
:10732000612B8100E00220000088B900E4004000E9
:1073300000002200008040001000780000000100E2
:1073400063013700612B8100E00220000088B90052
:10735000E60040000000220000804000100078009D
:10736000000001005A0137007100200070742000F5
:10737000ECE602000000000089010700200F9800E1
:10738000E01781000000E900E0178900E1178100A3
:10739000F00F200000806000E0178900250307003F
:1073A0000000E800000F9800450307003007980030
:1073B0003E0090000000E0005D0032003E009000C2
:1073C00080407800106E2200014878003E00900056
:1073D000E80F500006003400206F220010407800B3
:1073E0000050A000216F2200804878005000370034
:1073F000206F2200104078000050A100216F220071
:10740000804878004A0037002E0890009CE5020072
:1074100000000000206F2200104078000042B200FF
:107420000004E00004003A00106E220010407800D2
:10743000E84F500009003A00206F22001040780009
:107440000042B2000004E0000B003200106E220087
:1074500010407800F04F500007003200B0C3B30076
:107460006CC2020000000000106E22001040780084
:1074700000C1020000000000206F220010407800D0
:10748000684060000004E000040032002E08900014
:10749000A4E6020000000000200F9800612B81008C
:1074A000E00220000088B900E8004000000022004F
:1074B00000804000900078002E089000010001003C
:1074C000100F980000C2B3006CC202000000000060
:1074D000206F2200104078000044B2000004E00059
:1074E0001300320061002000E0742000ECE602008E
:1074F00000000000206F220010407800684060000B
:107500000004E000040032001E089000A4E602001F
:1075100000000000100F98001E0890009CE502007B
:107520000000000000C2B3006CC2020000000000B6
:107530000E0890000000E900000F98000E0890006F
:107540000000E000B0FF3A00705A2A0094BE02002A
:1075500000000000DE00370061002000E074200021
:10756000ECE6020000000000B20207000000E800A4
:10757000000F9800D2020700300798003E009000EC
:107580000000E000440032003E009000804078009F
:10759000106E2200014878003E009000E80F500075
:1075A00006003400206F2200104078000050A00038
:1075B000216F22008048780037003700206F2200BA
:1075C000104078000050A100216F22008048780010
:1075D00031003700612B8100E00220000088B900F3
:1075E000EA00400000002200008040001000780007
:1075F00000000100100F9800206F2200104078005A
:10760000684060000004E000040032001E089000A2
:10761000A4E6020000000000100F98001E08900071
:107620009CE5020000000000206F2200104078005E
:107630000042B2000004E00004003A00106E220094
:1076400010407800E84F500009003A00206F2200F7
:10765000104078000042B2000004E0000B0032004D
:10766000106E220010407800F04F500007003200EA
:10767000B0C3B3006CC2020000000000106E220014
:107680001040780000C102000000000000C2B300FA
:107690006CC20200000000000E0890000000E9002B
:1076A000000F98000E0890000000E000C9FF3A00AB
:1076B000705A2A0094BE02000000000084003700C7
:1076C000810020004075200076E7020000000000E5
:1076D000612B8100E00220000088B900EC0040002E
:1076E000000022000080400010007800000001002F
:1076F0007700370081002000C075200076E7020087
:1077000000000000612B8100E00220000088B90029
:10771000EE004000000022000080400010007800D1
:10772000000001006A003700E100200040762000E0
:1077300076E7020000000000612B8100E0022000DB
:107740000088B900F00040000000220000804000E6
:1077500010007800000001005D003700E10020000B
:107760002077200076E7020000000000612B8100F6
:10777000E00220000088B900F20040000000220072
:107780000080400010007800000001005000370029
:10779000C100200030732000ECE602000000000071
:1077A000612B8100E00220000088B900F400400055
:1077B000000022000080400010007800000001005E
:1077C00052BE02000000000041003700190207000D
:1077D000000F9800D100200000792000ECE60200A4
:1077E000000000000E0890009CE502000000000070
:1077F0000E0890000000E800000F98000800370015
:10780000612B8100E00220000088B900F6004000F2
:1078100000002200008040001000780000000100FD
:107820000E0890000000E900000F98000E0890007C
:107830000000E000F2FF3A00705A2A0094BE0200F5
:107840000000000022003700FA0107000000E800F5
:10785000000F9800A1002000D0792000ECE6020083
:10786000000000000D003700612B8100E0022000C5
:107870000088B900F80040000000220000804000AD
:10788000100078000000010052BE0200000000005D
:1078900000C2B3006CC20200000000000E0890009D
:1078A0000000E900000F98000E0890000000E000C2
:1078B000EDFF3A00010120000078200076E7020089
:1078C000000000000200370010002000F0178900BF
:1078D000E01781008000E800F00F200000806000C9
:1078E000E0178900F01781000000E0001C00320062
:1078F00051012000707A2000ECE602000000000038
:10790000BE089000E0178100808F50000700310012
:10791000E0178100804078003E08900000C05000D1
:1079200000C102000000000006003700E0178100DF
:10793000804078003E08900000C0500000C1020066
:10794000000000000000EB00F0178900100020008C
:10795000500F9800705A2A0094BE020000000000E8
:10796000E1178100D0178100808F500002003A009B
:1079700010002000500F98005E0890000000E0000A
:10798000DEFA32004E089000E01789004E089000A1
:10799000D01789000000EB00600F98005DF63700FB
:1079A0000600FA000000EB00100798000000EB0052
:1079B000000F7800E11781001E00900080804000D9
:1079C000F00F200080806000A01F22000080400097
:1079D0009040780000C3B30080CF500043003400D3
:1079E000E11781001E00900080804000F00F200011
:1079F00080806000A01F220000804000904078003E
:107A000090C3B30080CF500038003C00E1178100E4
:107A10001E00900080804000F00F200080806000F9
:107A2000A01F220000804000104078008000FB0072
:107A300000FD2F00008F40001E0090000000E800B5
:107A400010079800120037001E0078006A00B90085
:107A5000000F7800E11781001E0090008080400038
:107A6000F00F200080806000A01F220000804000F6
:107A7000104078000000FB009E00400000FD2F0039
:107A8000008F40001E0090000000E80010079800E2
:107A9000E11781001E00900080804000F00F200060
:107AA00080806000A01F220000804000904078008D
:107AB000F0C2B30080CF500051013400E1178100C3
:107AC0001E00900080804000F00F20008080600049
:107AD000A01F2200008040009040780090C3B300B7
:107AE00080CF5000D8FF340045013700E1178100F6
:107AF0001E00900080804000F00F20008080600019
:107B0000A01F2200008040009040780000C3B30016
:107B100080CF500035013A001E0090000000E800C0
:107B200010079800E11781001E009000808040003F
:107B3000F00F200080806000A01F22000080400025
:107B40009040780020C6B30080CF50000B00320078
:107B5000E11781001E00900080804000F00F20009F
:107B600080806000A01F22000080400090407800CC
:107B700020C4B30080CF50002D003A001E009000BA
:107B80000000E80010079800120037001E0078007F
:107B900000004000000F7800E11781001E009000F7
:107BA00080804000F00F200080806000A01F220035
:107BB00000804000104078000000FB009E00400064
:107BC00000FD2F00008F40001E0090000000E80024
:107BD00010079800E11781001E009000808040008F
:107BE000F00F200080806000A01F22000080400075
:107BF0009040780010C3B30080CF5000E3FF320004
:107C0000E11781001E00900080804000F00F2000EE
:107C100080806000A01F220000804000904078001B
:107C200000C3B30080CF5000D8FF3200F40037000B
:107C3000E11781001E00900080804000F00F2000BE
:107C400080806000A01F22000080400090407800EB
:107C500080C7B30080CF50000B003200E1178100D5
:107C60001E00900080804000F00F200080806000A7
:107C7000A01F2200008040009040780080C5B30023
:107C800080CF50008E003A001E0090000000E800F7
:107C900010079800470037001E0078004400DD0000
:107CA000000F7800E11781001E00900080804000E6
:107CB000F00F200080806000A01F220000804000A4
:107CC00090407800F0C2B30080CF5000180034001C
:107CD000E11781001E00900080804000F00F20001E
:107CE00080806000A01F220000804000904078004B
:107CF00090C3B30080CF50000D003C00E11781001D
:107D00001E00900080804000F00F20008080600006
:107D1000A01F220000804000104078000000FB00FF
:107D20009E00400000FD2F00008F40001E00370025
:107D3000E11781001E00900080804000F00F2000BD
:107D400000816000E11781001E00900080804000EB
:107D5000F00F200080806000A01F22000080400003
:107D60009040780000C2B30080C07000A01F2200C5
:107D70000000410001487800E11781001E009000DA
:107D800080804000F00F200080806000A01F220053
:107D900000804000104078000000FB009E00400082
:107DA00090FA2F00008F40001E0090000000E800B5
:107DB00010079800E11781001E00900080804000AD
:107DC000F00F200080806000A01F22000080400093
:107DD00090407800F0C2B30080CF50000B00340018
:107DE000E11781001E00900080804000F00F20000D
:107DF00080806000A01F220000804000904078003A
:107E000090C3B30080CF5000A3FF3400E11781007E
:107E10001E00900080804000F00F200080806000F5
:107E2000A01F2200008040009040780000C4B300F2
:107E300080CF50000B003400E11781001E0090003D
:107E400080804000F00F200080806000A01F220092
:107E5000008040009040780060C4B30080CF5000A4
:107E60008DFF3400E11781001E00900080804000EB
:107E7000F00F200080806000A01F220000804000E2
:107E80009040780000C6B30080CF50005C00340002
:107E9000E11781001E00900080804000F00F20005C
:107EA00080806000A01F2200008040009040780089
:107EB00060C6B30080CF500077FF34005000370019
:107EC000E11781001E00900080804000F00F20002C
:107ED00080806000A01F2200008040009040780059
:107EE000F0C2B30080CF500045003400E11781009C
:107EF0001E00900080804000F00F20008080600015
:107F0000A01F2200008040009040780090C3B30082
:107F100080CF50003A003C00E11781001E00900025
:107F200080804000F00F200080806000A01F2200B1
:107F300000804000104078008000FB0000FD2F0012
:107F4000008F4000120037001E0078006A00B90060
:107F5000000F7800E11781001E0090008080400033
:107F6000F00F200080806000A01F220000804000F1
:107F7000104078000000FB009E00400000FD2F0034
:107F8000008F40001E0090000000E80010079800DD
:107F9000E11781001E00900080804000F00F20005B
:107FA00080806000A01F2200008040009040780088
:107FB000F0C2B30080CF500011003400E1178100FF
:107FC0001E00900080804000F00F20008080600044
:107FD000A01F2200008040009040780090C3B300B2
:107FE00080CF5000D8FF340005003700100020007B
:107FF000F01789000000EB00200798000A00370006
:10800000E11781001E00900000804000E017890009
:10801000E1178100F00F200000806000E017890068
:108020001E007800200798002E0090000080FA00C3
:10803000000006000400FA00E01781008000E8005C
:10804000F00F200080806000A01F22000080400010
:1080500090407800A0C3B30080CF500013003A00D6
:10806000E01781000080E800E0178900E117810037
:10807000F00F200000806000E017890048FE070034
:10808000000F7800E01781000000E900E017890088
:10809000E1178100F00F200000806000E0178900E8
:1080A0001E00780010079800020037001000200022
:1080B000100798001E0090000080FA0000000600E3
:1080C0000400FA00E01781008000E800F00F2000B3
:1080D00080806000A01F2200008040009040780057
:1080E000B0C3B30080CF50000F003A00E01781000A
:1080F0008080E800F00F200000806000E017890019
:1081000027FE0700000F7800E01781008000E900DB
:10811000F00F200000806000E01789001E0078004A
:1081200010079800020037000000EB0010079800CD
:108130001E0090000080FA00000006000000FA0017
:1081400005003700E01781008000E800F00F2000F4
:1081500000806000E0178900E1178100A01F220065
:10816000008040009040780000C2B30080CF5000F3
:10817000F4FF32000080FA00000006000400FA005C
:108180000000EB00000F7800E01781008000E8009D
:10819000F00F200000806000E0178900E7FF070073
:1081A000FFFD0700000F78001E00E0004D003A00C0
:1081B0000000EB0010079800130037001E0090002D
:1081C0000040E80000C102000000000000602A003A
:1081D00068BE0200000000009E009000E002200047
:1081E0000088B90061022000808040000000220069
:1081F0000080400094BE0200000000001E009000BD
:108200000000E800100798001E009000EA0F5000E0
:10821000EAFF340071012000C07B200076E70200F5
:10822000000000000000EB00F017890013002000A0
:10823000B20020001100200010002000FC00070008
:10824000000FE900E0FF2F009E0F10000300320036
:108250000080EB009E0F100005003A00E1002000B6
:10826000307D200076E70200000000004200370069
:10827000612B8100E00220000088B900010220008B
:108280008080400000002200008040001000780044
:108290000000010084E40200000000001E007800DD
:1082A000602B8900612B8100E00220000088B9006A
:1082B000FE00400000002200008040001000780016
:1082C000000001001E00E00001003200CB02A80007
:1082D00051002000B065200076E702000000000099
:1082E000250037001E0FE900A00020009E0F10009F
:1082F0001D003C00612B8100E00220000088B900D5
:108300000102200080804000000022000080400028
:10831000100078000000010084E40200000000006A
:108320001E007800602B8900612B8100E002200094
:108330000088B900FE0040000000220000804000DC
:1083400010007800000001001E00E0000100320073
:10835000CB02A80051002000B065200076E70200A3
:10836000000000000400370051012000208120009F
:1083700076E7020000000000D01781008000E900CD
:10838000F00F200000806000E01789000080FA00F4
:10839000000006002600FA001000200020079800C8
:1083A000E01781000000E90080007800F00F200055
:1083B0000080600010079800410037009E00900088
:1083C000A01F220000804000104078000004E00060
:1083D00036003A001E0090008000E800F00F2000F8
:1083E00080806000A01F22000080400010407800C4
:1083F0000004E0002D0032002E00900000C10200B9
:108400000000000000602A0068BE020000000000BA
:1084100010002000000F78000A0037001E009000B6
:108420009E004000F00F200080806000A01F22000E
:1084300000804000104078006CC202000000000084
:108440001E0FE8001E0090009E004000F00F20006C
:1084500080806000A01F2200008040001040780053
:108460000004E000EDFF3A00AE0190001E00900015
:108470008000E800F00F200000816000E600470067
:108480000380410002B078002E0090000000E80058
:10849000200798002E009000EF0F50000C003200D3
:1084A000705A2A0094BE0200000000001E009000D6
:1084B0008000E900F00F20000080600010079800A5
:1084C0009E009000E0178100808F5000BBFF3A00B3
:1084D00030602A0094BE02000000000071002000FD
:1084E0007082200076E702000000000013002000E8
:1084F0002E019000110020000000EB004C0007004E
:10850000100798001E009000E10F400003003200A9
:108510001E0090000000E00006003A00705A2A0099
:1085200094BE0200000000001000200020179800F8
:108530003C0037000000EB002007980016003700D1
:10854000D11781002E00900080804000F00F2000A5
:10855000008160001E009000E6004700000040001F
:10856000E08078002E00900080804000F00F200016
:1085700080806000A01F22000080400090407800B2
:10858000A01F220000004100014878002E0090004A
:108590000000E800200798001E009000E600470059
:1085A00000004000E08078002E00900080804000B5
:1085B000F00F200080806000A01F2200008040009B
:1085C000104078000004E000DDFF3A00D017810081
:1085D0008000E900F00F200000806000E0178900B3
:1085E000E11781002E009000008040008080E800AC
:1085F000F00F200000806000D0178900D0178100A4
:108600008000E900F00F200080806000A01F2200A1
:10861000808040000040EB00804878000000EB00C4
:10862000201798002E1090000080FA00000006002D
:108630001E00FA00100F9800210F9800320F9800CA
:10864000430F98000000EB00400798000000EB008B
:10865000200798000000EB00100798000000EB00D6
:10866000000F780050602A0068BE02000000000081
:108670001E0890000000E00004003D0090602A0009
:1086800068BE020000000000030037001E089000D2
:1086900000C1020000000000B0602A0068BE0200B5
:1086A0000000000067003700F8C202000000000070
:1086B000204F98002E4890000000FB00600F9800AB
:1086C0006E089000ED0F500029003200EE08900077
:1086D000ED8F500007003C006E099000E80F51003C
:1086E0000D0032006E089000EA0F500020003200AA
:1086F00035003700D0022000EE089000808F500037
:108700001E003200800720006E099000800F51008B
:10871000270032002C0037004E0090000000E000DF
:10872000070032004E0090000000E900400798006A
:10873000E0582A0068BE0200000000004100370037
:108740001E00E000060032000000EB00000F780081
:10875000E0582A0068BE020000000000390037001F
:1087600070C0B3006CC2020000000000350037008A
:108770001000200020079800320037004E009000C3
:108780000000E00006003A00D0C2B3006CC2020054
:108790000000000010002000000F780029003700C2
:1087A00070C0B3006CC2020000000000250037005A
:1087B0004E0890000000E000030032000080EB0053
:1087C000500F98005D003700AE489000F0C2B30033
:1087D00080CF500018003400AE48900090C3B30022
:1087E00080CF500014003C004E009000E30F50007A
:1087F0000600340070C0B3006CC20200000000002C
:1088000040002000400798000E0037002E489000DE
:108810006CC2020000000000CE0090006B00470018
:108820002E499000827078004E0090000000E80011
:10883000400798000300370070C0B3006CC202000C
:10884000000000002E0090000000E00096FF3200C3
:10885000705A2A0094BE0200000000004E009000F2
:108860000000E00003003A001E089000500F98003E
:10887000320037000000EB00100798004E00900017
:108880000000E90040079800CE00900031079800F2
:10889000110037001E0090006A00B9001007980010
:1088A000BE0090004E009000808050006B0047009A
:1088B000614078008000FB001E0090008080400036
:1088C00000FD2F0000804000100798004E0090002F
:1088D0000000E900400798004E0090000000E00012
:1088E000ECFF3D009E0090002E089000808F50000D
:1088F0000D0035009E0090003E089000808F5000D3
:1089000009003C001E00E000040032001E00900040
:108910000000EA00500F9800080037001E01900088
:10892000520F980005003700B101200060FE2000C2
:1089300076E702000000000042FF37005E0890006A
:108940000080FA00000006002C00FA00500F98008A
:10895000610F9800720F980004179800151798007F
:10896000231798000000EB00500798000000EB0070
:10897000300798006000B800008FBE000000EB00D8
:108980002007980050602A0068BE02000000000026
:108990005E089000EE089000E00F5000E08F580055
:1089A00004003D0090602A0068BE02000000000044
:1089B000040037005E089000EE08900002BF02003D
:1089C00000000000B0602A0068BE02000000000045
:1089D0006A003700F8C2020000000000404F980013
:1089E0004E4890000000FB00501798005E10900069
:1089F000ED0F50002A003200DE109000ED8F500085
:108A000007003C005E119000E80F51000D0032009D
:108A10005E109000EA0F500021003200380037004D
:108A2000D0022000DE109000808F50001F00320026
:108A3000800720005E119000800F51002800320056
:108A40002F0037005E0090000000E00007003200B9
:108A50005E0090000000E90050079800E0582A00EE
:108A600068BE020000000000440037002E009000A5
:108A70000000E000060032000000EB002007980034
:108A8000E0582A0068BE0200000000003B003700EA
:108A900070C0B3006CC20200000000003700370055
:108AA0001000200030079800340037005E0090006E
:108AB0000000E00006003A00D0C2B3006CC2020021
:108AC0000000000010002000200798002B00370055
:108AD00070C0B3006CC20200000000002700370025
:108AE0002E1090000000E000050032000080EB0036
:108AF0008080EB0030179800411798006E00370017
:108B0000CE489000F0C2B30080CF5000180034006F
:108B1000CE48900090C3B30080CF500014003C00BA
:108B20005E009000E90F50000600340070C0B300F2
:108B30006CC2020000000000A00020005007980056
:108B40000E0037004E4890006CC20200000000008A
:108B5000DE0090006D0047004E4990008270780062
:108B60005E0090000000E800500798000300370006
:108B700070C0B3006CC20200000000003E00900014
:108B80000000E00093FF3200705A2A0094BE0200F9
:108B9000000000005E0090000000E00005003A00C8
:108BA0005E089000EE08900030179800411798007A
:108BB000410037006000B800008FBE005E009000EA
:108BC0000000E90050079800DE009000410798007F
:108BD0001A0037009E007800A0002000000AB800AC
:108BE0001E0078006000B900050178000001410016
:108BF0001E0090006A00B900000141008202780066
:108C0000048FBE00CE0090005E0090008080500077
:108C10006D004700614078008000FB0000FD2F00E0
:108C200000804000CF80DE001E0F40005E974800AD
:108C30005E0090000000E900500798005E00900080
:108C40000000E000E3FF3D007E089000CF80DE00E2
:108C5000BE0F5000AE8F580012003C000E10900066
:108C60009E109000BE0F1000AE8F18000D003C004B
:108C70002E0090000000E000060032001E00BE0042
:108C800060001000E080180030179800411798002D
:108C9000090037001E00BE003017980041179800E9
:108CA00005003700B101200060FE200076E70200D9
:108CB000000000002BFF37003E109000CE10900007
:108CC0000080FA00000006000400FA00E0602A00BC
:108CD00094BE020000000000C0612A0068BE0200CD
:108CE00000000000705A2A0094BE0200000000003C
:108CF0006100200090842000ECE6020000000000EB
:108D0000702B8100BAC10200000000007100200039
:108D1000F0FD2000ECE6020000000000802B810046
:108D2000BAC102000000000010632A0068BE020001
:108D300000000000802B8100100798001E009000AA
:108D4000E10F5000040032001E009000E30F5000BD
:108D5000050032000800370010642A0068BE0200D7
:108D6000000000000700370040642A0068BE0200CF
:108D7000000000000300370070642A0068BE020093
:108D800000000000B0642A0094BE02000000000051
:108D9000E1012000F084200076E7020000000000DE
:108DA0000000EB00000F78000080FA0000000600D1
:108DB0000200FA00D0642A0068BE02000000000031
:108DC000A17F25001000200048C202000000000022
:108DD000BAC102000000000000C2B3006CC2020071
:108DE0000000000051002000C0A32000ECE60200BB
:108DF00000000000C17F25001000200048C20200D2
:108E000000000000BAC10200000000006100200064
:108E100010A42000ECE6020000000000E17F250025
:108E20001000200048C2020000000000BAC1020089
:108E300000000000705A2A0094BE020000000000EA
:108E4000C1002000D086200076E70200000000006C
:108E500099000700CBC2BF00624060000004E00040
:108E6000050032001101200000712000ECE6020034
:108E700000000000040037002101200010722000D3
:108E8000ECE6020000000000C0C2B3006CC20200A9
:108E90000000000000C2B3006CC20200000000002D
:108EA000E2C2BF00704060000004E0000500320034
:108EB00041012000D06B2000ECE602000000000021
:108EC0000400370051012000806A2000ECE6020017
:108ED00000000000C0C2B3006CC20200000000002D
:108EE00000C2B3006CC2020000000000E8C2BF0074
:108EF0000042B2000004E00003003A0040652A008E
:108F000068BE020000000000E8C2BF0070406000C0
:108F10000004E00003003A00D0652A0068BE0200A9
:108F200000000000206F22001040780070406000B8
:108F30000004E0000500320021022000908720009C
:108F400076E702000000000004003700E101200085
:108F5000B089200076E7020000000000206F2200A8
:108F600010407800684060000004E00005003A000E
:108F7000B1012000908B2000ECE602000000000010
:108F800004003700C1012000408D2000ECE6020003
:108F900000000000C0C2B3006CC20200000000006C
:108FA00000C2B3006CC2020000000000B10120004A
:108FB00000352100ECE6020000000000106E2200E7
:108FC0001040780000C1020000000000705A2A0022
:108FD00094BE020000000000206F220010407800C4
:108FE000634060000080FB00000F78001E007800E6
:108FF000E10F5000130032001E007800E10F500016
:1090000004003C001E0078000000E0000800320070
:109010001A0037001E007800E20F50000E003200E8
:109020001E007800E30F50001000320013003700DC
:10903000510120006067200076E702000000000078
:109040000E003700610120000066200076E7020074
:10905000000000000900370071012000B045210028
:1090600076E70200000000000400370071012000D4
:109070002047210076E7020000000000612B8100FC
:10908000E00220000088B9004102200080804000FA
:109090000000220000804000100078000000010065
:1090A000C1002000D086200076E70200000000000A
:1090B0000080FA00000006000000FA00A100200075
:1090C0002019210076E70200000000006105200061
:1090D000703A210076E70200000000004102200003
:1090E000D03F2100ECE6020000000000612B81006F
:1090F000E00220000088B9002102200080804000AA
:1091000000002200008040001000780000000100F4
:10911000A1002000601B2100ECE60200000000001E
:109120001000200058000700001020005600070023
:109130000002200054000700000120005200070038
:109140008000200050000700400020004E00070073
:10915000200020004C000700705A2A0094BE020034
:10916000000000004100200000232100ECE6020086
:109170000000000021E3A80020C0B30012E50200B7
:109180000000000004C202000000000011002000E6
:10919000B0372000ECE602000000000090C0B300F1
:1091A0006CC20200000000000040EB0012E502006B
:1091B0000000000004C202000000000011002000B6
:1091C000B0372000ECE602000000000090C0B300C1
:1091D0006CC202000000000050C0B30012E50200A3
:1091E0000000000004C20200000000001100200086
:1091F000B0372000ECE602000000000090C0B30091
:109200006CC202000000000010C0B30012E50200B2
:109210000000000004C20200000000001100200055
:10922000B0372000ECE602000000000090C0B30060
:109230006CC202000000000021E3A9001000200021
:1092400020000700001020001E0007000002200080
:109250001C000700000120001A0007008000200009
:109260001800070040002000160007002000200022
:1092700014000700705A2A0094BE0200000000008B
:109280000080FA00000006000200FA00000F7800DB
:10929000C01680001E0060000000E00004003200E4
:1092A00070662A0068BE020000000000030037005C
:1092B000A0662A0068BE0200000000000080FA00DC
:1092C000000006000200FA00000F7800D0168000AF
:1092D0001E0060000000E00004003200D0662A009A
:1092E00068BE0200000000000300370000672A008B
:1092F00068BE0200000000000080FA0000000600C6
:109300000200FA00E01781008000E800F00F200062
:1093100000806000E017890088FB0700A0F90700C3
:10932000000F78001E00E00006003400400020001E
:109330009E0F100003003C001E00E900502B890026
:109340000D0037000000EB00F0178900210220001B
:10935000D08F200076E70200000000008001EB00C3
:10936000420020001100200010002000B0FC070087
:109370000000E900502B890021012000F09120001D
:1093800076E70200000000000080FA0000000600FE
:109390000200FA000040EB00004F7800E017810067
:1093A0008000E800F00F200000806000E0178900D6
:1093B00062FB07007AF90700104798001E409000F2
:1093C0000004E000090032001E409000EA4F500007
:1093D00006003E001E4090000040E90080407800FA
:1093E00080562200014878000F0037000000EB0093
:1093F000F0178900E10B2000C095200076E70200FD
:10940000000000008001EB00A200200011002000FD
:109410009000200086FC07000040E90080407800B2
:1094200080562200014878008056220010407800C3
:10943000E94F500010003A0040FB070058F90700C0
:10944000004F78001E04E0000B003A000000EB0023
:10945000F017890030672A0094BE02000000000067
:109460008001EB00F2FF27008000EB0020022000CB
:109470006FFC0700004F780041012000A0A12000F0
:1094800076E702000000000011012000F033210007
:1094900076E70200000000008056220010407800AD
:1094A000E94F500003003A001E4078004AC3020012
:1094B0000000000044C3020000000000000037006C
:1094C000ECC20200000000000004E000FCFF3200DB
:1094D000F8C20200000000008040780000C2B30023
:1094E00080CF500001003200F5FF37000080FA0005
:1094F000000006000400FA00602B81000000E0007C
:1095000007003A00D1012000B068200076E7020091
:109510000000000010002000F017890075003700DF
:10952000206F220010407800704060000004E000CE
:1095300007003A0021022000D0FB200076E702005D
:109540000000000010002000F017890069003700BB
:10955000E8A2A800E882A8002000200042E602005D
:109560000000000021E3A80050C0B30012E5020093
:10957000000000008000780000102000808F500064
:1095800003003600B0682A0094BE0200000000000C
:1095900021E3A900E01781008000E800F00F20001F
:1095A00000806000E0178900E4FA0700FCF807007B
:1095B000000F7800F01781000000E0000C0032007E
:1095C0000000EB00F017890071052000504A2100CF
:1095D00076E70200000000008001EB00320020006E
:1095E000110020001000200011FC0700000F78007F
:1095F0001E007800100798001E009000E20F500037
:10960000120032001E009000E30F50001F003200D5
:109610001E009000E10F5000010032002B003700C7
:10962000E8A2A800E882A80091012000C04F210014
:10963000ECE602000000000081002000C051210083
:1096400076E70200000000002A003700E8A2A80028
:10965000EA82A900E882A9004100200000C620009B
:10966000ECE602000000000091012000C04F210044
:10967000ECE60200000000007100200050512100C3
:1096800076E70200000000001A003700E882A80018
:10969000EAA2A900E8A2A90021002000B0C520008C
:1096A000ECE602000000000091012000C04F210004
:1096B000ECE6020000000000710020005051210083
:1096C00076E70200000000000A003700E8A2A800C8
:1096D000E882A80091012000C04F2100ECE60200C2
:1096E0000000000081002000C051210076E7020048
:1096F000000000000080FA00000006000000FA00F0
:1097000001C38000808621000080400090407800E6
