:020000040000FA
:100000000002040000000000CE840000CE84000046
:10001000CE840000CE840000CE840000CE84000098
:10002000CE840000CE840000CE840000CE84000088
:10003000CE840000CE840000CE840000CE84000078
:10004000CE840000CE840000CE840000CE84000068
:10005000CE8400004A5A0000705A0000CE8400008E
:10006000CE840000CE840000CE840000CE84000048
:10007000CE840000CE840000CE840000CE84000038
:10008000CE840000CE840000CE840000CE84000028
:10009000CE840000CE840000CE840000CE84000018
:1000A000CE840000CE840000CE840000CE84000008
:1000B000CE840000CE840000CE840000CE840000F8
:1000C000CE840000CE840000CE840000CE840000E8
:1000D000CE840000CE840000CE840000CE840000D8
:1000E000CE840000CE840000CE840000CE840000C8
:1000F000CE840000CE840000CE840000CE840000B8
:10010000CE840000CE840000CE840000CE840000A7
:10011000CE840000CE840000CE840000CE84000097
:10012000CE840000CE840000CE840000CE84000087
:10013000CE840000CE840000CE840000CE84000077
:10014000CE840000CE840000CE840000CE84000067
:10015000CE840000CE840000CE840000CE84000057
:10016000CE840000CE840000CE840000CE84000047
:10017000CE840000CE840000CE840000CE84000037
:10018000CE840000CE840000CE840000CE84000027
:10019000CE840000CE840000CE840000CE84000017
:1001A000CE840000CE840000CE840000CE84000007
:1001B000CE840000CE840000CE840000CE840000F7
:1001C000CE840000CE840000CE840000CE840000E7
:1001D000CE840000CE840000CE840000CE840000D7
:1001E000CE840000CE840000CE840000CE840000C7
:1001F000CE840000CE840000CE840000CE840000B7
:10020000FFFFFF00FFFFFF00CE840000CE84000050
:10021000CE840000CE840000CE840000CE84000096
:10022000CE840000CE840000CE840000CE84000086
:10023000CE840000CE840000CE840000CE84000076
:10024000CE840000CE840000CE840000CE84000066
:10025000CE8400004A5A0000705A0000CE8400008C
:10026000CE840000CE840000CE840000CE84000046
:10027000CE840000CE840000CE840000CE84000036
:10028000CE840000CE840000CE840000CE84000026
:10029000CE840000CE840000CE840000CE84000016
:1002A000CE840000CE840000CE840000CE84000006
:1002B000CE840000CE840000CE840000CE840000F6
:1002C000CE840000CE840000CE840000CE840000E6
:1002D000CE840000CE840000CE840000CE840000D6
:1002E000CE840000CE840000CE840000CE840000C6
:1002F000CE840000CE840000CE840000CE840000B6
:10030000CE840000CE840000CE840000CE840000A5
:10031000CE840000CE840000CE840000CE84000095
:10032000CE840000CE840000CE840000CE84000085
:10033000CE840000CE840000CE840000CE84000075
:10034000CE840000CE840000CE840000CE84000065
:10035000CE840000CE840000CE840000CE84000055
:10036000CE840000CE840000CE840000CE84000045
:10037000CE840000CE840000CE840000CE84000035
:10038000CE840000CE840000CE840000CE84000025
:10039000CE840000CE840000CE840000CE84000015
:1003A000CE840000CE840000CE840000CE84000005
:1003B000CE840000CE840000CE840000CE840000F5
:1003C000CE840000CE840000CE840000CE840000E5
:1003D000CE840000CE840000CE840000CE840000D5
:1003E000CE840000CE840000CE840000CE840000C5
:1003F000CE840000CE840000CE840000CE840000B5
:100400006F032200007F220000018800000000002E
:100410000C000700E0E827000100200011000700A1
:10042000000020000000E000020032000000020096
:100430000000000016840200000000000040DA0006
:100440000000FE004440A900201F20000000E00042
:100450000300320000002000A00188004440A800F2
:100460000000060091018800800078000000EB0089
:1004700015003700E280400032A0B4009101BA00BC
:10048000E280400032A0B4009102BA00E280400055
:1004900032A0B4000002EB00472BDE00F507B200EB
:1004A000602CE10004003A000059EB008301E900F0
:1004B000FDFF3E00040037006128E100010032002A
:1004C0000082EB00040007001101BA000200E00006
:1004D000E8FF3A00000006003159BA008301E90044
:1004E0000C0032002159BA008301E90008003200F3
:1004F0000400E00003003A00E280400032A0B400B3
:10050000F5FF370011D9BA008301E900FAFF3A007C
:100510008100E800E180400032A0B4000000060045
:1005200000000000000000000000000000000000CB
:1005300000000000000000000000000000000000BB
:1005400000000000000000000000000000000000AB
:10055000000000000000000000000000000000009B
:10056000000000000000000000000000000000008B
:10057000000000000000000000000000000000007B
:10058000000000000000000000000000000000006B
:10059000000000000000000000000000000000005B
:1005A000000000000000000000000000000000004B
:1005B000000000000000000000000000000000003B
:1005C000000000000000000000000000000000002B
:1005D000000000000000000000000000000000001B
:1005E000000000000000000000000000000000000B
:1005F00000000000000000000000000000000000FB
:1006000000000000000000000000000000000000EA
:1006100000000000000000000000000000000000DA
:1006200000000000000000000000000000000000CA
:1006300000000000000000000000000000000000BA
:1006400000000000000000000000000000000000AA
:10065000000000000000000000000000000000009A
:10066000000000000000000000000000000000008A
:10067000000000000000000000000000000000007A
:10068000000000000000000000000000000000006A
:10069000000000000000000000000000000000005A
:1006A000000000000000000000000000000000004A
:1006B000000000000000000000000000000000003A
:1006C0000000000000000000889FBE008A9FBE005E
:1006D000010578000100E0000400350008003C003E
:1006E0000000E0002000320005003700600010002C
:1006F000E080180002003B0001F02C001A003700D7
:100700000004BE006011B8006B0920000982CF0010
:10071000020039000882CF000441B0006942520053
:100720000E00320008003B0082817100610164000C
:100730008904D1000884D3008B05E8000442E80056
:10074000F9FF3A00050037000804440089844C0092
:100750008B05E9000442E900FBFF3A002C01070089
:100760000AF0A70001F0A0004F05BE004F04BE0034
:1007700000000600F4FF2F004B013700140020009A
:1007800049013700889FBE008A9FBE008C1F7800F9
:10079000600107006701330003866C006450E100CC
:1007A0002E0032006420E100330032006150E1008D
:1007B0002F0032006120E1003100320085855500B4
:1007C000EB07B000090020000804200005003700F6
:1007D0000804440089844C000A00310006034300E9
:1007E00087834B000001530081815B00F8FF3300D9
:1007F0000203BE000800A0000804440089844C00E5
:10080000F6FF3900C639DD008301730001003200B4
:10081000130020008904D1000884D3000998A300A4
:10082000050032000800A7000300A0008904D100E1
:100830000884D3008B05E8008904D1000884D30024
:100840000001EB000281D200F100070001F0A100DD
:100850000CF0A70001F0A0003F0137006420E10088
:10086000410132000801BE000200BE00F7FF370060
:100870006120E1003C0132006000B800F3FF370066
:100880000000200001F82700F0FF370003F0A2006D
:10089000889FBE008A9FBE008C1F78001D01070044
:1008A000240133006450E1004F0032006420E10075
:1008B0005200320003826C0007003B000905D000A3
:1008C0000306D000820F54000C065D0002003900C0
:1008D0000200320089017800030678008582550005
:1008E00004003D000003FD008103FD008502EA00D5
:1008F0008B854200840F720002003B0060001000F4
:10090000E08018006011B8000005EB007A28E100D3
:100910000A00390006007800C75DDD00F707B20065
:10092000878075002D003700828171000A017800F0
:10093000610560008180D1000080D3008502E9005C
:10094000F9FF3B00060440008784480002003B009A
:1009500060041400E0841C000988A3000700320032
:100960008A81710082817100610164008904D10073
:100970000884D3008B05E800170037000978A3002E
:1009800013003A000B00E000130034008B05E9006F
:100990000804440089844C000A4474000978A300C8
:1009A0000D003A000B00E000070034008B05E90061
:1009B0000804440089844C0001003A000B00200028
:1009C0000978A300F7FF32000001EB0002003700B6
:1009D000828171000A0178008D0007000CF0A700E9
:1009E00001F0A000DC0037006420E10002003A00C2
:1009F000838F6C00DC0033000801BE000200BE00E3
:100A0000D5003700889FBE008A9FBE008C1F7800EB
:100A1000C0000700C700330003866C006450E1008B
:100A2000240032006420E100270032006150E10020
:100A3000220032006120E100210032008B8542005B
:100A4000EB07B1000134B800003AB80008044200D6
:100A500089844A00013AB8000030B800888040001C
:100A600009014A0004003300000040008180480072
:100A7000020149008B05E900C909DD00830170000E
:100A80000100320013002000C814DE004814DD000D
:100A90004709DE001200B200C808DE0008847000BA
:100AA0005B00070001F0A1000CF0A70001F0A0001E
:100AB000A90037006120E100AB0032000801BE0050
:100AC0000200BE00F7FF37006150E100FCFF3A0072
:100AD000A50037000001BE00A60007000470A700B3
:100AE00003F0A10003F8A30013003A006509B10068
:100AF00010003200090035006928E10002003500CD
:100B0000010028000000050000004000818048002E
:100B10008502E900FCFF3A0000000600F88F420061
:100B2000050035008100D1000080D3008502E80077
:100B3000FCFF3A00000006008000EB00000005000A
:100B40006022B800060220000000D0008180D200A0
:100B50000482D2008582D2000000A000020252006E
:100B600083825A00030031000202420083824A005D
:100B70000000A1000603E900F3FF3A0000000600B0
:100B8000EFFF07000400BE00000006000001BE00E9
:100B9000780007000470A70003F0A1006509B10008
:100BA000160032000D0035006828E100060035000F
:100BB000F0FF2F00F1FF27000300E00013003B00CF
:100BC000010028000000050000004000818048006E
:100BD0008502E900FCFF3A0008003700F88F420068
:100BE00002003C008000EB00000005008100D10005
:100BF0000080D3008502E800FCFF3A000300E0001B
:100C000002003B0060001000E080180000000600B9
:100C100081002000618055000B003D000B0020008A
:100C200061FE2F000100E1001D003400828171008F
:100C3000610164008904D1000884D3000000E80049
:100C4000FAFF3A00710020006100640003007000A8
:100C5000020060000900320061044400E0844C009E
:100C60000988A500050032008B05E8006808E1004E
:100C700002003A008904D1000884D300F20F20005A
:100C80000258E10005003D00C75DDD00F907B20034
:100C90008980750008007800000006000BF8270026
:100CA0008B00780000000500889FBE008A9FBE0070
:100CB000841F7800170007004F00780011003300F0
:100CC000F0FF2F00838F6C0006003B0004056500D9
:100CD0000A00A7000800370009F0A6001000200055
:100CE00008003700820F5400838F5C000300390036
:100CF0001000200001003E000000200009F0A700C5
:100D00000000EA004F05BE004F04BE000000E000F6
:100D1000000006000004BE00160007000003BE002D
:100D20000405BE000200BE0012000700844F7500DB
:100D3000000006000200BE006450E100050036001D
:100D40006420E100020036000968A30001003A00B7
:100D50000800BE000160A0004F0678004F05BE00ED
:100D60004F04BE0000000600F0FF2F00F1FF270037
:100D7000F9FF3700C70ADE00F107B200F50FB20035
:100D800008003200E1CF4200020032000170A000F2
:100D900024000500810F70000100320004080500E6
:100DA00044000500810F700002003A0014000500A5
:100DB0008502E9000000400081C04800FCFF3B00C4
:100DC0000170A000240005004C4500005400000004
:100DD0004946000000540000484500004E00000055
:100DE000454C000053450000004700004F540000F0
:100DF0004F000000474F0000535500004200000024
:100E00005245000054550000524E000000520000B0
:100E1000454D000000500000524900004E540000B3
:100E2000004900004E5000005554000000460000EC
:100E30004F520000005400004F0000004E450000DB
:100E400058540000005200004541000044000000DA
:100E50004441000054410000005300005441000090
:100E60005254000052000000535400004152000050
:100E700054000000535400004F5000005200000086
:100E8000535400004F50000000530000454E000036
:100E90004400000052450000434500004956000050
:100EA00045000000434C00004B000000444100009E
:100EB0005400000042490000545200004541000027
:100EC0004400000041440000430000004155000080
:100ED00058500000494E00000050000053550000DB
:100EE00000500000554C00004C5500005000000020
:100EF000444500004C4100005900000041550000ED
:100F00005800000046520000455100000044000017
:100F100055540000590000004D41000043520000AC
:100F20004F000000454E0000440000000052000049
:100F3000554E0000004C00004953000054000000D2
:100F4000455800004954000000440000454200009C
:100F500055470000004E000045570000000000000B
:100F60003E2000000008000020080000001B0000D8
:100F70005B440000001B00005B0000004400000018
:100F80001B5B0000430000001B5B0000324B0000B5
:100F90000D00000043000000001B00005B32000059
:100FA00044000000203D00002000000056520000D8
:100FB00045470000207400006F6F0000206C0000A7
:100FC0006F7700002C20000069730000207400007F
:100FD0006865000072650000206100002073000059
:100FE000686F0000727400003F0000002E200000B7
:100FF0003C0000003E0000002E200000000D00001C
:101000000A280000002900003E20000000420000E5
:1010100075730000205000006972000061740000C8
:101020006520000076310000610000004669000084
:10103000726D00007761000072650000207600008C
:10104000352E0000392D0000657800007472000014
:101050006173000020280000723500003339000061
:101060002920000000200000283200003446000043
:101070004A360000344700004130000030320000A2
:101080002000000041330000004200003400000056
:10109000423500000042000038000000554E0000BC
:1010A0004B0000002900000049090000004F00002B
:1010B0000900000048090000004C00000900000081
:1010C000456E00007465000072200000726100002F
:1010D00077200000766100006C750000652000003C
:1010E000666F0000722000004252000047000000BE
:1010F0003062000000300000303000002C000000A2
:101100003030000000300000313200003334000085
:1011100035360000373800003941000042430000F6
:10112000444500004630000078000000002900001F
:10113000002000005700000020520000004900007D
:1011400032430000310000000808000008080000D9
:101150000800000000000000204800007A000000A5
:101160000000000042420000494F00003100000032
:1011700052410000573100000000000031410000E2
:101180004C530000000000004F43000044310000B9
:101190000000000000000000000000002900000026
:1011A0000000000000000000000000002800FA001D
:1011B0000000EB00600F98000000EB0080578800F3
:1011C0000000EB00705788007057800020079800DF
:1011D0000000EB00100798000000EB00000F780003
:1011E0000000EB00A04088000000EB009057880052
:1011F0000000EB00400798000000EB00000F980093
:10120000140037000000EB00600798000B00370067
:101210000E089000EE0090004500DD0081004000C7
:1012200040AF2000808040000040EB008048780004
:101230006E0090000000E800600798006E009000CB
:10124000FF0F5000F2FF34000E0890000000E8008D
:10125000000F98000E089000E40F5000E9FF3400E2
:101260000000EB00A05C8800A1408000E0022000AC
:101270000088B900610220008080400000832000C7
:10128000008040009655020000000000D140800020
:1012900000202000008060000000E0000400320018
:1012A00071002000C05920002880020000000000CA
:1012B000007B280096550200000000003204370031
:1012C000A05C80000000E00063003200A05C8000B1
:1012D0000000E900A05C88000000EB0060079800B7
:1012E0001E00370072578000A05C8000EE00900066
:1012F0004500DD008100400040AF2000008040003C
:1013000090407800E09E20000000410001487800F5
:10131000A05C8000EE0090004500DD0081004000F0
:1013200040AF20000080400010407800F2590200D9
:1013300000000000705780000000E800705788002F
:101340006E0090000000E800600798007157800070
:10135000F00F20000080600070578800A05C8000C3
:10136000EE0090004500DD008100400040AF20000D
:1013700000804000104078000004E000D9FF3A00EF
:101380000000EB00A05C880033003700A09C200028
:1013900010407800644060000004E0002E0032003D
:1013A000A1408000E00220000088B900FA0040005F
:1013B0000083200000804000100078000000010041
:1013C0000000E00024003200A1408000E002200084
:1013D0000088B90061022000808040000083200066
:1013E000008040009655020000000000007B2800AD
:1013F0009655020000000000815780007057800061
:10140000808F5000140032008057800060079800E1
:101410000D003700EE009000E09E200000804000AC
:1014200010407800F259020000000000EE00900029
:10143000F00F200000806000600798006E009000B0
:101440000000E80060079800EE00900070578000F0
:10145000808F5000EFFF3A00D459020000000000D6
:101460000004E000C9FF320022C2BF0062406000F9
:101470000004E0000500320010118000D1FF2F00B1
:101480000100600010118800BF033700E05902001E
:1014900000000000604F98006E4890000080FB0044
:1014A0006101B9000217980013179800F007200097
:1014B000010020000E1190009E119000800F51003D
:1014C000818F59003C033E000E1090009E1090004A
:1014D000006001002D033700E20237003E013700B3
:1014E00035033700D8003700F902370053013700C1
:1014F00031033700770037002F0337000F03370021
:101500002D0337002C0337000C033700FE01370092
:10151000290337005A013700270337002603370015
:101520002503370024033700230337002203370045
:1015300021033700200337001F0337001E03370045
:10154000020137001C0337001B0337001A03370062
:101550001903370018033700170337001603370045
:101560001503370014033700130337001203370045
:1015700011033700100337000F0337000E03370045
:101580000D0337000C0337000B0337000A03370045
:101590000903370008033700070337000603370045
:1015A0000503370004033700030337000203370045
:1015B0000103370000033700FF023700FE02370047
:1015C000FD023700FC023700FB023700FA02370049
:1015D000F9023700F8023700F7023700F602370049
:1015E000F5023700F4023700F3023700F202370049
:1015F000F1023700F0023700EF023700EE02370049
:10160000ED023700EC023700EB023700EA02370048
:10161000E9023700E8023700E7023700E602370048
:10162000E5023700E4023700E3023700E202370048
:10163000E1023700E0023700DF023700DE02370048
:10164000DD023700DC023700DB023700DA02370048
:10165000D9023700D8023700D7023700D602370048
:10166000D5023700D4023700D3023700D202370048
:10167000D1023700D0023700CF023700CE02370048
:10168000CD023700CC023700CB023700CA02370048
:10169000C9023700C8023700C7023700C602370048
:1016A000C5023700C4023700C3023700C202370048
:1016B000C1023700C0023700BF023700BE02370048
:1016C000BD023700BC023700BB023700BA02370048
:1016D0005D003700815780002E009000810F500080
:1016E00055003200715780002E009000810F50008D
:1016F00010003A00705780008000E900F00F2000D1
:10170000008060007057880071578000E09E2000C4
:10171000808040000040EB008048780071578000D6
:1017200021079800307B2800965502000000000039
:10173000150337000000EB00000F98002E0090000A
:101740008000E900F00F2000008060002007980072
:10175000707B280096550200000000002E019000CA
:1017600062079800210037006E0190006E00900023
:101770008000E800E09E200000804000904078005B
:10178000E09E20000000410001487800EE0090003B
:10179000E09E200000804000104078000004E0003F
:1017A00007003200EE009000E09E20000080400024
:1017B00010407800F25902000000000003003700DA
:1017C00000C2B300F2590200000000000E089000B1
:1017D0000000E800000F98006E0090008000E80014
:1017E000F00F20000080600060079800EE0090007D
:1017F00070578000808F5000DBFF3A0070578000E8
:101800008000E900F00F2000008060007057880021
:10181000B07B280096550200000000000E089000E2
:101820002E58020000000000E07B280096550200C0
:1018300000000000D402370070C0B300F25902006B
:1018400000000000D0023700715780002E00900089
:10185000810F5000390032000000EB00000F9800AB
:10186000AE01900063079800210037006E019000E0
:101870006E0090008000E800E09E200000804000A4
:1018800090407800E09E2000000041000148780070
:10189000EE009000E09E20000080400010407800A4
:1018A0000004E00007003200EE009000E09E2000FF
:1018B0000080400010407800F25902000000000053
:1018C0000300370000C2B300F2590200000000001C
:1018D0000E0890000000E800000F98006E009000D5
:1018E0008000E800F00F2000008060006007980092
:1018F000EE00900070578000808F5000DBFF3A00B0
:10190000705780008000E900F00F20000080600028
:1019100070578800B07B2800965502000000000038
:101920000E0890002E58020000000000E07B280006
:1019300096550200000000009302370070C0B3000B
:10194000F2590200000000008F023700E059020047
:1019500000000000604F9800EE489000B0C5B30052
:1019600080CF500088023A00E059020000000000D9
:10197000604F98006E4890000080FB00700F980048
:1019800020042000FE089000808F5000DE0032000E
:10199000200420007E099000800F510005003C00CB
:1019A00010042000FE099000808F510034003200A6
:1019B0007502370030042000FE089000808F500030
:1019C0001E003200400420007E099000800F51006C
:1019D000010032006C0237004E009000E40F50000E
:1019E0000500340028730200000000000000EB0036
:1019F0004007980064023700815780002E00900055
:101A0000810F5000090032002E0090008000E90094
:101A1000F00F20000080600020079800707B2800F5
:101A200096550200000000005702370070C0B30056
:101A3000F259020000000000530237007157800085
:101A40002E009000810F5000090032002E009000FF
:101A50008000E800F00F2000008060002007980060
:101A6000007C280096550200000000004602370066
:101A700070C0B300F25902000000000042023700BB
:101A80000000EB00000F7800805780000000E900A4
:101A900080007800F00F2000008060006007980050
:101AA0008D003700EE009000E09E20000080400096
:101AB000104078000004E00082003A006E009000C0
:101AC0008000E900F00F200080806000E09E200090
:101AD00000804000104078000004E00079003200EF
:101AE0001E0FE8001E0090009E0F100075003600CB
:101AF0001E0090000000E800100798008157800049
:101B000070578000808F5000140032000A003700A8
:101B100071578000E09E2000808040000040EB0074
:101B200080487800705780008000E900F00F2000A6
:101B300000806000705788007157800080578000D7
:101B4000808F5000F2FF3A0071578000E09E200025
:101B5000808040000040EB00804878006E009000DC
:101B60008000E900F00F200000806000000F980066
:101B7000110037008E089000E09E20000080400099
:101B8000104078000004E00006003A000E089000C3
:101B90008000E800F00F20000080600050079800EF
:101BA000090037000E0890008000E900F00F2000C7
:101BB00000806000000F98008E0890007057800031
:101BC000808F5000EBFF3A00407C280096550200C1
:101BD00000000000A1408000E00220000088B90061
:101BE00061022000808040000083200000804000CF
:101BF0009655020000000000D14080000020200027
:101C0000008060000000E00004003200710020004D
:101C1000C05920002880020000000000007B28003E
:101C20009655020000000000DE019000030F9800AE
:101C3000180037008E089000E09E200000804000D1
:101C400010407800F2590200000000007257800036
:101C50008E089000E09E20000080400090407800B8
:101C6000E09E20000000410001487800705780008D
:101C70008000E800F00F20000080600070578800AE
:101C80000E0890008000E800F00F20000080600047
:101C9000000F98008E0890006E009000808F50001A
:101CA000E4FF3A0071578000E09E200080804000F1
:101CB0000040EB00804878007057800020079800B3
:101CC000090037006E0090008000E900F00F20004E
:101CD0000080600060079800EE0090007057800060
:101CE000808F50006FFF3A00EE0090007057800028
:101CF000808F5000A4013A0070C0B300F259020076
:101D000000000000A00137000000EB00000F780089
:101D1000805780000000E90080007800F00F20006C
:101D200000806000600798008E003700EE00900091
:101D3000E09E200000804000104078000004E00099
:101D400083003A006E0090008000E900F00F200050
:101D500080806000E09E20000080400010407800FD
:101D60000004E0007A0032001E0FE8001E00900020
:101D70000000E9009E0F500075003A001E00900020
:101D80000000E9001007980081578000705780001C
:101D9000808F5000140032000A0037007157800015
:101DA000E09E2000808040000040EB0080487800EA
:101DB000705780008000E900F00F20000080600074
:101DC000705788007157800080578000808F5000C6
:101DD000F2FF3A0071578000E09E200080804000B2
:101DE0000040EB00804878006E0090008000E90021
:101DF000F00F200000806000000F980011003700F5
:101E00008E089000E09E2000008040001040780086
:101E10000004E00006003A000E0890008000E80090
:101E2000F00F200000806000500798000900370084
:101E30000E0890008000E900F00F20000080600094
:101E4000000F98008E08900070578000808F50001F
:101E5000EBFF3A00407C280096550200000000008D
:101E6000A1408000E00220000088B900610220004B
:101E700080804000008320000080400096550200D2
:101E800000000000D14080000020200000806000A1
:101E90000000E0000400320071002000C059200062
:101EA0002880020000000000007B280096550200F8
:101EB00000000000DE009000010F980018003700BD
:101EC0008E089000E09E20000080400010407800C6
:101ED000F259020000000000725780008E08900046
:101EE000E09E20000080400090407800E09E2000AE
:101EF0000000410001487800705780008000E80031
:101F0000F00F200000806000705788000E089000DD
:101F10008000E800F00F200000806000000F9800B3
:101F20008E0890006E009000808F5000E4FF3A0011
:101F300071578000E09E2000808040000040EB0050
:101F40008048780072578000220798000900370007
:101F50006E0090008000E900F00F2000008060001B
:101F600060079800EE00900070578000808F50004E
:101F70006EFF3A00EE00900070578000808F500096
:101F800001013A001E009000E10F500031003A00BC
:101F9000407C28009655020000000000A14080000F
:101FA000E00220000088B90061022000808040002B
:101FB00000832000008040009655020000000000D1
:101FC000D140800000202000008060000000E00080
:101FD0000400320071002000C05920002880020057
:101FE00000000000007B2800965502000000000061
:101FF0000A00370071578000E09E2000808040007A
:102000000040EB0080487800705780008000E900B5
:10201000F00F20000080600070578800715780002A
:1020200080578000808F5000F2FF3A007157800087
:10203000E09E2000808040000040EB008048780057
:1020400073578000230798000000EB0010079800EA
:10205000CD00370070C0B300F2590200000000004C
:10206000C9003700815780002E009000810F50007A
:1020700013003200815780002E00900001005000B4
:1020800080007800F00F200000806000000F9800B2
:10209000B07B280096550200000000000E0890005A
:1020A0002E58020000000000E07B28009655020038
:1020B000000000008057800020079800B200370021
:1020C00070C0B300F259020000000000AE003700FB
:1020D000715780002E009000810F500013003200D5
:1020E000715780002E009000008050008000780022
:1020F000F00F200000806000000F9800B07B2800E7
:1021000096550200000000000E0890002E580200B4
:1021100000000000A07C280096550200000000008E
:1021200071578000210798009700370070C0B300F6
:10213000F259020000000000930037001000200058
:10214000600F98000000EB001007980071578000A6
:10215000E09E2000808040000040EB008048780036
:10216000705780008000E800F00F200000806000C1
:10217000705788007257800022079800C07C2800A2
:10218000C2550200000000007F0037004E009000A2
:102190000000E800400798004E009000F40F500047
:1021A00079003A0052600200000000000000EB00DD
:1021B0004007980074003700705780008000E800E6
:1021C000F00F20008080600080578000808F5000DA
:1021D0006A0032006E489000FF4F500067003600E2
:1021E000EE489000E0C7B30080CF500063003E008F
:1021F000715780002E009000808F500015003A002B
:102200006E489000F25902000000000071578000F3
:102210006E499000E09E2000008040000248780057
:10222000705780008000E800F00F20000080600000
:102230007057880071578000E09E20008080400029
:102240000040EB0080487800735780002307980017
:102250004D003700715780002E0090000080500024
:1022600080007800F00F200000806000000F9800D0
:10227000B07B280096550200000000000E08900078
:102280002E58020000000000A07C28009655020095
:102290000000000070578000600798001D003700A4
:1022A0006E0090000001E800EE009000E09E20002B
:1022B0000080400090407800E09E20000000410037
:1022C00001487800EE009000E09E20000080400071
:1022D000104078000004E00009003200EE00900099
:1022E000E09E20000080400010407800F25902007B
:1022F00000000000D07C280096550200000000007D
:102300006E0090008000E900F00F20000080600067
:10231000600798006E0190002E0090008000E90098
:10232000F00F200000806000800F5100DCFF3A00B9
:102330006E489000F259020000000000AE009000CC
:102340006E499000E09E2000008040000248780026
:102350002E0090008000E800F00F20000080600058
:1023600020079800705780008000E800F00F2000E0
:1023700000806000705788000300370070C0B30011
:10238000F2590200000000006E0890000000E0001A
:10239000CBFB320070578000400F980080578000C0
:1023A000300F98000000EB00600F98000000EB0079
:1023B000500F98000000EB0090578800D14080003B
:1023C00000202000008060000000E000D004320007
:1023D000863402000000000051002000305A200026
:1023E000B28002000000000010002000500F980092
:1023F000C704370081578000E09E20000080400025
:1024000010407800604F98006E4890000080FB00FC
:102410006101B9002217980033179800D0072000F7
:10242000010020002E119000BE119000800F51007D
:10243000818F59008A043E002E109000BE1090003B
:1024400000600100880437008504370084043700E9
:10245000830437008204370081043700800437008A
:102460007F0437007E0437007D0437007E04370088
:102470007B0437007A0437007B0437007804370088
:10248000770437007604370075043700740437008A
:10249000730437007204370071043700700437008A
:1024A0006F0437006E0437006D0437006C0437008A
:1024B0006B0437006A04370069043700680437008A
:1024C0006704370068043700450437008502370089
:1024D000E4003700ED0037009C0137008A01370027
:1024E0005F0437005E0237005D0437005C0437008C
:1024F0005D0437005C043700F10337000A0437003D
:10250000D5033700FE023700FD023700FC0237001A
:10251000FB023700FA023700F9023700F8023700F1
:10252000F7023700F6023700F50237004C04370097
:102530004B043700A50137008F00370048043700EF
:102540003E003700FF003700F10037004404370039
:102550006400370069013700410437004004370048
:102560003F0437003E0437003D0437003C04370089
:102570003B04370066003700390437003804370061
:102580003704370036043700350437003404370089
:10259000830137003204370031043700300437003C
:1025A000FE0037002E0437002D0437002C043700BE
:1025B000AF023700B5033700BF023700E903370029
:1025C000CC03370026043700C4003700260037004C
:1025D000390037003B01370021043700280037005D
:1025E0002A0037001E043700170037001C0437008C
:1025F0001B04370053003700190037001804370058
:102600001B00370016043700150437003803370065
:102610005F0137001204370011043700160037003D
:10262000140137000E0437000D0437000C04370086
:10263000980237006B003700A8023700C8800200FC
:10264000000000000804370077070700A040800062
:102650000000E00004043200F00707000204370025
:102660002C0607000004370014090700FE0337009A
:10267000EE080700FC03370062080700FA03370082
:10268000AA5D020000000000F7033700A0408000B0
:102690000000E00005003A00D1012000305D20007C
:1026A000B280020000000000EF033700125C02005D
:1026B00000000000EC033700A09C200010407800D0
:1026C0000000A1000010A100A19C2000804878001B
:1026D00061012000805A2000B2800200000000004A
:1026E000E1033700A09C2000104078000000A0000B
:1026F0000010A100A19C200080487800510120001A
:10270000E05B2000B280020000000000D60337002A
:10271000A09C2000104078000030A000A19C200068
:1027200080487800C1012000B07E2000288002008F
:1027300000000000C07C2800C2550200000000001C
:10274000C9033700A09C2000104078000030A10091
:10275000A19C200080487800B1012000007D20006D
:102760002880020000000000C07C2800C255020042
:1027700000000000BC033700805780008000E800A4
:10278000F00F20000080600080578800D10507000E
:10279000E9030700600798006E009000905802005F
:1027A00000000000207D2800965502000000000077
:1027B0006E0090002E58020000000000207D2800CE
:1027C00096550200000000006E009000F6550200D1
:1027D00000000000C07C2800C2550200000000007C
:1027E000A1033700805780008000E800F00F200030
:1027F0000080600080578800B6050700CE03070000
:10280000600798006E0090000080FB00467E02008A
:1028100000000000600798006E00900090580200D1
:1028200000000000207D28009655020000000000F6
:102830006E0090002E58020000000000207D28004D
:1028400096550200000000006E009000F655020050
:1028500000000000C07C2800C255020000000000FB
:10286000810337005100200030632000B280020055
:102870000000000023C2BF00614060000004E000CF
:10288000FCFF32000000FE00770337005881020091
:10289000000000000000E00073033200A1002000EF
:1028A00080632000B280020000000000400620008B
:1028B000E47D020000000000367C02000000000001
:1028C00023C2BF00614060000004E000FCFF320052
:1028D00081BF2A0001400100630337003B05070068
:1028E0000000E800000F980002003700E85E0200D8
:1028F000000000000E0890000000E900000F9800A2
:102900000E0890000000E000F8FF3A005603370080
:102910002E0507000000E800000F980002003700B5
:10292000C65E0200000000000E0890000000E900F2
:10293000000F98000E0890000000E000F8FF3A0039
:1029400049033700210507000000E800000F980048
:102950000B00370061012000206420002880020065
:10296000000000000A5F0200000000008055020025
:1029700000000000C07C2800C255020000000000DA
:102980000E0890000000E900000F98000E0890006B
:102990000000E000EFFF3A0033033700A040800062
:1029A0000000E00005003A00D1012000305D200069
:1029B000B2800200000000002B033700C082A90093
:1029C000C282A800C8A2A900CAA2A80021E3A80048
:1029D00020002000E47D020000000000A0C0B30041
:1029E000867C02000000000080007800001B2000B0
:1029F000808F50000F00360090C0B300867C02002C
:102A00000000000080007800702B2000808F5000B4
:102A10000800360011012000806520002880020097
:102A200000000000C07C2800C25502000000000029
:102A30000E003700C082A900C282A900C8A2A90066
:102A4000CAA2A900607D2800C25502000000000053
:102A50002101200090662000288002000000000074
:102A6000C07C2800C25502000000000021E3A9003C
:102A7000FD023700A04080000000E00005003A00A1
:102A8000D1012000305D2000B28002000000000073
:102A9000F5023700C082A900C282A900C8A2A9001D
:102AA000CAA2A9002101200090662000288002000F
:102AB00000000000C07C2800C25502000000000099
:102AC000E9023700F1002000A03920002880020030
:102AD00000000000A07C02000000000011002000A7
:102AE000903A20002880020000000000C07C2800EE
:102AF000C255020000000000DB023700B27C020079
:102B000000000000D8023700B0040700000F980052
:102B10006100200070682000288002000000000092
:102B20000E089000D0570200000000002100200095
:102B3000D0682000B2800200000000000E08900063
:102B4000107E020000000000C70237009F0407004B
:102B5000000F9800610020007068200028800200AB
:102B6000000000000E089000D05702000000000096
:102B70002100200090EC2000B28002000000000044
:102B80000E089000E47D020000000000B60237004D
:102B9000D04080000090A000D0408800B2023700F2
:102BA000A04080000000E00005003A00D1012000B4
:102BB000305D2000B280020000000000AA02370051
:102BC0003E5F020000000000A70237001000200056
:102BD0009057880010002000600798001000370010
:102BE000815780006E00900080804000F00F200030
:102BF00080806000E09E20000080400090407800CF
:102C0000E0C3B30080CF500002003A000000EB00A8
:102C1000905788006E0090000000E8006007980060
:102C2000815780006E00900080804000F00F2000EF
:102C300080806000E09E200000804000104078000E
:102C40000004E000E6FF3A00EE00900020022000C1
:102C5000808F500002003400100020009057880040
:102C6000905780000000E0007F023A00805780000B
:102C70008000E800F00F200000806000805788008E
:102C8000AD0207006007980081578000F00F200018
:102C900080806000E09E200000804000904078002E
:102CA000D0C3B30080CF500040003A006E009000C7
:102CB0000000E0003A0034006E009000E50F500084
:102CC00037003C00805780008000E800F00F2000B3
:102CD00000806000805788006E0090000000E900CE
:102CE000600798000000EB00000F98000B00370011
:102CF0006E0090008E0890004500DD0081004000CD
:102D000040AF2000808040000040EB008048780009
:102D10000E0890000000E800000F98000E089000D8
:102D2000FF0F5000F2FF34000000EB00000F98008E
:102D300013003700EE0190000E0A900081578000CA
:102D4000E09E200000804000104178004518DD0022
:102D50008400400040AF200000804000024878001E
:102D60000E0890000000E800000F980080578000D7
:102D70008000E800F00F200000806000805788008D
:102D800081578000E09E2000008040009040780045
:102D9000E0C3B30080CF5000E6FF3A0032023700B4
:102DA00010002000905788002F0237006E0090001E
:102DB0000000E0001B003A000000EB00000F98004C
:102DC000140037000E0890000040E8002E58020062
:102DD00000000000607F28009655020000000000FF
:102DE0000E0890004500DD008000780040AF200014
:102DF000008040009655020000000000A07F2800DF
:102E0000C2550200000000000E0890000000E8001B
:102E1000000F98000E089000E40F5000E9FF340006
:102E2000110237006E0090000000E000090034003D
:102E30006E009000E50F500006003C00C07C2800AA
:102E4000C255020000000000EE009000A15C880066
:102E5000050237001000200090578800020237005A
:102E6000805780008000E800F00F200000806000A4
:102E70008057880030020700200F980015040700D3
:102E800081578000F00F200080806000E09E2000CD
:102E9000008040009040780090C2B30080CF500086
:102EA0000D003A00A1408000E00220000088B90037
:102EB000FC0040000083200000804000900078006B
:102EC0002E08900001000100C07C2800C2550200BD
:102ED00000000000E4013700100020009057880037
:102EE000E1013700100020009057880010002000FA
:102EF0006007980010003700815780006E00900036
:102F000080804000F00F200080806000E09E200064
:102F1000008040009040780020C2B30080CF500075
:102F200002003A000000EB00905788006E0090000D
:102F30000000E80060079800815780006E00900054
:102F400080804000F00F200080806000E09E200024
:102F500000804000104078000004E000E6FF3A00E6
:102F6000905780000000E000BF013A00710020008F
:102F7000F0682000288002000000000020C2B3009A
:102F8000F259020000000000220037008157800043
:102F9000F00F20000080600080578800815780007B
:102FA000E09E20000080400010407800F2590200AE
:102FB0000000000081578000E09E2000008040005B
:102FC000104078000000FB00200F9800A09C20001B
:102FD00010407800684060000004E0000400320007
:102FE0002E089000467E020000000000200F98008E
:102FF000A1408000E00220000088B900E800400005
:103000000083200000804000900078002E0890008F
:1030100001000100805780000000E8008057880010
:1030200081578000F00F200080806000E09E20002B
:10303000008040009040780020C2B30080CF500054
:10304000D2FF3A0080578000F10F2000010060009D
:103050008057880020C2B300F2590200000000002F
:10306000C07C2800C2550200000000007E0137002D
:10307000A1408000E00220000088B90080007800B4
:103080000083200000804000100078000000010054
:1030900075013700A1408000E00220000088B900DF
:1030A0008080E8000083200000804000100078004D
:1030B000000001006C013700A1408000E002200008
:1030C0000088B900E4004000008320000080400038
:1030D000100078000000010063013700A14080006B
:1030E000E00220000088B900E600400000832000D4
:1030F0000080400010007800000001005A013700F5
:1031000071002000F068200028800200000000000C
:1031100089010700200F9800805780000000E90017
:103120008057880081578000F00F200000806000E9
:1031300080578800250307000000E800000F980072
:1031400045030700300798003E0090000000E000B3
:103150005D0032003E00900080407800909B20008F
:10316000014878003E009000E80F5000060034004F
:10317000A09C2000104078000050A000A19C2000DE
:103180008048780050003700A09C20001040780054
:103190000050A100A19C2000804878004A00370020
:1031A0002E0890003E7D020000000000A09C200040
:1031B000104078000042B2000004E00004003A0031
:1031C000909B200010407800E84F500009003A0022
:1031D000A09C2000104078000042B2000004E000F3
:1031E0000B003200909B200010407800F04F500000
:1031F00007003200B0C3B300F25902000000000023
:10320000909B2000104078002E5802000000000023
:10321000A09C200010407800684060000004E0009E
:10322000040032002E089000467E020000000000DC
:10323000200F9800A1408000E00220000088B90023
:10324000E8004000008320000080400090007800EB
:103250002E08900001000100100F980000C2B3007A
:10326000F259020000000000A09C200010407800ED
:103270000044B2000004E0001300320061002000AE
:10328000606920002880020000000000A09C20004F
:1032900010407800684060000004E0000400320044
:1032A0001E089000467E020000000000100F9800EB
:1032B0001E0890003E7D02000000000000C2B30026
:1032C000F2590200000000000E0890000000E90022
:1032D000000F98000E0890000000E000B0FF3A00D8
:1032E000C07C2800C255020000000000DE0037004C
:1032F00061002000606920002880020000000000BA
:10330000B20207000000E800000F9800D202070098
:10331000300798003E0090000000E00044003200BA
:103320003E00900080407800909B2000014878008B
:103330003E009000E80F500006003400A09C2000E2
:10334000104078000050A000A19C20008048780028
:1033500037003700A09C2000104078000050A100EA
:10336000A19C20008048780031003700A1408000F7
:10337000E00220000088B900EA004000008320003D
:10338000008040001000780000000100100F98003D
:10339000A09C200010407800684060000004E0001D
:1033A000040032001E089000467E0200000000006B
:1033B000100F98001E0890003E7D020000000000E3
:1033C000A09C2000104078000042B2000004E00001
:1033D00004003A00909B200010407800E84F500015
:1033E00009003A00A09C2000104078000042B20082
:1033F0000004E0000B003200909B20001040780099
:10340000F04F500007003200B0C3B300F259020081
:1034100000000000909B2000104078002E58020011
:103420000000000000C2B300F259020000000000DA
:103430000E0890000000E900000F98000E089000B0
:103440000000E000C9FF3A00C07C2800C25502001D
:10345000000000008400370081002000C0692000C7
:10346000B280020000000000A1408000E0022000C5
:103470000088B900EC00400000832000008040007C
:103480001000780000000100770037008100200064
:10349000406A2000B280020000000000A1408000CD
:1034A000E00220000088B900EE0040000083200008
:1034B0000080400010007800000001006A00370022
:1034C000E1002000C06A2000B2800200000000007D
:1034D000A1408000E00220000088B900F000400018
:1034E00000832000008040001000780000000100F0
:1034F0005D003700E1002000A06B2000B2800200D8
:1035000000000000A1408000E00220000088B90017
:10351000F20040000083200000804000100078008E
:103520000000010050003700C1002000B0672000FB
:103530002880020000000000A1408000E00220007E
:103540000088B900F40040000083200000804000A3
:10355000100078000000010080550200000000000B
:103560004100370019020700000F9800D100200029
:10357000806D200028800200000000000E089000EE
:103580003E7D0200000000000E0890000000E800F0
:10359000000F980008003700A1408000E0022000E2
:1035A0000088B900F6004000008320000080400041
:1035B00010007800000001000E0890000000E900F3
:1035C000000F98000E0890000000E000F2FF3A00A3
:1035D000C07C2800C2550200000000002200370015
:1035E000FA0107000000E800000F9800A100200089
:1035F000506E200028800200000000000D003700FF
:10360000A1408000E00220000088B900F8004000DE
:1036100000832000008040001000780000000100BE
:10362000805502000000000000C2B300F259020001
:10363000000000000E0890000000E900000F980054
:103640000E0890000000E000EDFF3A0001012000AC
:10365000806C2000B28002000000000002003700F1
:103660001000200090578800805780008000E800FC
:10367000F00F200000806000805788009057800085
:103680000000E0001C00320051012000F06E20001C
:103690002880020000000000BE08900080578000D3
:1036A000808F5000070031008057800080407800F4
:1036B0003E08900000C050002E580200000000009C
:1036C0000600370080578000804078003E08900058
:1036D00000C050002E580200000000000000EB0067
:1036E0009057880010002000500F9800C07C2800E0
:1036F000C255020000000000815780007057800012
:10370000808F500002003A0010002000500F9800F7
:103710005E0890000000E00036FB32004E0890008A
:10372000805788004E089000705788000000EB001A
:10373000600F9800CCF637000600FA000000EB009E
:10374000100798000000EB00000F78008157800000
:103750001E00900080804000F00F200080806000FC
:10376000E09E2000008040009040780000C3B3003D
:1037700080CF500043003400815780001E0090002D
:1037800080804000F00F200080806000E09E2000DC
:10379000008040009040780090C3B30080CF50007C
:1037A00038003C00815780001E009000808040005F
:1037B000F00F200080806000E09E2000008040002C
:1037C000104078008000FB0000FD2F00008F4000BB
:1037D0001E0090000000E80010079800120037005B
:1037E0001E0078006A00B900000F78008157800041
:1037F0001E00900080804000F00F2000808060005C
:10380000E09E200000804000104078000000FB0097
:103810009E00400000FD2F00008F40001E00900021
:103820000000E80010079800815780001E009000FB
:1038300080804000F00F200080806000E09E20002B
:103840000080400090407800F0C2B30080CF50006C
:1038500051013400815780001E009000808040009C
:10386000F00F200080806000E09E2000008040007B
:103870009040780090C3B30080CF5000D8FF340050
:1038800045013700815780001E0090008080400075
:10389000F00F200080806000E09E2000008040004B
:1038A0009040780000C3B30080CF500035013A004B
:1038B0001E0090000000E80010079800815780006B
:1038C0001E00900080804000F00F2000808060008B
:1038D000E09E2000008040009040780020C6B300A9
:1038E00080CF50000B003200815780001E009000F6
:1038F00080804000F00F200080806000E09E20006B
:10390000008040009040780020C4B30080CF500079
:103910002D003A001E0090000000E80010079800FB
:10392000120037001E00780000004000000F7800F1
:10393000815780001E00900080804000F00F200022
:1039400080806000E09E20000080400010407800F1
:103950000000FB009E00400000FD2F00008F400093
:103960001E0090000000E8001007980081578000BA
:103970001E00900080804000F00F200080806000DA
:10398000E09E2000008040009040780010C3B3000B
:1039900080CF5000E3FF3200815780001E0090006E
:1039A00080804000F00F200080806000E09E2000BA
:1039B000008040009040780000C3B30080CF5000EA
:1039C000D8FF3200F4003700815780001E009000BD
:1039D00080804000F00F200080806000E09E20008A
:1039E000008040009040780080C7B30080CF500036
:1039F0000B003200815780001E0090008080400044
:103A0000F00F200080806000E09E200000804000D9
:103A10009040780080C5B30080CF50008E003A00FF
:103A20001E0090000000E8001007980047003700D3
:103A30001E0078004400DD00000F780081578000F0
:103A40001E00900080804000F00F20008080600009
:103A5000E09E20000080400090407800F0C2B3005B
:103A600080CF500018003400815780001E00900065
:103A700080804000F00F200080806000E09E2000E9
:103A8000008040009040780090C3B30080CF500089
:103A90000D003C00815780001E0090008080400097
:103AA000F00F200080806000E09E20000080400039
:103AB000104078000000FB009E00400000FD2F0039
:103AC000008F40001E003700815780001E009000CC
:103AD00080804000F00F200000816000815780004E
:103AE0001E00900080804000F00F20008080600069
:103AF000E09E2000008040009040780000C2B300AB
:103B000080C07000E09E2000000041000148780065
:103B1000815780001E00900080804000F00F200040
:103B200080806000E09E200000804000104078000F
:103B30000000FB009E00400090FA2F00008F400024
:103B40001E0090000000E8001007980081578000D8
:103B50001E00900080804000F00F200080806000F8
:103B6000E09E20000080400090407800F0C2B3004A
:103B700080CF50000B003400815780001E00900061
:103B800080804000F00F200080806000E09E2000D8
:103B9000008040009040780090C3B30080CF500078
:103BA000A3FF3400815780001E00900080804000F9
:103BB000F00F200080806000E09E20000080400028
:103BC0009040780000C4B30080CF50000B00340058
:103BD000815780001E00900080804000F00F200080
:103BE00080806000E09E20000080400090407800CF
:103BF00060C4B30080CF50008DFF34008157800037
:103C00001E00900080804000F00F20008080600047
:103C1000E09E2000008040009040780000C6B30085
:103C200080CF50005C003400815780001E0090005F
:103C300080804000F00F200080806000E09E200027
:103C4000008040009040780060C6B30080CF5000F4
:103C500077FF340050003700815780001E0090002D
:103C600080804000F00F200080806000E09E2000F7
:103C70000080400090407800F0C2B30080CF500038
:103C800045003400815780001E0090008080400075
:103C9000F00F200080806000E09E20000080400047
:103CA0009040780090C3B30080CF50003A003C00B1
:103CB000815780001E00900080804000F00F20009F
:103CC00080806000E09E200000804000104078006E
:103CD0008000FB0000FD2F00008F40001200370025
:103CE0001E0078006A00B900000F7800815780003C
:103CF0001E00900080804000F00F20008080600057
:103D0000E09E200000804000104078000000FB0092
:103D10009E00400000FD2F00008F40001E0090001C
:103D20000000E80010079800815780001E009000F6
:103D300080804000F00F200080806000E09E200026
:103D40000080400090407800F0C2B30080CF500067
:103D500011003400815780001E00900080804000D8
:103D6000F00F200080806000E09E20000080400076
:103D70009040780090C3B30080CF5000D8FF34004B
:103D80000500370010002000905788000000EB006D
:103D9000200798000A003700815780001E0090001D
:103DA000008040008057880081578000F00F20007D
:103DB00000806000805788001E007800200798006F
:103DC0002E0090000080FA00000006000400FA00B7
:103DD000805780008000E800F00F200080806000A5
:103DE000E09E20000080400090407800A0C3B30017
:103DF00080CF500013003A00805780000080E80018
:103E00008057880081578000F00F200000806000FC
:103E10008057880048FE0700000F78008057800018
:103E20000000E9008057880081578000F00F2000D3
:103E300000806000805788001E00780010079800FE
:103E40000200370010002000100798001E009000AC
:103E50000080FA00000006000400FA00805780008D
:103E60008000E800F00F200080806000E09E2000CD
:103E70000080400090407800B0C3B30080CF500075
:103E80000F003A00805780008080E800F00F20008B
:103E9000008060008057880027FE0700000F780030
:103EA000805780008000E900F00F20000080600053
:103EB000805788001E007800100798000200370025
:103EC0000000EB00100798001E0090000080FA0030
:103ED000000006000000FA0005003700805780004F
:103EE0008000E800F00F200000806000805788000C
:103EF00081578000E09E20000080400090407800C4
:103F000000C2B30080CF5000F4FF32000080FA00FE
:103F1000000006000400FA000000EB00000F78002B
:103F2000805780008000E800F00F200000806000D3
:103F300080578800E7FF0700FFFD0700000F7800AB
:103F40001E00E0004D003A000000EB001007980052
:103F5000130037001E0090000040E8002E580200B9
:103F600000000000C07F28009655020000000000FD
:103F70009E009000E00220000088B900610220004D
:103F8000808040000083200000804000C255020075
:103F9000000000001E0090000000E80010079800DC
:103FA0001E009000E50F5000EAFF34007101200070
:103FB00040702000B2800200000000000000EB0012
:103FC000905788001300200062002000110020009C
:103FD0001000200055000700000FE900E0FF2F004F
:103FE0009E0F1000030032000080EB009E0F1000B7
:103FF00005003A00E1002000B0712000B28002000C
:104000000000000042003700A1408000E0022000D4
:104010000088B90001022000808040000083200059
:10402000008040001000780000000100367C020093
:10403000000000001E007800A0408800A140800021
:10404000E00220000088B900FE004000008320004C
:104050000080400010007800000001001E00E00019
:1040600001003200CA82A80051002000305A20000E
:10407000B280020000000000250037001E0FE9009A
:10408000500020009E0F10001D003C00A140800049
:10409000E00220000088B90001022000808040007A
:1040A0000083200000804000100078000000010024
:1040B000367C0200000000001E007800A04088004E
:1040C000A1408000E00220000088B900FE0040000E
:1040D00000832000008040001000780000000100F4
:1040E0001E00E00001003200CA82A800510020003A
:1040F000305A2000B28002000000000004003700A7
:104100005101200090722000B280020000000000E7
:10411000705780008000E900F00F200000806000F0
:10412000805788000080FA00000006001E00FA0098
:10413000100F9800210F9800320F9800430F98003D
:104140000000EB00400798000000EB0020079800FB
:104150000000EB00100798000000EB00000F780053
:10416000F07F280096550200000000001E08900015
:104170002E580200000000003080280096550200F2
:104180000000000067003700E05902000000000056
:10419000204F98002E4890000000FB00600F980010
:1041A0006E089000ED0F500029003200EE089000DC
:1041B000ED8F500007003C006E099000E80F5100A1
:1041C0000D0032006E089000EA0F5000200032000F
:1041D00035003700D0022000EE089000808F50009C
:1041E0001E003200800720006E099000800F5100F1
:1041F000270032002C0037004E0090000000E00045
:10420000070032004E0090000000E90040079800CF
:10421000307B280096550200000000004100370066
:104220001E00E000060032000000EB00000F7800E6
:10423000307B28009655020000000000390037004E
:1042400070C0B300F25902000000000035003700D2
:104250001000200020079800320037004E00900028
:104260000000E00006003A00D0C2B300F25902009C
:104270000000000010002000000F78002900370027
:1042800070C0B300F25902000000000025003700A2
:104290004E0890000000E000030032000080EB00B8
:1042A000500F98005D003700AE489000F0C2B30098
:1042B00080CF500018003400AE48900090C3B30087
:1042C00080CF500014003C004E009000E30F5000DF
:1042D0000600340070C0B300F25902000000000074
:1042E00040002000400798000E0037002E48900044
:1042F000F259020000000000CE0090006B00470061
:104300002E499000827078004E0090000000E80076
:10431000400798000300370070C0B300F259020054
:10432000000000002E0090000000E00096FF320028
:10433000C07C2800C2550200000000004E00900022
:104340000000E00003003A001E089000500F9800A3
:10435000320037000000EB00100798004E0090007C
:104360000000E90040079800CE0090003107980057
:10437000110037001E0090006A00B9001007980075
:10438000BE0090004E009000808050006B004700FF
:10439000614078008000FB001E009000808040009B
:1043A00000FD2F0000804000100798004E00900094
:1043B0000000E900400798004E0090000000E00077
:1043C000ECFF3D009E0090002E089000808F500072
:1043D0000D0035009E0090003E089000808F500038
:1043E00009003C001E00E000040032001E009000A6
:1043F0000000EA00500F9800080037001E019000EE
:10440000520F980005003700B1012000E0EA2000BB
:10441000B28002000000000049FF37005E089000F3
:104420000080FA00000006000400FA0070802800F6
:10443000C25502000000000060812800965502006D
:1044400000000000B0C5B300F259020000000000F7
:104450000000EB00000F78000F0037001E00E000A6
:104460000300320000C2B300F25902000000000055
:104470009E007800E00220000088B9006102200060
:10448000808040000083200000804000965502009C
:10449000000000001E0FE800500020009E0F1000DA
:1044A000EEFF3600D0C5B300F25902000000000054
:1044B000D100200070802000288002000000000051
:1044C000A1BF2A000000EB004C5B020000000000CE
:1044D000000F78001E0078004800DE002E58020011
:1044E00000000000E0C2B300F2590200000000002A
:1044F0001E0078002E58020000000000C07C28003A
:10450000C25502000000000061002000007620007B
:104510002880020000000000B0408000E85802003F
:10452000000000007100200070EA200028800200D6
:1045300000000000C0408000E858020000000000B9
:10454000308328009655020000000000C140800022
:1045500011079800200423009E009000808F5000D7
:1045600016003200200423009E009000808F50002F
:1045700005003E00300023009E009000808F500018
:104580000A00320019003700300423009E0090001A
:10459000808F50000D003200600423009E009000C8
:1045A000808F50000D00320010003700208428005A
:1045B00096550200000000000F00370050842800CC
:1045C00096550200000000000B0037008084280090
:1045D000965502000000000007003700B084280054
:1045E000965502000000000003003700E084280018
:1045F000965502000000000020852800C2550200E8
:1046000000000000E101200060762000B28002007E
:10461000000000000080FA00000006000000FA0020
:10462000510020002092200028800200000000009D
:10463000C1BF2A000000EB004C5B0200000000003C
:10464000E858020000000000610020007092200085
:104650002880020000000000E1BF2A000000EB00FB
:104660004C5B020000000000E8580200000000005F
:10467000C07C2800C255020000000000C1002000DC
:1046800040782000B2800200000000005D000700BA
:10469000CAC2BF000042B2000004E00005003200C0
:1046A0001101200080652000288002000000000029
:1046B00004003700210120009066200028800200BD
:1046C00000000000C0C2B300F25902000000000068
:1046D00000C2B300F259020000000000A09C2000BC
:1046E00010407800704060000004E00005003200D7
:1046F0002102200000792000B280020000000000AA
:1047000004003700E1012000207B2000B28002007D
:1047100000000000A09C200010407800684060006D
:104720000004E00005003A00B1012000007D2000F7
:10473000288002000000000004003700C1012000B2
:10474000B07E20002880020000000000C0C2B3003C
:10475000F25902000000000000C2B300F25902004A
:1047600000000000B1012000C020210028800200CC
:1047700000000000909B2000104078002E5802009E
:1047800000000000C07C2800C255020000000000AC
:10479000A09C20001040780063406000E14F500072
:1047A00005003A0051012000E05B2000B2800200C9
:1047B000000000000400370061012000805A200042
:1047C000B280020000000000A1408000E002200052
:1047D0000088B90041022000808040000083200052
:1047E000008040001000780000000100C10020009F
:1047F00040782000B2800200000000000080FA0033
:10480000000006000000FA00A1002000A005210021
:10481000B28002000000000061042000200B210093
:10482000B280020000000000A1012000400621002B
:104830002880020000000000A1408000E00220006B
:104840000088B90021022000808040000083200001
:10485000008040001000780000000100A10020004E
:10486000E007210028800200000000000040200036
:1048700050000700001020004E000700002020001C
:104880004C000700000420004A0007000008200038
:1048900048000700C07C2800C2550200000000004C
:1048A00041002000800F210028800200000000004D
:1048B00021E3A800A0C0B300867C02000000000035
:1048C000325902000000000011002000903A200040
:1048D000288002000000000090C0B300F2590200DE
:1048E0000000000090C0B300867C020000000000C1
:1048F000325902000000000011002000903A200010
:10490000288002000000000090C0B300F2590200AD
:1049100000000000C0C0B300867C02000000000060
:10492000325902000000000011002000903A2000DF
:10493000288002000000000090C0B300F25902007D
:1049400000000000B0C0B300867C02000000000040
:10495000325902000000000011002000903A2000AF
:10496000288002000000000090C0B300F25902004D
:104970000000000021E3A900004020001C00070007
:10498000001020001A000700002020001800070077
:104990000004200016000700000820001400070093
:1049A000C07C2800C2550200000000000080FA0010
:1049B000000006000200FA00000F78004016800098
:1049C0001E0060000000E000040032004085280066
:1049D0009655020000000000030037007085280093
:1049E00096550200000000000080FA00000006005A
:1049F0000200FA00000F7800501680001E006000D0
:104A00000000E00004003200A08528009655020056
:104A10000000000003003700D085280096550200F2
:104A2000000000000080FA00000006000200FA000A
:104A3000805780008000E800F00F200000806000B8
:104A40008057880023FD07003BFB0700000F78001C
:104A50001E00E00006003400400020009E0F100001
:104A600003003C001E00E900904088000D00370064
:104A70000000EB00905788002102200040812000B8
:104A8000B2800200000000008001EB004200200024
:104A90001100200010002000A4FD07000000E90024
:104AA000904088002101200060832000B280020035
:104AB000000000000080FA00000006000200FA007A
:104AC000805780008000E800F00F20000080600028
:104AD00080578800FFFC070017FB0700104798006D
:104AE0001E4090000004E000090032001E409000CB
:104AF000EA4F500006003E001E4090000040E900D2
:104B00008040780000812000014878000F003700C5
:104B10000000EB0090578800D1082000308720006B
:104B2000B2800200000000008001EB00A200200023
:104B300011002000900020007CFD07000040E900EB
:104B4000804078000081200001487800008120002A
:104B500010407800E94F500010003A00DDFC0700DB
:104B6000F5FA0700004F78001E04E0000B003A0041
:104B70000000EB009057880000862800C255020014
:104B8000000000008001EB00F2FF27008000EB0036
:104B90002002200065FD0700004F78004101200041
:104BA00000902000B28002000000000011012000EF
:104BB000B01F2100B28002000000000023C2BF002D
:104BC000614060000004E000FCFF32000081200032
:104BD00010407800E94F500003003A001E40780072
:104BE000105A020000000000107D020000000000CA
:104BF00000003700D4590200000000000004E0006B
:104C0000FCFF3200E0590200000000008040780004
:104C100000C2B30080CF500001003200F5FF370022
:104C20000080FA00000006000000FA0031618000F8
:104C3000E0C22000008040009040780030C8B300FF
:104C400080CF50000E003A00306180000000E80084
:104C50003061880003003700306180000000E80008
:104C60003061880031618000E0C220000080400097
:104C70009040780000CEB30080CF5000F6FF3600A1
:104C80000080FA00000006000A00FA0030079800D1
:104C90000000EB0020079800AE009000E0C220006A
:104CA000008040009040780000CEB30080CF5000DC
:104CB00003003E000080EB0040079800230037000F
:104CC000AE009000E0C2200000804000104078005C
:104CD0008080FB0000F22F00008040001007980049
:104CE0002E0090008000E800E0C22000008040001C
:104CF000104078000080FB004801DD002E0090008D
:104D00008080E800E0C22000008040001040780071
:104D10000080FB00000F41009E0078003E009000E4
:104D2000808F500003003A002E009000400798004A
:104D3000060037009E0090002E009000008040008A
:104D40006300400020079800D3FF37004E0090001A
:104D50000080FA00000006000600FA00881F7800B4
:104D60000000EB00000F780031618000E0C22000FD
:104D7000008040009040780080C2B30080CF500097
:104D800010003A00306180000000E80030618800C7
:104D90001F010700000F780031618000E0C2200091
:104DA000008040009040780090C2B30080CF500057
:104DB000AC003A00306180000000E80030618800FB
:104DC000A800370031618000E0C220000080400070
:104DD0009040780000C4B30080CF50001600360029
:104DE00031618000E0C220000080400090407800E7
:104DF000A0C5B30080CF50000F003E00326180009C
:104E0000E0C2200000004100104078008080FB00DC
:104E1000F0FB2F00008040008000400060BC2000BC
:104E20000080400010007800200798000200E80091
:104E3000306188008D00370031618000E0C22000C1
:104E4000008040009040780000C8B30080CF500040
:104E50007600360031618000E0C220000080400012
:104E6000104078000080FB00100798000100E80067
:104E700030618800700920009E009000808F5000F3
:104E800041003200700920009E009000808F500089
:104E90000D003C00400920009E009000808F5000D3
:104EA00016003200600920009E009000808F5000A4
:104EB0002B003200300920009E009000808F5000AF
:104EC0001800320048003700A00920009E00900022
:104ED000808F500036003200D00920009E009000E4
:104EE000808F50001A003200800920009E00900040
:104EF000808F5000350032003B003700A140800019
:104F0000E00220000088B900EA0040000083200091
:104F1000008040001000780000000100000F7800C1
:104F200050003700A1408000E00220000088B90056
:104F3000E80040000083200000804000100478005A
:104F40008400070008000100000F780045003700CA
:104F50000A5F020000000000000F780041003700E7
:104F6000A1408000E00220000088B900F400400069
:104F70000083200000804000100078000000010045
:104F8000000F780037003700A1408000E0022000C9
:104F90000088B900F8004000008320000080400035
:104FA0001000780000000100000F78002D0037008D
:104FB000CAC2BF000080FB004500DE006140600007
:104FC0000080FB00000F78002600370021E3A800D6
:104FD000C0C0B300867C020000000000000F780013
:104FE00021E3A9001F0037000000EB00000F78004C
:104FF0001C0037001E0078006A00B900000F78001E
:1050000031618000E0C22000008040001040780044
:105010000080FB009E00400000FD2F00008F40003C
:10502000306180000000E80030618800316180005C
:10503000E0C220000080400090407800F0C2B30041
:1050400080CF50000700360031618000E0C22000B0
:10505000008040009040780090C3B30080CF5000A3
:10506000E4FF36001E007800200798002E00900014
:105070004F0478000080FA00000006000600FA00E5
:1050800035FF0700000F7800000037003161800015
:10509000E0C220000080400090407800A0C2B30031
:1050A00080CF50000A00320031618000E0C2200051
:1050B0000080400090407800F0C2B30080CF5000E4
:1050C000030032001E007800200798001E00370001
:1050D00031618000E0C22000008040001040780074
:1050E0000080FB00100798000100E8003061880094
:1050F000A00220009E009000808F5000050032002A
:10510000F00220009E009000808F500007003200C7
:10511000DEFF370010FF0700800078001E007800D7
:105120000180B900000F7800D8FF37000AFF0700A0
:10513000000178001E007800110009000200D8006C
:10514000000F7800D1FF37002E0090000080FA0099
:10515000000006000600FA00C8FF0700000F7800F4
:105160000000370031618000E0C220000080400074
:1051700090407800D0C2B30080CF50000A003200C7
:1051800031618000E0C22000008040009040780043
:10519000B0C2B30080CF5000030032001E00780080
:1051A000200798001700370031618000E0C220001E
:1051B00000804000104078000080FB00100798003D
:1051C0000100E80030618800B00220009E009000DD
:1051D000808F500008003200D00220009E00900016
:1051E000808F500001003200DEFF3700A3FF070070
:1051F0001E0F1000DBFF3700A0FF07001E0F40004E
:10520000D8FF37002E0090000080FA000000060052
:105210000C00FA0032618000E0C220000000410072
:10522000104078008080FB00F0FB2F0000804000E1
:105230008000400060BC20000080400090007800AA
:10524000210798000200E800306188000000EB00B0
:10525000000F78000B0037009E017800326180005B
:10526000E0C220000000410010407800804078003B
:1052700066004700817178000200E8003061880014
:105280001E0FE80031618000E0C220000080400075
:105290009040780000C4B30080CF50000700360073
:1052A00031618000E0C22000008040009040780022
:1052B000A0C5B30080CF50000E00360031618000E1
:1052C000E0C220000080400090407800F0C2B300AF
:1052D00080CF5000E0FF360031618000E0C2200046
:1052E000008040009040780090C3B30080CF500011
:1052F000D9FF3E0097FF070010079800660047009F
:10530000104078000000FB0050079800C003200008
:10531000DE009000808F500032003200C003200079
:10532000DE009000808F500005003C00100220003D
:10533000DE009000808F5000410032004E003700A8
:10534000D0032000DE009000808F50000500320066
:10535000E0032000DE009000808F50000A00320041
:10536000450037000000EB0040079800AE009000B9
:105370001E009000808F500041003A001100200074
:10538000410798003E0037006600470090409000BB
:10539000D0C3B30080CF500009003A000000EB00FA
:1053A00040079800AE0090001E009000808F5000D3
:1053B000330035001100200041079800300037000D
:1053C0000000EB0040079800AE0090001E00900027
:1053D000808F50002A0034001100200041079800FF
:1053E000270037006600470090409000D0C3B3000C
:1053F00080CF500009003A000000EB004007980001
:10540000AE0090001E009000808F50001C003C00F9
:105410001100200041079800190037000000EB0040
:1054200040079800AE0090001E009000808F500052
:1054300013003D00110020004107980010003700C4
:105440006600470090409000D0C3B30080CF50006A
:1054500009003A000000EB0040079800AE00900001
:105460001E009000808F50000500320011002000C7
:1054700041079800020037000000EB004007980049
:105480004E0090000080FA00000006001C00FA00A8
:10549000881F78000000EB00306188000000EB00FE
:1054A000300798000000EB00200798000000EB0098
:1054B000100798000000EB00406188000000EB003E
:1054C000506188000000EB00606188000000EB0084
:1054D00050079800D04080000080A000D040880095
:1054E0000000EB0040079800090037004E009000D4
:1054F0008000400060BC2000808040000000EB0085
:10550000800878004E0090000000E80040079800F6
:105510004E009000F90F5000F4FF340035043700BE
:105520001E0090000000E00021003A003161800080
:10553000E0C220000080400090407800F0CDB30031
:1055400080CF500003003E0020002000300798006C
:105550002B04370031618000E0C220000080400051
:10556000104078008080FB0000F22F000080400097
:1055700060079800306180008000E800E0C22000F1
:1055800000804000104078000080FB004801DD00F2
:10559000306180008080E800E0C220000080400090
:1055A000104078000080FB00000071005007980058
:1055B0000000EB001007980030618000E30040001D
:1055C000E0C2200000804000104078000080FB0016
:1055D0006101B90000F82F00F1FF2F000201400027
:1055E00083814800420F9800530F9800100220005A
:1055F000010020004E099000DE099000800F51004C
:10560000818F5900EF033E004E089000DE089000A5
:10561000006001002100370035003700E903370042
:10562000E80337007100370081003700A30037001E
:10563000B7003700BE0037003B0137008801370054
:10564000E0033700EE0137003502370099023700DA
:10565000AF0237009F023700CB023700BB02370092
:10566000D8023700D70337007C03370060033700C8
:10567000D4033700D303370004033700F0023700A8
:10568000A3033700AE033700DE02370016033700EE
:1056900036033700B6033700C70337001000200079
:1056A000200798003061800066004000306188006B
:1056B000306180008080E900E0C22000008040006E
:1056C000104078008080FB00F0FB2F000084400039
:1056D000A0FE0700000178008800440060BC2000A4
:1056E00000804000020878004FFD0700B703370034
:1056F0001000200020079800306180006400400006
:1057000030618800C2FE07000000E0001C0032008B
:1057100031618000310F9800E0C220003E09900006
:1057200000004100904078008041EB004357980012
:1057300020C8B30080CF500002003A0010C0B30070
:1057400040579800BE0890000100E80030618800D2
:105750004E5190000204E0009C0332001000200033
:1057600010079800306180006300500030618800AD
:1057700096033700306180000000E8003061880047
:1057800031618000E0C2200000804000904078003D
:1057900030C8B30080CF5000070032003161800074
:1057A000E0C22000008040009040780000CEB300AE
:1057B00080CF5000EFFF360031618000E0C2200052
:1057C000008040009040780030C8B30080CF500087
:1057D0007E033A001000200010079800306180001E
:1057E0000080E90030618800780337001000200055
:1057F000200798003061800064004000306188001C
:1058000054FE070020FD0700000F78008081EB00A8
:105810009E8F1100030032001E0078003061880066
:105820006A033700600020003007980067033700E4
:1058300010002000200798003061800064004000C4
:105840003061880050618000E90F500018003C0072
:1058500052618000316180006E0090000080400045
:105860008001E90082004100A0BF200000804000CC
:1058700003087800506180000000E8005061880053
:1058800034FE070000FD0700000F78008080EB0069
:105890009E8F1000030032001E01780032618800E4
:1058A0004A033700600020003007980047033700A4
:1058B0007000200030079800440337000070280073
:1058C00096550200000000001000200020079800FC
:1058D000506180000000E0000A003200506180004A
:1058E0000000E900506188005061800080004000A5
:1058F000A0BF2000008040001000780030618800C8
:105900003203370080002000300798002F03370053
:105910001000200020079800316180006E00900088
:10592000008040006300400030618800270337009A
:1059300010002000200798003061800064004000C3
:10594000306188005700370031618000E0C22000DC
:10595000008040009040780020C2B30080CF50000B
:105960001F003A00306180000000E80030618800CC
:1059700010003700D04080000080A100D040880097
:1059800031618000E0C220000080400010407800BB
:10599000004178000100E800306188000240780092
:1059A000F259020000000000D04080000080A000FA
:1059B000D040880031618000E0C2200000804000BB
:1059C0009040780020C2B30080CF5000E9FF3A0039
:1059D000306180000000E80030618800310037004D
:1059E00031618000E0C220000080400090407800DB
:1059F00000C4B30080CF5000070036003161800042
:105A0000E0C220000080400090407800A0C5B300B4
:105A100080CF50000D00360031618000E0C22000D0
:105A200000804000104078000004E00013003D00BA
:105A300031618000E0C2200000804000904078008A
:105A4000F0CDB30080CF50000C003E00C1FD070038
:105A5000000F7800D04080000080A100D040880076
:105A60001E007800D057020000000000D0408000E7
:105A70000080A000D04088000A003700316180001B
:105A8000E0C220000080400090407800B0C3B30026
:105A900080CF500003003A00306180000000E80031
:105AA0003061880031618000E0C220000080400049
:105AB00090407800F0CDB30080CF500007003E004A
:105AC00031618000E0C220000080400090407800FA
:105AD00030C8B30080CF50009BFF3A003061800097
