:020000040000FA
:100000000002040000000000EA770000EA77000028
:10001000EA770000EA770000EA770000EA7700005C
:10002000EA770000EA770000EA770000EA7700004C
:10003000EA770000EA770000EA770000EA7700003C
:10004000EA770000EA770000EA770000EA7700002C
:10005000EA770000265B0000485B0000EA770000BA
:10006000EA770000EA770000EA770000EA7700000C
:10007000EA770000EA770000EA770000EA770000FC
:10008000EA770000EA770000EA770000EA770000EC
:10009000EA770000EA770000EA770000EA770000DC
:1000A000EA770000EA770000EA770000EA770000CC
:1000B000EA770000EA770000EA770000EA770000BC
:1000C000EA770000EA770000EA770000EA770000AC
:1000D000EA770000EA770000EA770000EA7700009C
:1000E000EA770000EA770000EA770000EA7700008C
:1000F000EA770000EA770000EA770000EA7700007C
:10010000EA770000EA770000EA770000EA7700006B
:10011000EA770000EA770000EA770000EA7700005B
:10012000EA770000EA770000EA770000EA7700004B
:10013000EA770000EA770000EA770000EA7700003B
:10014000EA770000EA770000EA770000EA7700002B
:10015000EA770000EA770000EA770000EA7700001B
:10016000EA770000EA770000EA770000EA7700000B
:10017000EA770000EA770000EA770000EA770000FB
:10018000EA770000EA770000EA770000EA770000EB
:10019000EA770000EA770000EA770000EA770000DB
:1001A000EA770000EA770000EA770000EA770000CB
:1001B000EA770000EA770000EA770000EA770000BB
:1001C000EA770000EA770000EA770000EA770000AB
:1001D000EA770000EA770000EA770000EA7700009B
:1001E000EA770000EA770000EA770000EA7700008B
:1001F000EA770000EA770000EA770000EA7700007B
:10020000FFFFFF00FFFFFF00EA770000EA77000032
:10021000EA770000EA770000EA770000EA7700005A
:10022000EA770000EA770000EA770000EA7700004A
:10023000EA770000EA770000EA770000EA7700003A
:10024000EA770000EA770000EA770000EA7700002A
:10025000EA770000265B0000485B0000EA770000B8
:10026000EA770000EA770000EA770000EA7700000A
:10027000EA770000EA770000EA770000EA770000FA
:10028000EA770000EA770000EA770000EA770000EA
:10029000EA770000EA770000EA770000EA770000DA
:1002A000EA770000EA770000EA770000EA770000CA
:1002B000EA770000EA770000EA770000EA770000BA
:1002C000EA770000EA770000EA770000EA770000AA
:1002D000EA770000EA770000EA770000EA7700009A
:1002E000EA770000EA770000EA770000EA7700008A
:1002F000EA770000EA770000EA770000EA7700007A
:10030000EA770000EA770000EA770000EA77000069
:10031000EA770000EA770000EA770000EA77000059
:10032000EA770000EA770000EA770000EA77000049
:10033000EA770000EA770000EA770000EA77000039
:10034000EA770000EA770000EA770000EA77000029
:10035000EA770000EA770000EA770000EA77000019
:10036000EA770000EA770000EA770000EA77000009
:10037000EA770000EA770000EA770000EA770000F9
:10038000EA770000EA770000EA770000EA770000E9
:10039000EA770000EA770000EA770000EA770000D9
:1003A000EA770000EA770000EA770000EA770000C9
:1003B000EA770000EA770000EA770000EA770000B9
:1003C000EA770000EA770000EA770000EA770000A9
:1003D000EA770000EA770000EA770000EA77000099
:1003E000EA770000EA770000EA770000EA77000089
:1003F000EA770000EA770000EA770000EA77000079
:10040000CFD621000E7F22000E01880000000000E0
:100410000C000700E03F260001002000110007004B
:10042000000020000000E000020032000000020096
:1004300000000000B8740200000000000040DA0074
:100440000000FE004440A900E01C20000000E00085
:100450000300320000002000A00188004440A800F2
:100460000000060091018800800078000000EB0089
:1004700015003700E280400032A0B4009101BA00BC
:10048000E280400032A0B4009102BA00E280400055
:1004900032A0B4000002EB00472BDE00F507B200EB
:1004A000602CE10004003A000059EB008301E900F0
:1004B000FDFF3E00040037006128E100010032002A
:1004C0000082EB00040007001101BA000200E00006
:1004D000E8FF3A00000006003159BA008301E90044
:1004E0000C0032002159BA008301E90008003200F3
:1004F0000400E00003003A00E280400032A0B400B3
:10050000F5FF370011D9BA008301E900FAFF3A007C
:100510008100E800E180400032A0B4000000060045
:1005200000000000000000000000000000000000CB
:1005300000000000000000000000000000000000BB
:1005400000000000000000000000000000000000AB
:10055000000000000000000000000000000000009B
:1007D000889FBE008A9FBE00010578000100E000EE
:1007E0000400350008003C000000E000200032005A
:1007F0000500370060001000E080180002003B0098
:1008000001F02C001A0037000004BE006011B8008F
:100810006B0920000982CF00020039000882CF0056
:100820000441B000694252000E00320008003B0053
:1008300082817100610164008904D1000884D300C1
:100840008B05E8000442E800F9FF3A000500370094
:100850000804440089844C008B05E9000442E90047
:10086000FBFF3A000B0107000AF0A70001F0A0000F
:100870004F05BE004F04BE0000000600F4FF2F002D
:100880002A0137001400200028013700889FBE008D
:100890008A9FBE008C1F78003F010700460133008D
:1008A00003866C006450E1002E0032006420E100F9
:1008B000330032006150E1002F0032006120E1007E
:1008C0003100320085855500EB07B000090020009B
:1008D00008042000050037000804440089844C0007
:1008E0000A0031000603430087834B0000015300D8
:1008F00081815B00F8FF33000203BE000800A00006
:100900000804440089844C00F6FF3900C639DD0034
:100910008301730001003200130020008904D1001C
:100920000884D3000998A300050032000800A7003E
:100930000300A0008904D1000884D3008B05E800DF
:100940008904D1000884D3000001EB000281D200A9
:10095000D000070001F0A1000CF0A70001F0A000FA
:100960001E0137006420E100200132000801BE00B2
:100970000200BE00F7FF37006120E1001B013200DA
:100980006000B800F3FF37000000200001F82700E6
:10099000F0FF370003F0A200889FBE008A9FBE00D0
:1009A0008C1F7800FC000700030133006450E10055
:1009B0004F0032006420E1005200320003826C00DC
:1009C00007003B000905D0000306D000820F540049
:1009D0000C065D0002003900020032008901780037
:1009E000030678008582550004003D000003FD00E9
:1009F0008103FD008502EA008B854200840F7200AE
:100A000002003B0060001000E08018006011B80098
:100A10000005EB007A28E1000A00390006007800A2
:100A2000C75DDD00F707B200878075002D00370035
:100A3000828171000A017800610560008180D10027
:100A40000080D3008502E900F9FF3B000604400066
:100A50008784480002003B0060041400E0841C000E
:100A60000988A300070032008A8171008281710029
:100A7000610164008904D1000884D3008B05E8007B
:100A8000170037000978A30013003A000B00E000BC
:100A9000130034008B05E9000804440089844C00ED
:100AA0000A4474000978A3000D003A000B00E0002E
:100AB000070034008B05E9000804440089844C00D9
:100AC00001003A000B0020000978A300F7FF320074
:100AD0000001EB0002003700828171000A017800FA
:100AE0006C0007000CF0A70001F0A000BB0037006D
:100AF0006420E10002003A00838F6C00BB003300E9
:100B00000801BE000200BE00B4003700889FBE008E
:100B10008A9FBE008C1F78009F000700A60033004C
:100B200003866C006450E100240032006420E10080
:100B3000270032006150E100220032006120E10014
:100B4000210032008B854200EB07B1000134B80070
:100B5000003AB8000804420089844A00013AB8000B
:100B60000030B8008880400009014A0004003300CA
:100B70000000400081804800020149008B05E90027
:100B8000C909DD008301700001003200130020005C
:100B9000C814DE004814DD004709DE001200B20070
:100BA000C808DE00088470003A00070001F0A100C8
:100BB0000CF0A70001F0A000880037006120E100E0
:100BC0008A0032000801BE000200BE00F7FF3700B5
:100BD0006150E100FCFF3A00840037000001BE00D4
:100BE000850007000470A70003F0A10003F8A3002C
:100BF00013003A006509B100100032000900350009
:100C00006928E1000200350001002800000005000D
:100C100000004000818048008502E900FCFF3A00A6
:100C200000000600F88F4200050035008100D10069
:100C30000080D3008502E800FCFF3A0000000600B7
:100C40008000EB00000005006022B80006022000D2
:100C50000000D0008180D2000482D2008582D200C0
:100C60000000A0000202520083825A0003003100FB
:100C70000202420083824A000000A1000603E9004C
:100C8000F3FF3A0000000600EFFF07000400BE007B
:100C90000000060081002000618055000B003D002F
:100CA0000B00200061FE2F000100E1001D00340058
:100CB00082817100610164008904D1000884D3003D
:100CC0000000E800FAFF3A007100200061006400B3
:100CD000030070000200600009003200610444005B
:100CE000E0844C000988A500050032008B05E8006F
:100CF0006808E10002003A008904D1000884D300AA
:100D0000F20F20000258E10005003D00C75DDD0044
:100D1000F907B2008980750008007800000006001D
:100D20000BF827008B00780000000500889FBE00AC
:100D30008A9FBE00841F7800170007004F007800CC
:100D400011003300F0FF2F00838F6C0006003B0082
:100D5000040565000A00A7000800370009F0A60096
:100D60001000200008003700820F5400838F5C00C1
:100D7000030039001000200001003E0000002000A8
:100D800009F0A7000000EA004F05BE004F04BE00B6
:100D90000000E000000006000004BE00160007008E
:100DA0000003BE000405BE000200BE0012000700E2
:100DB000844F7500000006000200BE006450E10090
:100DC000050036006420E100020036000968A30037
:100DD00001003A000800BE000160A0004F06780044
:100DE0004F05BE004F04BE0000000600F0FF2F00BC
:100DF000F1FF2700F9FF3700C70ADE00F107B20054
:100E0000F50FB20008003200E1CF420002003200CC
:100E10000170A00024000500810F70000100320065
:100E20000408050044000500810F700002003A002C
:100E3000140005008502E9000000400081C0480060
:100E4000FCFF3B000170A000240005003E000000F4
:100E500008200000080000001B5B000044000000A8
:100E60001B5B000000440000001B00005B4300000F
:100E7000001B00005B3200004B0D0000004300002F
:100E8000000000001B5B000032440000005700001F
:100E9000617200006E6900006E6700003A20000079
:100EA0006E6F0000207600006F6C0000746100001F
:100EB00067650000206F00006E2000005670000083
:100EC000756C00006C7500007020000070690000F7
:100ED0006E000000203D000020000000565200007F
:100EE00045470000207400006F6F0000206C000078
:100EF0006F7700002C200000697300002074000050
:100F00006865000072650000206100002073000029
:100F1000686F0000727400003F0000002E20000087
:100F20003C0000002E200000000D00000A280000F8
:100F300000780000002900003E000000427500001B
:100F400073200000506900007261000074650000A9
:100F50002076000033000000206300006C6F00006A
:100F60006E650000207700002F64000069660000B5
:100F700066650000726500006E740000205000007D
:100F80004943000000460000697200006D770000D0
:100F90006172000065200000763600002E320000ED
:100FA0002D620000657400006131000020720000B5
:100FB00031390000383100002000000020280000F6
:100FC00032340000464A0000363400004741000039
:100FD000303000000034000020000000322000000B
:100FE00000410000330000004234000000420000D5
:100FF0003500000042380000005500004E4B000054
:101000000029000000490000090000004F0900000D
:1010100000480000090000004C09000000450000E5
:101020006E7400006572000020720000617700009D
:1010300020760000616C00007565000020660000ED
:101040006F720000204200005247000000000000C4
:101050000000000000000000000000002C01000063
:10106000000000005802000000000000B004000072
:10107000000000006009000000000000C012000035
:101080000000000080250000000000004038000043
:1010900000000000004B0000000000008070000015
:1010A000000000000096000000000000C0DA000010
:1010B0000000000000E100000000000000C200008D
:1010C0000100000000F400000100000000E8000042
:1010D00003000000415200005431000000000000F5
:1010E0003062000000300000303000002C000000B2
:1010F0003030000000300000313200003334000096
:101100003536000037380000394100004243000006
:10111000444500004630000078000000436F0000A6
:10112000756C0000646E000027740000206B0000E6
:101130006565000070200000757000000000000070
:101140005350000049310000000000000029000059
:10115000002000005700000020520000004900005D
:1011600032430000310000003A200000000000007F
:101170002E00000031570000303100000000000058
:10118000314100004C530000004200005076000046
:1011900033000000080800000808000008000000F4
:1011A00000000000204800007A000000000000005D
:1011B00042420000494F000031000000524100004F
:1011C00057310000000000004F4300004431000090
:1011D00000000000000000000000000029000000E6
:1011E0000000000000000000EC874700889FBE0060
:1011F0008A9FBE008C9FBE008E1F78000000EB000F
:101200001064880000648800A04088002064880082
:101210000001780063C820000042EB0005022000B6
:101220004510DD00030040008000EB00045878000A
:101230008100E800858F5000FCFF3A000201E800C1
:10124000E50F5100F6FF3A000000EB00306988001E
:1012500080067800E0B79F00D0B79F00ACAE2000BA
:10126000A1408000E00220000089B9002095200004
:10127000000041005057020000000000A181200042
:1012800000202000110060000400320071002000E6
:10129000E05620009A7302000000000060722800EF
:1012A00050570200000000000001EB00C2B79F0091
:1012B00001003700CEB79F00306980000000E000D9
:1012C000440032000000E900306988004500DD007C
:1012D00061C82000E0C078000104E0001300320083
:1012E0000004EB0009B820006AC8200000648000F8
:1012F00001F07C0001407800DC5A02000000000090
:10130000006480000000E8000804E800F00FB2006C
:1013100000648800306980004500DD00080040005E
:10132000E0407D000104E000F0FF3A000000EB0027
:1013300030698800270037009C40780064C0600056
:10134000240032004A8120001A007800E9022000BF
:101350000980B9007A004000C892200060007C003B
:10136000000001000000E0001A0032001A007800BE
:101370000980B9006002B000080040005057020028
:1013800000000000607228005057020000000000BA
:101390001064800001648000810F50000D00320055
:1013A00000047800808F50000A00320009B8200045
:1013B00068C07C00DC5A02000000000008007800D1
:1013C000F00FB2000004E80000648000800F5400B9
:1013D000F7FF3A00425A0200000000000004E0005B
:1013E000D5FF3200F85A0200000000000004E000BF
:1013F00003003200005B020000000000AEFF370077
:10140000C85A020000000000004578000080FB0080
:1014100001002000F2072000820F5000E08F5800EA
:1014200081023E0000600100770237003F02370072
:10143000130137007C023700BD0037004E02370031
:101440002501370078023700770037007602370031
:101450005C0237007402370073023700590237000C
:101460009901370070023700290137006E023700FA
:101470006D0237006C0237006B0237006A023700DA
:1014800069023700680237006702370066023700DA
:1014900065023700D300370063023700620237006D
:1014A00061023700600237005F0237005E023700DA
:1014B0005D0237005C0237005B0237005A023700DA
:1014C00059023700580237005702370056023700DA
:1014D00055023700540237005302370052023700DA
:1014E00051023700500237004F0237004E023700DA
:1014F0004D0237004C0237004B0237004A023700DA
:1015000049023700480237004702370046023700D9
:1015100045023700440237004302370042023700D9
:1015200041023700400237003F0237003E023700D9
:101530003D0237003C0237003B0237003A023700D9
:1015400039023700380237003702370036023700D9
:1015500035023700340237003302370032023700D9
:1015600031023700300237002F0237002E023700D9
:101570002D0237002C0237002B0237002A023700D9
:1015800029023700280237002702370026023700D9
:1015900025023700240237002302370022023700D9
:1015A00021023700200237001F0237001E023700D9
:1015B0001D0237001C0237001B0237001A023700D9
:1015C00019023700180237001702370016023700D9
:1015D00015023700140237001302370012023700D9
:1015E00011023700100237000F0237000E023700D9
:1015F0000D0237000C0237000B0237000A023700D9
:1016000009023700080237000702370006023700D8
:1016100005023700040237000302370002023700D8
:10162000010237004200370010648000808F5600AE
:101630003B00320000648000808F56000B003A00AF
:101640000D00E90080067800FD0FB2000D648800EF
:101650000040EB0003B8200080F67900807228007B
:10166000505702000000000013FF37000D00E90092
:1016700080067800FD0FB200C072280050570200AB
:10168000000000000D0178008D0078008004EB0060
:10169000006480008D0F5000140032008004EB00C5
:1016A0000AB820000204E80068407D0000717D0057
:1016B0000004E00003003200DC5A020000000000D9
:1016C0000300370000C2B300DC5A02000000000033
:1016D0008904E80008017800F20FB2008200780067
:1016E00000648000820F5000EEFF3A000100E90024
:1016F000F00FB20000648800007328005057020009
:1017000000000000094078002C5902000000000091
:10171000307328005057020000000000E6FE37003A
:1017200070C0B300DC5A020000000000E2FE370087
:1017300000648000808F5600260032008D00780003
:101740000D0178000005EB008D0F500014003200F1
:101750000005EB0009B820000104E80068C07C0027
:1017600080F07C000004E00003003200DC5A02003C
:10177000000000000300370000C2B300DC5A020082
:10178000000000000A05E80088007800F10FB200B0
:101790000101780000648000810F5000EEFF3A00E4
:1017A0000200E900F00FB200006488000073280016
:1017B00050570200000000000A4078002C59020037
:1017C00000000000307328005057020000000000A5
:1017D000B9FE370070C0B300DC5A02000000000000
:1017E000B5FE3700C85A020000000000B1C5B300C2
:1017F000814F5000B0FE3A00C85A020000000000BD
:101800008040780010C4B30080CF50004000320008
:1018100007003E007040500080CF50000C003200A6
:101820006340400080CF5000A3FE3A000E00370016
:1018300030C4B30080CF500027003200A20039002E
:101840000040E80080CF50009BFE3A000C003700BB
:10185000C85A020000000000E1C7B300814F5000E9
:1018600095FE3A0031013700C85A0200000000001E
:10187000E1C7B300814F50008FFE3A003E013700B0
:101880005FB09700E40F5000050034007666020058
:10189000000000008000EB00D1B79F0086FE3700FB
:1018A00010648000808F5600070032000D00E900B0
:1018B00080067800FD0FB200C07228005057020069
:1018C000000000007CFE370070C0B300DC5A02004C
:1018D0000000000078FE370000648000808F560012
:1018E000070032000D00E80080067800FD0FB2000E
:1018F0005073280050570200000000006EFE3700B1
:1019000070C0B300DC5A0200000000006AFE37001D
:10191000146480000400E90000047800F80FB200AD
:101920000805780001648000810F540062003200D5
:101930008002EB0003B8200068C079000004E000DA
:1019400057003A000800E90000017800F20FB200E9
:1019500062C079000004E000510032008502E80016
:10196000CFB19700858F51004D0031008301E80011
:10197000C3B79F00810F52000A00320003B8200055
:101980008042EB00F60F200085F079000100E900AD
:1019900086006000810F5200FBFF3A00016488005E
:1019A00085F0790001648000828F5000AB053A0019
:1019B0000D00370003B8200062C079000004E00089
:1019C00004003A000200E800F00FB200E0B79F0008
:1019D000050037000200E90000017800F20FB200B4
:1019E000828F5000F3FF3A00907328005057020096
:1019F00000000000A1408000E00220000089B90042
:101A00002095200000004100505702000000000017
:101A1000A18120000020200011006000040032009D
:101A200071002000E05620009A73020000000000C0
:101A30006072280050570200000000006FB097004D
:101A4000880F50000F003200800478000BB820008F
:101A5000FD0F200069C07D00DC5A0200000000007C
:101A60000064800069F07D000000E8000D00600067
:101A7000006488000900E8008D046000890F5400AC
:101A8000F4FF3A000D6480000040EB0002B8200033
:101A9000807679008A8F560007FE3A0006003700EC
:101AA0000800E90000047800F80FB200080578008B
:101AB000888F50009FFF3A0070C0B300DC5A0200CC
:101AC00000000000FCFD3700146480000400E90001
:101AD00080047800F90FB2000905780001648000E5
:101AE000818F5400620032000007EB0003B8200031
:101AF00069C079000004E00057003A000900E900DD
:101B000000017800F20FB20062C079000004E0002A
:101B1000510032000E07E800CFB197000300E90042
:101B20008E0F50004C003A00810F52000A00320024
:101B300003B820008042EB00F60F200085F079000A
:101B40000100E90086006000810F5200FBFF3A00AF
:101B50000164880085F0790001648000828F500064
:101B600043053A000D00370003B8200062C0790039
:101B70000004E00004003A000200E800F00FB200A8
:101B8000E0B79F00050037000200E900000178007F
:101B9000F20FB200828F5000F3FF3A0090732800DA
:101BA0005057020000000000A1408000E002200029
:101BB0000089B90020952000000041005057020024
:101BC00000000000A1812000002020001100600022
:101BD0000400320071002000E05620009A730200D9
:101BE0000000000060722800505702000000000052
:101BF0006FB09700890F50000F003200000478008A
:101C00000BB82000FD0F200068C07D00DC5A0200E8
:101C1000000000000064800068F07D000000E80023
:101C20000D006000006488000800E8000D046000FA
:101C3000890F5400F4FF3A000D6480000040EB006F
:101C400002B82000807679008A8F560099FD3A000C
:101C5000CEB79F00060037000900E9008004780035
:101C6000F90FB20009057800898F50009FFF3A00F4
:101C70004FB09700E10F500028003A009073280001
:101C80005057020000000000A1408000E002200048
:101C90000089B90020952000000041005057020043
:101CA00000000000A1812000002020001100600041
:101CB0000400320071002000E05620009A730200F8
:101CC0000000000060722800505702000000000071
:101CD0000D64800011648000818F5600090032007D
:101CE00002B820008041EB00F40F200083767900D9
:101CF0000D00E90084066000818F5600FBFF3A006A
:101D00000D6488000040EB0001B8200080F67800E8
:101D10000001EB00C2B79F0067FD370070C0B30041
:101D2000DC5A02000000000063FD370018648000E8
:101D3000888F56000C0032000073280050570200B4
:101D40000000000008805600F00FB2002C5902007D
:101D5000000000003073280050570200000000000F
:101D60001D64800054FD370070C0B300DC5A0200CF
:101D70000000000050FD370008648000888F560086
:101D80000C003200007328005057020000000000D1
:101D90000D005400F00FB2002C59020000000000AA
:101DA000F073280050570200000000000D6480000E
:101DB00041FD370070C0B300DC5A02000000000093
:101DC0003DFD3700006480008040EB0003B8200038
:101DD00001F079000000E80080067800FD0FB200F5
:101DE0000D6488001074280068570200000000008D
:101DF00000648000F0B79F001E6480000000EB00CC
:101E00002064880053003700DFB097008100E800AD
:101E1000D1B79F00F48F500027FD3A00705B02009D
:101E20000000000024FD3700086480000800E8007E
:101E3000F90F20000900600011648000810F50003C
:101E400040003200FF4F55003E003600E0C7B300AF
:101E5000804F55003B003E008D0F54000C003A00AF
:101E60000A407800DC5A0200000000000064800094
:101E700002B820000A7079000000E80089066000BE
:101E80000D6488000040EB00807679000AFD370081
:101E90000073280050570200000000000D0054009D
:101EA000F80F2000080060002C590200000000001C
:101EB000F073280050570200000000000964800001
:101EC0000D00E90088056000898F55001000320080
:101ED00008B820000900E80069707C0069407C00B7
:101EE0000004E00005003200DC5A0200000000009F
:101EF0002074280050570200000000000900E9008B
:101F000080047800F90FB200898F5500F1FF3A0084
:101F10000A407800DC5A02000000000000B82000EF
:101F20008A7678000D00E800F10F2000810660003D
:101F3000006480000000E800010060000064880088
:101F4000DDFC370070C0B300DC5A02000000000066
:101F5000D9FC37001264800001B8200062C078000C
:101F60000080FB0001002000E3072000830F5000E9
:101F7000E08F580010043E0000600100100437009C
:101F80000D0437000C0437000B0437000A04370037
:101F90000904370008043700070437000604370037
:101FA0000504370006043700030437000204370035
:101FB0000304370000043700FF033700FE03370037
:101FC000FD033700FC033700FB033700FA0337003B
:101FD000F9033700F8033700F7033700F60337003B
:101FE000F5033700F4033700F3033700F20337003B
:101FF000F1033700F0033700EF033700F003370039
:10200000D00337005F023700120137001B01370091
:10201000BC013700AA013700E70337003C02370054
:10202000E5033700E4033700E5033700E403370036
:10203000840337009B0337006A033700C20237006E
:10204000C1023700C0023700BF023700BE023700AE
:10205000BD023700BC023700BB023700BA023700AE
:10206000B9023700D4033700D3033700C10137006A
:10207000B8003700D00337003F0037002901370090
:102080001D013700CC03370061003700890137009C
:10209000C9033700C8033700C7033700C60337003A
:1020A000C5033700C4033700C3033700610037009E
:1020B000C1033700C0033700BF033700810037007A
:1020C000BD033700BC0337009F013700BA03370058
:1020D000B9033700B803370026013700B6033700CD
:1020E000B5033700B40337007802370049033700DF
:1020F00085023700790337005E033700AE033700EF
:10210000F2003700270037003A0037005B01370044
:10211000A9033700290037002B003700A803370038
:1021200018003700A4033700A30337004A00370024
:102130001A003700A00337001C0037004F0037009B
:102140009D033700E30237009B0337009A033700F3
:102150009903370017003700360137009603370020
:1021600095033700940337005F0237009100370072
:102170006D023700AA003700FE7302000000000065
:102180008F0337009F050700408120001000E0000A
:102190008B03320010060700890337009D040700F7
:1021A000870337002E070700850337000D07070058
:1021B000830337008D06070081033700E0540200D7
:1021C000000000007E033700408120001000E00086
:1021D00005003A00D1012000505A2000F47302009B
:1021E00000000000760337008E530200000000005C
:1021F00073033700C0CFB3001C4E600061012000A4
:10220000A0572000F4730200000000006C033700A8
:102210001C4078000014A1000004A000004E7800CB
:102220005101200000592000F4730200000000005A
:10223000630337001C34A000C1012000E07E2000B1
:102240009A73020000000000107428006857020012
:10225000000000005A0337001C34A100B101200027
:10226000307D20009A7302000000000010742800E6
:102270006857020000000000510337004081200031
:102280001000E00005003A00D1012000505A200063
:10229000F47302000000000049033700CB62A9007C
:1022A000C962A90051012000205C20009A7302003D
:1022B00000000000107428006857020000000000B1
:1022C0003F033700408120001000E00005003A0085
:1022D000D1012000505A2000F473020000000000D9
:1022E000370337009C40780070C0600004003A005B
:1022F00021022000F0E92000F47302000000000039
:10230000C962A800CB62A90041012000705D2000D5
:102310009A73020000000000107428006857020041
:102320000000000021E3A800B0C0B3001672020054
:1023300000000000F1042000810F500003003E0067
:1023400070742800685702000000000021E3A90013
:102350001B0337000200E800F00FB2001064880091
:102360001C040700500307000004780072590200A3
:1023700000000000A0762800505702000000000076
:10238000084078002C59020000000000A0762800C8
:1023900050570200000000000840780088570200F3
:1023A00000000000107428006857020000000000C0
:1023B000030337000200E800F00FB2001064880049
:1023C00004040700380307000080FB00727302005A
:1023D00000000000000478007259020000000000B4
:1023E000A076280050570200000000000840780046
:1023F0002C59020000000000A0762800505702006F
:10240000000000000840780088570200000000002B
:10241000107428006857020000000000E80237002E
:10242000408120001000E00005003A0011C0B30018
:10243000014078004C6B020000000000E002370011
:10244000A1012000B05E2000F47302000000000033
:10245000DB0237005100200050602000F4730200BE
:10246000000000003A5A0200000000000004E000F2
:10247000FCFF32000000FE00D10237008A74020027
:10248000000000000000E000CD023200A1002000AA
:10249000A0602000F473020000000000400620004D
:1024A0002073020000000000D8710200000000004C
:1024B0003A5A0200000000000004E000FCFF320075
:1024C00081BF2A0001400100BD02370093030700CD
:1024D000800478000000E000B90232000004EB0044
:1024E00004560200000000000804E800888F540031
:1024F000B3023200FAFF3700880307008004780037
:102500000000E000AE0232000004EB00E8550200DB
:10251000000000000804E800888F5400A802320080
:10252000FAFF37007D030700800478000000E00018
:10253000A30232000004EB00610120004061200092
:102540009A73020000000000205602000000000004
:102550004057020000000000107428006857020075
:10256000000000000804E800888F54009402320044
:10257000F1FF3700408120001000E00005003A0024
:10258000D1012000505A2000F47302000000000026
:102590008B023700C002A900C202A80021E3A800F4
:1025A000200020002073020000000000A0C0B30043
:1025B0001672020000000000011B2000810F500075
:1025C0000E00360090C0B30016720200000000003A
:1025D000712B2000810F50000800360011012000EF
:1025E000A06220009A73020000000000107428000E
:1025F00068570200000000000C003700C002A9006C
:10260000C202A900E076280068570200000000001E
:1026100021012000B06320009A7302000000000036
:1026200010742800685702000000000021E3A90090
:1026300063023700408120001000E00005003A00EE
:10264000D1012000505A2000F47302000000000065
:102650005B023700C002A900C202A90021012000CC
:10266000B06320009A73020000000000107428007C
:10267000685702000000000051023700F1002000FE
:10268000C03620009A730200000000002872020089
:102690000000000011002000B03720009A730200F3
:1026A00000000000107428006857020000000000BD
:1026B000430237003672020000000000400237007B
:1026C00016030700000478006100200090652000D8
:1026D0009A7302000000000008007800E25802002F
:1026E0000000000021002000F0652000F4730200CB
:1026F00000000000080078004473020000000000A1
:102700002F02370005030700000478006100200055
:10271000906520009A730200000000000800780015
:10272000E2580200000000002100200030EE2000EE
:10273000F47302000000000008007800207302001B
:10274000000000001E023700408120001000E00061
:1027500005003A00D1012000505A2000F473020015
:10276000000000001602370046560200000000007C
:102770001302370011002000216488000200E800E5
:102780008081FB0000B82000634078000004E00076
:102790001300320001027800E6C3B300F70F2000F7
:1027A00005B82000864F500001003A000002EB00FF
:1027B0008100E800010041000700600060C07A006D
:1027C0000004E000F7FF3A002464880020022000A3
:1027D000808F500002003400100020002064880028
:1027E000296480000900E000F5013A0013648800C4
:1027F0002D0207000004780012648000F30F20000F
:102800008300610000B82000E1407800D0C3B3002D
:1028100080CF50001E003A000802E900E40F520089
:1028200018003E000200E800830160001364880085
:10283000C520DD0060C820008080400009007800CD
:102840000041EB0005022000825878000000E800FB
:10285000850F50000B023200FBFF370082587800D2
:102860000300E8008081FB0000B82000634178008D
:10287000E0C3B300804F5100F8FF3A0013648800B2
:10288000CF0137001000200020648800CC01370001
:102890000800E00013003A0069C82000180020007A
:1028A000084078002C59020000000000E078280061
:1028B0005057020000000000090078005057020045
:1028C000000000006072280068570200000000004D
:1028D0000804E8000902B000E60F5400B801320015
:1028E000EFFF37000800E900E40F500005003E004C
:1028F0001074280068570200000000003869880042
:10290000AF0137001000200020648800AC013700C0
:102910000200E800F80F2000080060001064880042
:10292000E101070080047800AA020700106480001B
:102930000800600001B82000E0C0780090C2B30039
:1029400080CF50000C003A00A0408000E20220003E
:102950000280B9007C004000C2922000E0007900B3
:102960000900780001000100107428006857020077
:102970000000000092013700100020002064880051
:102980008F01370013002000236488000200E80054
:102990000080FB0001B8200060C078000004E00067
:1029A0000E0032008280E8000301780025C2B300E7
:1029B000F30F200004B82000854F500001003A00BA
:1029C0000001EB000380600060407A008100E800B5
:1029D0000004E000F8FF3A002264880020648000D0
:1029E0000000E00076013A0071002000106620002F
:1029F0009A7302000000000020C2B300DC5A0200FB
:102A000000000000106480000000E80010648800EE
:102A10000081FB0000B82000E240780020C2B30033
:102A200080CF50002100320008B8200012648800D6
:102A300001407800DC5A02000000000010648000B1
:102A400060407C008001FB00A0AE200010407800B8
:102A500068406000040032000300780072730200D6
:102A60000000000080017800A0408000E202200009
:102A70000280B90068004000C2922000E0007900A6
:102A80000300780001000100106480000000E800ED
:102A90001064880000017800F20FB200E2407C0070
:102AA00020C2B30080CF5000E0FF3A0012648800DB
:102AB00020C2B300DC5A020000000000107428009D
:102AC00068570200000000003D013700A040800070
:102AD000E20220000280B900C29220006200780069
:102AE0000000010036013700A0408000E202200013
:102AF0000280B9000080E800C292200060007900E6
:102B0000000001002E013700A0408000E2022000FA
:102B10000280B90064004000C29220006000790089
:102B20000000010026013700A0408000E2022000E2
:102B30000280B90066004000C29220006000790067
:102B4000000001001E013700710020001066200007
:102B50009A7302000000000053010700800478000F
:102B6000106480000000E9000080FB001064880011
:102B7000EA01070080BF9F00FF0107008000780086
:102B80000000E0000900320090AD2000014878000C
:102B9000E88F500003003400A0AE20001054A000C5
:102BA00002003700A0AE20001054A1008005EB0009
:102BB0004100370009007800947202000000000014
:102BC00003C2B300A2AE200012C0610005003A00AB
:102BD00081C0B30090AD200090CF100005003A00F6
:102BE0000B00370003C1B30092AD200092CF11005B
:102BF00007003200B0C3B300DC5A0200000000003E
:102C000091AD2000114078002C5902000000000016
:102C1000A2AE20001241780068406100040032003A
:102C20000900780072730200000000008004780040
:102C3000A0408000E20220000280B900680040004D
:102C4000C2922000E0007900090078000100010034
:102C50000004780000C2B300DC5A0200000000004B
:102C6000AAAE200003C4B3001AC0610011003200F4
:102C700061002000806620009A73020000000000BE
:102C80001A457800684065000400320008007800AA
:102C90007273020000000000000478000800780051
:102CA000947202000000000000C2B300DC5A02006F
:102CB000000000008B05E8000FB89700808F5500DA
:102CC000BCFF3A00107428006857020000000000A2
:102CD000BB00370061002000806620009A7302006C
:102CE000000000008D01070000057800A201070028
:102CF000800078000000E0000900320090AD200064
:102D000001487800E88F500003003400A0AE200096
:102D10001054A00002003700A0AE20001054A10003
:102D20000A00E0002B0032000004EB00ABAE2000F4
:102D300099AD2000A0408000E20220000280B9008E
:102D40006A004000C292200060007900000001008B
:102D5000800078001B417800684061000400320068
:102D6000010078007273020000000000800078000B
:102D700001007800947202000000000003C2B3005A
:102D80001BC0610004003A0080C0B300994F1000DE
:102D900004003A000900370001C1B30099CF1000C8
:102DA00006003200B0C3B300DC5A0200000000008D
:102DB000194078002C5902000000000000C2B30046
:102DC000DC5A0200000000000804E800880F5500EB
:102DD000D8FF3A0010742800685702000000000075
:102DE0007700370081002000E0662000F4730200C5
:102DF00000000000A0408000E20220000280B90034
:102E00006C004000C29220006000790000000100C8
:102E10006B0037008100200060672000F47302001F
:102E200000000000A0408000E20220000280B90003
:102E30006E004000C2922000600079000000010096
:102E40005F003700E1002000E0672000F47302001B
:102E500000000000A0408000E20220000280B900D3
:102E600070004000C2922000600079000000010064
:102E700053003700E1002000C0682000F473020016
:102E800000000000A0408000E20220000280B900A3
:102E900072004000C2922000600079000000010032
:102EA00047003700C1002000D06420009A73020060
:102EB00000000000A0408000E20220000280B90073
:102EC00074004000C2922000600079000000010000
:102ED0004057020000000000390037000F010700D2
:102EE00000047800D1002000A06A20009A7302003C
:102EF000000000000800780094720200000000004A
:102F00000800E0000B0032008004EB00EA02200021
:102F1000CB922000A04080000A80B90076004000DB
:102F200060807D00000001008904E800890F5400E2
:102F3000F8FF3A00107428006857020000000000F3
:102F40001F003700F500070080047800A100200072
:102F5000706B20009A730200000000000900E0007E
:102F6000100032000004EB00EA022000CB922000A7
:102F7000A04080000A80B9007800400060807D0099
:102F800000000100405702000000000000C2B30032
:102F9000DC5A0200000000000804E800888F54009A
:102FA000F3FF3A0001012000A0692000F473020041
:102FB000000000000200370010002000206488009C
:102FC000106480000000E8000080FB0010648800AE
:102FD000206480000000E00002003A000001780058
:102FE0001400370051012000106C20009A73020079
:102FF0000000000010648000800F570004003100C2
:103000000E4050002C590200000000000300370061
:103010000E4050002C590200000000000000EB00A0
:103020002064880010742800685702000000000027
:10303000120020001164800000648000808F500026
:10304000020032000200E000C2FB32007FB19700B4
:10305000126488000264880081F8370000B82000FC
:10306000624078000004E00056FA320059FA370056
:1030700000B82000624078000004E000BEFA320090
:10308000C1FA370000B8200063417800E0C3B30004
:10309000804F5100CAFF3200C520DD0060C820000B
:1030A00080804000EDFD3700881F780015648000A7
:1030B000F40F20000480620003B82000E0C0790013
:1030C000F0CCB30000C04000E84F50001A003E00B2
:1030D0000100FB0001FD2F00010140000500E80098
:1030E0000400600060C279008140420016002000A8
:1030F000E9CF500077003E001600200001FD2F00B0
:10310000F80F200007B820006A11B9000400FB0086
:1031100002004000010140000603E8000680420072
:103120000800600060C27B0001404200E94F50008F
:1031300068003E00F4FF370000C3B30080CF5000AA
:1031400060003A000500E8000080FB0001B82000A4
:1031500060C2780020C6B300804F52006100320088
:1031600020C4B300804F520012003A005D003700C7
:10317000260020000001EB0003FD2F00F70F2000C8
:1031800004B82000020041008100FB000100400063
:10319000030140000603E8000680420007006000CB
:1031A000E0407A0003C04000E14F500049003E007B
:1031B000F4FF370080C7B300804F52001600320082
:1031C00080C5B300804F520026003A00120037003D
:1031D0004411DD00E9CF510005003E000100FB0075
:1031E0000000410001FD2F000101400008003700F0
:1031F000014078000054A00001B8200000F27800DF
:103200000000FB000000410091FA2F000101400086
:103210000603E80002003700260020000001EB0052
:10322000068042000082FB0000B82000E4407800E5
:1032300000CDB30080C14000E9CF5100E4FF36006B
:103240007140500000C04000E54F5000E0FF3600E4
:10325000F0C9B30000C04000E54F5000DCFF36006D
:103260001C00370000CDB3000040420016002000D3
:103270000001EB00E94F500016003E008400FB0007
:1032800000FD2F000081400080007800F80F200032
:1032900007B820006A11B9000400FB0002004000DA
:1032A000010140000603E80005004300080060003B
:1032B00060C27B0001404200E94F500005003E0023
:1032C000F4FF370010002000206488000001EB00AC
:1032D0000F003700068042000080FB001064880069
:1032E0000B0037000580E8000080FB0001B82000DB
:1032F000E0C0780000CDB30000C0400026002000F0
:103300000001EB00E14F5000F2FF3E0098FF370054
:10331000020078004F04780000000600881F780043
:10332000126480000200E8000080FB0001B8200069
:10333000E0C0780013002000A0C3B30080CF50008D
:103340000A003A000280E800F80F20000800600040
:103350001064880054FF070080017800106480002A
:103360000000E90008006000106488000300780095
:103370004F04780000000600881F78001264800067
:103380000200E8000080FB0001B82000E0C07800E7
:103390008001EB00B0C3B30080CF50000A003A00B8
:1033A0000280E800F80F2000080060001064880028
:1033B0003DFF070080017800106480000000E900F4
:1033C0000800600010648800030078004F04780053
:1033D000000006001264800000B82000E24078007F
:1033E00000C2B30080CF500009003A00F40F200063
:1033F00003B82000804078000200E800040160006B
:1034000062C07900814F5000FBFF320012648800D7
:1034100000000600889FBE008A9FBE008C1F7800B7
:10342000106480000000E8000080FB001064880049
:10343000E8FF07001CFF07000000E0003C003A0026
:1034400018002000EB022000CA92200008407800FB
:103450002C5902000000000020792800505702007B
:10346000000000000BC0B900680050000A004000D6
:1034700068570200000000000804E800E90F54004B
:10348000F2FF3A0071012000606D2000F473020029
:10349000000000000000EB00206488001300200002
:1034A00082002000830078000300780046000700B7
:1034B0000006E9000000E800E10F500005003E00B2
:1034C000E1002000D06E2000F47302000000000034
:1034D000350037004B8120001B007800E8022000F7
:1034E0000880B9000002B000CA92200060007D0090
:1034F00000000100D8710200000000008C0D78006F
:1035000008E4B9007E04440068007D00000001006A
:103510000C00E00001003200C222A800510020008F
:1035200050572000F4730200000000001E00370016
:103530000006E900E70F560017003C004B81200011
:103540001B007800E80220000880B9000002B000EB
:10355000CA92200060007D0000000100D8710200C6
:10356000000000008C0D780008E4B9007E044400DF
:1035700068007D00000001000C00E0000100320046
:10358000C222A8005100200050572000F47302000E
:10359000000000000400370051012000C07220002C
:1035A000F473020000000000006480000000E900E5
:1035B0000080FB00106488004F0678004F05BE00B5
:1035C0004F04BE0000000600E8874700889FBE0049
:1035D0008A9FBE008C9FBE008E1F78000005BE0033
:1035E00082067800030778005079280050570200BF
:1035F000000000000A00E00004003D00907928006F
:103600005057020000000000030037000A40780015
:103610002C59020000000000B07928005057020029
:10362000000000008004EB00090678003600370037
:103630000900E000050032008904E90080722800DA
:1036400050570200000000002F0037000C00E0007F
:10365000060032008072280050570200000000006F
:103660008004EB00090678002700370070C0B30023
:10367000DC5A0200000000008004EB00220037004A
:103680000900E00005003A00D0C2B300DC5A020095
:10369000000000001C0020001B00370070C0B300B9
:1036A000DC5A020000000000170037000E00E000A6
:1036B00046003A0000CDB30000404400E94F5000FE
:1036C0000E003E00E38F54000500340070C0B300CC
:1036D000DC5A020000000000490020000A00370008
:1036E00008407800DC5A020000000000748054009A
:1036F00008F07F008904E8000300370070C0B300C1
:10370000DC5A020000000000C85A0200000000005D
:1037100000447800ED4F50002E00320005003C00C0
:10372000E84F5000C2FF3200EA4F5000E1FF3A007C
:1037300028003700D0C2B300804F5400D0FF3200C1
:1037400080C7B300804F5400DAFF3A00D7FF37003C
:103750000901E9000000EB000D0033000000EB0060
:103760008000780005FD2F000202E8006A01B90020
:103770007483570066C078000000FB000200400020
:10378000050040008100E800848F5000F7FF3A00F8
:10379000808F550008003C00808F560006003500E1
:1037A0000C00E00002003A00000578000E0037002F
:1037B0000005EA000C003700B101200080EC200079
:1037C000F47302000000000087FF37000085EB0063
:1037D0000500370010742800685702000000000040
:1037E0000900E000DAFF3A000A0078004F0778008D
:1037F0004F06BE004F05BE004F04BE008F00B10053
:1038000000000600881F7800E07928005057020069
:1038100000000000E0C2B300DC5A0200000000001B
:10382000A081200010407800DC5A02000000000057
:1038300061812000F0442000910F100003003A0045
:10384000C07A2800505702000000000010742800C1
:103850006857020000000000307C2800505702002A
:1038600000000000D1002000A08020009A73020018
:1038700000000000A1BF2A000000EB00025A020075
:1038800000000000000478004800DE002C5902000F
:1038900000000000E0C2B300DC5A0200000000009B
:1038A000084078002C590200000000001074280025
:1038B0006857020000000000610020003076200000
:1038C0009A73020000000000688120001800780050
:1038D000AE590200000000007100200010EC200032
:1038E0009A73020000000000C0408000AE59020040
:1038F00000000000E07D280050570200000000009A
:10390000F0442000980F100004003A00B07E280018
:10391000505702000000000003003700E07E28003E
:103920005057020000000000C14080002004230026
:10393000808F50001000320004003E003000230051
:10394000808F500018003A00070037003004230031
:10395000808F50000C00320063004000808F5000C8
:1039600011003A000C003700107F28005057020069
:10397000000000000F003700407F28005057020071
:10398000000000000B003700707F28005057020035
:103990000000000007003700A07F280050570200F9
:1039A0000000000003003700D07F280050570200BD
:1039B000000000001080280068570200000000008E
:1039C000E101200090762000F47302000000000066
:1039D0004F047800000006005100200050922000A3
:1039E0009A73020000000000C1BF2A000000EB0033
:1039F000025A020000000000AE5902000000000060
:103A000061002000A09220009A73020000000000D4
:103A1000E1BF2A000000EB00025A02000000000093
:103A2000AE59020000000000107428006857020020
:103A300000000000C100200070782000F473020034
:103A40000000000069000700C2C2BF000008A30018
:103A50000500320011012000A06220009A730200CC
:103A6000000000000400370021012000B0632000A6
:103A70009A73020000000000C0C2B300DC5A0200CA
:103A80000000000000C2B300DC5A02000000000089
:103A9000CBC2BF000038A300050032004101200066
:103AA000705D20009A7302000000000004003700DF
:103AB00051012000205C20009A73020000000000E9
:103AC000C0C2B300DC5A02000000000000C2B30014
:103AD000DC5A020000000000A0AE20001040780078
:103AE0007040600005003200210220003079200083
:103AF000F47302000000000004003700E101200020
:103B0000507B2000F473020000000000A0AE2000F3
:103B1000104078006840600005003A00B1012000C4
:103B2000307D20009A73020000000000040037007E
:103B3000C1012000E07E20009A7302000000000016
:103B4000C0C2B300DC5A02000000000000C2B30093
:103B5000DC5A020000000000B1012000B01A210070
:103B60009A7302000000000090AD20001040780021
:103B70002C59020000000000107428006857020051
:103B800000000000A0AE20001040780063406000FC
:103B9000E14F500005003A0051012000005920007B
:103BA000F4730200000000000400370061012000EF
:103BB000A0572000F473020000000000A040800025
:103BC000E20220000280B9004002B000C292200050
:103BD0006000790000000100C10020007078200022
:103BE000F47302000000000000000600A1002000A5
:103BF00040072100F473020000000000610420006F
:103C0000C00C2100F473020000000000A10120009C
:103C1000E00721009A73020000000000A04080002D
:103C2000E20220000280B9002002B000C29220000F
:103C30006000790000000100A1002000800921003F
:103C40009A73020000000000004020004F000700AF
:103C5000001020004D000700002020004B0007004E
:103C6000000420004900070000082000470007006A
:103C70001074280068570200000000004100200076
:103C8000201121009A7302000000000021E3A80027
:103C9000A0C0B3001672020000000000D859020054
:103CA0000000000011002000B03720009A730200CD
:103CB0000000000090C0B300DC5A020000000000C9
:103CC00090C0B3001672020000000000D859020034
:103CD0000000000011002000B03720009A7302009D
:103CE0000000000090C0B300DC5A02000000000099
:103CF000C0C0B3001672020000000000D8590200D4
:103D00000000000011002000B03720009A7302006C
:103D10000000000090C0B300DC5A02000000000068
:103D2000B0C0B3001672020000000000D8590200B3
:103D30000000000011002000B03720009A7302003C
:103D40000000000090C0B300DC5A02000000000038
:103D500021E3A90000402000170007000010200008
:103D600015000700002020001300070000042000B9
:103D700011000700000820000F0007001074280041
:103D80006857020000000000000006004116800095
:103D9000808060000400320030802800505702000C
:103DA0000000000003003700608028005057020028
:103DB00000000000000006005116800080806000B6
:103DC00004003200908028005057020000000000DC
:103DD00003003700C0802800505702000000000098
:103DE00000000600881F7800106480000000E800D2
:103DF0000080FB001064880076FD0700AAFC070025
:103E00000000E900E30F500002003E0090408800EF
:103E10000D0037000004EB00286488002102200018
:103E200070812000F4730200000000008801780017
:103E3000420020001100200010002000E2FD0700D9
:103E40000000E900904088002101200090832000BC
:103E5000F4730200000000004F0478000000060028
:103E6000881F7800106480000000E8000080FB00DC
:103E70001064880057FD07008BFC07008040E900B4
:103E8000E9CF500003003E00008120000148780087
:103E90000D0037000004EB0028648800D1082000E2
:103EA00060872000F47302000000000088017800A1
:103EB000A20020001100200090002000C2FD070099
:103EC000018120008048E9000044EB0000812000CF
:103ED00091C0B30090CF100010003A003DFD0700E4
:103EE00071FC0700004478000004E0000B003A0079
:103EF0000004EB0028648800F08028006857020066
:103F00000000000088017800F2FF27008800780098
:103F100020022000ACFD0700004478004101200091
:103F200030902000F4730200000000001101200016
:103F3000A0192100F4730200000000003A5A0200A8
:103F4000000000000004E000FCFF320000812000BF
:103F500091C0B30090CF100003003A0008407800F1
:103F6000F25A020000000000185A0200000000008F
:103F700008C2B300C85A020000000000884F500079
:103F8000FCFF3A004F047800000006005752490039
:103F900054452000424954003A2020002A6E650012
:103FA00078742000636C6F00636B2000285E29002A
:103FB000207769006C6C20007573650020746800C0
:103FC0006973200076616C0075654E006F20640097
:103FD0006576690063652C002074720079202800E2
:103FE000414C4100524D29002053450041524300AD
:103FF00048206D00616372006F2066006972730073
:104000007441440044524500535320004D41430045
:10401000524F200020302E004D616300726F20004F
:104020006D656E00754D610063726F002020200089
:10403000202031005749520045206100646472001D
:10404000657373000D0A200020202A0031574900B3
:1040500052452000524F4D0020434F004D4D41002E
:104060004E4420004D414300524F73003A0D0A0068
:10407000203531002E52450041442000524F4D0062
:10408000202830007833330029202A00666F720020
:10409000207369006E676C006520640065766900B6
:1040A00063652000627573000D0A200038352E000C
:1040B0004D41540043482000524F4D00202830000D
:1040C0007835350029202A00666F6C006C6F770008
:1040D0006564200062792000363462006974200033
:1040E0006164640072657300730D0A002032300051
:1040F000342E53004B49500020524F004D202800D1
:1041000030784300432920002A666F006C6C6F00F2
:10411000776564002062790020636F006D6D610037
:104120006E640D000A20320033362E00414C4100EF
:10413000524D200053454100524348002028300092
:1041400078454300290D0A0020323400302E5300F8
:104150004541520043482000524F4D002028300076
:104160007846300029414C0041524D002053450013
:10417000415243004820280030784500432953002D
:10418000454152004348200028307800463029003D
:10419000446576006963650020494400732061002E
:1041A0007265200061766100696C6100626C650077
:1041B00020627900204D410043524F002C207300B3
:1041C00065652000283029002E524500414420001A
:1041D000524F4D002028300078333300293A200018
:1041E0004D41540043482000524F4D0020283000DC
:1041F0007835350029534B0049502000524F4D006F
:10420000202830007843430029556E006B6E6F0004
:10421000776E20006D616300726F2C002074720055
:1042200079203F00206F720020283000292066008E
:104230006F72200068656C00704255005320520078
:10424000455345005420570061726E00696E670047
:104250003A202A0053686F00727420006F722000A9
:104260006E6F200070756C006C2D750070202A0038
:104270004E6F200064657600696365002064650008
:104280007465630074656400204453003138530042
:104290003230200048696700682050007265730062
:1042A0002044690067205400686572006D44530023
:1042B000313842003230200050726F0067205200C7
:1042C00065732000446967002054680065726D00C2
:1042D0004453310038323200204563006F6E2000B5
:1042E000446967002054680065726D0044533200D1
:1042F00034303400204563006F6E7200616D200021
:1043000074696D0065204300686970004453320091
:104310003433310020314B002045450050524F00CE
:104320004D556E006B6E6F00776E200064657600F1
:104330006963650050574D00206469007361620035
:104340006C656400314B48007A2D34002C3030000D
:10435000304B48007A205000574D4600726571007E
:1043600075656E0063792000696E20004B487A0005
:104370002050720065736300616C65003A50520012
:10438000323A44007574790020637900636C6500EB
:1043900020696E002025200050574D0020616300E9
:1043A0007469760065455200524F52003A20500021
:1043B000574D200061637400697665002C2067000A
:1043C00020746F0020646900736162006C654100B5
:1043D0005558200046726500717565006E6379005E
:1043E0003A20410055582000494E500055542F00A6
:1043F00048492D005A415500582048004947480077
:1044000041555800204C4F0057564F004C544D001A
:104410004554450052204D004F444500564F4C0036
:104420005441470045205000524F4200453A200079
:1044300056457200726F720028292000406C690096
:104440006E653A0020407000676D73007061630014
:10445000653A20006279740065732E00546F6F0016
:10446000206C6F006E67210053796E0074617800D4
:1044700020657200726F72004E6F2000454550003B
:10448000524F4D004572610073696E0067646F00A2
:104490006E655300617669006E672000746F2000BE
:1044A000736C6F00742049006E7661006C69640063
:1044B00020736C006F744C006F616400696E67005C
:1044C000206672006F6D2000736C6F0074204500D1
:1044D00052524F00523A2000636F6D006D616E00C2
:1044E00064206800617320006E6F200065666600BE
:1044F000656374002068650072654100434B4E009F
:1045000041434B0049324300205354004152540070
:10451000204249005449320043205300544F500078
:10452000204249005449320043206D006F64650009
:104530003A0D0A0020312E0020536F006674770078
:10454000617265000D0A2000322E20004861720061
:1045500064776100726553006574200073706500B4
:1045600065643A000D0A2000312E20007E354B0094
:10457000487A0D000A2032002E207E0035304B0094
:10458000487A0D000A2033002E207E0031303000A2
:104590004B487A000D0A2000342E20007E34300073
:1045A000304B48007A574100524E49004E473A007E
:1045B00020484100524457004152450020493200F2
:1045C0004320690073206200726F6B00656E2000EB
:1045D0006F6E200074686900732050004943210009
:1045E00020285200455620004133290053657400AD
:1045F00020737000656564003A0D0A0020312E00BA
:1046000020313000304B48007A0D0A0020322E0055
:1046100020343000304B48007A0D0A0020332E0041
:1046200020314D00487A490032432000286D6F0048
:1046300064207300706429003D28200020302E0083
:104640004D616300726F20006D656E00750D0A008C
:1046500020312E00376269007420610064647200AA
:10466000657373002073650061726300680D0A0052
:1046700020322E004932430020736E0069666600C6
:104680006572530065617200636869006E6720009F
:104690004932430020616400647265007373200036
:1046A0007370610063652E0020466F00756E6400B4
:1046B00020646500766963006573200061743A00C8
:1046C000536E6900666665007228420041534900D6
:1046D000432952006561640079612F00412F400039
:1046E00020636F006E7472006F6C73002041550080
:1046F00058207000696E61002F412F004020630038
:104700006F6E7400726F6C00732043005320700052
:10471000696E43006F6D6D00616E6400206E6F0006
:10472000742075007365640020696E002074680051
:10473000697320006D6F6400655075006C6C2D000E
:104740007570200072657300697374006F72730076
:10475000204F4600465075006C6C2D00757020008F
:1047600072657300697374006F727300204F4E009E
:1047700053656C00662D74006573740020696E00CB
:10478000204869005A206D006F646500206F6E003C
:104790006C7952004553450054424F004F544C0031
:1047A0004F4144004552410055582000494E5000A9
:1047B00055542F0048492D005A2C200052454100E5
:1047C000443A2000504F57004552200053555000A6
:1047D000504C4900455320004F4E50004F57450064
:1047E00052205300555050004C49450053204F0073
:1047F0004646440041544100205354004154450072
:104800003A204400454C410059207500735752002E
:10481000495445003A205200454144003A204300A3
:104820004C4F43004B2C200031434C004F434B0076
:104830002C2030004441540041204F00555450007A
:1048400055542C002031440041544100204F550064
:1048500054505500542C200030202A0070696E00FE
:1048600020697300206E6F0077204800695A43006A
:104870004C4F43004B20540049434B00533A200017
:10488000524541004420420049543A0020537900E7
:104890006E7461007820650072726F007220610092
:1048A000742063006861720020782E002065780013
:1048B0006974280077697400686F7500742063005C
:1048C00068616E00676529006E6F20006D6F64007F
:1048D0006520630068616E00676523003A204E0022
:1048E0006F2073006F66740077617200652072003C
:1048F0006573650074206F006E207600342C2000F4
:10490000757365002074680065207200657365002A
:1049100074206200757474006F6E2E004E6F6E000E
:1049200065786900737465006E74200070726F00A2
:10493000746F63006F6C2100782E20006578690029
:10494000740D0A00496E7600616C69006420630092
:10495000686F690063652C00207472007920610023
:10496000676169006E444500564944003A68740026
:1049700074703A002F2F6400616E670065726F00DB
:1049800075737000726F74006F74790070657300D6
:104990002E636F006D2A2D002D2D2D002D2D2D0045
:1049A0002D2D2D002A4F7000656E2000647261006D
:1049B000696E20006F757400707574007320280094
:1049C000483D4800692D5A002C204C003D474E00C0
:1049D00044294E006F726D00616C20006F75740089
:1049E0007075740073202800483D33002E33760024
:1049F0002C204C003D474E0044294D0053422000DE
:104A0000736574003A204D004F53540020736900C1
:104A100067206200697420006669720073744C003C
:104A200053422000736574003A204C004541530006
:104A30005420730069672000626974002066690071
:104A40007273740020426F006F746C006F616400B9
:104A500065722000762031002E20480045580D0058
:104A60000A2032002E20440045430D000A20330066
:104A70002E204200494E0D000A2034002E20520004
:104A800041574400697370006C61790020666F00C3
:104A9000726D610074207300657456006F6C740051
:104AA00061676500206D6F006E6974006F7273003E
:104AB0003A203500563A2000207C2000332E330067
:104AC000563A2000207C2000565055004C4C550092
:104AD000503A2000536574002073650072696100CC
:104AE0006C2070006F727400207370006565640044
:104AF0003A20280062707300290D0A0020312E0030
:104B000020333000300D0A0020322E0020313200D8
:104B100030300D000A2033002E20320034303000B7
:104B20000D0A2000342E200034383000300D0A00E9
:104B300020352E002039360030300D000A20360096
:104B40002E20310039323000300D0A0020372E007F
:104B500020333800343030000D0A2000382E200079
:104B60003537360030300D000A2039002E20310054
:104B70003135320030300D000A3130002E20420035
:104B80005247200072617700207661006C756500E5
:104B900041646A007573740020796F00757220009B
:104BA000746572006D696E00616C41007265200071
:104BB000796F75002073750072653F0020434600D1
:104BC00047313A002043460047323A00285C2D0026
:104BD0002F5F5C002D2928005C5F2F002D295300DA
:104BE000656C6500637420006F75740070757400E7
:104BF0002074790070653A000D0A2000312E2000E3
:104C00004F7065006E206400726169006E2028009C
:104C1000483D4800692D5A002C204C003D474E006D
:104C200044290D000A2032002E204E006F726D00C4
:104C3000616C200028483D00332E3300562C2000A4
:104C40004C3D47004E442900523257002028730043
:104C50007064200068697A00293D28002020300017
:104C60002E4D610063726F00206D65006E750D0042
:104C70000A2031002E4953004F37380031362D00BD
:104C80003320410054520D000A2032002E495300B7
:104C90004F37380031362D003320700061727300B9
:104CA00065206F006E6C790049534F002037380043
:104CB00031362D0033204100545220002852450047
:104CC00053455400206F6E0020435300290D0A0005
:104CD000524553004554200048494700482C2000C5
:104CE000434C4F00434B2000544943004B2C2000C1
:104CF00052455300455420004C4F570049534F0034
:104D00002037380031362D003320720065706C007A
:104D10007920280075736500732063007572720036
:104D2000656E7400204C530042207300657474005B
:104D3000696E6700293A200050726F00746F63003B
:104D40006F6C3A0020736500726961006C3320005B
:104D500077697200653220007769720065524600FB
:104D600055756E006B6E6F00776E52006561640062
:104D70002074790070653A0020746F0020656E0021
:104D80006476610072696100626C6500206C650088
:104D90006E6774006844610074612000756E69007C
:104DA00074733A00206E6F0020696E0064696300BE
:104DB000617469006F6E44006174610020756E005B
:104DC000697420006C656E006774680020286200BA
:104DD00069747300293A200043532000454E410076
:104DE000424C450044435300204449005341420093
:104DF0004C45440052335700202873007064200053
:104E000063736C00206869007A293D00282029001E
:104E10000D0A4400697363006F6E6E006563740071
:104E200020616E0079206400657669006365730017
:104E30000D0A43006F6E6E006563740020285600F3
:104E400070752000746F20002B35560029206100FA
:104E50006E64200028414400432074006F202B0022
:104E6000332E33005629430074726C0041555800AC
:104E70004D4F440045204C0045445000554C4C00DB
:104E800055502000485055004C4C550050204C00C7
:104E90005652450047414400432061006E642000A3
:104EA00073757000706C790035565600505533009C
:104EB0002E33560041444300427573002068690058
:104EC000676842007573200048692D005A20300041
:104ED00042757300204869002D5A2000314D4F0063
:104EE00044452000616E6400205652004547200072
:104EF0004C45440073207300686F75006C6420009B
:104F0000626520006F6E2100466F75006E642000A0
:104F100020657200726F7200732E4D004F5349006E
:104F2000434C4B004D4953004F435300204F4B001F
:104F300020464100494C53006574200073706500A1
:104F400065643A000D0A2000312E200033304B00FA
:104F5000487A0D000A2032002E20310032354B00F5
:104F6000487A0D000A2033002E20320035304B00E5
:104F7000487A0D000A2034002E2031004D487A0076
:104F8000436C6F00636B2000706F6C00617269008E
:104F900074793A000D0A2000312E200049646C001B
:104FA00065206C006F7720002A64650066617500DB
:104FB0006C740D000A2032002E204900646C6500DC
:104FC0002068690067684F00757470007574200070
:104FD000636C6F00636B200065646700653A0D00C9
:104FE0000A2031002E204900646C650020746F0097
:104FF0002061630074697600650D0A0020322E007E
:105000002041630074697600652074006F20690098
:10501000646C6500202A640065666100756C74002C
:10502000496E70007574200073616D00706C6500CE
:1050300020706800617365003A0D0A0020312E006F
:10504000204D690064646C0065202A006465660078
:1050500061756C00740D0A0020322E0020456E0030
:1050600064535000492028007370640020636B0073
:10507000702073006B652000736D700020637300F7
:105080006C206800697A29003D28200020302E001D
:105090004D616300726F20006D656E00750D0A0032
:1050A00020312E00536E69006666200043532000B5
:1050B0006C6F77000D0A2000322E53006E69660077
:1050C000662061006C6C2000747261006666690085
:1050D000632D7000202D6600202A4200797465003F
:1050E00073206400726F7000706564002A4641008E
:1050F000494C4500442C20004E4F200044415400B0
:105100004144610074612000626974007320610091
:105110006E64200070617200697479003A0D0A00B3
:1051200020312E0020382C00204E4F004E4520000C
:105130002A646500666175006C7420000D0A200009
:10514000322E2000382C2000455645004E200D0000
:105150000A2033002E2038002C204F004444200029
:105160000D0A2000342E2000392C20004E4F4E0016
:10517000455374006F70200062697400733A0D002B
:105180000A2031002E203100202A6400656661006B
:10519000756C74000D0A2000322E2000325265001A
:1051A0006365690076652000706F6C00617269004C
:1051B00074793A000D0A2000312E200049646C00F9
:1051C00065203100202A640065666100756C7400FA
:1051D0000D0A2000322E200049646C00652030004A
:1051E0005541520054202800737064002062720000
:1051F0006720640062702000736220007278700083
:10520000206869007A293D0028202000302E4D00BA
:10521000616372006F206D00656E75000D0A2000DD
:10522000312E540072616E007370610072656E0001
:10523000742062007269640067650D000A20320004
:105240002E4C6900766520006D6F6E0069746F00EA
:10525000720D0A0020332E004272690064676500F7
:105260002077690074682000666C6F007720630007
:105270006F6E7400726F6C000A0D2000342E4100B6
:1052800075746F00204261007564200044657400ED
:1052900065637400696F6E005541520054206200CE
:1052A000726964006765520065736500742074005C
:1052B0006F206500786974005261770020554100C5
:1052C00052542000696E70007574550041525400AC
:1052D000204C49005645200044495300504C4100A1
:1052E000592C20007D2054004F205300544F500073
:1052F0004C49560045204400495350004C41590048
:10530000205354004F5050004544570041524E0026
:10531000494E47003A207000696E7300206E6F009E
:1053200074206F0070656E002064720061696E0009
:1053300020284800695A2900205245005649440057
:105340003A0D0A00496E7600616C690064206300C2
:10535000686F690063652C00207472007920610019
:10536000676169006E6D7300525320004C4F570007
:105370002C2043004F4D4D00414E4400204D4F0026
:105380004445520053204800494748002C2044001F
:1053900041544100204D4F00444541006464720077
:1053A00065737300206F6600205043004638350057
:1053B00037343F005468690073206D006F646500E6
:1053C00020726500717569007265730020616E005E
:1053D000206164006170740065724C0043442000D9
:1053E00074797000653A0D000A2031002E204800C3
:1053F00044343400373830002028750073696E005B
:1054000067205000434638003537340020494F00AC
:105410002065780070616E0064657200294C43005D
:1054200044202800747970002061640064722900AF
:10543000203D200028202000302E4D0061637200A6
:105440006F206D00656E75000D0A2000312E4C0036
:10545000434420005265730065740D000A20320039
:105460002E496E00697420004C4344000D0A200050
:10547000332E43006C65610072204C0043440D00E4
:105480000A2034002E43750072736F007220700082
:105490006F73690074696F006E206500783A2800A8
:1054A00034292000300D0A0020362E005772690082
:1054B000746520007465730074206E00756D620061
:1054C00065727300206578003A283600292038007C
:1054D000300D0A0020372E005772690074652000D5
:1054E0007465730074206300686172006163740006
:1054F00065727300206578003A283700292038004B
:105500003044690073706C00617920006C696E0032
:1055100065733A000D0A2000312E200031200D0065
:105520000A2032002E204D00756C740069706C00EA
:1055300065494E00495443004C45410052435500D3
:1055400052534F005220530045544E006F204100EB
:10555000434B2C002063680065636B00206164008E
:1055600061707400657243004C4B09004D4F53004D
:105570004909430053094D0049534F0050696E00DB
:1055800073746100746573003A474E004409330038
:105590002E33560009352E00305609004144430091
:1055A000095650005509410055580900500950004E
:1055B0000950090049094900092D09004F574400C5
:1055C000092D09002D2D090054784400092D0900EA
:1055D0005278440053434C000953440041092D00C4
:1055E000092D50004743090050474400092D090088
:1055F0002D312E0028425200290932002E28520057
:1056000044290900332E28004F52290009342E0066
:1056100028595700290935002E2847004E2909002E
:10562000362E2800424C290009372E0028505500FC
:10563000290938002E28470052290900392E280050
:105640005754290009302E0028426C006B2947006E
:105650004E440900474E44000941440043093500C7
:105660002E30560009332E0033560900565055008F
:105670000941550058096500786563007574650037
:10568000203A200020617500746F7200616E67001F
:1056900065202B004D487A00292B6B00487A2900A1
:1056A00052617700207661006C75650020666F009E
:1056B0007220420052472000284D490044493D00D5
:1056C0003132370029574100524E49004E473A00C7
:1056D00020506F0073736900626C65002062750072
:1056E00066666500726F7600657266006C6F7700A3
:1056F000416E7900206B6500792074006F20650091
:10570000786974005370610063652000746F200035
:10571000636F6E0074696E0075654E00756D620092
:10572000657220006F662000626974007320720049
:10573000656164002F777200697465003A20430048
:10574000533A0D000A2031002E204300530D0A0069
:1057500020322E00202F430053202A00646566006B
:1057600061756C0074506F0073697400696F6E002E
:1057700020696E00206465006772650065735300E0
:10578000657276006F20610063746900766557006A
:1057900061697400696E6700206163007469760056
:1057A000697479002E2E2E002A2A2000456172008D
:1057B0006C7920004578690074212A002A42610032
:1057C00075643E0031366D003A204200502043009F
:1057D000616E6E006F7420006D65610073757200FC
:1057E00065203E002031360030303000303030004F
:1057F0002C2044006F6E65002E0A0D0043616C0082
:1058000063756C0061746500643A2000090A0D003C
:1058100045737400696D6100746564003A2020006E
:10582000092062007073200047656E006572610098
:105830006C0909000909090050726F00746F630058
:105840006F6C2000696E740065726100637469009A
:105850006F6E20002D2D2D002D2D2D002D2D2D00B6
:105860002D2D2D002D2D2D002D2D2D002D2D2D001C
:105870002D2D2D002D2D2D002D2D2D002D2D2D000C
:105880002D2D2D002D2D2D002D2D2D002D2D2D00FC
:105890002D2D2D002D2D2D002D2D2D002D2D2D00EC
:1058A0002D2D2D002D2D2D002D2D2D002D2D2D00DC
:1058B0002D2D2D002D2D2D00203F0900546869004D
:1058C00073206800656C7000090909002830290000
:1058D000094C6900737420006375720072656E0074
:1058E00074206D00616372006F7320003D582F00BB
:1058F0007C580900436F6E00766572007473200057
:10590000582F720065766500727365002058090093
:105910000928780029094D00616372006F20780022
:10592000207E090053656C0066746500737409007D
:1059300009095B0009537400617274002023090097
:105940005265730065742000746865002042500041
:1059500020202000090909005D095300746F7000C0
:10596000202409004A756D00702074006F206200C9
:105970006F6F74006C6F61006465720009097B00D1
:105980000953740061727400207769007468200004
:1059900072656100642026002F25090044656C00B3
:1059A0006179200031207500732F6D0073090900A3
:1059B000097D090053746F00702061002F412F0092
:1059C0004009410055585000494E2000286C6F0096
:1059D000772F4800492F520045414400290909000A
:1059E000226162006322090053656E006420730027
:1059F000747269006E6720006209530065742000AC
:105A00006261750064726100746509000909310002
:105A100032332000632F43000941550058206100B4
:105A200073736900676E6D00656E740020286100F5
:105A300075782F004353290009093000783132006E
:105A4000332064002F4409004D65610073757200B6
:105A50006520410044432000286F6E0063652F00DD
:105A6000434F4E00542E290009306200313130007E
:105A7000095365006E64200076616C007565200036
:105A800066094D00656173007572650020667200DD
:105A900065717500656E630079090900720952002D
:105AA0006561640020672F0053094700656E65003B
:105AB0007261740065205000574D2F0053657200CD
:105AC000766F0900092F0900434C4B0020686900DC
:105AD00020680900436F6D006D616E0064686900A5
:105AE00073746F007279090009095C0009434C0066
:105AF0004B206C006F2069000956650072736900C5
:105B00006F6E69006E666F002F73740061747500AC
:105B100073696E00666F0900095E0900434C4B0013
:105B200020746900636B20006C2F4C0009426900EF
:105B3000746F72006465720020286D0073622F001C
:105B40004C534200290909002D094400415420000A
:105B5000686920006D09430068616E006765200078
:105B60006D6F640065090900095F09004441540034
:105B7000206C6F00206F090053657400206F750062
:105B8000747075007420740079706500090909004B
:105B90002E094400415420007265610064207000A9
:105BA0002F50090050756C006C75700020726500F4
:105BB00073697300746F7200732028006F6666004B
:105BC0002F4F4E00290921000942690074207200FC
:105BD000656164002073090053637200697074008A
:105BE00020656E0067696E0065090900093A0900C1
:105BF000526570006561740020652E00672E2000DC
:105C0000723A310030207600095368006F77200027
:105C1000766F6C0074732F00737461007465730089
:105C200009093B000942690074732000746F200069
:105C300072656100642F77007269740065206500E9
:105C40002E672E002030780035353B00322077005B
:105C50002F5709005053550020286F0066662F000B
:105C60004F4E290009093C00783E2F003C783D004A
:105C7000203E2F003C303E000955730065726D00D8
:105C8000616372006F2078002F6173007369670091
:105C90006E2078002F6C690073742000616C6C00BA
:105CA000A0AE20001064A00080AF2000104078005B
:105CB0006840600005003200CAC2A900F0C2B3000B
:105CC000DC5A02000000000001003700CAC2A80030
:105CD000A100200090AB2000F4730200000000003F
:105CE00000000600A0AE20001064A10080AF2000DC
:105CF000104078006840600005003200CAC2A90068
:105D0000F0C2B300DC5A02000000000001003700BE
:105D1000CAC2A800A100200090AB2000F4730200CA
:105D2000000000000000060080AF20001040780056
:105D30006840600005003200CAC2A800F0C2B3008B
:105D4000DC5A02000000000001003700CAC2A900AE
