:020000040000fa
:080000000002040000000000f2
:020000040000fa
:100400000f8020000e7f22000e01880000000000f7
:100410000c000700a035200001002000110007009b
:10042000000020000000e000020032000000020096
:100430000000000094020200000000000040da000a
:100440000000fe004440a900000020000000e00081
:100450000300320000002000a00188004440a800f2
:100460000000060091018800800078000000eb0089
:1004700015003700e280400032a0b4009101ba00bc
:10048000e280400032a0b4009102ba00e280400055
:1004900032a0b4000002eb00472bde00f507b200eb
:1004a000602ce10004003a000059eb008301e900f0
:1004b000fdff3e00040037006128e100010032002a
:1004c0000082eb00040007001101ba000200e00006
:1004d000e8ff3a00000006003159ba008301e90044
:1004e0000c0032002159ba008301e90008003200f3
:1004f0000400e00003003a00e280400032a0b400b3
:10050000f5ff370011d9ba008301e900faff3a007c
:100510008100e800e180400032a0b4000000060045
:080520000040da000000fe00bb
:020000040000fa
:020000040001f9
:0457f800dff90000d5
:020000040000fa
:020000040001f9
:0457fc007f3f0000eb
:020000040000fa
:1000080090020000900200009002000090020000a0
:100018009002000090020000900200009002000090
:100028009002000090020000900200009002000080
:100038009002000090020000900200009002000070
:020000040000fa
:020000040000fa
:100528000200fa004507a9000080eb006019880066
:100538004227a900c022a900c002a900c402a8003d
:10054800c422a8003f0007000e0007000000370083
:10055800290007008040780010c6b30080cf500003
:10056800fbff3a0018000700000f78001e00780013
:100578004800de00290007001e0078002700070059
:10058800f3ff37000000fa002d83a9000132200094
:100598009140780000ceb30000c0700020e3b7009f
:1005a8000000eb008019880020f021002019880045
:1005b8000000eb0010198800c000200040198800d6
:1005c8000080fa00000006000000fa0021e3a800fd
:1005d8002023a8002003a90020c3bf0061406000b9
:1005e8000004e000fcff320021e3a90000188000ad
:1005f8000080fa00000006000000fa0022c2bf00d6
:10060800614060000004e000fcff3200301180000f
:100618000080fb000080fa00000006000200fa00db
:10062800004f780023c2bf00624060000004e00071
:10063800fcff3a001e00fb00201188000080fa0031
:10064800000006000000fa00c882a800416a2000e5
:100658009140780000ceb30000c060005040b30065
:10066800a4e6b700416c20009140780000ceb300aa
:1006780000c060003040b300c4e6b700200220008c
:10068800401188000000eb00001188002062a800db
:100698000000eb001011880021e2a8002342a80006
:0c06a8008560a9000080fa000000060038
:020000040000fa
:0406b4000000000042
:00000001FF
