:020000040000FA
:100000000002040000000000C0A10000C0A1000028
:10001000C0A10000C0A10000C0A10000C0A100005C
:10002000C0A10000C0A10000C0A10000C0A100004C
:10003000C0A10000C0A10000C0A10000C0A100003C
:10004000C0A10000C0A10000C0A10000C0A100002C
:10005000C0A100008C700000B2700000C0A10000C0
:10006000C0A10000C0A10000C0A10000C0A100000C
:10007000C0A10000C0A10000C0A10000C0A10000FC
:10008000C0A10000C0A10000C0A10000C0A10000EC
:10009000C0A10000C0A10000C0A10000C0A10000DC
:1000A000C0A10000C0A10000C0A10000C0A10000CC
:1000B000C0A10000C0A10000C0A10000C0A10000BC
:1000C000C0A10000C0A10000C0A10000C0A10000AC
:1000D000C0A10000C0A10000C0A10000C0A100009C
:1000E000C0A10000C0A10000C0A10000C0A100008C
:1000F000C0A10000C0A10000C0A10000C0A100007C
:10010000C0A10000C0A10000C0A10000C0A100006B
:10011000C0A10000C0A10000C0A10000C0A100005B
:10012000C0A10000C0A10000C0A10000C0A100004B
:10013000C0A10000C0A10000C0A10000C0A100003B
:10014000C0A10000C0A10000C0A10000C0A100002B
:10015000C0A10000C0A10000C0A10000C0A100001B
:10016000C0A10000C0A10000C0A10000C0A100000B
:10017000C0A10000C0A10000C0A10000C0A10000FB
:10018000C0A10000C0A10000C0A10000C0A10000EB
:10019000C0A10000C0A10000C0A10000C0A10000DB
:1001A000C0A10000C0A10000C0A10000C0A10000CB
:1001B000C0A10000C0A10000C0A10000C0A10000BB
:1001C000C0A10000C0A10000C0A10000C0A10000AB
:1001D000C0A10000C0A10000C0A10000C0A100009B
:1001E000C0A10000C0A10000C0A10000C0A100008B
:1001F000C0A10000C0A10000C0A10000C0A100007B
:10020000FFFFFF00FFFFFF00C0A10000C0A1000032
:10021000C0A10000C0A10000C0A10000C0A100005A
:10022000C0A10000C0A10000C0A10000C0A100004A
:10023000C0A10000C0A10000C0A10000C0A100003A
:10024000C0A10000C0A10000C0A10000C0A100002A
:10025000C0A100008C700000B2700000C0A10000BE
:10026000C0A10000C0A10000C0A10000C0A100000A
:10027000C0A10000C0A10000C0A10000C0A10000FA
:10028000C0A10000C0A10000C0A10000C0A10000EA
:10029000C0A10000C0A10000C0A10000C0A10000DA
:1002A000C0A10000C0A10000C0A10000C0A10000CA
:1002B000C0A10000C0A10000C0A10000C0A10000BA
:1002C000C0A10000C0A10000C0A10000C0A10000AA
:1002D000C0A10000C0A10000C0A10000C0A100009A
:1002E000C0A10000C0A10000C0A10000C0A100008A
:1002F000C0A10000C0A10000C0A10000C0A100007A
:10030000C0A10000C0A10000C0A10000C0A1000069
:10031000C0A10000C0A10000C0A10000C0A1000059
:10032000C0A10000C0A10000C0A10000C0A1000049
:10033000C0A10000C0A10000C0A10000C0A1000039
:10034000C0A10000C0A10000C0A10000C0A1000029
:10035000C0A10000C0A10000C0A10000C0A1000019
:10036000C0A10000C0A10000C0A10000C0A1000009
:10037000C0A10000C0A10000C0A10000C0A10000F9
:10038000C0A10000C0A10000C0A10000C0A10000E9
:10039000C0A10000C0A10000C0A10000C0A10000D9
:1003A000C0A10000C0A10000C0A10000C0A10000C9
:1003B000C0A10000C0A10000C0A10000C0A10000B9
:1003C000C0A10000C0A10000C0A10000C0A10000A9
:1003D000C0A10000C0A10000C0A10000C0A1000099
:1003E000C0A10000C0A10000C0A10000C0A1000089
:1003F000C0A10000C0A10000C0A10000C0A1000079
:10040000EF272200007F220000018800000000008A
:100410000C000700A0DE28000100200011000700EA
:10042000000020000000E000020032000000020096
:100430000000000046A10200000000000040DA00B9
:100440000000FE004440A900403120000000E00010
:100450000300320000002000A00188004440A800F2
:100460000000060091018800800078000000EB0089
:1004700015003700E280400032A0B4009101BA00BC
:10048000E280400032A0B4009102BA00E280400055
:1004900032A0B4000002EB00472BDE00F507B200EB
:1004A000602CE10004003A000059EB008301E900F0
:1004B000FDFF3E00040037006128E100010032002A
:1004C0000082EB00040007001101BA000200E00006
:1004D000E8FF3A00000006003159BA008301E90044
:1004E0000C0032002159BA008301E90008003200F3
:1004F0000400E00003003A00E280400032A0B400B3
:10050000F5FF370011D9BA008301E900FAFF3A007C
:100510008100E800E180400032A0B4000000060045
:1005200000000000000000000000000000000000CB
:1005300000000000000000000000000000000000BB
:1005400000000000000000000000000000000000AB
:10055000000000000000000000000000000000009B
:1007F000889FBE008A9FBE00010578000100E000CE
:100800000400350008003C000000E0002000320039
:100810000500370060001000E080180002003B0077
:1008200001F02C001A0037000004BE006011B8006F
:100830006B0920000982CF00020039000882CF0036
:100840000441B000694252000E00320008003B0033
:1008500082817100610164008904D1000884D300A1
:100860008B05E8000442E800F9FF3A000500370074
:100870000804440089844C008B05E9000442E90027
:10088000FBFF3A002C0107000AF0A70001F0A000CE
:100890004F05BE004F04BE0000000600F4FF2F000D
:1008A0004B0137001400200049013700889FBE002B
:1008B0008A9FBE008C1F780060010700670133002B
:1008C00003866C006450E1002E0032006420E100D9
:1008D000330032006150E1002F0032006120E1005E
:1008E0003100320085855500EB07B000090020007B
:1008F00008042000050037000804440089844C00E7
:100900000A0031000603430087834B0000015300B7
:1009100081815B00F8FF33000203BE000800A000E5
:100920000804440089844C00F6FF3900C639DD0014
:100930008301730001003200130020008904D100FC
:100940000884D3000998A300050032000800A7001E
:100950000300A0008904D1000884D3008B05E800BF
:100960008904D1000884D3000001EB000281D20089
:10097000F100070001F0A1000CF0A70001F0A000B9
:100980003F0137006420E100410132000801BE0050
:100990000200BE00F7FF37006120E1003C01320099
:1009A0006000B800F3FF37000000200001F82700C6
:1009B000F0FF370003F0A200889FBE008A9FBE00B0
:1009C0008C1F78001D010700240133006450E100F2
:1009D0004F0032006420E1005200320003826C00BC
:1009E00007003B000905D0000306D000820F540029
:1009F0000C065D0002003900020032008901780017
:100A0000030678008582550004003D000003FD00C8
:100A10008103FD008502EA008B854200840F72008D
:100A200002003B0060001000E08018006011B80078
:100A30000005EB007A28E1000A0039000600780082
:100A4000C75DDD00F707B200878075002D00370015
:100A5000828171000A017800610560008180D10007
:100A60000080D3008502E900F9FF3B000604400046
:100A70008784480002003B0060041400E0841C00EE
:100A80000988A300070032008A8171008281710009
:100A9000610164008904D1000884D3008B05E8005B
:100AA000170037000978A30013003A000B00E0009C
:100AB000130034008B05E9000804440089844C00CD
:100AC0000A4474000978A3000D003A000B00E0000E
:100AD000070034008B05E9000804440089844C00B9
:100AE00001003A000B0020000978A300F7FF320054
:100AF0000001EB0002003700828171000A017800DA
:100B00008D0007000CF0A70001F0A000DC0037000A
:100B10006420E10002003A00838F6C00DC003300A7
:100B20000801BE000200BE00D5003700889FBE004D
:100B30008A9FBE008C1F7800C0000700C7003300EA
:100B400003866C006450E100240032006420E10060
:100B5000270032006150E100220032006120E100F4
:100B6000210032008B854200EB07B1000134B80050
:100B7000003AB8000804420089844A00013AB800EB
:100B80000030B8008880400009014A0004003300AA
:100B90000000400081804800020149008B05E90007
:100BA000C909DD008301700001003200130020003C
:100BB000C814DE004814DD004709DE001200B20050
:100BC000C808DE00088470005B00070001F0A10087
:100BD0000CF0A70001F0A000A90037006120E1009F
:100BE000AB0032000801BE000200BE00F7FF370074
:100BF0006150E100FCFF3A00A50037000001BE0093
:100C0000A60007000470A70003F0A10003F8A300EA
:100C100013003A006509B1001000320009003500E8
:100C20006928E100020035000100280000000500ED
:100C300000004000818048008502E900FCFF3A0086
:100C400000000600F88F4200050035008100D10049
:100C50000080D3008502E800FCFF3A000000060097
:100C60008000EB00000005006022B80006022000B2
:100C70000000D0008180D2000482D2008582D200A0
:100C80000000A0000202520083825A0003003100DB
:100C90000202420083824A000000A1000603E9002C
:100CA000F3FF3A0000000600EFFF07000400BE005B
:100CB000000006000001BE00780007000470A700D5
:100CC00003F0A1006509B100160032000D003500E7
:100CD0006828E10006003500F0FF2F00F1FF270033
:100CE0000300E00013003B000100280000000500A5
:100CF00000004000818048008502E900FCFF3A00C6
:100D000008003700F88F420002003C008000EB0032
:100D1000000005008100D1000080D3008502E800BA
:100D2000FCFF3A000300E00002003B0060001000FE
:100D3000E08018000000060081002000618055005E
:100D40000B003D000B00200061FE2F000100E100C0
:100D50001D00340082817100610164008904D100AA
:100D60000884D3000000E800FAFF3A007100200078
:100D7000610064000300700002006000090032009E
:100D800061044400E0844C000988A500050032009D
:100D90008B05E8006808E10002003A008904D100F0
:100DA0000884D300F20F20000258E10005003D0046
:100DB000C75DDD00F907B200898075000800780082
:100DC000000006000BF827008B00780000000500EB
:100DD000889FBE008A9FBE00841F7800170007000E
:100DE0004F00780011003300F0FF2F00838F6C005C
:100DF00006003B00040565000A00A7000800370054
:100E000009F0A6001000200008003700820F5400EF
:100E1000838F5C00030039001000200001003E00B9
:100E20000000200009F0A7000000EA004F05BE0006
:100E30004F04BE000000E000000006000004BE00F9
:100E4000160007000003BE000405BE000200BE003D
:100E500012000700844F7500000006000200BE006B
:100E60006450E100050036006420E1000200360015
:100E70000968A30001003A000800BE000160A0005C
:100E80004F0678004F05BE004F04BE00000006006C
:100E9000F0FF2F00F1FF2700F9FF3700C70ADE003F
:100EA000F107B200F50FB20008003200E1CF4200B6
:100EB000020032000170A00024000500810F7000C4
:100EC000010032000408050044000500810F700095
:100ED00002003A00140005008502E900000040000D
:100EE00081C04800FCFF3B000170A0002400050009
:100EF000005E0000BCE20000613F0000DD830000F6
:100F0000C29C00007E200000A3FD00001F410000E5
:100F10009DC30000217F0000FCA20000401E0000D5
:100F20005F010000E3BD00003E60000082DC0000C5
:100F3000237D00009FC10000421C0000FEA00000B5
:100F4000E1BF00005D03000080DE00003C620000A5
:100F5000BEE00000025C0000DF810000633D000095
:100F60007C220000C09E00001D430000A1FF000085
:100F700046180000FAA40000277900009BC5000075
:100F800084DA000038660000E5BB00005907000065
:100F9000DB85000067390000BAE400000658000055
:100FA00019470000A5FB000078260000C49A000045
:100FB000653B0000D9870000045A0000B8E6000035
:100FC000A7F900001B450000C69800007A24000025
:100FD000F8A60000441A000099C70000257B000015
:100FE0003A64000086D800005B050000E7B9000005
:100FF0008CD20000306E0000EDB30000510F0000F5
:101000004E100000F2AC00002F71000093CD0000E4
:10101000114F0000ADF30000702E0000CC920000D4
:10102000D38D00006F310000B2EC00000E500000C4
:10103000AFF10000134D0000CE900000722C0000B4
:101040006D330000D18F00000C520000B0EE0000A4
:10105000326C00008ED00000530D0000EFB1000094
:10106000F0AE00004C12000091CF00002D73000084
:10107000CA94000076280000ABF500001749000074
:1010800008560000B4EA000069370000D58B000064
:1010900057090000EBB50000366800008AD4000054
:1010A00095CB000029770000F4AA00004816000044
:1010B000E9B70000550B000088D60000346A000034
:1010C0002B75000097C900004A140000F6A8000024
:1010D000742A0000C8960000154B0000A9F7000014
:1010E000B6E800000A540000D78900006B35000004
:1010F0004C45000054000000494600000054000028
:10110000484500004E000000454C000053450000DB
:10111000004700004F5400004F000000474F000000
:101120005355000042000000524500005455000095
:10113000524E000000520000454D000000500000DB
:10114000524900004E540000004900004E5000007B
:1011500055540000004600004F52000000540000AB
:101160004F0000004E45000058540000005200009F
:10117000454100004400000044410000544100008B
:10118000005300005441000052540000005300007E
:10119000544100005254000052000000535400001B
:1011A0004F50000000530000544F00005052000008
:1011B00000530000454E000044000000524500006E
:1011C000434500004956000045000000434C000024
:1011D0004B00000044410000540000004249000060
:1011E000545200004541000044000000414400000A
:1011F000430000004155000058000000505300001B
:1012000055000000505500004C4C000055500000A7
:101210000041000055580000504900004E000000F9
:1012200046520000455100000044000055540000A3
:1012300059000000444500004C41000059000000E6
:101240004D410000435200004F000000454E000099
:101250004400000000520000554E0000004C000009
:101260004953000054000000455800004954000054
:10127000004400004542000055470000004E0000B9
:1012800045570000000000003E200000000800005C
:101290002008000000000000203D000020000000A9
:1012A0005652000045470000207400006F6F000098
:1012B000206C00006F7700002C2000006973000094
:1012C0002074000068650000726500002061000065
:1012D00020730000686F0000727400003F0000007F
:1012E0002E2000003C0000003E0000002E200000E8
:1012F000000D00000A280000002900003E20000028
:101300000042000075730000205000006972000068
:10131000617400006520000076310000610000006B
:1013200046690000726D0000776100007265000080
:1013300020760000352E00003420000028720000C6
:10134000343500003429000000200000280000008F
:10135000413300000042000034000000423500002C
:101360000042000038000000554E00004B00000015
:101370002900000049090000004F0000090000009A
:1013800048090000004C000009000000456E000004
:101390007465000072200000726100007720000078
:1013A000766100006C75000065200000666F00002B
:1013B00072200000425200004700000001000000BF
:1013C0000000000003020000000000000000000018
:1013D00001000000060000000401000000030000FE
:1013E00000000000000000000600000008050000EA
:1013F00007030000000600000000000000000000DD
:10140000000000000000000030620000003000001A
:10141000303000002C0000003030000000300000B0
:101420003132000033340000353600003738000018
:1014300039410000424300004445000046300000AE
:1014400078000000436F0000756C0000646E0000BF
:1014500027740000206B000065650000702000000C
:10146000757000000000000053500000493100007A
:1014700000000000002900000020000057000000CC
:1014800020520000004900003243000031000000FB
:101490003A200000000000002E000000315700003C
:1014A00030310000000000000808000008080000BB
:1014B0000800000000000000204800007A00000042
:1014C0000000000000410000525400003100000004
:1014D00042420000494F000031000000524100002C
:1014E0005731000000000000314100004C53000063
:1014F000000000004F4300004431000000000000E5
:1015000000000000000000002900000000000000B2
:1015100000000000000000001A00FA000000EB00CC
:10152000100F98000000EB00606988000000EB00DD
:10153000506988000000EB00A04088000000EB002C
:10154000706988000000EB00100798000000EB00B5
:1015500040079800140037000000EB0020079800B7
:101560000B0037004E009000AE0090004500DD00FB
:101570008100400000D32000808040000040EB004C
:10158000804878002E0090000000E80020079800B6
:101590002E009000FF0F5000F2FF34004E0090002C
:1015A0000000E800400798004E009000E40F500053
:1015B000E9FF34000000EB00806E8800A14080004D
:1015C000E00220000088B900610220008080400015
:1015D000E093200000804000D86B02000000000073
:1015E000D140800000202000008060000000E0006A
:1015F0000400320071002000C0592000569D0200F6
:101600000000000040942800D86B02000000000099
:10161000ED003700806E80000000E00063003200C3
:10162000806E80000000E900806E88000000EB0002
:10163000200798001E00370052698000806E8000ED
:10164000AE0090004500DD008100400000D3200086
:101650000080400090407800A0C2200000004100BF
:1016600001487800806E8000AE0090004500DD00EB
:101670008100400000D3200000804000104078002E
:101680003470020000000000506980000000E80093
:10169000506988002E0090000000E80020079800A4
:1016A00051698000F00F20000080600050698800C0
:1016B000806E8000AE0090004500DD00810040009B
:1016C00000D3200000804000104078000004E000BB
:1016D000D9FF3A000000EB00806E8800330037002D
:1016E00090B7200010407800624060000004E000E5
:1016F0002E003200A1408000E00220000088B900E6
:10170000FA004000E09320000080400010007800C4
:10171000000001000000E00024003200A140800031
:10172000E00220000088B9006102200080804000B3
:10173000E093200000804000D86B02000000000011
:1017400040942800D86B020000000000616980000E
:1017500050698000808F5000140032006069800062
:10176000200798000D003700AE009000A0C22000B6
:10177000008040001040780034700200000000003B
:10178000AE009000F00F200000806000200798005D
:101790002E0090000000E80020079800AE009000A6
:1017A00050698000808F5000EFFF3A0016700200F1
:1017B000000000000004E000C9FF320022700200B7
:1017C00000000000604798006E4090000080FB0021
:1017D000200F98002E089000E80F500011003200F2
:1017E000AE089000E88F500007003C002E099000E2
:1017F0000200E0003C003200AE099000E28F510090
:10180000440032004B0037002E089000EA0F5000D1
:1018100013003200AE089000ED8F5000100032002F
:10182000440037005169800060698000808F50005B
:1018300065003200506980000000E90050698800AE
:1018400051698000F00F200000806000506988001E
:1018500070942800D86B0200000000005A00370086
:1018600010002000100F9800506980008000E800F0
:10187000F00F20008080600060698000808F500041
:101880000D00320051698000A0C22000808040001D
:101890000040EB0080487800506980000000E800BC
:1018A0005069880051698000F00F200000806000BE
:1018B000506988000800370070C0B300347002001F
:1018C0000000000051698000A0C22000808040001C
:1018D0000040EB0080487800B0942800046C0200BF
:1018E00000000000380037001E0090000000E800F3
:1018F000100798001E009000F40F500032003A00CC
:1019000072710200000000000000EB001007980058
:101910002D0037001E009000E40F50002A00340014
:10192000CE870200000000000000EB0010079800C6
:1019300025003700506980008000E800F00F20008B
:101940008080600060698000808F50001600320047
:101950006E409000FF4F50001B0036006E4090001C
:101960000004E000180035006E4090003470020062
:1019700000000000516980006E419000A0C220006C
:101980000080400002487800506980000000E800B4
:101990005069880051698000F00F200000806000CD
:1019A000506988000800370070C0B300347002002E
:1019B0000000000051698000A0C22000808040002B
:1019C0000040EB00804878001E0890000000E00016
:1019D00010FF320050698000700798006069800035
:1019E000600798000000EB00100F98000000EB006B
:1019F000000F98000000EB0070698800D140800063
:101A000000202000008060000000E000BA043200E6
:101A10009A3002000000000051002000305A2000DF
:101A2000E09D02000000000010002000000F980060
:101A3000B104370061698000A0C22000008040002E
:101A400010407800604798006E4090000080FB00D6
:101A50006101B900320F9800430F9800D0072000B1
:101A6000010020003E099000CE099000800F510037
:101A7000818F590072043E003E089000CE0890000D
:101A800000600100700437006D0437006C043700FB
:101A90006B0437006A0437006904370068043700B4
:101AA00067043700660437006504370066043700B2
:101AB00063043700620437006304370060043700B2
:101AC0005F0437005E0437005D0437005C043700B4
:101AD0005B0437005A0437005904370058043700B4
:101AE00057043700560437005504370054043700B4
:101AF00053043700520437005104370050043700B4
:101B00004F043700500437002D043700A40237007B
:101B1000020137000F013700BE013700AC0137006A
:101B2000470437007B023700450437004404370080
:101B30004504370044043700D9033700F203370067
:101B4000BD0337001E0337001D0337001C03370099
:101B50001B0337001A033700190337001803370037
:101B60001703370016033700150337003404370016
:101B700033043700BC013700A900370030043700B8
:101B80004600370021013700130137002C043700CD
:101B90007F0037008B013700290437002804370005
:101BA00027043700260437002504370024043700B3
:101BB0002304370080003700210437002004370059
:101BC0001F0437001E0437001D0437001C043700B3
:101BD0001B0437001A0437001904370018043700B3
:101BE00020013700160437001504370014043700AD
:101BF000CF0237009D033700DF023700D1033700E3
:101C0000B40337000E043700E60037002E0037001B
:101C1000550037005D0137000904370030003700F8
:101C200032003700150037001F003700040437006A
:101C3000030437006D00370021003700000437002F
:101C400023003700FE033700FD0337003C03370055
:101C500081013700FA033700F90337001E0037000F
:101C600036013700F6033700F5033700F403370079
:101C7000B802370087003700C8023700AD060700FA
:101C80000000E000F0033A006069800060079800FF
:101C90005069800070079800EB033700F69D020042
:101CA00000000000E803370002080700A0408000A1
:101CB0000000E000E403320060080700E2033700A0
:101CC00014060700E003370086090700DE0337002B
:101CD0005E090700DC033700D2080700DA0337008B
:101CE000E27B020000000000D7033700606980003B
:101CF0008000E800F00F200080806000A0C220007B
:101D00000080400090407800F0C6B30080CF5000C3
:101D10000A003A00606980000080E800606988007D
:101D200061698000F00F2000008060006069880019
:101D30004C85020000000000C3033700A040800073
:101D40000000E00005003A00D1012000305D2000D5
:101D5000E09D020000000000BB033700467A02004D
:101D600000000000B803370090B720001040780052
:101D70000000A10091B72000804878006101200098
:101D8000805A2000E09D020000000000AE033700F2
:101D900090B72000104078000000A00091B720000C
:101DA0008048780051012000E05B2000E09D0200A7
:101DB00000000000A403370090B720001040780016
:101DC0000020A00091B7200080487800C1012000C9
:101DD000B07E2000569D020000000000B094280054
:101DE000046C0200000000009703370090B7200049
:101DF000104078000020A10091B7200080487800B2
:101E0000B1012000007D2000569D0200000000006E
:101E1000B0942800046C0200000000008A03370020
:101E2000606980000000E8006069880061698000E6
:101E3000F00F20000080600060698800A3050700A3
:101E4000B7030700200798002E009000D26E020012
:101E500000000000C0942800D86B020000000000C1
:101E60002E009000706E020000000000C094280058
:101E7000D86B0200000000002E009000386C0200B9
:101E800000000000B0942800046C02000000000074
:101E90006D033700606980000000E8006069880019
:101EA00061698000F00F2000008060006069880098
:101EB000860507009A030700200798002E0090006F
:101EC000C4980200000000000080FB00200798007A
:101ED0002E009000D26E020000000000C094280086
:101EE000D86B0200000000002E009000706E02000F
:101EF00000000000C0942800D86B02000000000021
:101F00002E009000386C020000000000B094280001
:101F1000046C0200000000004B033700869E0200A4
:101F2000000000000000E0004703320051002000E4
:101F300030632000E09D02000000000023C2BF00CB
:101F4000614060000004E000FCFF32000000FE0081
:101F50003D033700869E0200000000000000E00004
:101F600039033200A100200080632000E09D0200C0
:101F700000000000400620006298020000000000FF
:101F8000DE9602000000000023C2BF006140600036
:101F90000004E000FCFF320081BF2A000140010084
:101FA00029033700030507000000E80040079800F8
:101FB00002003700207D0200000000004E0090006B
:101FC0000000E900400798004E0090000000E0008B
:101FD000F8FF3A001C033700F60407000000E80091
:101FE0004007980002003700FE7C0200000000005D
:101FF0004E0090000000E900400798004E0090005D
:102000000000E000F8FF3A000F033700E904070082
:102010000000E800400798000B0037006101200035
:1020200020642000569D020000000000427D020056
:1020300000000000C26B020000000000B094280005
:10204000046C0200000000004E0090000000E90057
:10205000400798004E0090000000E000EFFF3A00BB
:10206000F9023700A04080000000E00005003A00BF
:10207000D1012000305D2000E09D02000000000042
:10208000F1023700C082A900C282A800C8A2A9003C
:10209000CAA2A80021E3A800200020006298020044
:1020A00000000000A0C0B300249702000000000060
:1020B00080007800001B2000808F50000F00360049
:1020C00090C0B30024970200000000008000780058
:1020D000702B2000808F5000080036001101200076
:1020E00080652000569D020000000000B09428008A
:1020F000046C0200000000000E003700C082A9003E
:10210000C282A900C8A2A900CAA2A90000952800FD
:10211000046C0200000000002101200090662000F5
:10212000569D020000000000B0942800046C0200DC
:102130000000000021E3A900C3023700A040800096
:102140000000E00005003A00D1012000305D2000D1
:10215000E09D020000000000BB023700C082A90021
:10216000C282A900C8A2A900CAA2A9002101200018
:1021700090662000569D020000000000B0942800E8
:10218000046C020000000000AF023700F1002000E4
:10219000A0392000569D0200000000003E9702007A
:1021A0000000000011002000903A2000569D02001F
:1021B00000000000B0942800046C02000000000041
:1021C000A102370050970200000000009E02370075
:1021D0007804070040079800610020007068200024
:1021E000569D0200000000004E009000126E02009A
:1021F0000000000021002000D0682000E09D0200C7
:10220000000000004E0090008E98020000000000C8
:102210008D02370067040700400798006100200026
:1022200070682000569D0200000000004E009000E3
:10223000126E0200000000002100200090EC20003F
:10224000E09D0200000000004E0090006298020035
:10225000000000007C023700D04080000090A00009
:10226000D040880078023700100020007069880094
:1022700010002000200798001000370061698000DE
:102280002E00900080804000F00F200080806000D1
:10229000A0C220000080400090407800E0C3B3005E
:1022A00080CF500002003A000000EB007069880007
:1022B0002E0090000000E80020079800616980006F
:1022C0002E00900080804000F00F20008080600091
:1022D000A0C2200000804000104078000004E00010
:1022E000E6FF3A00AE00900020022000808F5000F0
:1022F00002003400100020007069880070698000BE
:102300000000E00050023A00606980000000E80030
:102310006069880061698000F00F20000080600023
:10232000606988007E0207002007980061698000CC
:10233000F00F200080806000A0C2200000804000DC
:1023400090407800D0C3B30080CF500044003A00E2
:102350002E0090000000E0003E0034002E009000AF
:10236000E50F50003B003C00606980000000E80081
:102370006069880061698000F00F200000806000C3
:10238000606988002E0090000000E9002007980096
:102390000000EB00400798000B0037002E00900073
:1023A000CE0090004500DD008100400000D32000F9
:1023B000808040000040EB00804878004E00900094
:1023C0000000E800400798004E009000FF0F50000A
:1023D000F2FF34000000EB004007980015003700C2
:1023E000AE0190004E02900061698000A0C2200002
:1023F00000804000104178004518DD008400400056
:1024000000D3200000804000024878004E00900079
:102410000000E80040079800606980000000E800C4
:102420006069880061698000F00F20000080600012
:102430006069880061698000A0C2200000804000BF
:1024400090407800E0C3B30080CF5000E4FF3A0032
:10245000FD0137001000200070698800FA01370084
:102460002E0090000000E0001B003A000000EB008E
:1024700040079800140037004E0090000040E8002C
:10248000706E02000000000000972800D86B020068
:10249000000000004E0090004500DD008000780044
:1024A00000D3200000804000D86B02000000000034
:1024B00040972800046C0200000000004E009000CD
:1024C0000000E800400798004E009000E40F500024
:1024D000E9FF3400DC0137002E0090000000E0002E
:1024E000090034002E009000E50F500006003C006B
:1024F000B0942800046C020000000000AE009000C0
:10250000816E8800D00137001000200070698800BB
:10251000CD013700606980000000E8006069880034
:1025200061698000F00F2000008060006069880011
:10253000FB01070050079800E40307006169800071
:10254000F00F200080806000A0C2200000804000CA
:102550009040780090C2B30080CF50000D003A0048
:10256000A1408000E00220000088B900FC0040008B
:10257000E093200000804000900078005E00900012
:1025800001000100B0942800046C0200000000006B
:10259000AD0137001000200070698800AA013700E3
:1025A00010002000706988001000200020079800AB
:1025B00010003700616980002E009000808040008C
:1025C000F00F200080806000A0C22000008040004A
:1025D0009040780020C2B30080CF500002003A0043
:1025E0000000EB00706988002E0090000000E800F9
:1025F00020079800616980002E00900080804000D4
:10260000F00F200080806000A0C220000080400009
:10261000104078000004E000E6FF3A007069800096
:102620000000E00088013A0071002000F0682000FE
:10263000569D02000000000020C2B300347002006A
:10264000000000002300370061698000F00F2000C7
:10265000008060006069880061698000A0C220007D
:10266000008040001040780034700200000000003C
:1026700061698000A0C22000008040001040780006
:102680000000FB005007980090B720001040780031
:10269000644060000004E000050032005E0090002D
:1026A000C4980200000000000080FB005007980062
:1026B000A1408000E00220000088B900E80040004E
:1026C000E093200000804000900078005E009000C1
:1026D00001000100606980000000E8006069880076
:1026E00061698000F00F200080806000A0C220009F
:1026F000008040009040780020C2B30080CF50009E
:10270000D1FF3A0060698000F10F200001006000F5
:102710006069880020C2B30034700200000000002D
:10272000B0942800046C020000000000460137004D
:10273000A1408000E00220000088B90080007800FD
:10274000E0932000008040001000780000000100AD
:102750003D013700A1408000E00220000088B90060
:102760008080E800E09320000080400010007800A6
:102770000000010034013700A1408000E002200089
:102780000088B900E4004000E09320000080400091
:1027900010007800000001002B013700A1408000EC
:1027A000E00220000088B900E6004000E09320002D
:1027B0000080400010007800000001002201370076
:1027C00071002000F0682000569D0200000000000B
:1027D0005301070050079800606980000000E9007D
:1027E0006069880061698000F00F2000008060004F
:1027F00060698800EF0207000000E80040079800C9
:102800000F030700000F78001E00E00042003200B6
:102810001E00780080407800A0B7200001487800B2
:102820003D0037005E009000DC97020000000000D1
:10283000A0B7200010407800E84F50000700320099
:10284000B0C3B3003470020000000000A0B7200045
:1028500010407800706E02000000000090B7200069
:1028600010407800644060000004E0000500320081
:102870005E009000C4980200000000000080FB0091
:1028800050079800A1408000E00220000088B900B5
:10289000E8004000E09320000080400090007800B5
:1028A0005E009000010001002007980000C2B30004
:1028B0003470020000000000AE009000F00F200015
:1028C000808F500014003C006100200060692000EF
:1028D000569D02000000000090B7200010407800D4
:1028E000644060000004E000050032002E0090000B
:1028F000C4980200000000000080FB002007980040
:102900002E009000DC9702000000000000C2B3001F
:1029100034700200000000004E0090000000E9004A
:10292000400798004E0090000000E000BDFF3A0014
:10293000B0942800046C020000000000C2003700C0
:102940006100200060692000569D02000000000028
:10295000980207000000E80040079800B80207004E
:10296000000F78001E00E000290032001E007800F1
:1029700080407800A0B7200001487800240037008C
:10298000A1408000E00220000088B900EA00400079
:10299000E09320000080400010007800000001005B
:1029A0006047980090B720001040780064406000B5
:1029B0000004E000040032006E409000C498020061
:1029C00000000000604798006E4090000080FB000F
:1029D000DC97020000000000A0B720001040780043
:1029E000E84F500007003200B0C3B300347002005B
:1029F00000000000A0B7200010407800706E0200B8
:102A00000000000000C2B3003470020000000000AB
:102A10004E0090000000E900400798004E00900032
:102A20000000E000D6FF3A00B0942800046C0200D9
:102A3000000000008400370081002000C0692000F1
:102A4000E09D020000000000A1408000E0022000A4
:102A50000088B900EC004000E093200000804000B6
:102A6000100078000000010077003700810020008E
:102A7000406A2000E09D020000000000A1408000AC
:102A8000E00220000088B900EE004000E093200042
:102A90000080400010007800000001006A0037004C
:102AA000E1002000C06A2000E09D0200000000005C
:102AB000A1408000E00220000088B900F000400042
:102AC000E09320000080400010007800000001002A
:102AD0005D003700E1002000A06B2000E09D0200B7
:102AE00000000000A1408000E00220000088B90042
:102AF000F2004000E09320000080400010007800C9
:102B00000000010050003700C1002000B067200025
:102B1000569D020000000000A1408000E00220005D
:102B20000088B900F4004000E093200000804000DD
:102B30001000780000000100C26B020000000000DD
:102B4000410037001B02070040079800D100200019
:102B5000806D2000569D0200000000004E00900095
:102B6000DC970200000000004E0090000000E8002A
:102B70004007980008003700A1408000E0022000D4
:102B80000088B900F6004000E0932000008040007B
:102B900010007800000001004E0090000000E900E5
:102BA000400798004E0090000000E000F2FF3A005D
:102BB000B0942800046C02000000000022003700DE
:102BC000FC0107000000E80040079800A100200079
:102BD000506E2000569D0200000000000D003700DE
:102BE000A1408000E00220000088B900F800400009
:102BF000E0932000008040001000780000000100F9
:102C0000C26B02000000000000C2B300347002007A
:102C1000000000004E0090000000E900400798000E
:102C20004E0090000000E000EDFF3A00010120009E
:102C3000806C2000E09D02000000000002003700D0
:102C40001000200070698800606980000000E800C2
:102C50006069880061698000F00F200000806000DA
:102C600060698800706980000000E0001C0032008C
:102C700051012000F06E2000569D0200000000006F
:102C8000EE00900060698000808F500007003100E6
:102C900060698000804078006E00900000C05000A5
:102CA000706E0200000000000600370060698000BE
:102CB000804078006E00900000C05000706E0200EE
:102CC000000000000000EB00706988001000200088
:102CD000000F9800B0942800046C0200000000006F
:102CE0006169800050698000808F500002003A00C6
:102CF00010002000000F98000E0890000000E00077
:102D00004CFB32007E009000606988007E009000DD
:102D1000506988000000EB00100F980027FA370078
:102D20000600FA000000EB00100798000000EB001E
:102D3000000F7800616980001E00900080804000D4
:102D4000F00F200080806000A0C2200000804000C2
:102D50009040780000C3B30080CF5000430034009F
:102D6000616980001E00900080804000F00F20000C
:102D700080806000A0C22000008040009040780069
:102D800090C3B30080CF500038003C0061698000E0
:102D90001E00900080804000F00F200080806000C6
:102DA000A0C2200000804000104078008000FB009E
:102DB00000FD2F00008F40001E0090000000E80082
:102DC00010079800120037001E0078006A00B90052
:102DD000000F7800616980001E0090008080400034
:102DE000F00F200080806000A0C220000080400022
:102DF000104078000000FB009E00400000FD2F0006
:102E0000008F40001E0090000000E80010079800AE
:102E1000616980001E00900080804000F00F20005B
:102E200080806000A0C220000080400090407800B8
:102E3000F0C2B30080CF50005101340061698000BE
:102E40001E00900080804000F00F20008080600015
:102E5000A0C22000008040009040780090C3B300E2
:102E600080CF5000D8FF34004501370061698000F1
:102E70001E00900080804000F00F200080806000E5
:102E8000A0C22000008040009040780000C3B30042
:102E900080CF500035013A001E0090000000E8008D
:102EA00010079800616980001E009000808040003B
:102EB000F00F200080806000A0C220000080400051
:102EC0009040780020C6B30080CF50000B00320045
:102ED000616980001E00900080804000F00F20009B
:102EE00080806000A0C220000080400090407800F8
:102EF00020C4B30080CF50002D003A001E00900087
:102F00000000E80010079800120037001E0078004B
:102F100000004000000F7800616980001E009000F2
:102F200080804000F00F200080806000A0C2200060
:102F300000804000104078000000FB009E00400030
:102F400000FD2F00008F40001E0090000000E800F0
:102F500010079800616980001E009000808040008A
:102F6000F00F200080806000A0C2200000804000A0
:102F70009040780010C3B30080CF5000E3FF3200D0
:102F8000616980001E00900080804000F00F2000EA
:102F900080806000A0C22000008040009040780047
:102FA00000C3B30080CF5000D8FF3200F4003700D8
:102FB000616980001E00900080804000F00F2000BA
:102FC00080806000A0C22000008040009040780017
:102FD00080C7B30080CF50000B00320061698000D1
:102FE0001E00900080804000F00F20008080600074
:102FF000A0C22000008040009040780080C5B3004F
:1030000080CF50008E003A001E0090000000E800C3
:1030100010079800470037001E0078004400DD00CC
:10302000000F7800616980001E00900080804000E1
:10303000F00F200080806000A0C2200000804000CF
:1030400090407800F0C2B30080CF500018003400E8
:10305000616980001E00900080804000F00F200019
:1030600080806000A0C22000008040009040780076
:1030700090C3B30080CF50000D003C006169800018
:103080001E00900080804000F00F200080806000D3
:10309000A0C2200000804000104078000000FB002B
:1030A0009E00400000FD2F00008F40001E003700F2
:1030B000616980001E00900080804000F00F2000B9
:1030C00000816000616980001E00900080804000E7
:1030D000F00F200080806000A0C22000008040002F
:1030E0009040780000C2B30080C07000A0C22000F1
:1030F0000000410001487800616980001E009000D6
:1031000080804000F00F200080806000A0C220007E
:1031100000804000104078000000FB009E0040004E
:1031200090FA2F00008F40001E0090000000E80081
:1031300010079800616980001E00900080804000A8
:10314000F00F200080806000A0C2200000804000BE
:1031500090407800F0C2B30080CF50000B003400E4
:10316000616980001E00900080804000F00F200008
:1031700080806000A0C22000008040009040780065
:1031800090C3B30080CF5000A3FF3400616980007A
:103190001E00900080804000F00F200080806000C2
:1031A000A0C22000008040009040780000C4B3001E
:1031B00080CF50000B003400616980001E00900039
:1031C00080804000F00F200080806000A0C22000BE
:1031D000008040009040780060C4B30080CF500071
:1031E0008DFF3400616980001E00900080804000E7
:1031F000F00F200080806000A0C22000008040000E
:103200009040780000C6B30080CF50005C003400CE
:10321000616980001E00900080804000F00F200057
:1032200080806000A0C220000080400090407800B4
:1032300060C6B30080CF500077FF340050003700E5
:10324000616980001E00900080804000F00F200027
:1032500080806000A0C22000008040009040780084
:10326000F0C2B30080CF5000450034006169800097
:103270001E00900080804000F00F200080806000E1
:10328000A0C22000008040009040780090C3B300AE
:1032900080CF50003A003C00616980001E00900021
:1032A00080804000F00F200080806000A0C22000DD
:1032B00000804000104078008000FB0000FD2F00DF
:1032C000008F4000120037001E0078006A00B9002D
:1032D000000F7800616980001E009000808040002F
:1032E000F00F200080806000A0C22000008040001D
:1032F000104078000000FB009E00400000FD2F0001
:10330000008F40001E0090000000E80010079800A9
:10331000616980001E00900080804000F00F200056
:1033200080806000A0C220000080400090407800B3
:10333000F0C2B30080CF50001100340061698000FA
:103340001E00900080804000F00F20008080600010
:10335000A0C22000008040009040780090C3B300DD
:1033600080CF5000D8FF3400050037001000200047
:10337000706988000000EB00200798000A00370001
:10338000616980001E009000008040006069880034
:1033900061698000F00F2000008060006069880093
:1033A0001E007800200798002E0090000080FA0090
:1033B000000006000400FA00606980008000E80058
:1033C000F00F200080806000A0C22000008040003C
:1033D00090407800A0C3B30080CF500013003A00A3
:1033E000606980000080E800606988006169800091
:1033F000F00F2000008060006069880048FE070030
:10340000000F7800606980000000E90060698800B2
:1034100061698000F00F2000008060006069880012
:103420001E007800100798000200370010002000EE
:10343000100798001E0090000080FA0000000600AF
:103440000400FA00606980008000E800F00F2000AE
:1034500080806000A0C22000008040009040780082
:10346000B0C3B30080CF500013003A006069800001
:103470000080E8006069880061698000F00F20002A
:10348000008060006069880025FE0700000F78005A
:10349000606980000000E90060698800616980005F
:1034A000F00F200000806000606988001E00780036
:1034B00010079800020037000000EB00100798008A
:1034C0001E0090000080FA00000006000000FA00D4
:1034D00007003700606980000000E800606988002C
:1034E00061698000F00F2000008060006069880042
:1034F00061698000A0C220000080400090407800F8
:1035000000C2B30080CF5000F2FF32000080FA000A
:10351000000006000400FA000000EB00000F780035
:10352000606980000000E8006069880061698000CF
:10353000F00F20000080600060698800E3FF070052
:10354000F7FD0700000F78001E00E0004D003A0074
:103550000000EB0010079800130037001E009000D9
:103560000040E800706E0200000000006097280034
:10357000D86B0200000000009E009000E0022000D6
:103580000088B9006102200080804000E0932000A4
:1035900000804000046C0200000000001E0090004B
:1035A0000000E800100798001E009000E80F50008F
:1035B000EAFF34007101200040702000E09D02000D
:1035C000000000000000EB0070698800130020007C
:1035D000920020001100200010002000F6000700DB
:1035E000000FE900E0FF2F009E0F100003003200E3
:1035F0000080EB009E0F100005003A00E100200063
:10360000B0712000E09D0200000000004200370081
:10361000A1408000E00220000088B90001022000E3
:1036200080804000E093200000804000100078007F
:1036300000000100DE960200000000001E0078007D
:10364000A0408800A1408000E00220000088B9006E
:10365000FE004000E0932000008040001000780051
:10366000000001001E00E00001003200CA82A80034
:1036700051002000305A2000E09D020000000000B0
:10368000250037001E0FE900800020009E0F10006B
:103690001D003C00A1408000E00220000088B9002D
:1036A0000102200080804000E09320000080400064
:1036B0001000780000000100DE960200000000000B
:1036C0001E007800A0408800A1408000E002200099
:1036D0000088B900FE004000E09320000080400018
:1036E00010007800000001001E00E0000100320020
:1036F000CA82A80051002000305A2000E09D02003C
:1037000000000000040037005101200090722000EA
:10371000E09D020000000000506980008000E90088
:10372000F00F200000806000606988000080FA00CF
:10373000000006002600FA00100020002007980074
:10374000606980000000E900100798009E0090006A
:10375000F00F200000806000100798004300370041
:103760009E009000A0C22000008040001040780021
:103770000004E00036003A001E0090008000E800DF
:10378000F00F200080806000A0C220000080400078
:10379000104078000004E0002D0032002E00900060
:1037A000706E02000000000060972800D86B0200D5
:1037B0000000000010002000000F78000A00370011
:1037C0001E0090009E004000F00F200080806000EE
:1037D000A0C2200000804000104078003470020039
:1037E000000000001E0FE8001E0090009E00400038
:1037F000F00F200080806000A0C220000080400008
:10380000104078000004E000EDFF3A00AE019000A7
:103810001E0090008000E800F00F20000081600092
:10382000E60047000380410002B078002E009000BF
:103830000000E800200798002E009000EF0F5000D5
:103840000E003200B0942800046C0200000000005A
:103850001E0090000000E900100798009E009000F4
:10386000F00F200000806000100798009E0090007C
:1038700060698000808F5000B9FF3A00710020001D
:10388000E0732000E09D0200000000001300200013
:103890002E019000110020000000EB004600070000
:1038A000100798001E009000E10F400003003A004E
:1038B00010002000201798003C0037000000EB00AB
:1038C0002007980016003700516980002E009000F4
:1038D00080804000F00F2000008160001E009000FA
:1038E000E600470000004000E08078002E009000D5
:1038F00080804000F00F200080806000A0C2200087
:103900000080400090407800A0C2200000004100EC
:10391000014878002E0090000000E8002007980081
:103920001E009000E600470000004000E0807800A4
:103930002E00900080804000F00F2000808060000A
:10394000A0C2200000804000104078000004E00089
:10395000DDFF3A00506980008000E900F00F200090
:103960000080600060698800616980002E0090001E
:10397000008040008080E800F00F200000806000A0
:1039800050698800506980008000E900F00F200035
:1039900080806000A0C22000808040000040EB00DA
:1039A000804878000000EB00201798002E1090004F
:1039B0000080FA00000006001E00FA00100F9800B8
:1039C000210F9800320F9800430F98000000EB0081
:1039D000400798000000EB00200798000000EB0073
:1039E000100798000000EB00000F78009097280067
:1039F000D86B0200000000001E089000706E0200EC
:103A000000000000D0972800D86B020000000000E2
:103A1000670037002270020000000000204F98006D
:103A20002E4890000000FB00600F98006E08900088
:103A3000ED0F500029003200EE089000ED8F50008D
:103A400007003C006E099000E80F51000D003200A5
:103A50006E089000EA0F5000200032003500370059
:103A6000D0022000EE089000808F50001E0032002F
:103A7000800720006E099000800F5100270032005F
:103A80002C0037004E0090000000E00007003200DC
:103A90004E0090000000E900400798007094280054
:103AA000D86B020000000000410037001E00E0005B
:103AB000060032000000EB00000F78007094280030
:103AC000D86B0200000000003900370070C0B3005E
:103AD00034700200000000003500370010002000A4
:103AE00020079800320037004E0090000000E000F0
:103AF00006003A00D0C2B30034700200000000009B
:103B000010002000000F78002900370070C0B300BB
:103B10003470020000000000250037004E089000BD
:103B20000000E000030032000080EB00500F98001E
:103B30005D003700AE489000F0C2B30080CF500067
:103B400018003400AE48900090C3B30080CF5000FE
:103B500014003C004E009000E30F500006003400BB
:103B600070C0B3003470020000000000400020006C
:103B7000400798000E0037002E4890003470020075
:103B800000000000CE0090006B0047002E4990001E
:103B9000827078004E0090000000E8004007980016
:103BA0000300370070C0B300347002000000000052
:103BB0002E0090000000E00096FF3200B094280034
:103BC000046C0200000000004E0090000000E000C5
:103BD00003003A001E089000500F98003200370092
:103BE0000000EB00100798004E0090000000E90074
:103BF00040079800CE009000310798001100370070
:103C00001E0090006A00B90010079800BE009000E6
:103C10004E009000808050006B00470061407800AB
:103C20008000FB001E0090008080400000FD2F00FF
:103C300000804000100798004E0090000000E9004E
:103C4000400798004E0090000000E000ECFF3D00AF
:103C50009E0090002E089000808F50000D003500CF
:103C60009E0090003E089000808F500009003C00AC
:103C70001E00E000040032001E0090000000EA0078
:103C8000500F9800080037001E019000520F980056
:103C900005003700B1012000E0EA2000E09D0200AD
:103CA0000000000049FF37005E0890000080FA0025
:103CB000000006000400FA0010982800046C0200BE
:103CC0000000000000992800D86B020000000000EE
:103CD000D100200070802000569D020000000000EE
:103CE000A1BF2A000000EB004C71020000000000A0
:103CF000000F78001E0078004800DE00706E0200A1
:103D000000000000E0C2B3003470020000000000B8
:103D10001E007800706E020000000000B0942800C1
:103D2000046C02000000000061002000007620000A
:103D3000569D020000000000B04080002A6F020083
:103D4000000000007100200070EA2000569D020073
:103D500000000000C04080002A6F02000000000048
:103D6000509A2800D86B020000000000C04080007C
:103D700010079800200423009E009000808F5000C0
:103D800016003200200423009E009000808F500017
:103D900005003E00300023009E009000808F500000
:103DA0000A00320019003700300423009E00900002
:103DB000808F50000D003200600423009E009000B0
:103DC000808F50000D00320010003700809A2800CC
:103DD000D86B0200000000000F003700B09A2800E6
:103DE000D86B0200000000000B003700E09A2800AA
:103DF000D86B02000000000007003700109B28006D
:103E0000D86B02000000000003003700409B280030
:103E1000D86B020000000000809B2800046C0200A8
:103E200000000000E101200060762000E09D02001B
:103E3000000000000080FA00000006000000FA0008
:103E40005100200020922000569D0200000000003A
:103E5000C1BF2A000000EB004C710200000000000E
:103E60002A6F020000000000610020007092200014
:103E7000569D020000000000E1BF2A000000EB0098
:103E80004C710200000000002A6F020000000000D8
:103E9000B0942800046C020000000000C100200063
:103EA00040782000E09D0200000000005D00070057
:103EB000CAC2BF000042B2000004E00005003200A8
:103EC0001101200080652000569D020000000000C6
:103ED000040037002101200090662000569D02005A
:103EE00000000000C0C2B3003470020000000000F7
:103EF00000C2B300347002000000000090B7200040
:103F000010407800684060000004E00005003200C6
:103F10002102200000792000E09D02000000000046
:103F200004003700E1012000207B2000E09D02001A
:103F30000000000090B7200010407800644060004E
:103F40000004E00005003A00B1012000007D2000DF
:103F5000569D02000000000004003700C10120004F
:103F6000B07E2000569D020000000000C0C2B300D9
:103F7000347002000000000000C2B3003470020080
:103F800000000000B1012000C0202100569D020069
:103F900000000000A0B7200010407800706E020002
:103FA00000000000B0942800046C02000000000033
:103FB00090B7200010407800614060000004E000ED
:103FC0000500320051012000E05B2000E09D02006E
:103FD000000000000400370061012000805A20002A
:103FE000E09D020000000000A1408000E0022000EF
:103FF0000088B9004102200080804000E09320004A
:10400000008040001000780000000100C100200086
:1040100040782000E09D0200000000000080FA00CF
:10402000000006000000FA00A1002000A005210009
:10403000E09D02000000000061042000200B210030
:10404000E09D020000000000A101200040062100C8
:10405000569D020000000000A1408000E002200008
:104060000088B9002102200080804000E0932000F9
:10407000008040001000780000000100A100200036
:10408000E0072100569D02000000000000402000D3
:1040900050000700001020004E0007000020200004
:1040A0004C000700000420004A0007000008200020
:1040B00048000700B0942800046C020000000000D3
:1040C00041002000800F2100569D020000000000EA
:1040D00021E3A800A0C0B300249702000000000064
:1040E000746F02000000000011002000903A2000D0
:1040F000569D02000000000090C0B3003470020022
:104100000000000090C0B3002497020000000000EF
:10411000746F02000000000011002000903A20009F
:10412000569D02000000000090C0B30034700200F1
:1041300000000000C0C0B30024970200000000008F
:10414000746F02000000000011002000903A20006F
:10415000569D02000000000090C0B30034700200C1
:1041600000000000B0C0B30024970200000000006F
:10417000746F02000000000011002000903A20003F
:10418000569D02000000000090C0B3003470020091
:104190000000000021E3A900004020001C000700EF
:1041A000001020001A00070000202000180007005F
:1041B000000420001600070000082000140007007B
:1041C000B0942800046C0200000000000080FA0097
:1041D000000006000200FA00000F78004016800080
:1041E0001E0060000000E00004003200A09B2800D8
:1041F000D86B02000000000003003700D09B2800AD
:10420000D86B0200000000000080FA0000000600E9
:104210000200FA00000F7800501680001E006000B7
:104220000000E00004003200009C2800D86B02006F
:104230000000000003003700309C2800D86B02000B
:10424000000000000080FA00000006000200FA00F2
:10425000606980000000E800606988006169800092
:10426000F00F2000008060006069880097FC070064
:10427000ABFA0700000F78001E00E00006003400D3
:10428000400020009E0F100003003C001E00E900CB
:10429000904088000D0037000000EB007069880036
:1042A0002102200040812000E09D0200000000006B
:1042B0008001EB00420020001100200010002000CF
:1042C000BDFD07000000E9009040880021012000AA
:1042D00060832000E09D0200000000000080FA00E2
:1042E000000006000200FA00606980000000E8009B
:1042F0006069880061698000F00F20000080600024
:104300006069880071FC070085FA07001047980073
:104310001E4090000004E000090032001E409000A2
:10432000EA4F500006003E001E4090000040E900A9
:104330008040780000812000014878000F0037009D
:104340000000EB0070698800D10820003087200051
:10435000E09D0200000000008001EB00A2002000B0
:10436000110020009000200093FD07000040E900AC
:104370008040780000812000014878000081200002
:1043800010407800E94F500010003A004FFC070041
:1043900063FA0700004F78001E04E0000B003A00AB
:1043A0000000EB0070698800609C2800046C02002B
:1043B000000000008001EB00F2FF27008000EB000E
:1043C000200220007CFD0700004F78004101200002
:1043D00000902000E09D020000000000110120007C
:1043E000B01F2100E09D02000000000023C2BF00BA
:1043F000614060000004E000FCFF3200008120000A
:1044000010407800E94F500003003A001E40780049
:104410005270020000000000AE9702000000000091
:104420000000370016700200000000000004E000E9
:10443000FCFF320022700200000000008040780083
:1044400000C2B30080CF500001003200F5FF3700FA
:104450000080FA00000006000000FA00717380007E
:1044600060E72000008040009040780030C8B30032
:1044700080CF50000E003A00707380000000E8000A
:104480007073880003003700707380000000E8003C
:10449000707388007173800060E720000080400026
:1044A0009040780000CEB30080CF5000F6FF360079
:1044B0000080FA00000006000A00FA0030079800A9
:1044C0000000EB0020079800AE00900060E720009D
:1044D000008040009040780000CEB30080CF5000B4
:1044E00003003E000080EB004007980023003700E7
:1044F000AE00900060E7200000804000104078008F
:104500008080FB0000F22F00008040001007980020
:104510002E0090008000E80060E72000008040004E
:10452000104078000080FB004801DD002E00900064
:104530008080E80060E720000080400010407800A4
:104540000080FB00000F41009E0078003E009000BC
:10455000808F500003003A002E0090004007980022
:10456000060037009E0090002E0090000080400062
:104570006300400020079800D3FF37004E009000F2
:104580000080FA00000006000600FA00881F78008C
:104590000000EB00000F78007173800060E72000DE
:1045A000008040009040780080C2B30080CF50006F
:1045B00010003A00707380000000E80070738800FB
:1045C0001D010700000F78007173800060E7200074
:1045D000008040009040780090C2B30080CF50002F
:1045E000AA003A00707380000000E8007073880031
:1045F000A60037007173800060E720000080400053
:104600009040780000C4B30080CF50001600360000
:104610007173800060E720000080400090407800C7
:10462000A0C5B30080CF50000F003E007273800021
:1046300060E7200000004100104078008080FB000F
:10464000F0FB2F000080400080004000E0E02000F0
:104650000080400010007800200798000200E80069
:10466000707388008B0037007173800060E7200052
:10467000008040009040780000C8B30080CF500018
:10468000740036007173800060E7200000804000F5
:10469000104078000080FB00100798000100E8003F
:1046A00070738800700920009E009000808F500079
:1046B00041003200700920009E009000808F500061
:1046C0000D003C00400920009E009000808F5000AB
:1046D00016003200600920009E009000808F50007C
:1046E0002B003200300920009E009000808F500087
:1046F0001800320046003700900920009E0090000C
:10470000808F50001E003200900920009E00900013
:10471000808F500039003500A00920009E009000D5
:10472000808F50002E00320039003700A1408000F9
:10473000E00220000088B900EA004000E093200079
:10474000008040001000780000000100000F780099
:104750004E003700A1408000E00220000088B90030
:10476000E8004000E0932000008040001004780042
:104770008200070008000100000F780043003700A6
:10478000427D020000000000000F78003F0037006B
:10479000A1408000E00220000088B900F400400041
:1047A000E09320000080400010007800000001002D
:1047B000000F780035003700A1408000E0022000A3
:1047C0000088B900F8004000E0932000008040001D
:1047D0001000780000000100000F78002B00370067
:1047E000CAC2BF000080FB004500DE0061406000DF
:1047F0000080FB00000F780024003700C0C0B30029
:104800002497020000000000000F78001F0037000E
:104810000000EB00000F78001C0037001E0078003D
:104820006A00B900000F78007173800060E7200013
:1048300000804000104078000080FB009E00400097
:1048400000FD2F00008F4000707380000000E80022
:10485000707388007173800060E720000080400062
:1048600090407800F0C2B30080CF500007003600BF
:104870007173800060E72000008040009040780065
:1048800090C3B30080CF5000E4FF36001E007800D4
:10489000200798002E0090004F0478000080FA0056
:1048A000000006000600FA0037FF0700000F78003E
:1048B000000037007173800060E720000080400036
:1048C00090407800A0C2B30080CF50000A003200B0
:1048D0007173800060E72000008040009040780005
:1048E000F0C2B30080CF5000030032001E007800F9
:1048F000200798001E0037007173800060E72000D9
:1049000000804000104078000080FB0010079800F5
:104910000100E80070738800A00220009E00900053
:10492000808F500005003200F00220009E009000B1
:10493000808F500007003200DEFF370012FF0700B3
:10494000800078001E0078000180B900000F780018
:10495000D8FF37000CFF0700000178001E00780028
:10496000110009000200D800000F7800D1FF3700C5
:104970002E0090000080FA00000006000600FA00F9
:10498000C8FF0700000F7800000037007173800037
:1049900060E720000080400090407800D0C2B30063
:1049A00080CF50000A0032007173800060E7200061
:1049B0000080400090407800B0C2B30080CF50002B
:1049C000030032001E00780020079800170037000F
:1049D0007173800060E72000008040001040780084
:1049E0000080FB00100798000100E8007073880049
:1049F000B00220009E009000808F5000080032001E
:104A0000D00220009E009000808F500001003200F4
:104A1000DEFF3700A3FF07001E0F1000DBFF37008B
:104A2000A0FF07001E0F4000D8FF37002E009000A7
:104A30000080FA00000006000C00FA00727380008B
:104A400060E7200000004100104078008080FB00FB
:104A5000F0FB2F000080400080004000E0E02000DC
:104A60000080400090007800210798000200E800D4
:104A7000707388000000EB00000F78000B00370017
:104A80009E0178007273800060E720000000410002
:104A900010407800804078006600470081717800FF
:104AA0000200E800707388001E0FE8007173800038
:104AB00060E72000008040009040780000C4B30010
:104AC00080CF5000070036007173800060E720003F
:104AD0000080400090407800A0C5B30080CF500017
:104AE0000E0036007173800060E7200000804000F7
:104AF00090407800F0C2B30080CF5000E0FF360055
:104B00007173800060E720000080400090407800D2
:104B100090C3B30080CF5000D9FF3E0097FF07003D
:104B20001007980066004700104078000000FB0066
:104B300050079800C0032000DE009000808F5000D6
:104B400032003200C0032000DE009000808F500051
:104B500005003C0010022000DE009000808F500015
:104B6000410032004E003700D0032000DE009000EC
:104B7000808F500005003200E0032000DE0090002E
:104B8000808F50000A003200450037000000EB0023
:104B900040079800AE0090001E009000808F5000EB
:104BA00041003A0011002000410798003E00370004
:104BB0006600470090409000D0C3B30080CF500003
:104BC00009003A000000EB0040079800AE0090009A
:104BD0001E009000808F500033003500110020002F
:104BE00041079800300037000000EB0040079800B4
:104BF000AE0090001E009000808F50002A0034000C
:104C00001100200041079800270037006600470088
:104C100090409000D0C3B30080CF500009003A000C
:104C20000000EB0040079800AE0090001E009000CE
:104C3000808F50001C003C001100200041079800AC
:104C4000190037000000EB0040079800AE0090000C
:104C50001E009000808F500013003D0011002000C6
:104C60004107980010003700660047009040900010
:104C7000D0C3B30080CF500009003A000000EB0021
:104C800040079800AE0090001E009000808F5000FA
:104C90000500320011002000410798000200370093
:104CA0000000EB00400798004E0090000080FA00E2
:104CB000000006001C00FA00881F78000000EB00CE
:104CC000707388000000EB00300798000000EB00D4
:104CD000200798000000EB00100798000000EB0090
:104CE000807388000000EB00907388000000EB00E8
:104CF000A07388000000EB0050079800D0408000AF
:104D00000080A000D04088000000EB004007980021
:104D1000090037004E00900080004000E0E02000D5
:104D2000808040000000EB00800878004E0090007A
:104D30000000E800400798004E009000F90F500076
:104D4000F4FF3400330437001E0090000000E00040
:104D500021003A007173800060E72000008040006D
:104D600090407800F0CDB30080CF500003003E00AB
:104D7000200020003007980029043700717380005C
:104D800060E7200000804000104078008080FB0039
:104D900000F22F00008040006007980070738000D0
:104DA0008000E80060E720000080400010407800AC
:104DB0000080FB004801DD00707380008080E80007
:104DC00060E7200000804000104078000080FB0079
:104DD00000007100500798000000EB0010079800D9
:104DE00070738000E300400060E720000080400016
:104DF000104078000080FB006101B90000F82F002E
:104E0000F1FF2F000201400083814800420F98000B
:104E1000530F980010022000010020004E0990005E
:104E2000DE099000800F5100818F5900ED033E0094
:104E30004E089000DE08900000600100210037005D
:104E400035003700E7033700E6033700710037000D
:104E500081003700A3003700B7003700BE003700DD
:104E60003B01370088013700DE033700EE013700D1
:104E70003502370099023700A0023700AE02370032
:104E8000BC023700CA023700D8023700D50337000A
:104E90007A0337005E033700D2033700D1033700AF
:104EA000E2023700F0023700A1033700AC033700FD
:104EB000000337001403370034033700B40337000E
:104EC000C503370010002000200798007073800091
:104ED0006600400070738800707380008080E90075
:104EE00060E7200000804000104078008080FB00D8
:104EF000F0FB2F0000844000A0FE070000017800B6
:104F000088004400E0E020000080400002087800B3
:104F100051FD0700B503370010002000200798005E
:104F2000707380006400400070738800C2FE070048
:104F30000000E0001C00320071738000310F980007
:104F400060E720003E09900000004100904078009A
:104F50008041EB004357980020C8B30080CF500039
:104F600002003A0010C0B30040579800BE089000FD
:104F70000100E800707388004E5190000204E000C8
:104F80009A03320010002000100798007073800010
:104F900063005000707388009403370070738000C2
:104FA0000000E800707388007173800060E72000E3
:104FB000008040009040780030C8B30080CF50009F
:104FC000070032007173800060E72000008040001D
:104FD0009040780000CEB30080CF5000EFFF360045
:104FE0007173800060E720000080400090407800EE
:104FF00030C8B30080CF50007C033A00100020007E
:1050000010079800707380000080E90070738800BA
:10501000760337001000200020079800707380008E
:10502000640040007073880054FE070022FD0700F2
:10503000000F78008081EB009E8F1100030032008A
:105040001E0078007073880068033700600020003D
:1050500030079800650337001000200020079800F3
:10506000707380006400400070738800907380004B
:10507000E90F500018003C009273800071738000AB
:105080006E009000008040008001E9008200410035
:1050900020E4200000804000030878009073800026
:1050A0000000E8009073880034FE070002FD07004E
:1050B000000F78008080EB009E8F1000030032000C
:1050C0001E017800727388004803370060002000DA
:1050D0003007980045033700700020003007980023
:1050E0004203370040892800D86B0200000000000E
:1050F0001000200020079800907380000000E0005E
:105100000A003200907380000000E900907388006C
:10511000907380008000400020E420000080400068
:105120001000780070738800300337008000200082
:10513000300798002D03370010002000200798004A
:10514000717380006E00900000804000630040009A
:105150007073880025033700100020002007980096
:10516000707380006400400070738800570037003F
:105170007173800060E7200000804000904078005C
:1051800020C2B30080CF50001F003A00707380002F
:105190000000E8007073880010003700D0408000E5
:1051A0000080A100D04088007173800060E720007B
:1051B0000080400010407800004178000100E800C5
:1051C0007073880002407800347002000000000014
:1051D000D04080000080A000D04088007173800023
:1051E00060E72000008040009040780020C2B300BB
:1051F00080CF5000E9FF3A00707380000000E800A3
:1052000070738800310037007173800060E7200000
:10521000008040009040780000C4B30080CF500070
:10522000070036007173800060E7200000804000B6
:1052300090407800A0C5B30080CF50000D0036002C
:105240007173800060E7200000804000104078000B
:105250000004E00013003D007173800060E720004F
:105260000080400090407800F0CDB30080CF500027
:105270000C003E00C1FD0700000F7800D040800008
:105280000080A100D04088001E007800126E02004D
:1052900000000000D04080000080A000D0408800C6
:1052A0000A0037007173800060E720000080400032
:1052B00090407800B0C3B30080CF500003003A00A4
:1052C000707380000000E8007073880071738000C4
:1052D00060E720000080400090407800F0CDB300EF
:1052E00080CF500007003E007173800060E720000F
:1052F000008040009040780030C8B30080CF50005C
:105300009BFF3A00707380008000E90060E7200096
:105310000080400090407800B0C3B30080CF5000C0
:1053200009003200D04080000080A100D0408800F9
:10533000A0922800046C020000000000D040800011
:105340000080A000D040880043FC0700A70237007F
:105350001000200020079800D04080000080A100AD
:10536000D040880070738000640040007073880033
:105370007173800060E7200000804000904078005A
:1053800020C2B30080CF500018003A007073800034
:105390000000E800707388000A0037007173800015
:1053A00060E7200000804000104078000041780055
:1053B0000100E80070738800024078003470020039
:1053C000000000007173800060E720000080400052
:1053D0009040780020C2B30080CF5000EFFF3A0029
:1053E000707380000000E8007073880071738000A3
:1053F00060E720000080400090407800C0C2B30009
:1054000080CF500004003A00707380000000E80074
:1054100070738800020037003000200030079800C9
:105420007173800060E72000008040001040780029
:105430008080FB00F0FB2F00008440008001EB0027
:10544000F2FF27008000EB000000EB00DC1C0200F4
:10545000000000000001780088004400E0E0200027
:105460000080400002087800707380000000E800AF
:1054700070738800F8FB0700D04080000080A00017
:10548000D040880059023700100020002007980003
:105490007073800064004000707388008073800027
:1054A000E30F500004003C00807380000000E8001F
:1054B0008073880002003700400020003007980009
:1054C000827380007373800060E7200000804100D9
:1054D000104078008080FB0000FC2F00008240001C
:1054E0006610B9008080E80060E520000080400080
:1054F000040878000300E80070738800717380006E
:1055000060E720000080400090407800D0C3B300E6
:1055100080CF500011003A00707380000000E80056
:1055200070738800807380006600B9008080E80096
:1055300060E5200000804000100078000004E900D1
:105540000EFD07000001780088004400E0E0200024
:105550000080400002087800020037003000200080
:105560003007980073738000130F980060E72000E5
:105570009E08900000804000904078000041EB00C1
:1055800002579800B0C8B30080CF500002003A0024
:1055900013C0B300035798009E0890000100E80074
:1055A000707388000E5190000204E0000900320080
:1055B00088738000F1FC0700000178006640B900A4
:1055C000E400400060E52000008040000208780010
:1055D000020037003000200030079800717380000F
:1055E00060E720000080400090407800F0CDB300DC
:1055F00080CF5000080036008073800072738000F6
:105600006600B9008000780060E52000008040005E
:1056100002087800020037003000200030079800B0
:105620008DFB0700F10137001000200020079800D3
:105630007073800064004000707388007273800093
:1056400060E7200000004100104078008080FB00EF
:1056500000FC2F00008F40000200E80070738800FB
:1056600050002000300798000000EB004007980031
:105670002F0037004E0090006600B9008080E800DF
:1056800060E5200000804000100078009E0F500070
:1056900024003A001E00E90080004000E0E0200005
:1056A00000804000100178004E0090006600B900B4
:1056B000E400400060E52000008040001000780019
:1056C000800F510012003D009E00E9000181400062
:1056D000E0E0200000004100100078000001E80038
:1056E00081804000E0E02000008040000208780057
:1056F0004E0090006600B9008000780060E5200050
:1057000000804000100078007073880003003700AC
:10571000807380000000E900807388000000EB00C7
:10572000300798004E0090000000E8004007980005
:10573000817380004E009000810F5000CDFF340037
:1057400045FB0700A9013700100020002007980042
:10575000707380006400400070738800A073800044
:105760000000E00027003A000000EB00400798002E
:105770000A003700CE00900060E720000080400063
:10578000104078008080FB004E0090008080400038
:1057900030F22F0000804000400798004E0090003B
:1057A000E300400060E72000008040009040780067
:1057B000E0C8B30080CF500006003200CE00900059
:1057C00060E7200000804000104078000004E00006
:1057D000E8FF3A00CE00900060E720000080400023
:1057E000104078000004E000040032004E009000F9
:1057F00064004000A0738800020037009000200081
:105800003007980073738000030F7800A073800046
:10581000707388009E00780060E7200000804000E0
:10582000104078008080FB00F0FB2F0000844000D7
:1058300055FB07000001780088004400E0E02000EC
:10584000008040000208780070738000A073880018
:105850001E00E80070738800A173800060E72000DC
:105860000080400090407800C0C2B30080CF50005C
:1058700003003A00A07380000000E800A0738800D5
:10588000A173800060E72000008040009040780015
:1058900000CEB30080CF50000E003600A073800011
:1058A000E300400060E72000008040009040780066
:1058B000E0C8B30080CF5000030032000000EB00CE
:1058C000A073880003003700A073800064004000CC
:1058D000A0738800E0FA07004401370010002000A0
:1058E00020079800717380006E00900000804000D7
:1058F00063004000707388003C01370010002000F6
:105900002007980070738000640040007073880066
:10591000A1408000E00220000088B90080007800EB
:10592000E09320000080400010007800000001009B
:10593000C9FA07002D013700100020002007980049
:10594000707380006400400070738800A140800084
:10595000E00220000088B9008080E800E093200089
:10596000008040001000780000000100BAFA070033
:105970001E0137001000200020079800707380007F
:105980006400400070738800A1408000E0022000A5
:105990000088B900E4004000E0932000008040004F
:1059A0001000780000000100ABFA07000F0137007B
:1059B00010002000200798007073800064004000F1
:1059C00070738800A1408000E00220000088B900C8
:1059D000E6004000E09320000080400010007800C6
:1059E000000001009CFA07000001370010002000B1
:1059F0002007980070738000640040007073880076
:105A0000A1408000E00220000088B900E8004000CA
:105A1000E09320000080400010047800D7FB0700CE
:105A2000080001008CFA0700F00037001000200089
:105A30002007980070738000640040007073880035
:105A4000CEFB07000000E00003003200FE7C0200F5
:105A50000000000002003700207D0200000000006E
:105A60007DFA0700E10037001000200020079800B1
:105A7000707380006400400070738800BFFB0700F3
:105A80000000E00005003200C082A900C282A80028
:105A9000C8A2A900CAA2A80004003700C082A900B9
:105AA000C282A900C8A2A900CAA2A9006AFA070076
:105AB000CE0037001000200020079800707380008F
:105AC0006400400070738800ACFB07000000E00039
:105AD0000600320090B72000104078000000A000BF
:105AE00091B72000804878000500370090B720006B
:105AF000104078000000A00091B720008048780096
:105B000055FA0700B9003700100020002007980060
:105B100070738000640040007073880097FB07007A
:105B200030618800306180000000E00002003D002C
:105B30000000EB00306188003161800000FA200035
:105B4000808F50000200340000FA2000306188008D
:105B500040618000E10F500002003C002000200066
:105B6000406188004161800030062000808F500035
:105B7000020034003006200040618800A479020051
:105B80000000000034FA07009800370010002000E1
:105B900020079800707380006400400070738800D4
:105BA00076FB070040618800306180000000E00063
:105BB00002003D000000EB00306188003161800090
:105BC00000FA2000808F50000200340000FA20000C
:105BD0003061880040618000E10F500002003C000D
:105BE00020002000406188004161800030062000D4
:105BF000808F500002003400300620004061880091
:105C0000A47902000000000013FA070077003700B3
:105C1000100020002007980070738000640040008E
:105C20007073880055FB07000000E0000900320097
:105C3000A1408000E00220000088B900F000400090
:105C4000E093200000804000100078000000010078
:105C500008003700A1408000E00220000088B90061
:105C6000F2004000E0932000008040001000780027
:105C700000000100F8F907005C0037001000200068
:105C800020079800707380006400400070738800E3
:105C90003AFB0700700798007E009000E10F50006B
:105CA00010003200FE009000E28F5000160032001B
:105CB0007E0190000200E000010032001A0037006F
:105CC000A1408000E00220000088B900EE00400002
:105CD000E0932000008040001000780000000100E8
:105CE00011003700A1408000E00220000088B900C8
:105CF000EC004000E093200000804000100078009D
:105D00000000010008003700A1408000E0022000F0
:105D10000088B900F6004000E093200000804000B9
:105D20001000780000000100CBF907002F003700B9
:105D3000100020002007980070738000640040006D
:105D400070738800717380006E00900000804000C6
:105D50000000E90070738800BFF9070023003700D6
:105D6000100020002007980070738000640040003D
