:020000040000FA
:100000000002040000000000E0980000E0980000FA
:10001000E0980000E0980000E0980000E098000000
:10002000E0980000E0980000E0980000E0980000F0
:10003000E0980000E0980000E0980000E0980000E0
:10004000E0980000E0980000E0980000E0980000D0
:10005000E09800000E6D0000346D0000E098000094
:10006000E0980000E0980000E0980000E0980000B0
:10007000E0980000E0980000E0980000E0980000A0
:10008000E0980000E0980000E0980000E098000090
:10009000E0980000E0980000E0980000E098000080
:1000A000E0980000E0980000E0980000E098000070
:1000B000E0980000E0980000E0980000E098000060
:1000C000E0980000E0980000E0980000E098000050
:1000D000E0980000E0980000E0980000E098000040
:1000E000E0980000E0980000E0980000E098000030
:1000F000E0980000E0980000E0980000E098000020
:10010000E0980000E0980000E0980000E09800000F
:10011000E0980000E0980000E0980000E0980000FF
:10012000E0980000E0980000E0980000E0980000EF
:10013000E0980000E0980000E0980000E0980000DF
:10014000E0980000E0980000E0980000E0980000CF
:10015000E0980000E0980000E0980000E0980000BF
:10016000E0980000E0980000E0980000E0980000AF
:10017000E0980000E0980000E0980000E09800009F
:10018000E0980000E0980000E0980000E09800008F
:10019000E0980000E0980000E0980000E09800007F
:1001A000E0980000E0980000E0980000E09800006F
:1001B000E0980000E0980000E0980000E09800005F
:1001C000E0980000E0980000E0980000E09800004F
:1001D000E0980000E0980000E0980000E09800003F
:1001E000E0980000E0980000E0980000E09800002F
:1001F000E0980000E0980000E0980000E09800001F
:10020000FFFFFF00FFFFFF00E0980000E098000004
:10021000E0980000E0980000E0980000E0980000FE
:10022000E0980000E0980000E0980000E0980000EE
:10023000E0980000E0980000E0980000E0980000DE
:10024000E0980000E0980000E0980000E0980000CE
:10025000E09800000E6D0000346D0000E098000092
:10026000E0980000E0980000E0980000E0980000AE
:10027000E0980000E0980000E0980000E09800009E
:10028000E0980000E0980000E0980000E09800008E
:10029000E0980000E0980000E0980000E09800007E
:1002A000E0980000E0980000E0980000E09800006E
:1002B000E0980000E0980000E0980000E09800005E
:1002C000E0980000E0980000E0980000E09800004E
:1002D000E0980000E0980000E0980000E09800003E
:1002E000E0980000E0980000E0980000E09800002E
:1002F000E0980000E0980000E0980000E09800001E
:10030000E0980000E0980000E0980000E09800000D
:10031000E0980000E0980000E0980000E0980000FD
:10032000E0980000E0980000E0980000E0980000ED
:10033000E0980000E0980000E0980000E0980000DD
:10034000E0980000E0980000E0980000E0980000CD
:10035000E0980000E0980000E0980000E0980000BD
:10036000E0980000E0980000E0980000E0980000AD
:10037000E0980000E0980000E0980000E09800009D
:10038000E0980000E0980000E0980000E09800008D
:10039000E0980000E0980000E0980000E09800007D
:1003A000E0980000E0980000E0980000E09800006D
:1003B000E0980000E0980000E0980000E09800005D
:1003C000E0980000E0980000E0980000E09800004D
:1003D000E0980000E0980000E0980000E09800003D
:1003E000E0980000E0980000E0980000E09800002D
:1003F000E0980000E0980000E0980000E09800001D
:100400002FD92100007F2200000188000000000099
:100410000C00070080E52800010020001100070003
:10042000000020000000E000020032000000020096
:100430000000000012970200000000000040DA00F7
:100440000000FE004440A900C03620000000E0008B
:100450000300320000002000A00188004440A800F2
:100460000000060091018800800078000000EB0089
:1004700015003700E280400032A0B4009101BA00BC
:10048000E280400032A0B4009102BA00E280400055
:1004900032A0B4000002EB00472BDE00F507B200EB
:1004A000602CE10004003A000059EB008301E900F0
:1004B000FDFF3E00040037006128E100010032002A
:1004C0000082EB00040007001101BA000200E00006
:1004D000E8FF3A00000006003159BA008301E90044
:1004E0000C0032002159BA008301E90008003200F3
:1004F0000400E00003003A00E280400032A0B400B3
:10050000F5FF370011D9BA008301E900FAFF3A007C
:100510008100E800E180400032A0B4000000060045
:1005200000000000000000000000000000000000CB
:1005300000000000000000000000000000000000BB
:1005400000000000000000000000000000000000AB
:10055000000000000000000000000000000000009B
:1007E0000000000000000000889FBE008A9FBE003D
:1007F000010578000100E0000400350008003C001D
:100800000000E0002000320005003700600010000A
:10081000E080180002003B0001F02C001A003700B5
:100820000004BE006011B8006B0920000982CF00EF
:10083000020039000882CF000441B0006942520032
:100840000E00320008003B008281710061016400EB
:100850008904D1000884D3008B05E8000442E80035
:10086000F9FF3A00050037000804440089844C0071
:100870008B05E9000442E900FBFF3A000B01070089
:100880000AF0A70001F0A0004F05BE004F04BE0013
:1008900000000600F4FF2F002A013700140020009A
:1008A00028013700889FBE008A9FBE008C1F7800F9
:1008B0003F0107004601330003866C006450E100ED
:1008C0002E0032006420E100330032006150E1006C
:1008D0002F0032006120E100310032008585550093
:1008E000EB07B000090020000804200005003700D5
:1008F0000804440089844C000A00310006034300C8
:1009000087834B000001530081815B00F8FF3300B7
:100910000203BE000800A0000804440089844C00C3
:10092000F6FF3900C639DD00830173000100320093
:10093000130020008904D1000884D3000998A30083
:10094000050032000800A7000300A0008904D100C0
:100950000884D3008B05E8008904D1000884D30003
:100960000001EB000281D200D000070001F0A100DD
:100970000CF0A70001F0A0001E0137006420E10088
:10098000200132000801BE000200BE00F7FF370060
:100990006120E1001B0132006000B800F3FF370066
:1009A0000000200001F82700F0FF370003F0A2004C
:1009B000889FBE008A9FBE008C1F7800FC00070045
:1009C000030133006450E1004F0032006420E10075
:1009D0005200320003826C0007003B000905D00082
:1009E0000306D000820F54000C065D00020039009F
:1009F00002003200890178000306780085825500E4
:100A000004003D000003FD008103FD008502EA00B3
:100A10008B854200840F720002003B0060001000D2
:100A2000E08018006011B8000005EB007A28E100B2
:100A30000A00390006007800C75DDD00F707B20044
:100A4000878075002D003700828171000A017800CF
:100A5000610560008180D1000080D3008502E9003B
:100A6000F9FF3B00060440008784480002003B0079
:100A700060041400E0841C000988A3000700320011
:100A80008A81710082817100610164008904D10052
:100A90000884D3008B05E800170037000978A3000D
:100AA00013003A000B00E000130034008B05E9004E
:100AB0000804440089844C000A4474000978A300A7
:100AC0000D003A000B00E000070034008B05E90040
:100AD0000804440089844C0001003A000B00200007
:100AE0000978A300F7FF32000001EB000200370095
:100AF000828171000A0178006C0007000CF0A700E9
:100B000001F0A000BB0037006420E10002003A00C1
:100B1000838F6C00BB0033000801BE000200BE00E2
:100B2000B4003700889FBE008A9FBE008C1F7800EB
:100B30009F000700A600330003866C006450E100AC
:100B4000240032006420E100270032006150E100FF
:100B5000220032006120E100210032008B8542003A
:100B6000EB07B1000134B800003AB80008044200B5
:100B700089844A00013AB8000030B80088804000FB
:100B800009014A0004003300000040008180480051
:100B9000020149008B05E900C909DD0083017000ED
:100BA0000100320013002000C814DE004814DD00EC
:100BB0004709DE001200B200C808DE000884700099
:100BC0003A00070001F0A1000CF0A70001F0A0001E
:100BD000880037006120E1008A0032000801BE0071
:100BE0000200BE00F7FF37006150E100FCFF3A0051
:100BF000840037000001BE00850007000470A700D4
:100C000003F0A10003F8A30013003A006509B10046
:100C100010003200090035006928E10002003500AB
:100C2000010028000000050000004000818048000D
:100C30008502E900FCFF3A0000000600F88F420040
:100C4000050035008100D1000080D3008502E80056
:100C5000FCFF3A00000006008000EB0000000500E9
:100C60006022B800060220000000D0008180D2007F
:100C70000482D2008582D2000000A000020252004D
:100C800083825A00030031000202420083824A003C
:100C90000000A1000603E900F3FF3A00000006008F
:100CA000EFFF07000400BE000000060081002000E6
:100CB000618055000B003D000B00200061FE2F00FD
:100CC0000100E1001D0034008281710061016400B7
:100CD0008904D1000884D3000000E800FAFF3A003C
:100CE00071002000610064000300700002006000D9
:100CF0000900320061044400E0844C000988A5002A
:100D0000050032008B05E8006808E10002003A00A7
:100D10008904D1000884D300F20F20000258E100BA
:100D200005003D00C75DDD00F907B2008980750050
:100D300008007800000006000BF827008B00780000
:100D400000000500889FBE008A9FBE00841F7800B7
:100D5000170007004F00780011003300F0FF2F004C
:100D6000838F6C0006003B00040565000A00A700A5
:100D70000800370009F0A600100020000800370026
:100D8000820F5400838F5C000300390010002000A4
:100D900001003E000000200009F0A7000000EA006A
:100DA0004F05BE004F04BE000000E000000006003A
:100DB0000004BE00160007000003BE000405BE00CC
:100DC0000200BE0012000700844F750000000600FC
:100DD0000200BE006450E100050036006420E1001E
:100DE000020036000968A30001003A000800BE00B6
:100DF0000160A0004F0678004F05BE004F04BE0002
:100E000000000600F0FF2F00F1FF2700F9FF370078
:100E1000C70ADE00F107B200F50FB2000800320089
:100E2000E1CF4200020032000170A0002400050062
:100E3000810F700001003200040805004400050025
:100E4000810F700002003A00140005008502E900DD
:100E50000000400081C04800FCFF3B000170A00082
:100E60002400050000410000776100006974000063
:100E7000696E000067200000416300007469000093
:100E800076690000747900002E2E00002E0A000002
:100E90000D2800004E6F00007469000063650000BB
:100EA0003A200000416E0000792000006B650000D0
:100EB00079200000746F0000206500007869000050
:100EC0007420000061740000207400006869000054
:100ED00073200000706F0000696E00007420000035
:100EE0006F6E00006C7900002E2E00002E2900008D
:100EF0000A0D0000000A00000D2A00002A20000050
:100F000045610000726C0000792000004578000007
:100F1000697400002E2E00002E0A00000D00000053
:100F20000A0D00004E4F00005449000043450000E8
:100F300021200000282000004261000075640000AC
:100F4000203E00003D200000323500003630000019
:100F500030300000202900000A0D00005468000015
:100F600065200000736100006D7000006C6500007A
:100F700064200000627500007320000068610000BA
:100F800073200000612000006261000075640000B1
:100F9000207200006174000065200000746F000082
:100FA000206600006173000074200000666F00007E
:100FB00072200000746800006520000042500000AC
:100FC0002068000061720000647700006172000018
:100FD00065200000746F000000630000616C000079
:100FE000637500006C610000746500002061000002
:100FF00070700000726F0000707200006961000084
:10100000746C0000792E0000204E00006F2000005C
:1010100065730000746900006D6100007465000074
:10102000642000006261000075640000207200000E
:101030006174000065200000776900006C6C00009E
:1010400020620000652000007375000070700000D1
:101050006C690000656400002E200000496E0000ED
:10106000206F0000726400006572000000740000D0
:101070006F200000676500007420000074680000A5
:1010800065200000626100007564000020720000AD
:1010900061740000652C0000206F00006E200000CD
:1010A000746800006973000020620000757300001E
:1010B0002C200000796F0000752000007769000087
:1010C0006C6C0000206E000065650000642000006C
:1010D000746F00002075000073650000206100003F
:1010E000206C00006F670000696300002061000051
:1010F0006E6100006C7900007A65000072000000EB
:1011000061740000207300007065000065640000D9
:1011100073200000617200006F7500006E640000B3
:1011200020350000304D0000687A00002B2E0000B2
:10113000204F0000706500006E2000004265000036
:101140006E630000682000004C6F000067690000BB
:1011500063200000536E00006966000066650000B1
:101160007220000072650000636300006F6D000074
:101170006D6500006E640000656400002E200000B4
:101180003B290000000A00000D41000063740000CC
:10119000756100006C200000436100006C6300007A
:1011A000756C00006174000065640000204200005E
:1011B0006175000064200000526100007465000049
:1011C0003A20000009000000206200007073000057
:1011D0002028000045730000746900006D61000064
:1011E0007465000064290000000A00000D4E000034
:1011F0006561000072650000737400002043000008
:101200006F6D00006D6F00006E20000042610000F5
:10121000756400002052000061740000653A00000F
:101220002009000000200000627000007300000030
:101230000A0D00000A0D0000456E00006420000049
:101240006F66000020460000756E000063740000A9
:10125000696F00006E2E0000204700006F6F0000D5
:101260006420000062790000652E0000004100004B
:1012700052540000310000003E0000000820000031
:10128000080000001B5B0000440000001B5B000026
:1012900000440000001B00005B430000001B000036
:1012A0005B3200004B0D0000004300000000000016
:1012B0001B5B000032440000005700006172000018
:1012C0006E6900006E6700003A2000006E6F00003B
:1012D000207600006F6C00007461000067650000FC
:1012E000206F00006E20000056700000756C00003A
:1012F0006C75000070200000706900006E00000036
:10130000203D00002000000056520000454700002C
:10131000207400006F6F0000206C00006F770000E9
:101320002C20000069730000207400006865000034
:10133000726500002061000020730000686F0000EB
:10134000727400003F0000002E2000003C000000EE
:101350002E200000000D00000A2800000078000088
:10136000002900003E0000004275000073200000CC
:101370005069000072610000746500002076000072
:101380003300000046690000726D000077610000C4
:101390007265000020760000362E0000302D00001F
:1013A00061340000200000002028000032340000DA
:1013B000464A00003634000047410000303000004B
:1013C00032200000004100003300000042340000E1
:1013D00000420000350000004238000000550000C7
:1013E0004E4B0000002900000049000009000000E9
:1013F0004F09000000480000090000004C090000EF
:10140000004500006E74000065720000207200004C
:101410006177000020760000616C000075650000B7
:10142000206600006F72000020420000524700005A
:10143000000000003062000000300000303000008A
:101440002C0000003030000000300000313200007D
:1014500033340000353600003738000039410000D1
:101460004243000044450000463000007800000080
:10147000436F0000756C0000646E0000277400006C
:10148000206B000065650000702000007570000092
:10149000000000005350000049310000000000002F
:1014A000002900000020000057000000205200002A
:1014B0000049000032430000310000003A200000E3
:1014C000000000002E000000315700003031000005
:1014D00000000000314100004C53000000420000B9
:1014E00050760000330000000808000008080000E3
:1014F0000800000000000000204800007A00000002
:101500000000000042420000494F0000310000008E
:101510005241000057310000000000004F4300001E
:101520004431000000000000000000000000000046
:101530002900000000000000000000002800FA0060
:101540000000EB00600F98000000EB007065880061
:101550000000EB006065880060658000200798004F
:101560000000EB00100798000000EB00000F78006F
:101570000000EB00A04088000000EB00500798003E
:101580000000EB00806588000000EB004007980039
:101590000000EB00000F9800140037000000EB0083
:1015A000600798000B0037000E089000EE009000D6
:1015B0004500DD008100400020CB200080804000FD
:1015C0000040EB00804878006E0090000000E800CA
:1015D000600798006E009000FF0F5000F2FF34008B
:1015E0000E0890000000E800000F98000E08900020
:1015F000E40F5000E9FF34000000EB00906A88001F
:10160000A1408000E00220000088B90061022000B3
:1016100080804000C0922000008040008867020067
:1016200000000000D1408000002020000080600009
:101630000000E0000400320071002000C0592000CA
:101640004093020000000000C09328008867020059
:101650000000000048043700906A80000000E000AD
:1016600063003200906A80000000E900906A880000
:101670000000EB00600798001E00370062658000E4
:10168000906A8000EE0090004500DD00810040007F
:1016900020CB20000080400090407800C0BA20009D
:1016A0000000410001487800906A8000EE00900040
:1016B0004500DD008100400020CB2000008040007C
:1016C00010407800986C0200000000006065800007
:1016D0000000E800606588006E0090000000E800EF
:1016E0006007980061658000F00F200000806000B6
:1016F00060658800906A8000EE0090004500DD0083
:101700008100400020CB2000008040001040780085
:101710000004E000D9FF3A000000EB00906A880066
:101720003300370060B12000104078006440600052
:101730000004E0002E003200A1408000E002200002
:101740000088B900FA004000C092200000804000EC
:1017500010007800000001000000E00024003200CA
:10176000A1408000E00220000088B9006102200052
:1017700080804000C0922000008040008867020006
:1017800000000000C09328008867020000000000ED
:101790007165800060658000808F50001400320009
:1017A00070658000600798000D003700EE00900023
:1017B000C0BA20000080400010407800986C020001
:1017C00000000000EE009000F00F2000008060009C
:1017D000600798006E0090000000E8006007980025
:1017E000EE00900060658000808F5000EFFF3A00AF
:1017F000BA6B0200000000000004E000C9FF3200E4
:10180000C26C0200000000000004E000030032008F
:10181000D26C020000000000D7033700786C020091
:1018200000000000604F98006E4890000080FB00B0
:101830006101B9000217980013179800F007200003
:10184000010020000E1190009E119000800F5100A9
:10185000818F590054033E000E1090009E1090009E
:101860000060010045033700FA02370056013700D7
:101870004D033700D8003700110337006B013700E4
:101880004903370077003700470337002703370045
:10189000450337004403370024033700160237009E
:1018A00041033700720137003F0337003E03370022
:1018B0003D0337003C0337003B0337003A03370052
:1018C0003903370038033700370337003603370052
:1018D0000201370034033700330337003203370087
:1018E00031033700300337002F0337002E03370052
:1018F0002D0337002C0337002B0337002A03370052
:101900002903370028033700270337002603370051
:101910002503370024033700230337002203370051
:1019200021033700200337001F0337001E03370051
:101930001D0337001C0337001B0337001A03370051
:101940001903370018033700170337001603370051
:101950001503370014033700130337001203370051
:1019600011033700100337000F0337000E03370051
:101970000D0337000C0337000B0337000A03370051
:101980000903370008033700070337000603370051
:101990000503370004033700030337000203370051
:1019A0000103370000033700FF023700FE02370053
:1019B000FD023700FC023700FB023700FA02370055
:1019C000F9023700F8023700F7023700F602370055
:1019D000F5023700F4023700F3023700F202370055
:1019E000F1023700F0023700EF023700EE02370055
:1019F000ED023700EC023700EB023700EA02370055
:101A0000E9023700E8023700E7023700E602370054
:101A1000E5023700E4023700E3023700E202370054
:101A2000E1023700E0023700DF023700DE02370054
:101A3000DD023700DC023700DB023700DA02370054
:101A4000D9023700D8023700D7023700D602370054
:101A5000D5023700D4023700D3023700D202370054
:101A60005D003700716580002E009000810F5000EE
:101A700055003200616580002E009000810F5000FB
:101A800010003A00606580008000E900F00F20003F
:101A9000008060006065880061658000C0BA200039
:101AA000808040000040EB00804878006165800045
:101AB00021079800E09328008867020000000000DA
:101AC0002D0337000000EB00000F98002E0090005F
:101AD0008000E900F00F20000080600020079800DF
:101AE0002094280088670200000000002E0190006A
:101AF00062079800210037006E0190006E00900090
:101B00008000E800C0BA20000080400090407800CB
:101B1000C0BA20000000410001487800EE009000AB
:101B2000C0BA200000804000104078000004E000AF
:101B300007003200EE009000C0BA20000080400094
:101B400010407800986C020000000000030037008D
:101B500000C2B300986C0200000000000E08900064
:101B60000000E800000F98006E0090008000E80080
:101B7000F00F20000080600060079800EE009000E9
:101B800060658000808F5000DBFF3A006065800058
:101B90008000E900F00F2000008060006065880090
:101BA0006094280088670200000000000E08900082
:101BB000206A02000000000090942800886702005C
:101BC00000000000EC02370070C0B300986C020007
:101BD00000000000E8023700616580002E009000E0
:101BE000810F5000390032000000EB00000F980018
:101BF000AE01900063079800210037006E0190004D
:101C00006E0090008000E800C0BA20000080400014
:101C100090407800C0BA20000000410001487800E0
:101C2000EE009000C0BA2000008040001040780014
:101C30000004E00007003200EE009000C0BA20006F
:101C40000080400010407800986C02000000000006
:101C50000300370000C2B300986C020000000000CF
:101C60000E0890000000E800000F98006E00900041
:101C70008000E800F00F20000080600060079800FE
:101C8000EE00900060658000808F5000DBFF3A001E
:101C9000606580008000E900F00F20000080600097
:101CA00060658800609428008867020000000000DA
:101CB0000E089000206A02000000000090942800A6
:101CC0008867020000000000AB02370070C0B3005C
:101CD000986C020000000000A7023700786C020038
:101CE00000000000604F9800EE489000B0C5B300BF
:101CF00080CF5000A0023A00786C02000000000083
:101D0000604F98006E4890000080FB00700F9800B4
:101D100010042000FE089000808F50005400320014
:101D2000100420007E099000800F510009003C0043
:101D300010032000FE099000808F51001200320035
:101D400040032000FE089000808F500016003200F3
:101D500089023700300420007E099000800F510076
:101D60003200320030042000FE099000808F5100C4
:101D7000E100350040042000FE089000808F5000F4
:101D8000110032007C023700786C02000000000075
:101D9000604F9800EE489000E0C7B30080CF50003D
:101DA000AC01320074023700786C020000000000C1
:101DB000604F9800EE489000E0C7B30080CF50001D
:101DC000BF0132006C0237004E009000E40F50005B
:101DD000050034009E7B0200000000000000EB00C4
:101DE0004007980064023700716580002E00900063
:101DF000810F5000090032002E0090008000E900A1
:101E0000F00F200000806000200798002094280038
:101E100088670200000000005702370070C0B3005E
:101E2000986C0200000000005302370061658000DA
:101E30002E009000810F5000090032002E0090000B
:101E40008000E800F00F200000806000200798006C
:101E5000B0942800886702000000000046023700A6
:101E600070C0B300986C020000000000420237000E
:101E70000000EB00000F7800706580000000E900B2
:101E800080007800F00F200000806000600798005C
:101E90008D003700EE009000C0BA200000804000A6
:101EA000104078000004E00082003A006E009000CC
:101EB0008000E900F00F200080806000C0BA2000A0
:101EC00000804000104078000004E00079003200FB
:101ED0001E0FE8001E0090009E0F100075003600D7
:101EE0001E0090000000E800100798007165800057
:101EF00060658000808F5000140032000A003700B7
:101F000061658000C0BA2000808040000040EB0086
:101F100080487800606580008000E900F00F2000B4
:101F200000806000606588006165800070658000E9
:101F3000808F5000F2FF3A0061658000C0BA200037
:101F4000808040000040EB00804878006E009000E8
:101F50008000E900F00F200000806000000F980072
:101F6000110037008E089000C0BA200000804000A9
:101F7000104078000004E00006003A000E089000CF
:101F80008000E800F00F20000080600050079800FB
:101F9000090037000E0890008000E900F00F2000D3
:101FA00000806000000F98008E089000606580003F
:101FB000808F5000EBFF3A00F09428008867020001
:101FC00000000000A1408000E00220000088B9006D
:101FD0006102200080804000C0922000008040000C
:101FE0008867020000000000D1408000002020002F
:101FF000008060000000E00004003200710020005A
:10200000C05920004093020000000000C093280047
:1020100088670200000000005E019000020F980037
:10202000180037008E089000C0BA200000804000E1
:1020300010407800986C020000000000626580008B
:102040008E089000C0BA20000080400090407800C8
:10205000C0BA20000000410001487800606580009F
:102060008000E800F00F20000080600060658800BC
:102070000E0890008000E800F00F20000080600053
:10208000000F98008E0890006E009000808F500026
:10209000E4FF3A0061658000C0BA20008080400003
:1020A0000040EB00804878006365800023079800BB
:1020B000090037006E0090008000E900F00F20005A
:1020C0000080600060079800EE009000606580006E
:1020D000808F50006FFF3A00EE0090006065800036
:1020E000808F5000A4013A0070C0B300986C0200C9
:1020F00000000000A00137000000EB00000F780096
:10210000706580000000E90080007800F00F20007A
:1021100000806000600798008E003700EE0090009D
:10212000C0BA200000804000104078000004E000A9
:1021300083003A006E0090008000E900F00F20005C
:1021400080806000C0BA200000804000104078000D
:102150000004E0007A0032001E0FE8001E0090002C
:102160000000E9009E0F500075003A001E0090002C
:102170000000E9001007980071658000606580002C
:10218000808F5000140032000A0037006165800023
:10219000C0BA2000808040000040EB0080487800FA
:1021A000606580008000E900F00F20000080600082
:1021B000606588006165800070658000808F5000D8
:1021C000F2FF3A0061658000C0BA200080804000C4
:1021D0000040EB00804878006E0090008000E9002D
:1021E000F00F200000806000000F98001100370001
:1021F0008E089000C0BA2000008040001040780097
:102200000004E00006003A000E0890008000E8009C
:10221000F00F200000806000500798000900370090
:102220000E0890008000E900F00F200000806000A0
:10223000000F98008E08900060658000808F50002D
:10224000EBFF3A00F09428008867020000000000CD
:10225000A1408000E00220000088B9006102200057
:1022600080804000C092200000804000886702000B
:1022700000000000D14080000020200000806000AD
:102280000000E0000400320071002000C05920006E
:102290004093020000000000C093280088670200FD
:1022A000000000005E009000000F9800180037004A
:1022B0008E089000C0BA20000080400010407800D6
:1022C000986C020000000000626580008E0890009B
:1022D000C0BA20000080400090407800C0BA2000C2
:1022E0000000410001487800606580008000E8003F
:1022F000F00F200000806000606588000E089000EC
:102300008000E800F00F200000806000000F9800BF
:102310008E0890006E009000808F5000E4FF3A001D
:1023200061658000C0BA2000808040000040EB0062
:102330008048780061658000210798000900370017
:102340006E0090008000E900F00F20000080600027
:1023500060079800EE00900060658000808F50005C
:102360006EFF3A00EE00900060658000808F5000A4
:1023700001013A001E009000E10F500031003A00C8
:10238000F09428008867020000000000A14080004F
:10239000E00220000088B900610220008080400037
:1023A000C09220000080400088670200000000000A
:1023B000D140800000202000008060000000E0008C
:1023C0000400320071002000C05920004093020038
:1023D00000000000C0932800886702000000000091
:1023E0000A00370061658000C0BA2000808040008C
:1023F0000040EB0080487800606580008000E900C4
:10240000F00F20000080600060658800616580003A
:1024100070658000808F5000F2FF3A006165800097
:10242000C0BA2000808040000040EB008048780067
:1024300062658000220798000000EB0010079800FA
:10244000CD00370070C0B300986C0200000000009F
:10245000C9003700716580002E009000810F500088
:1024600013003200716580002E00900001005000C2
:1024700080007800F00F200000806000000F9800BE
:102480006094280088670200000000000E08900099
:10249000206A020000000000909428008867020073
:1024A000000000007365800023079800B200370029
:1024B00070C0B300986C020000000000AE0037004E
:1024C000616580002E009000810F500013003200E3
:1024D000616580002E009000008050008000780030
:1024E000F00F200000806000000F9800609428002A
:1024F00088670200000000000E089000206A0200B9
:1025000000000000509528008867020000000000CD
:1025100060658000200798009700370070C0B30006
:10252000986C0200000000009300370010002000AB
:10253000600F98000000EB001007980061658000B4
:10254000C0BA2000808040000040EB008048780046
:10255000606580008000E800F00F200000806000CF
:1025600060658800616580002107980070952800EB
:10257000B4670200000000007F0037004E009000AA
:102580000000E800400798004E009000F40F500053
:1025900079003A00BE720200000000000000EB006B
:1025A0004007980074003700606580008000E800F4
:1025B000F00F20008080600070658000808F5000E8
:1025C0006A0032006E489000FF4F500067003600EE
:1025D000EE489000E0C7B30080CF500063003E009B
:1025E000616580002E009000808F500015003A0039
:1025F0006E489000986C0200000000006165800049
:102600006E499000C0BA2000008040000248780067
:10261000606580008000E800F00F2000008060000E
:102620006065880061658000C0BA2000808040003D
:102630000040EB0080487800626580002207980027
:102640004D003700616580002E0090000080500032
:1026500080007800F00F200000806000000F9800DC
:102660006094280088670200000000000E089000B7
:10267000206A0200000000005095280088670200D0
:102680000000000060658000600798001D003700B2
:102690006E0090000001E800EE009000C0BA20003B
:1026A0000080400090407800C0BA20000000410047
:1026B00001487800EE009000C0BA20000080400081
:1026C000104078000004E00009003200EE009000A5
:1026D000C0BA20000080400010407800986C0200D2
:1026E00000000000809528008867020000000000BC
:1026F0006E0090008000E900F00F20000080600074
:10270000600798006E0190002E0090008000E900A4
:10271000F00F200000806000800F5100DCFF3A00C5
:102720006E489000986C020000000000AE0090001F
:102730006E499000C0BA2000008040000248780036
:102740002E0090008000E800F00F20000080600064
:1027500020079800606580008000E800F00F2000EE
:1027600000806000606588000300370070C0B3001F
:10277000986C0200000000006E0890000000E0006D
:10278000B5FB320060658000400F980070658000E6
:10279000300F98000000EB00600F98000000EB0085
:1027A000500F98000000EB0080658800FC043700A3
:1027B00071658000C0BA20000080400010407800A1
:1027C000604F98006E4890000080FB006101B900E6
:1027D0002217980033179800E0072000010020001E
:1027E0002E119000BE119000800F5100818F590072
:1027F000BF043E002E109000BE109000006001004B
:10280000BD043700BA043700B9043700B8043700F4
:10281000B7043700B6043700B5043700B4043700F6
:10282000B3043700B2043700B3043700B0043700F4
:10283000AF043700B0043700AD043700AC043700F4
:10284000AB043700AA043700A9043700A8043700F6
:10285000A7043700A6043700A5043700A4043700F6
:10286000A3043700A2043700A1043700A0043700F6
:102870009F0437009E0437009D0437009C043700F6
:102880009D0437007A043700BA0237002B01370065
:1028900030013700D5013700C301370094043700F9
:1028A00093023700920437009104370092043700F6
:1028B00091043700260437003F0437000A0437002C
:1028C000330337003203370031033700300337005A
:1028D0002F0337002E0337002D0337002C0337005A
:1028E0002B0337002A0337008104370080043700A8
:1028F000DA013700C90037007D0437003F00370098
:102900003E01370030013700790437006500370099
:10291000A2013700760437007504370074043700CD
:1029200073043700720437007104370070043700F5
:10293000670037006E0437006D0437006C04370001
:102940008F0037006A04370069043700B801370088
:102950006704370066043700650437003D0137001F
:10296000630437006204370061043700E402370073
:10297000EA033700F40237001E0437000104370071
:102980005B04370003013700270037003A003700A7
:102990007401370056043700290037002B00370038
:1029A0005304370018003700510437005004370033
:1029B000540037001A0037004D0437001C00370060
:1029C0005D0037004A0437006D03370048043700C4
:1029D0004704370046043700170037004F0137001F
:1029E000430437004204370041043700CD0237006A
:1029F000A5003700DD023700C3003700E093020076
:102A0000000000003C043700B2070700A04080002F
:102A10000000E000380432001708070036043700D1
:102A200060060700340437004E09070032043700FF
:102A300028090700300437009C0807002E043700DF
:102A4000986F0200000000002B043700A0408000B7
:102A50000000E00005003A00D1012000305D2000B8
:102A6000CA9302000000000023043700006E020039
:102A7000000000002004370060B120001040780002
:102A80000000A1000010A10061B120008048780082
:102A900061012000805A2000CA930200000000005B
:102AA0001504370060B12000104078000000A0003D
:102AB0000010A10061B12000804878005101200081
:102AC000E05B2000CA930200000000000A04370007
:102AD00060B12000104078000030A00061B12000FB
:102AE00080487800C1012000B07E200040930200A1
:102AF0000000000070952800B4670200000000008C
:102B0000FD03370060B12000104078000030A100C4
:102B100061B1200080487800B1012000007D2000D4
:102B2000409302000000000070952800B467020086
:102B300000000000F0033700A04080000000E0002B
:102B400005003A00D1012000305D2000CA93020048
:102B500000000000E8033700CB62A900C962A900A9
:102B600051012000005F200040930200000000009F
:102B700070952800B467020000000000DE033700F3
:102B8000A04080000000E00005003A00D1012000D4
:102B9000305D2000CA93020000000000D603370019
:102BA00060B1200010407800704060000004E00038
:102BB00004003A002102200050E82000CA930200DD
:102BC00000000000C962A800CB62A90041012000FA
:102BD0005060200040930200000000007095280023
:102BE000B46702000000000021E3A800B0C0B300F9
:102BF000669102000000000080007800F0042000D0
:102C0000808F500003003E00D0952800B46702007A
:102C10000000000021E3A900B703370070658000C1
:102C20008000E800F00F20000080600070658800E0
:102C3000CC050700E4030700600798006E009000D1
:102C4000826A0200000000000098280088670200E5
:102C5000000000006E009000206A020000000000EA
:102C60000098280088670200000000006E009000B5
:102C7000E86702000000000070952800B4670200B9
:102C8000000000009C033700706580008000E800B1
:102C9000F00F20000080600070658800B10507001B
:102CA000C9030700600798006E0090000080FB00D9
:102CB000F892020000000000600798006E0090008B
:102CC000826A020000000000009828008867020065
:102CD000000000006E009000206A0200000000006A
:102CE0000098280088670200000000006E00900035
:102CF000E86702000000000070952800B467020039
:102D0000000000007C033700A04080000000E000CD
:102D100005003A0011C0B30010C0B300AE8B020032
:102D20000000000074033700A10120009061200022
:102D3000CA930200000000006F033700510020001A
:102D400030632000CA930200000000000000FE0073
:102D50006903370070940200000000000000E000EA
:102D600065033200A100200080632000CA930200A6
:102D700000000000400620009692020000000000C3
:102D80001C9102000000000081BF2A0001400100E8
:102D900059033700310507000000E800000F9800D4
:102DA000020037001C710200000000000E089000B5
:102DB0000000E900000F98000E0890000000E000FD
:102DC000F8FF3A004C033700240507000000E80034
:102DD000000F980002003700FA70020000000000A7
:102DE0000E0890000000E900000F98000E08900007
:102DF0000000E000F8FF3A003F0337001705070026
:102E00000000E800000F98000B003700610120006F
:102E10002064200040930200000000003E71020088
:102E2000000000007267020000000000709528009A
:102E3000B4670200000000000E0890000000E900E6
:102E4000000F98000E0890000000E000EFFF3A002D
:102E500029033700A04080000000E00005003A0090
:102E6000D1012000305D2000CA9302000000000064
:102E700021033700C002A900C202A80021E3A80074
:102E8000200020009692020000000000A0C0B300C5
:102E9000669102000000000080007800001B200006
:102EA000808F50000F00360090C0B3006691020082
:102EB0000000000080007800702B2000808F500000
:102EC00008003600110120008065200040930200B8
:102ED0000000000070952800B467020000000000A8
:102EE0000C003700C002A900C202A90040982800C7
:102EF000B46702000000000021012000906620005D
:102F0000409302000000000070952800B4670200A2
:102F10000000000021E3A900F7023700A040800074
:102F20000000E00005003A00D1012000305D2000E3
:102F3000CA93020000000000EF023700C002A9009F
:102F4000C202A900210120009066200040930200E7
:102F50000000000070952800B46702000000000027
:102F6000E5023700F1002000A03920004093020064
:102F7000000000008091020000000000110020000D
:102F8000903A200040930200000000007095280055
:102F9000B467020000000000D702370092910200DF
:102FA00000000000D4023700AC040700000F9800B6
:102FB00061002000706820004093020000000000C3
:102FC0000E089000C26902000000000021002000ED
:102FD000D0682000CA930200000000000E08900094
:102FE000C292020000000000C30237009B040700E9
:102FF000000F9800610020007068200040930200DC
:10300000000000000E089000C269020000000000ED
:103010002100200090EC2000CA9302000000000074
:103020000E0890009692020000000000B2023700E5
:10303000A04080000000E00005003A00D10120001F
:10304000305D2000CA93020000000000AA02370091
:103050007271020000000000A7023700100020007B
:10306000806588001000200060079800100037007D
:10307000716580006E00900080804000F00F20009D
:1030800080806000C0BA200000804000904078003E
:10309000E0C3B30080CF500002003A000000EB0014
:1030A000806588006E0090000000E80060079800CE
:1030B000716580006E00900080804000F00F20005D
:1030C00080806000C0BA200000804000104078007E
:1030D0000004E000E6FF3A00EE009000200220002D
:1030E000808F5000020034001000200080658800AE
:1030F000806580000000E0007F023A00706580007B
:103100008000E800F00F20000080600070658800FB
:10311000AD0207006007980071658000F00F200085
:1031200080806000C0BA200000804000904078009D
:10313000D0C3B30080CF500040003A006E00900032
:103140000000E0003A0034006E009000E50F5000EF
:1031500037003C00706580008000E800F00F200020
:1031600000806000706588006E0090000000E9003B
:10317000600798000000EB00000F98000B0037007C
:103180006E0090008E0890004500DD008100400038
:1031900020CB2000808040000040EB008048780079
:1031A0000E0890000000E800000F98000E08900044
:1031B000FF0F5000F2FF34000000EB00000F9800FA
:1031C00013003700EE0190000E0A90007165800038
:1031D000C0BA200000804000104178004518DD0092
:1031E0008400400020CB200000804000024878008E
:1031F0000E0890000000E800000F98007065800045
:103200008000E800F00F20000080600070658800FA
:1032100071658000C0BA20000080400090407800B6
:10322000E0C3B30080CF5000E6FF3A00320237001F
:1032300010002000806588002F0237006E0090008B
:103240000000E0001B003A000000EB00000F9800B7
:10325000140037000E0890000040E800206A0200C9
:1032600000000000409A280088670200000000006B
:103270000E0890004500DD008000780020CB200083
:10328000008040008867020000000000C093280012
:10329000B4670200000000000E0890000000E80083
:1032A000000F98000E089000E40F5000E9FF340072
:1032B000110237006E0090000000E00009003400A9
:1032C0006E009000E50F500006003C00709528004D
:1032D000B467020000000000EE009000916A8800D0
:1032E00005023700100020008065880002023700C8
:1032F000706580008000E800F00F20000080600012
:103300007065880030020700200F98001504070040
:1033100071658000F00F200080806000C0BA20003E
:10332000008040009040780090C2B30080CF5000F1
:103330000D003A00A1408000E00220000088B900A2
:10334000FC004000C0922000008040009000780007
:103350002E0890000100010070952800B46702005B
:1033600000000000E40137001000200080658800A4
:10337000E101370010002000806588001000200067
:103380006007980010003700716580006E009000A3
:1033900080804000F00F200080806000C0BA2000D4
:1033A000008040009040780020C2B30080CF5000E1
:1033B00002003A000000EB00806588006E0090007B
:1033C0000000E80060079800716580006E009000C2
:1033D00080804000F00F200080806000C0BA200094
:1033E00000804000104078000004E000E6FF3A0052
:1033F000806580000000E000BF013A0071002000FD
:10340000F0682000409302000000000020C2B300DA
:10341000986C0200000000002200370071658000F7
:10342000F00F2000008060007065880071658000EA
:10343000C0BA20000080400010407800986C020064
:103440000000000071658000C0BA200000804000CC
:10345000104078000000FB00200F980060B12000B1
:1034600010407800684060000004E0000400320072
:103470002E089000F892020000000000200F980033
:10348000A1408000E00220000088B900E800400070
:10349000C092200000804000900078002E0890002C
:1034A00001000100706580000000E8007065880080
:1034B00071658000F00F200080806000C0BA20009D
:1034C000008040009040780020C2B30080CF5000C0
:1034D000D2FF3A0070658000F10F2000010060000B
:1034E0007065880020C2B300986C020000000000E4
:1034F00070952800B4670200000000007E013700CC
:10350000A1408000E00220000088B900800078001F
:10351000C0922000008040001000780000000100F0
:1035200075013700A1408000E00220000088B9004A
:103530008080E800C09220000080400010007800E9
:10354000000001006C013700A1408000E002200073
:103550000088B900E4004000C092200000804000D4
:10356000100078000000010063013700A1408000D6
:10357000E00220000088B900E6004000C092200070
:103580000080400010007800000001005A01370060
:1035900071002000F068200040930200000000004D
:1035A00089010700200F9800706580000000E90085
:1035B0007065880071658000F00F20000080600059
:1035C00070658800250307000000E800000F9800E0
:1035D00045030700300798003E0090000000E0001F
:1035E0005D0032003E0090008040780050B0200026
:1035F000014878003E009000E80F500006003400BB
:1036000060B12000104078000050A00061B120009F
:10361000804878005000370060B1200010407800EA
:103620000050A10061B12000804878004A003700B6
:103630002E089000F09102000000000060B1200010
:10364000104078000042B2000004E00004003A009C
:1036500050B0200010407800E84F500009003A00B8
:1036600060B12000104078000042B2000004E00089
:103670000B00320050B0200010407800F04F500096
:1036800007003200B0C3B300986C020000000000D5
:1036900050B0200010407800206A020000000000B6
:1036A00060B1200010407800684060000004E00035
:1036B000040032002E089000F89202000000000082
:1036C000200F9800A1408000E00220000088B9008F
:1036D000E8004000C0922000008040009000780088
:1036E0002E08900001000100100F980000C2B300E6
:1036F000986C02000000000060B1200010407800CB
:103700000044B2000004E000130032006100200019
:1037100060692000409302000000000060B12000BA
:1037200010407800684060000004E00004003200AF
:103730001E089000F892020000000000100F980090
:103740001E089000F09102000000000000C2B300CB
:10375000986C0200000000000E0890000000E900D4
:10376000000F98000E0890000000E000B0FF3A0043
:1037700070952800B467020000000000DE003700EA
:1037800061002000606920004093020000000000FA
:10379000B20207000000E800000F9800D202070004
:1037A000300798003E0090000000E0004400320026
:1037B0003E0090008040780050B020000148780022
:1037C0003E009000E80F50000600340060B1200079
:1037D000104078000050A00061B1200080487800BF
:1037E0003700370060B12000104078000050A10081
:1037F00061B120008048780031003700A14080008E
:10380000E00220000088B900EA004000C0922000D9
:10381000008040001000780000000100100F9800A8
:1038200060B1200010407800684060000004E000B3
:10383000040032001E089000F89202000000000010
:10384000100F98001E089000F09102000000000088
:1038500060B12000104078000042B2000004E00097
:1038600004003A0050B0200010407800E84F5000AB
:1038700009003A0060B12000104078000042B20018
:103880000004E0000B00320050B02000104078002F
:10389000F04F500007003200B0C3B300986C020034
:1038A0000000000050B0200010407800206A0200A4
:1038B0000000000000C2B300986C0200000000008D
:1038C0000E0890000000E900000F98000E0890001C
:1038D0000000E000C9FF3A0070952800B4670200BC
:1038E000000000008400370081002000C069200033
:1038F000CA93020000000000A1408000E002200006
:103900000088B900EC004000C09220000080400018
:1039100010007800000001007700370081002000CF
:10392000406A2000CA93020000000000A14080000D
:10393000E00220000088B900EE004000C0922000A4
:103940000080400010007800000001006A0037008D
:10395000E1002000C06A2000CA93020000000000BD
:10396000A1408000E00220000088B900F000400083
:10397000C09220000080400010007800000001008C
:103980005D003700E1002000A06B2000CA93020018
:1039900000000000A1408000E00220000088B90083
:1039A000F2004000C092200000804000100078002B
:1039B0000000010050003700C1002000B067200067
:1039C0004093020000000000A1408000E0022000BF
:1039D0000088B900F4004000C09220000080400040
:1039E0001000780000000100726702000000000073
:1039F0004100370019020700000F9800D100200095
:103A0000806D200040930200000000000E0890002E
:103A1000F0910200000000000E0890000000E80095
:103A2000000F980008003700A1408000E00220004D
:103A30000088B900F6004000C092200000804000DD
:103A400010007800000001000E0890000000E9005E
:103A5000000F98000E0890000000E000F2FF3A000E
:103A600070952800B46702000000000022003700B3
:103A7000FA0107000000E800000F9800A1002000F4
:103A8000506E200040930200000000000D0037003F
:103A9000A1408000E00220000088B900F80040004A
:103AA000C09220000080400010007800000001005B
:103AB000726702000000000000C2B300986C0200B0
:103AC000000000000E0890000000E900000F9800C0
:103AD0000E0890000000E000EDFF3A000101200018
:103AE000806C2000CA930200000000000200370032
:103AF0001000200080658800706580008000E8006C
:103B0000F00F2000008060007065880080658000F4
:103B10000000E0001C00320051012000F06E200087
:103B20004093020000000000BE0890007065800015
:103B3000808F500007003100706580008040780061
:103B40003E08900000C05000206A02000000000003
:103B50000600370070658000804078003E089000C5
:103B600000C05000206A0200000000000000EB00CE
:103B70008065880010002000500F98007095280084
:103B8000B46702000000000071658000606580007D
:103B9000808F500002003A0010002000500F980063
:103BA0005E0890000000E00001FB32004E0890002B
:103BB000706588004E089000606588000000EB008A
:103BC000600F98008EF637000600FA000000EB0048
:103BD000100798000000EB00000F7800716580006E
:103BE0001E00900080804000F00F20008080600068
:103BF000C0BA2000008040009040780000C3B300AD
:103C000080CF500043003400716580001E0090009A
:103C100080804000F00F200080806000C0BA20004B
:103C2000008040009040780090C3B30080CF5000E7
:103C300038003C00716580001E00900080804000CC
:103C4000F00F200080806000C0BA2000008040009B
:103C5000104078008000FB0000FD2F00008F400026
:103C60001E0090000000E8001007980012003700C6
:103C70001E0078006A00B900000F780071658000AE
:103C80001E00900080804000F00F200080806000C7
:103C9000C0BA200000804000104078000000FB0007
:103CA0009E00400000FD2F00008F40001E0090008D
:103CB0000000E80010079800716580001E00900069
:103CC00080804000F00F200080806000C0BA20009B
:103CD0000080400090407800F0C2B30080CF5000D8
:103CE00051013400716580001E009000808040000A
:103CF000F00F200080806000C0BA200000804000EB
:103D00009040780090C3B30080CF5000D8FF3400BB
:103D100045013700716580001E00900080804000E2
:103D2000F00F200080806000C0BA200000804000BA
:103D30009040780000C3B30080CF500035013A00B6
:103D40001E0090000000E8001007980071658000D8
:103D50001E00900080804000F00F200080806000F6
:103D6000C0BA2000008040009040780020C6B30018
:103D700080CF50000B003200716580001E00900063
:103D800080804000F00F200080806000C0BA2000DA
:103D9000008040009040780020C4B30080CF5000E5
:103DA0002D003A001E0090000000E8001007980067
:103DB000120037001E00780000004000000F78005D
:103DC000716580001E00900080804000F00F200090
:103DD00080806000C0BA2000008040001040780061
:103DE0000000FB009E00400000FD2F00008F4000FF
:103DF0001E0090000000E800100798007165800028
:103E00001E00900080804000F00F20008080600045
:103E1000C0BA2000008040009040780010C3B3007A
:103E200080CF5000E3FF3200716580001E009000DB
:103E300080804000F00F200080806000C0BA200029
:103E4000008040009040780000C3B30080CF500055
:103E5000D8FF3200F4003700716580001E0090002A
:103E600080804000F00F200080806000C0BA2000F9
:103E7000008040009040780080C7B30080CF5000A1
:103E80000B003200716580001E00900080804000B1
:103E9000F00F200080806000C0BA20000080400049
:103EA0009040780080C5B30080CF50008E003A006B
:103EB0001E0090000000E80010079800470037003F
:103EC0001E0078004400DD00000F7800716580005E
:103ED0001E00900080804000F00F20008080600075
:103EE000C0BA20000080400090407800F0C2B300CB
:103EF00080CF500018003400716580001E009000D3
:103F000080804000F00F200080806000C0BA200058
:103F1000008040009040780090C3B30080CF5000F4
:103F20000D003C00716580001E0090008080400004
:103F3000F00F200080806000C0BA200000804000A8
:103F4000104078000000FB009E00400000FD2F00A4
:103F5000008F40001E003700716580001E00900039
:103F600080804000F00F20000081600071658000BB
:103F70001E00900080804000F00F200080806000D4
:103F8000C0BA2000008040009040780000C2B3001A
:103F900080C07000C0BA20000000410001487800D5
:103FA000716580001E00900080804000F00F2000AE
:103FB00080806000C0BA200000804000104078007F
:103FC0000000FB009E00400090FA2F00008F400090
:103FD0001E0090000000E800100798007165800046
:103FE0001E00900080804000F00F20008080600064
:103FF000C0BA20000080400090407800F0C2B300BA
:1040000080CF50000B003400716580001E009000CE
:1040100080804000F00F200080806000C0BA200047
:10402000008040009040780090C3B30080CF5000E3
:10403000A3FF3400716580001E0090008080400066
:10404000F00F200080806000C0BA20000080400097
:104050009040780000C4B30080CF50000B003400C3
:10406000716580001E00900080804000F00F2000ED
:1040700080806000C0BA200000804000904078003E
:1040800060C4B30080CF50008DFF340071658000A4
:104090001E00900080804000F00F200080806000B3
:1040A000C0BA2000008040009040780000C6B300F5
:1040B00080CF50005C003400716580001E009000CD
:1040C00080804000F00F200080806000C0BA200097
:1040D000008040009040780060C6B30080CF500060
:1040E00077FF340050003700716580001E0090009B
:1040F00080804000F00F200080806000C0BA200067
:104100000080400090407800F0C2B30080CF5000A3
:1041100045003400716580001E00900080804000E2
:10412000F00F200080806000C0BA200000804000B6
:104130009040780090C3B30080CF50003A003C001C
:10414000716580001E00900080804000F00F20000C
:1041500080806000C0BA20000080400010407800DD
:104160008000FB0000FD2F00008F40001200370090
:104170001E0078006A00B900000F780071658000A9
:104180001E00900080804000F00F200080806000C2
:10419000C0BA200000804000104078000000FB0002
:1041A0009E00400000FD2F00008F40001E00900088
:1041B0000000E80010079800716580001E00900064
:1041C00080804000F00F200080806000C0BA200096
:1041D0000080400090407800F0C2B30080CF5000D3
:1041E00011003400716580001E0090008080400046
:1041F000F00F200080806000C0BA200000804000E6
:104200009040780090C3B30080CF5000D8FF3400B6
:104210000500370010002000806588000000EB00DA
:10422000200798000A003700716580001E0090008A
:10423000008040007065880071658000F00F2000EC
:1042400000806000706588001E00780020079800DC
:104250002E0090000080FA00000006000400FA0022
:10426000706580008000E800F00F20008080600012
:10427000C0BA20000080400090407800A0C3B30086
:1042800080CF500013003A00706580000080E80085
:104290007065880071658000F00F2000008060006C
:1042A0007065880048FE0700000F78007065800088
:1042B0000000E9007065880071658000F00F200043
:1042C00000806000706588001E007800100798006C
:1042D0000200370010002000100798001E00900018
:1042E0000080FA00000006000400FA0070658000FB
:1042F0008000E800F00F200080806000C0BA20003D
:104300000080400090407800B0C3B30080CF5000E0
:104310000F003A00706580008080E800F00F2000F8
:10432000008060007065880027FE0700000F78009D
:10433000706580008000E900F00F200000806000C0
:10434000706588001E007800100798000200370092
:104350000000EB00100798001E0090000080FA009B
:10436000000006000000FA000500370070658000BC
:104370008000E800F00F2000008060007065880079
:1043800071658000C0BA2000008040009040780035
:1043900000C2B30080CF5000F4FF32000080FA006A
:1043A000000006000400FA000000EB00000F780097
:1043B000706580008000E800F00F20000080600041
:1043C00070658800E7FF0700FFFD0700000F780019
:1043D0001E00E0004D003A000000EB0010079800BE
:1043E000130037001E0090000040E800206A020021
:1043F00000000000809A280088670200000000008A
:104400009E009000E00220000088B90061022000B8
:1044100080804000C092200000804000B46702000D
:10442000000000001E0090000000E8001007980047
:104430001E009000E80F5000EAFF340071012000D8
:1044400040702000CA930200000000000000EB0052
:1044500080658800130020009200200011002000D9
:104460001000200055000700000FE900E0FF2F00BA
:104470009E0F1000030032000080EB009E0F100022
:1044800005003A00E1002000B0712000CA9302004C
:104490000000000042003700A1408000E002200040
:1044A0000088B9000102200080804000C0922000F6
:1044B0000080400010007800000001001C91020004
:1044C000000000001E007800A0408800A14080008D
:1044D000E00220000088B900FE004000C0922000E9
:1044E0000080400010007800000001001E00E00085
:1044F00001003200C222A80051002000305A2000E2
:10450000CA93020000000000250037001E0FE900DA
:10451000800020009E0F10001D003C00A140800084
:10452000E00220000088B9000102200080804000E5
:10453000C0922000008040001000780000000100C0
:104540001C910200000000001E007800A0408800BE
:10455000A1408000E00220000088B900FE00400079
:10456000C092200000804000100078000000010090
:104570001E00E00001003200C222A800510020000D
:10458000305A2000CA9302000000000004003700E7
:104590005101200090722000CA9302000000000028
:1045A000606580008000E900F00F2000008060005E
:1045B000706588000080FA00000006001E00FA0006
:1045C000100F9800210F9800320F9800430F9800A9
:1045D0000000EB00400798000000EB002007980067
:1045E0000000EB00100798000000EB00000F7800BF
:1045F000B09A280088670200000000001E089000A2
:104600000000E00004003D00F09A280088670200E6
:1046100000000000030037001E089000206A02001E
:1046200000000000109B28008867020000000000C6
:1046300067003700786C020000000000204F9800EF
:104640002E4890000000FB00600F98006E0890005C
:10465000ED0F500029003200EE089000ED8F500061
:1046600007003C006E099000E80F51000D00320079
:104670006E089000EA0F500020003200350037002D
:10468000D0022000EE089000808F50001E00320003
:10469000800720006E099000800F51002700320033
:1046A0002C0037004E0090000000E00007003200B0
:1046B0004E0090000000E90040079800E0932800B9
:1046C0008867020000000000410037001E00E00083
:1046D000060032000000EB00000F7800E093280095
:1046E00088670200000000003900370070C0B30086
:1046F000986C020000000000350037001000200018
:1047000020079800320037004E0090000000E000C3
:1047100006003A00D0C2B300986C0200000000000E
:1047200010002000000F78002900370070C0B3008F
:10473000986C020000000000250037004E08900031
:104740000000E000030032000080EB00500F9800F2
:104750005D003700AE489000F0C2B30080CF50003B
:1047600018003400AE48900090C3B30080CF5000D2
:1047700014003C004E009000E30F5000060034008F
:1047800070C0B300986C02000000000040002000E0
:10479000400798000E0037002E489000986C0200E9
:1047A00000000000CE0090006B0047002E499000F2
:1047B000827078004E0090000000E80040079800EA
:1047C0000300370070C0B300986C020000000000C6
:1047D0002E0090000000E00096FF32007095280047
:1047E000B4670200000000004E0090000000E000EE
:1047F00003003A001E089000500F98003200370066
:104800000000EB00100798004E0090000000E90047
:1048100040079800CE009000310798001100370043
:104820001E0090006A00B90010079800BE009000BA
:104830004E009000808050006B004700614078007F
:104840008000FB001E0090008080400000FD2F00D3
:1048500000804000100798004E0090000000E90022
:10486000400798004E0090000000E000ECFF3D0083
:104870009E0090002E089000808F50000D003500A3
:104880009E0090003E089000808F500009003C0080
:104890001E00E000040032001E0090000000EA004C
:1048A000500F9800080037001E019000520F98002A
:1048B00005003700B1012000E0EA2000CA930200A1
:1048C0000000000042FF37005E0890000080FA0000
:1048D000000006000400FA00409B280088670200E0
:1048E00000000000A081200010407800986C0200B9
:1048F0000000000070952800B4670200000000006E
:10490000209C28008867020000000000D1002000E1
:10491000708020004093020000000000A1BF2A0028
:104920000000EB00686B020000000000000F780040
:104930001E0078004800DE00206A0200000000002F
:10494000E0C2B300986C0200000000001E00780076
:10495000206A02000000000070952800B467020081
:10496000000000006100200000762000409302005B
:1049700000000000B0408000DA6A02000000000081
:104980007100200070EA2000409302000000000047
:10499000C0408000DA6A020000000000409D28004C
:1049A0008867020000000000C040800010079800E7
:1049B000200423009E009000808F500016003200DB
:1049C000200423009E009000808F500005003E00D0
:1049D000300023009E009000808F50000A003200BB
:1049E00019003700300423009E009000808F500093
:1049F0000D003200600423009E009000808F500064
:104A00000D00320010003700309E28008867020039
:104A1000000000000F003700609E28008867020039
:104A2000000000000B003700909E280088670200FD
:104A30000000000007003700C09E280088670200C1
:104A40000000000003003700F09E28008867020085
:104A500000000000309F2800B46702000000000042
:104A6000E101200060762000CA93020000000000EF
:104A70000080FA00000006000000FA00510020004B
:104A8000209220004093020000000000C1BF2A00D5
:104A90000000EB00686B020000000000DA6A020010
:104AA000000000006100200070922000409302008E
:104AB00000000000E1BF2A000000EB00686B02006C
:104AC00000000000DA6A0200000000007095280073
:104AD000B467020000000000C10020004078200000
:104AE000CA9302000000000070000700C2C2BF00AD
:104AF000614060000004E000050032001101200068
:104B00008065200040930200000000000400370090
:104B10002101200090662000409302000000000068
:104B2000C0C2B300986C02000000000000C2B300D5
:104B3000986C020000000000CBC2BF00684060001B
:104B40000004E00005003200410120005060200018
:104B500040930200000000000400370051012000D3
:104B6000005F20004093020000000000C0C2B300BC
:104B7000986C02000000000000C2B300986C0200B4
:104B80000000000060B1200010407800704060001C
:104B90000004E0000500320021022000007920001E
:104BA000CA9302000000000004003700E101200069
:104BB000207B2000CA9302000000000060B12000AA
:104BC00010407800684060000004E00005003A00F2
:104BD000B1012000007D2000409302000000000091
:104BE00004003700C1012000B07E20004093020085
:104BF00000000000C0C2B300986C0200000000007A
:104C000000C2B300986C020000000000B101200057
:104C100010192100409302000000000050B0200055
:104C200010407800206A0200000000007095280003
:104C3000B46702000000000060B12000104078005E
:104C400063406000E14F500005003A005101200030
:104C5000E05B2000CA93020000000000040037005F
:104C600061012000805A2000CA9302000000000069
:104C7000A1408000E00220000088B900410220002D
:104C800080804000C092200000804000100078002A
:104C900000000100C100200040782000CA930200FB
:104CA000000000000080FA00000006000000FA008A
:104CB000A1002000A0052100CA930200000000000E
:104CC00061042000200B2100CA93020000000000B4
:104CD000A1012000400621004093020000000000D6
:104CE000A1408000E00220000088B90021022000DD
:104CF00080804000C09220000080400010007800BA
:104D000000000100A1002000E00721004093020004
:104D100000000000004020005000070000102000AC
:104D20004E000700002020004C0007000004200077
:104D30004A0007000008200048000700709528007E
:104D4000B46702000000000041002000800F210035
:104D5000409302000000000021E3A800A0C0B300BF
:104D60006691020000000000246B020000000000B9
:104D700011002000903A2000409302000000000043
:104D800090C0B300986C02000000000090C0B30017
:104D90006691020000000000246B02000000000089
:104DA00011002000903A2000409302000000000013
:104DB00090C0B300986C020000000000C0C0B300B7
:104DC0006691020000000000246B02000000000059
:104DD00011002000903A20004093020000000000E3
:104DE00090C0B300986C020000000000B0C0B30097
:104DF0006691020000000000246B02000000000029
:104E000011002000903A20004093020000000000B2
:104E100090C0B300986C02000000000021E3A900DC
:104E2000004020001C000700001020001A000700AE
:104E300000202000180007000004200016000700D2
:104E4000000820001400070070952800B4670200D5
:104E5000000000000080FA00000006000200FA00D6
:104E6000000F7800401680001E0060000000E00087
:104E700004003200509F28008867020000000000F4
:104E800003003700809F28008867020000000000B0
:104E90000080FA00000006000200FA00000F78000F
:104EA000501680001E0060000000E0000400320088
:104EB000B09F280088670200000000000300370050
:104EC000E09F280088670200000000000080FA00D0
:104ED000000006000200FA00706580008000E80013
:104EE000F00F200000806000706588001DFD070045
:104EF00035FB0700000F78001E00E00006003400BC
:104F0000400020009E0F100003003C001E00E9003E
:104F1000904088000D0037000000EB00806588009D
:104F20002102200040812000CA93020000000000FE
:104F30008001EB0042002000110020001000200042
:104F40009EFD07000000E90090408800210120003C
:104F500060832000CA930200000000000080FA0075
:104F6000000006000200FA000040EB00004F78004D
:104F7000706580008000E800F00F20000080600075
:104F800070658800F7FC07000FFB070010479800CA
:104F90001E4090000004E000090032001E40900016
:104FA000EA4F500006003E001E4090000040E9001D
:104FB0008040780000812000014878000F00370011
:104FC0000000EB0080658800D108200030872000B9
:104FD000CA930200000000008001EB00A200200044
:104FE000110020009000200074FD07000040E9003F
:104FF0008040780000812000014878000081200076
:1050000010407800E94F500010003A00D5FC07002E
:10501000EDFA0700004F78001E04E0000B003A0094
:105020000000EB008065880010A02800B467020033
:10503000000000008001EB00F2FF27008000EB0081
:10504000200220005DFD0700004F78004101200094
:1050500000902000CA93020000000000110120000F
:1050600000182100CA930200000000000081200007
:1050700010407800E94F500003003A001E407800CD
:10508000B66C0200000000008C6B02000000000003
:1050900000003700BA6B0200000000000004E000CE
:1050A000FCFF3200786C02000000000080407800B5
:1050B00000C2B30080CF500001003200F5FF37007E
:1050C0000080FA00000006005752490054452000B5
:1050D000424954003A2020002A6E6500787420006E
:1050E000636C6F00636B2000285E290020776900E5
:1050F0006C6C200075736500207468006973200073
:1051000076616C0075653100574952004520720088
:105110006F757400696E65007320280043292000B4
:105120003230300030204D006963680061656C00EA
:105130002050650061726300652047004E552000D5
:1051400047504C004E6F200064657600696365002F
:105150002C2074007279200028414C0041524D00EF
:105160002920530045415200434820006D616300EF
:10517000726F2000666972007374410044445200EB
:1051800045535300204D410043524F002020300032
:105190002E4D610063726F00206D65006E754D00CD
:1051A000616372006F2020002020200031574900E9
:1051B000524520006164640072657300730D0A003B
:1051C000202020002A3157004952450020524F002C
:1051D0004D2043004F4D4D00414E4400204D4100B5
:1051E00043524F00733A0D000A203500312E520011
:1051F0004541440020524F004D20280030783300B4
:10520000332920002A666F0072207300696E6700E0
:105210006C65200064657600696365002062750036
:10522000730D0A00203835002E4D410054434800CC
:1052300020524F004D2028003078350035292000BD
:105240002A666F006C6C6F007765640020627900DD
:105250002036340062697400206164006472650065
:1052600073730D000A20320030342E00534B490076
:10527000502052004F4D2000283078004343290031
:10528000202A66006F6C6C006F77650064206200F6
:10529000792063006F6D6D00616E64000D0A20005F
:1052A000323336002E414C0041524D002053450010
:1052B00041524300482028003078450043290D0022
:1052C0000A20320034302E0053454100524348003A
:1052D00020524F004D2028003078460030294100F0
:1052E0004C4152004D20530045415200434820009C
:1052F0002830780045432900534541005243480077
:105300002028300078463000294465007669630023
:1053100065204900447320006172650020617600B9
:1053200061696C0061626C006520620079204D004B
:10533000414352004F2C2000736565002028300047
:10534000292E52004541440020524F004D20280094
:105350003078330033293A00204D4100544348004F
:1053600020524F004D202800307835003529530059
:105370004B49500020524F004D2028003078430008
:10538000432955006E6B6E006F776E00206D6100D3
:1053900063726F002C207400727920003F206F0030
:1053A0007220280030292000666F72002068650096
:1053B0006C70420055532000524553004554200064
:1053C000576172006E696E00673A20002A536800C8
:1053D0006F727400206F7200206E6F002070750075
:1053E0006C6C2D00757020002A4E6F0020646500E3
:1053F0007669630065206400657465006374650008
:105400006420440053313800533230002048690092
:1054100067682000507265007320440069672000AF
:1054200054686500726D44005331380042323000D8
:10543000205072006F67200052657300204469009D
:1054400067205400686572006D44530031383200A3
:1054500032204500636F6E002044690067205400CD
:10546000686572006D4453003234300034204500CA
:10547000636F6E0072616D00207469006D652000BD
:1054800043686900704453003234330031203100E6
:105490004B204500455052004F4D55006E6B6E003D
:1054A0006F776E0020646500766963006550570071
:1054B0004D20640069736100626C650064314B00CB
:1054C000487A2D00342C300030304B00487A2000D0
:1054D00050574D0046726500717565006E63790026
:1054E00020696E00204B48007A20500072657300DE
:1054F00063616C00653A500052323A0044757400A2
:105500007920630079636C00652069006E202500B6
:10551000205057004D206100637469007665450096
:1055200052524F00523A200050574D002061630004
:1055300074697600652C2000672074006F20640079
:1055400069736100626C6500415558002046720025
:1055500065717500656E6300793A20004155580009
:1055600020494E00505554002F4849002D5A410003
:1055700055582000484947004841550058204C00E4
:105580004F5756004F4C54004D4554004552200093
:105590004D4F440045564F004C54410047452000B4
:1055A00050524F0042453A002056450072726F003B
:1055B0007228290020406C00696E65003A20400086
:1055C00070676D007370610063653A002062790056
:1055D000746573002E546F006F206C006F6E67004F
:1055E000215379006E7461007820650072726F003B
:1055F000724E6F002045450050524F004D457200DD
:10560000617369006E6764006F6E650053617600B8
:10561000696E670020746F0020736C006F74200047
:10562000496E7600616C6900642073006C6F7400D1
:105630004C6F610064696E0067206600726F6D00D8
:1056400020736C006F742000455252004F523A0094
:1056500020636F006D6D61006E64200068617300EF
:10566000206E6F0020656600666563007420680028
:105670006572650041434B004E4143004B49320087
:1056800043205300544152005420420049544900E1
:105690003243200053544F005020420049544900E7
:1056A000324320006D6F6400653A0D000A2031001E
:1056B0002E2053006F66740077617200650D0A003A
:1056C00020322E002048610072647700617265000C
:1056D0005365740020737000656564003A0D0A001C
:1056E00020312E00207E35004B487A000D0A200024
:1056F000322E20007E3530004B487A000D0A200003
:10570000332E20007E313000304B48007A0D0A00E5
:1057100020342E00207E340030304B00487A570071
:1057200041524E00494E47003A2048004152440041
:105730005741520045204900324320006973200040
:1057400062726F006B656E00206F6E0020746800DF
:10575000697320005049430021202800524556001B
:105760002041330029536500742073007065650083
:10577000643A0D000A2031002E20310030304B00F9
:10578000487A0D000A2032002E20340030304B00C1
:10579000487A0D000A2033002E2031004D487A004F
:1057A0004932430020286D006F642000737064004C
:1057B000293D2800202030002E4D610063726F00CB
:1057C000206D65006E750D000A2031002E376200D5
:1057D0006974200061646400726573007320730053
:1057E0006561720063680D000A2032002E493200A4
:1057F000432073006E696600666572005365610040
:1058000072636800696E67002049320043206100BE
:1058100064647200657373002073700061636500D7
:105820002E2046006F756E00642064006576690066
:1058300063657300206174003A536E006966660008
:1058400065722800424153004943290052656100B6
:10585000647961002F412F00402063006F6E740057
:10586000726F6C00732041005558200070696E0003
:10587000612F41002F402000636F6E0074726F0033
:105880006C7320004353200070696E00436F6D00FD
:105890006D616E0064206E006F742000757365008A
:1058A000642069006E20740068697300206D6F00C9
:1058B00064655000756C6C002D7570002072650079
:1058C00073697300746F720073204F004646500076
:1058D000756C6C002D757000207265007369730023
:1058E000746F720073204F004E5365006C662D007C
:1058F00074657300742069006E204800695A2000A6
:105900006D6F640065206F006E6C79005245530026
:10591000455442004F4F54004C4F41004445520003
:105920004155580020494E00505554002F48490019
:105930002D5A2C002052450041443A0020506F005F
:10594000776572002073750070706C006965730074
:10595000204F4E00506F7700657220007375700005
:10596000706C6900657320004F4646004441540046
:105970004120530054415400453A200044454C0016
:10598000415920007573570052495400453A200090
:1059900052454100443A2000434C4F00434B2C00F9
:1059A000203143004C4F43004B2C20003044410039
:1059B000544120004F555400505554002C203100C4
:1059C0004441540041204F005554500055542C0080
:1059D000203020002A7069006E20690073206E005C
:1059E0006F77200048695A00434C4F00434B20001A
:1059F000544943004B533A00205245004144200093
:105A0000424954003A205300796E740061782000B6
:105A1000657272006F72200061742000636861001B
:105A2000722078002E20650078697400287769005C
:105A300074686F0075742000636861006E676500AC
:105A4000296E6F00206D6F0064652000636861003F
:105A50006E6765004E6F6E0065786900737465004F
:105A60006E74200070726F00746F63006F6C2100A1
:105A7000782E200065786900740D0A00496E760062
:105A8000616C690064206300686F690063652C00C5
:105A90002074720079206100676169006E444500DE
:105AA000564944003A68740074703A002F2F64001D
:105AB000616E670065726F0075737000726F7400BD
:105AC0006F747900706573002E636F006D2A2D006E
:105AD0002D2D2D002D2D2D002D2D2D002A4F700048
:105AE000656E200064726100696E20006F7574003D
:105AF0007075740073202800483D4800692D5A00D5
:105B00002C204C003D474E0044294E006F726D0022
:105B1000616C20006F75740070757400732028002C
:105B2000483D33002E3376002C204C003D474E007C
:105B300044294D0053422000736574003A204D0003
:105B40004F5354002073690067206200697420007D
:105B50006669720073744C005342200073657400D0
:105B60003A204C00454153005420730069672000DF
:105B700062697400206669007273740020426F00CD
:105B80006F746C006F6164006572200076203100D4
:105B90002E20480045580D000A2032002E204400D7
:105BA00045430D000A2033002E204200494E0D00CF
:105BB0000A2034002E2052004157440069737000BF
:105BC0006C61790020666F00726D61007420730053
:105BD000657456006F6C740061676500206D6F001E
:105BE0006E6974006F7273003A203500563A2000D7
:105BF000207C2000332E3300563A2000207C2000E9
:105C0000565055004C4C5500503A200053657400D6
:105C100020736500726961006C2070006F727400FF
:105C200020737000656564003A202800627073007C
:105C3000290D0A0020312E0020333000300D0A00DB
:105C400020322E002031320030300D000A20330087
:105C50002E203200343030000D0A2000342E200077
:105C600034383000300D0A0020352E00203936003F
:105C700030300D000A2036002E203100393230003D
:105C8000300D0A0020372E00203338003430300029
:105C90000D0A2000382E20003537360030300D0038
:105CA0000A2039002E2031003135320030300D000D
:105CB0000A3130002E2042005247200072617700E6
:105CC000207661006C75650041646A00757374002C
:105CD00020796F0075722000746572006D696E0026
:105CE000616C410072652000796F7500207375004A
:105CF00072653F002043460047313A00204346008A
:105D000047323A00285C2D002F5F5C002D292800C7
:105D10005C5F2F002D295300656C650063742000C3
:105D20006F757400707574002074790070653A00A6
:105D30000D0A2000312E20004F7065006E20640097
:105D4000726169006E202800483D4800692D5A00A4
:105D50002C204C003D474E0044290D000A20320003
