:020000040000fa
:080000000004040000000000f0
:020000040000fa
:100800002f002200007f240000018800000000006b
:100810000c000700605621000100200011000700b5
:10082000000020000000e000020032000000020092
:1008300000000000ec140200000000000040da009c
:100840000000fe004440a900c00520000000e000b8
:100850000300320000002000a00188004440a800ee
:100860000000060091018800800078000000eb0085
:1008700015003700e280400032a0b4009101ba00b8
:10088000e280400032a0b4009102ba00e280400051
:1008900032a0b4000002eb00472bde00f507b200e7
:1008a000602ce10004003a000059eb008301e900ec
:1008b000fdff3e00040037006128e1000100320026
:1008c0000082eb00040007001101ba000200e00002
:1008d000e8ff3a00000006003159ba008301e90040
:1008e0000c0032002159ba008301e90008003200ef
:1008f0000400e00003003a00e280400032a0b400af
:10090000f5ff370011d9ba008301e900faff3a0078
:100910008100e800e180400032a0b4000000060041
:10092000800f0400000000006e10040000000000b2
:100930006210040000000000aa1004000000000083
:100940009e10040000000000200e040000000000c3
:100950003c0e0400000000008001eb0002003700a4
:1009600061f079008301e800828f5100fcff3a00ba
:04097000000006007d
:020000040000fa
:020000040005f5
:0457f8009e230000ec
:020000040000fa
:020000040005f5
:0457fc007f3e0000ec
:020000040000fa
:10000800da150000da150000da150000da1500002c
:10001800da150000da150000da150000da1500001c
:10002800da150000da150000da150000da1500000c
:10003800da150000da150000da150000da150000fc
:020000040000fa
:020000040000fa
:100974001201000000020000020000000008000054
:10098400d80400000a000000020000000102000078
:1009940003010000090200004300000002010000fe
:1009a4000080000032090000040000000001000083
:1009b40002020000000000000524000000100000f6
:1009c40001040000240200000205000024060000c7
:1009d40000010000052400000101000001070000df
:1009e40005810000030a0000004000000904000023
:1009f40001000000020a00000000000000070000df
:100a0400050200000240000000400000070500004d
:100a14008202000040000000400000004e4f000031
:080a2400454d000053000000e5
:020000040000fa
:100a2c000a00fa0010079800210798003207980076
:100a3c00430798001e009000005e88002e00900076
:100a4c00105e88003e009000205e88004e009000f2
:100a5c00305e88000000eb00b02488009424a800cd
:100a6c009424a9009ec0a9000000eb00602488001b
:100a7c00f00f200070248800f00f20005024880014
:100a8c000000eb00302588000000eb0040258800ba
:100a9c00008020004800de00c024880000082000f0
:100aac00302488008804a8000000eb00405e880019
:100abc000000eb00505e88000000eb00605e8800d8
:100acc000000eb00000f78000e0037001e007800cd
:100adc004200dd008080e800e0bc20008080400007
:100aec000000eb00800878001e007800c200dd00da
:100afc00e0bc2000808040000000eb008008780003
:100b0c001e0fe8001e007800ef0f5000efff3600bc
:100b1c008000eb000000eb00f10307008000eb000d
:100b2c000000eb00f9030700d000200050258800de
:100b3c000000eb00706088000040eb0012ecb70086
:100b4c000000eb00806088000040eb0013ecb70065
:100b5c0080c0b30000e8b7008081200010408800fe
:100b6c0080c8b30001e8b7000040eb0004e8b70010
:100b7c00008220003040880000c4b30005e8b700b4
:100b8c000080fa00000006000000fa0001003700a7
:100b9c009404a80094c4bf00614060000004e0000d
:100bac00fbff320094c4bf000044b2000004e0001c
:100bbc00fcff3a00cd42a9000080fa0000000600bc
:100bcc000000fa008ac4bf00614060000004e0002d
:100bdc00040032003600070010002000502488006a
:100bec002c0037008ac4bf00624060000004e000a3
:100bfc000400320029000700200020005024880047
:100c0c00240037008ac4bf000042b2000004e00098
:100c1c000300320000022000502488001d00370021
:100c2c008ac4bf00704060000004e0000300320082
:100c3c000001200050248800160037008ac4bf0031
:100c4c0001c8b300014060000004e0000300320062
:100c5c0000082000502488000e0037008ac4bf0012
:100c6c00644060000004e0000600320040002000f8
:100c7c0050248800070037006f0007008000200018
:100c8c00502488008ac4bf00684060000004e00063
:100c9c00f9ff3a000080fa00000006000000fa009c
:100cac00f00f2000702488000080fa00000006007d
:100cbc000200fa00cdc2bf006140600080407800a5
:100ccc00cdc2bf006140600000c0680061406000a0
:100cdc0061416000d12c200091407800e0cfb3003e
:100cec0000c0600002407000cde2b7000000eb00d5
:100cfc007060880080002000502488000000eb0009
:100d0c00806088000040eb0012ecb7000040eb0064
:100d1c0013ecb7008ac4bf00684060000004e00018
:100d2c00f4ff3a000000eb00502588000000eb00b7
:100d3c00602588000000eb00702588000000eb00a7
:100d4c00802588000000eb00902588000000eb0057
:100d5c00a02588000000eb00b02588000000eb0007
:100d6c00c02588000000eb00d02588000000eb00b7
:100d7c00e02588000000eb00f02588000000eb0067
:100d8c00002688000000eb00102688000000eb0015
:100d9c00202688000000eb00302688000000eb00c5
:100dac00402688000000eb00b0248800f00f2000e3
:100dbc0050248800f00f2000702488000000eb0005
:100dcc00000f7800080037001e007800c200dd001c
:100ddc0000802000808040000040eb009040980094
:100dec001e007800640f40001e007800e50f5000d4
:100dfc00f5ff3600d00020005025880080c0b300dd
:100e0c0000e8b700808120001040880080c8b30043
:100e1c0001e8b7000040eb0004e8b70000822000b6
:100e2c003040880000c4b30005e8b70094a4a900c2
:100e3c000080fa00000006000200fa00cdc2bf00dc
:100e4c000080fb004200de006140600080407800c2
:100e5c00cdc2bf000080fb004200de00614060009c
:100e6c0000c0680061406000614060004201dd002c
:100e7c00d12c200091407800b0cfb30000c06000ae
:100e8c0002407000cde2b70090248000baebb700ae
:100e9c00bacbbf000080fb004300de000080fb00eb
:100eac004200dd00800078000080200000804000bf
:100ebc00e05d8800bacbbf000034a0000080fb00ce
:100ecc004300de000080fb004200dd008000780063
:100edc000080200000804000f05d8800e05d800014
:100eec00104090008080fb00c003200080806000d8
:100efc00010f7800400220009e007800808f500087
:100f0c000c003200400320009e007800808f5000bf
:100f1c00040032001e007800e40f50000300320081
:100f2c00050037000600070003003700c002070069
:100f3c0001003700a60207000080fa00000006003e
:100f4c000800fa00f15d800080c0b300904098006a
:100f5c00e05d800010009000104078008080fb0065
:100f6c0000062000808060003107980000022000fd
:100f7c00be009000808f500023003200000420003f
:100f8c00be009000808f5000250032003e00900083
:100f9c000000e0000100320027003700e05d800017
:100fac0010009000104078000080fb00630060008f
:100fbc0020079800ae009000e18f50000a0032002c
:100fcc002e009000e20f50000a003200ae0090009c
:100fdc000100e0000100320009003700e05d8000f4
:100fec003700070015003700e05d80007001070036
:100ffc0012003700e05d8000b10107000f003700e0
:10100c00fd0207000d003700505e80000000e0007c
:10101c000a003200505e800000000100070037001b
:10102c00605e80000000e00004003200505e800032
:10103c000000010001003700ef020700e15d8000b5
:10104c0080c0b30080487800e05d800010079800f5
:10105c00e05d800010009000104078000004e0007b
:10106c000f003500e05d800010009000660040002d
:10107c00104078000004e00006003a00e05d8000bb
:10108c001000900067004000104078000004e00061
:10109c000300320081ccb300014f7800020037000e
:1010ac0080c8b300004f78001e4078009e0090006e
:1010bc009040980094a4a9000080fa00000006005b
:1010cc000a00fa00200798002e0090009000900073
:1010dc00110798001e0090000000e80010407800f6
:1010ec000080fb00400798004e009000e50f500078
:1010fc0042003200ce009000e58f50000a003c0008
:10110c004e009000e10f50001f003200ce00900006
:10111c00e38f50002b0032004e0090000000e000e6
:10112c000b0032001f013700ce009000e88f5000fa
:10113c00fb0032004e009000e90f5000000132001d
:10114c00ce009000e68f50004300320015013700ae
:10115c00f05d800090009000706080008048780006
:10116c00f05d8000100090008000e800706080004e
:10117c004800de0080487800f05d800021002000ef
:10118c008f020700080137001e0090000080e80065
:10119c0010407800e14f500008003a007160800068
:1011ac00d0ff2f000080600070608800f05d800030
:1011bc008000eb0082020700fb0037008e02070064
:1011cc00f90037001e0090000080e8001040780005
:1011dc00e14f500007003a00706080000010a00042
:1011ec0070608800f05d80008000eb0074020700e6
:1011fc00ed00370080020700eb0037001e00900066
:10120c0063004000104078000004e00010003a0039
:10121c001e0090000080e800104078000004e00000
:10122c000b0035001e0090000080e8001040780094
:10123c0013ecb700f05d80008000eb00600207004b
:10124c0001e220000000eb0025020700d600370069
:10125c0069020700d40037001e00900063004000b4
:10126c00104078000080fb00300798003e00900092
:10127c00e20f50001f003200be009000e38f5000c0
:10128c006f0032003e009000e10f50000100320070
:10129c009d003700005e8000a0608800005e80002a
:1012ac00104078000080fb00b06088001e009000a9
:1012bc0067004000104078000004e00093003a0002
:1012cc001e0090006600400090407800a0608000f6
:1012dc001040780080cf50008c0031001e00900030
:1012ec0066004000104078000080fb00b060880071
:1012fc00860037001e0090000080e80090407800c7
:10130c00005e8000710040001040780080cf5000db
:10131c000100390038020700105e8000a0608800d0
:10132c00a06080000080e800104078008080fb0006
:10133c00a060800063004000104078000080fb003b
:10134c004800dd0000804000b06088000000eb0029
:10135c00000f780010003700a1608000b0608000a2
:10136c0000804000a0608800a06080000080e80041
:10137c00104078008080fb00a0608000630040007b
:10138c00104078000080fb004800dd000080400029
:10139c00b06088001e0fe8001e0090000080e8007e
:1013ac00104078000080fb009e0f5000eaff3c00cc
:1013bc001e0090006700400090407800a060800004
:1013cc00630040001040780080cf500010003900be
:1013dc001e0090006700400090407800a0608000e4
:1013ec00630040001040780080cf500047003a0066
:1013fc001e0090006600400090407800a0608000c5
:10140c000080e8001040780080cf50003f00310091
:10141c001e00900066004000104078008080fb00a9
:10142c001e00900067004000104078000080fb0018
:10143c004800dd0000804000b060880033003700b9
:10144c001e0090000080e800104078008080fb00b7
:10145c00305e8000808f500001003500e6010700ef
:10146c00205e8000a0608800a060800010407800a2
:10147c000080fb00b06088000000eb00000f7800db
:10148c0009003700a1608000b0608000008040003f
:10149c00a0608800a0608000104078000080fb00f5
:1014ac00b06088001e0fe8001e0090000080e8006d
:1014bc00104078000080fb009e0f5000f1ff3c00b4
:1014cc001e00900067004000104078000004e0000f
:1014dc000e003a001e00900066004000904078001c
:1014ec00a06080001040780080cf500007003100d1
:1014fc001e00900066004000104078000080fb0049
:10150c00b060880001003700bb010700d70107005d
:10151c00c1e320000000eb0071010700220037003e
:10152c00f05d800090009000806080008048780022
:10153c00f05d800011002000a10107001a003700a7
:10154c001e0090000080e80010407800e14f500031
:10155c0012003e001e0090000080e8001040780051
:10156c000080fb0080608800806080000000e0004c
:10157c000400320000c2b30012ecb70035020700c1
:10158c000200370000c1b30012ecb700f05d800020
:10159c008000eb008a01070003003700960107006a
:1015ac0001003700940107000080fa0000000600db
:1015bc000600fa00100798001e00900090009000a2
:1015cc00010f78001e00e800104078000080fb003e
:1015dc00200798002e0090000000e0000a00320066
:1015ec00ae0090000100e000320035002e009000ab
:1015fc00ea0f500011003200ae009000eb8f50004b
:10160c001d0032002b003700f05d80009000900030
:10161c000040eb0080487800f05d800010009000e6
:10162c008000e8000040eb0080487800f05d80000e
:10163c0021002000620107001f0037009e00780087
:10164c006480400010407800e14f500008003e00dc
:10165c00f05d8000900090000040eb008048780026
:10166c00f05d8000110020005501070012003700ca
:10167c0061010700100037009e0078006480400074
:10168c0010407800e14f500008003e001e80e8003a
:10169c00104078000004e00004003a00f05d800087
:1016ac008000eb00460107000300370052010700e1
:1016bc0001003700500107000080fa00000006000e
:1016cc000a00fa00300798003e009000900090004d
:1016dc00210798002e0090000000e80010407800d0
:1016ec000080fb00400798004e009000e10f500076
:1016fc0051003200ce009000e38f50008000320089
:10170c004e0090000000e00001003200ad003700f8
:10171c00f05d8000900090000040eb008048780065
:10172c00f05d8000100090008000e8000040eb00ad
:10173c00804878002e009000640040001040780033
:10174c006f406000304798002e009000640040000d
:10175c00104078000080fb004700de002047980016
:10176c003e4090000080fb000000400080007800ac
:10177c002e4090000080fb00008040004200dd0005
:10178c008000780000802000008f40001e00780050
:10179c0090409000b0cfb30080c060001e00780075
:1017ac00114098001e007800104090000004e000ea
:1017bc0004003200f05d80009000900010c0b30077
:1017cc00804878003e4090000080fb000000400004
:1017dc00800078002e4090000080fb0000804000cc
:1017ec004200dd008000780000802000008f400067
:1017fc001e00780090409000b0cfb30080c0600015
:10180c001e007800114098001e00780010409000d7
:10181c000004e00004003200f05d800090009000b5
:10182c0010c0b30080487800f05d800021002000db
:10183c00e3000700640037002e00900064004000b5
:10184c00104078006f406000304798002e009000e8
:10185c0064004000104078000080fb004700de0070
:10186c00204798003e4090000080fb0000004000a4
:10187c00800078002e4090000080fb00008040002b
:10188c004200dd008000780000802000008f4000c6
:10189c001e00780090409000b0cfb30080c0600074
:1018ac001e007800114098002e4090000004e000cb
:1018bc00060032001e0078009040900000c4b30077
:1018cc0080c070001e007800114098002e409000df
:1018dc000004e00006003a001e00780090409000e2
:1018ec00f0cbb30080c060001e007800114098005f
:1018fc00f05d80008000eb00b10007003200370083
:10190c002e00900064004000104078006f40600092
:10191c00304798002e009000640040001040780082
:10192c000080fb004700de00204798003e409000fe
:10193c000080fb0000004000800078002e409000ea
:10194c000080fb00008040004200dd008000780039
:10195c0000802000008f40001e0078001040900096
:10196c00804078000124a0001e00780011409800ef
:10197c003e4090000080fb0000004000800078009a
:10198c002e4090000080fb00008040004200dd00f3
:10199c008000780000802000008f40001e0078003e
:1019ac0010409000804078000124a0001e007800b8
:1019bc0011409800f05d80008000eb008000070073
:1019cc00010037008c0007000080fa0000000600c0
:1019dc000000fa00bacbbf000080fb004400de0020
:1019ec000080fb006f006000c200dd00e0bc200046
:1019fc0000804000100078000000e0000a00320077
:101a0c00bacbbf000080fb004400de000080fb006e
:101a1c006f006000c200dd00e0bc200000804000d0
:101a2c0010007800000001000080fa0000000600a1
:101a3c000000fa00bacbbf000080fb004400de00bf
:101a4c000080fb006f0060004200dd008080e80039
:101a5c00e0bc200000804000100078000000e00096
:101a6c000b003200bacbbf000080fb004400de004c
:101a7c000080fb006f0060004200dd008080e80009
:101a8c00e0bc200000804000100078000000010045
:101a9c000080fa00000006000200fa00000f780037
:101aac001e007800405e88000080fa0000000600ee
:101abc000200fa00000f78001e007800505e8800cb
:101acc000080fa00000006000200fa00000f780007
:101adc001e007800605e88000080fa00000006009e
:101aec000400fa00000f7800110798001e0078001f
:101afc00c200dd00e0bc2000008040009e00900091
:101b0c00010878000080fa00000006000400fa00ca
:101b1c00000f7800110798001e0078004200dd00cd
:101b2c008080e800e0bc2000008040009e00900017
:101b3c00010878000080fa00000006000200fa009c
:101b4c00000f78001e0078009040900000c4b30095
:101b5c0000c0680002c4b3008240600080c8b300bb
:101b6c0000c07000804078001e0078001140980082
:101b7c000080fa00000006000200fa00000f780056
:101b8c009e0078000040eb00804878001e00780032
:101b9c009040900000c4b30000c0680002c4b300c1
:101bac008240600080c8b30000c0700080407800a4
:101bbc001e007800114098000080fa00000006001a
:101bcc000400fa00000f7800110798001e00900026
:101bdc008040780000c0eb0080c060001e007800e0
:101bec00014878009e00780080ccb30090409800ab
:101bfc000080fa00000006000000fa0080c0b3006c
:101c0c0000e8b70080c0b30000e8b70040c8b300dc
:101c1c0005e8b70040c8b30001e8b70040c8b300fe
:101c2c0005e8b70040c8b30001e8b7000080fa002f
:101c3c00000006000000fa0013ccbf000004e00016
:101c4c000500350013ccbf000080fb00b0248800d9
:101c5c0000c0eb0013ecb7008000eb000000eb00c1
:101c6c009fff07000080fa00000006000600fa0043
:101c7c00b06080000000e0001c003200b06080000a
:101c8c00200798002e009000e80f5000020036004c
:101c9c0083002000230798002e009000000f78008e
:101cac000000eb00100798000c003700f05d80007e
:101cbc00900090001e00900000814000a160800008
:101ccc001e00900000804000104078000049780011
:101cdc001e0090000000e800100798001e00900005
:101cec009e0f5000f1ff3900050037000000eb009b
:101cfc00000f78008000eb000000eb0078ff07007d
:101d0c00f15d80001e00780080487800f25d800054
:101d1c00f05d80009040900000c4b30000c06800eb
:101d2c0003c4b3008340600080c8b30000c07000df
:101d3c0010419800a16080001e00780000804000d7
:101d4c00a0608800b06080001e005000b060880069
:101d5c000080fa00000006000200fa008ec0bf00ee
:101d6c000044b2000004e000200032008ac4bf002e
:101d7c00614060000004e00006003200ccfb07006c
:101d8c001000200050248800f00f2000000f780075
:101d9c00180037008ac4bf00684060000004e000ef
:101dac001100320090248000baebb700bacbbf0010
:101dbc000080fb004400de000080fb006f00600030
:101dcc000000e000060032001bfc07008000200031
:101ddc0050248800f00f2000000f78000500370019
:101dec0080002000502488008ec0a9000000eb0069
:101dfc00000f78001e0078000080fa00000006003a
:101e0c000000fa0000202c0011002000d05c88009b
:101e1c00e15c88000000eb00f05c88000000eb0047
:101e2c00005d880080c0b300a2ebb700a40ba90032
:101e3c00a42ba90000f820001dff07000000eb00f8
:101e4c00905d8800905d8000805d88000080fa00c5
:101e5c00000006000000fa008000eb0010002000db
:101e6c001fff07008000eb00200020001cff070074
:101e7c008000eb002000200024ff07005001200010
:101e8c0060258800d0012000702588000040eb0000
:101e9c000ce8b700e0b420007040880080c4b300a8
:101eac000de8b70000c4b30010e8b700e0ac2000a8
:101ebc009040880080c8b30011e8b7000040eb00e8
:101ecc0014e8b700e0b02000b040880080c4b30034
:101edc0015e8b70000f82000f5fe0700008120008f
:101eec00a05d880040812000b05d88000080fa0071
:101efc00000006000600fa00cdc2bf000080fb0007
:101f0c000000d1006140600080407800cdc2bf006d
:101f1c000080fb000000d1006140600000c0680040
:101f2c00614060006140600000414000d12c200005
:101f3c0091407800d0cfb30000c060000240700028
:101f4c00cde2b700e05d8000900090001107980092
:101f5c001e009000104078008080fb0030062000ae
:101f6c008080600010022000808f50000100320041
:101f7c004e0037001e0090000000e8001040780072
:101f8c000080fb00200798002e009000e40f50000a
:101f9c000a003c00ae009000e28f50001c003d0097
:101fac002e0090000000e00011003200ae00900006
:101fbc00e18f5000120032003a003700100220006e
:101fcc00ae009000808f50001700320020022000dd
:101fdc00ae009000808f50002700320000022000dd
:101fec00ae009000808f50000b0032002d003700a7
:101ffc00f05d80008000eb00f1fe07002c00370044
:10200c00f05d80008000eb00edfe0700280037003b
:10201c00f9fe070026003700e10621000000eb0066
:10202c00bafe0700220037001e0090006600400038
:10203c00100f7800a00020009e0f10000200360048
:10204c00a0002000000f7800f05d800010009000d0
:10205c00a1b920001e0178003cfa07009e00780010
:10206c00f05d8000d6fe0700210621000000eb0089
:10207c009bfe07000e0037001e0090000080e80059
:10208c0010007800205d8800a10a21000000eb0000
:10209c0093fe0700f05d80008000eb00c8fe070097
:1020ac0003003700d4fe070001003700d2fe070002
:1020bc000080fa00000006000000fa008000eb002f
:1020cc000000eb0086fe07000080fa00000006000e
:1020dc000000fa00e05d800010009000a1b9200023
:1020ec0009000900b0587800a000b1008000eb0096
:1020fc000000eb0085fe0700e10921000000eb0069
:10210c0077fe0700f05d80008000eb00acfe07005e
:10211c00e15d800080c0b30080487800e15d800004
:10212c0080c8b300904098000080fa0000000600c0
:10213c000000fa008000eb000000eb0068fe0700d6
:10214c000080fa00000006000000fa008000eb009e
:10215c000000eb0062fe07000080fa0000000600a1
:10216c000000fa00c05d80000000e00003003200b7
:10217c00c05d80000000e900c05d88000080fa00ae
:10218c00000006000200fa000a0037009ec0bf00e3
:10219c000044b2000004e00006003a00eefe070026
:1021ac000004e000030032000000eb00000f780098
:1021bc0006003700a05d8000104090000004e00095
:1021cc00f2ff350010002000000f78001e00780090
:1021dc000080fa00000006000200fa000a00370036
:1021ec009ec0bf000044b2000004e00006003a00ac
:1021fc00d9fe07000004e000030032000000eb00f1
:10220c00000f780006003700b05d80001040900091
:10221c000004e000f2ff350010002000000f7800f1
:10222c001e0078000080fa00000006000600fa008c
:10223c00000f7800214798000a0037009ec0bf00ad
:10224c000044b2000004e00006003a00c2fe0700a1
:10225c000004e00003003200f00f2000200798007b
:10226c0018003700b05d8000104090000004e000c2
:10227c00f2ff3500b05d80009e00780011009800e0
:10228c00b05d8000ae41900003487800b25d8000e4
:10229c00b05d80009040900000c4b30000c06800a6
:1022ac0003c4b3008340600080c8b30000c070005a
:1022bc0010419800a8fe07002e4090000080fb0003
:1022cc00200798002e0090000080fa000000060005
:1022dc000200fa00a05d8000104090008000eb002e
:1022ec00010f78000004e00002003500100020000f
:1022fc00000f78001e0078000080fa000000060035
:10230c000200fa00b05d8000104090008000eb00ed
:10231c00010f78000004e0000200350010002000de
:10232c00000f78001e0078000080fa000000060004
:10233c000400fa00000f7800214798000040eb00e1
:10234c00a7ebb700a05d8000104090000004e000f7
:10235c002e003500a05d8000904078002e4090004b
:10236c0080cf500003003100a05d800090407800c9
:10237c00214798000040eb00a7ebb7000c0037009a
:10238c00a7cbbf000080fb001e014000a7cbbf0005
:10239c008080fb00e0ac2000008040001040780002
:1023ac0000497800a7cbbf000040e800a7ebb700be
:1023bc0071ba2000914078002e40900080cf5000e0
:1023cc00efff39009ec0bf000044b2000004e000e3
:1023dc0001003a0060fe0700a15d800000c4b3005c
:1023ec0080487800a25d8000a05d80009040900045
:1023fc0000c4b30000c0680003c4b3008340600095
:10240c0080c8b30000c0700010419800a7cbbf007b
:10241c000080fb000080fa00000006000000fa00bb
:10242c0098cbbf000004e00007003a0001c4b300e1
:10243c0080b52000beff070098ebb700e0f907005d
:10244c000040eb0099ebb7000080fa00000006009a
:10245c000200fa00000f7800f0ff070098cbbf00d5
:10246c000004e000fcff320099cbbf008080fb0031
:10247c0080b5200000804000904078001e0078005d
:10248c000148780098cbbf000040e90098ebb700fa
:10249c0099cbbf000040e80099ebb700100020007a
:1024ac000080fa00000006000400fa000040eb0077
:1024bc0006eab70000003700c1f90700d7ff070094
:1024cc0000a02000e2ff07000004e000faff320049
:1024dc0001a020009140780010ccb30080cf5000b8
:1024ec00f5ff3a003cff070010cfb3000eebb7002e
:1024fc0040c0b3000febb7000040eb0010ebb7008f
:10250c0031c0b300e0b0200048ff0700b0c4b300f6
:10251c0007eab700aaf907002fff070007cabf0098
:10252c000eebb70011c0b300e0b020003fff070076
:10253c0080a02000c6ff070090a02000c4ff070069
:10254c00a0a02000c2ff0700b0a02000c0ff070021
:10255c00c0a02000beff070008cabf000080fb001f
:10256c00900188000ccabf00e14f50000e003600ed
:10257c000000eb00000f7800060037001e0078000a
:10258c0080007800e0a0200000804000b0ff070031
:10259c001e0fe8000ccabf000080fb000000e90021
:1025ac009e0f5000f5ff3c00d0a02000a8ff0700b4
:1025bc0008cabf000080fb00c000dd0009cabf00d4
:1025cc000080fb004800dd00808040000acabf008c
:1025dc000080fb0000804000cf80de00105088009f
:1025ec00215088000bcabf000080fb001007980028
:1025fc001e009000e10f5000040032001e009000fd
:10260c00e20f5000040032000500370010c0b30088
:10261c0006eab70004003700080007000200370084
:10262c0050c5b30007eab7006accbf000004e00055
:10263c00b8ff32000080fa00000006000c00fa001f
:10264c000040eb00004f78001050800021508000bb
:10265c00e00f5000e08f58000d003a0040c0b3006e
:10266c000eeab7000040eb000feab70040c0b30021
:10267c0010eab7000040eb0011eab7000040eb0095
:10268c0012eab7000040eb0013eab7001e00370057
:10269c001250800023508000f03f220001002000e7
:1026ac00800f5100818f59000c003c0012508000ab
:1026bc0023508000f03f200001002000800f5100cb
:1026cc00818f59000500340000c5b30007eab7003c
:1026dc0010c0b300004f78000b0037001250800080
:1026ec0023508000f07f2a0021002000800f510031
:1026fc00818f59000400340000c5b30007eab7000d
:10270c0010c0b300004f78001e04e000ad003a008a
:10271c0006cabf000004e0001600320020042400aa
:10272c00003b880010508000215080008000780011
:10273c000080eb008008bb004e009000500520008c
:10274c00303b8800a00a2000303b880061e7a800dd
:10275c00000000000000000061c7bf0001c8b3000a
:10276c00014060000004e000fbff3a000040eb0079
:10277c0006eab70010508000215080001007980026
:10278c0010002400003b88000040eb0060479800dc
:10279c002d0037006e4090000080fb00e8004000e8
:1027ac0060a0200000804000104078000080fb00fa
:1027bc0020079800ae0090001e0090000188bb001e
:1027cc006e4090000040e800604798006e4090001a
:1027dc000080fb00e800400060a02000008040006a
:1027ec00104078000080fb00200798006e4090009d
:1027fc000040e800604798006e4090000080fb00ad
:10280c00e800400060a020000080400010407800ec
:10281c000080fb00c800dd002e009000010070005d
:10282c00200798006e4090000040e8006047980038
:10283c00ae0090001e0090000108bb001e0090002e
:10284c000080e800100798006e4090008080fb002c
:10285c000ccabf000080fb000000e900808f500014
:10286c00ccff35005e00900050052000303b880006
:10287c00a00a2000303b880061e7a800000000009f
:10288c000000000061c7bf0001c8b3000140600038
:10289c000004e000fbff3a0061c7a9001050800063
:1028ac002150800010079800b0c4b30007eab700ad
:1028bc000040eb00604798003b0037001e00900082
:1028cc001080ba0020079800ae009000f00f200096
:1028dc0000806000200798006e4090000080fb0094
:1028ec00e800400060a0200000804000104078000c
:1028fc008080fb002e009000808f50000200320080
:10290c0060c5b30007eab7006e4090000040e800d5
:10291c00604798001e0090001000ba002007980035
:10292c002e009000004178006e4090000080fb006b
:10293c00e800400060a020000080400010407800bb
:10294c00804f51000200320060c5b30007eab700a7
:10295c006e4090000040e800604798002e00900008
:10296c004880de00004178006e4090000080fb0043
:10297c00e800400060a0200000804000104078007b
:10298c00804f51000200320060c5b30007eab70067
:10299c006e4090000040e800604798001e009000d8
:1029ac000080e800100798006e4090008080fb00cb
:1029bc000ccabf000080fb000000e900808f5000b3
:1029cc00beff35000080fa00000006000000fa008f
:1029dc0014000700cd42a800cd02a900cd22a8000a
:1029ec004300200082c12000c14c2800a04b2800cd
:1029fc000bf8070064f8070001fd0700cd22a900c1
:102a0c006ff8070012ccbf00ff4f5000fcff3600e0
:102a1c00cd22a800a4fe07000000eb000080fa0005
:102a2c00000006000000fa004440a8000000eb0083
:102a3c00a00188000000eb00203a88000000eb00a9
:102a4c009001880080fd270060198800200020007c
:102a5c005019880070022800401688000000eb0016
:102a6c00801688000000eb00c01688000000eb0008
:102a7c00001788000000eb00401788000000eb00f6
:102a8c00801788000000eb00601688000000eb0047
:102a9c00a01688000000eb00e01688000000eb0098
:102aac00201788000000eb00601788000000eb0086
:102abc00a01788004227a9000080fa000000060039
:020000040000fa
:102acc006a0c000002000000020000000000000080
:102adc00000a0000ce0000000000000000200000f2
:102aec0002000000000000006c0c0000020000005e
:102afc000200000000000000580b00006200000003
:102b0c0000000000ce0a00008a0000000000000057
:102b1c00180c000052000000020000000403090021
:102b2c00042a030044006100006e00006700650089
:102b3c00007200006f007500007300002000500050
:102b4c00007200006f007400006f000074007900c8
:102b5c000070000065007300001203004300440085
:102b6c000043000020005400006500007300740056
:102b7c000012030030003000003000003000300044
:102b8c0000300000300031000000000000080000a0
:102b9c000002000000000000ba0b00005e00000004
:082bac00000000000000000021
:020000040000fa
:042bb4000000fe001f
:00000001FF
